:10000000F8FF00201104000015590000BF56000041
:100010001559000015590000155900001559000028
:100020001559000015590000155900001559000018
:100030001559000015590000D1560000BD560000AA
:1000400015590000155900001559000015590000F8
:1000500015590000155900001559000015590000E8
:1000600015590000155900001559000015590000D8
:1000700015590000155900001559000015590000C8
:1000800015590000155900001559000015590000B8
:1000900015590000155900001559000015590000A8
:1000A0001559000015590000155900001559000098
:1000B0001559000015590000155900001559000088
:1000C0001559000015590000155900001559000078
:1000D0001559000015590000155900001559000068
:1000E0001559000015590000155900001559000058
:1000F000155900001559000015590000A5560000BB
:10010000155900001559000015590000A7560000A8
:10011000155900001559000015590000A956000096
:100120001559000015590000155900001559000017
:100130001559000015590000DD560000DF5600007B
:1001400015590000155900001559000015590000F7
:10015000B9560000BB5600001559000015590000A3
:1001600015590000155900001559000015590000D7
:1001700015590000155900001559000015590000C7
:1001800015590000155900001559000015590000B7
:1001900015590000AB56000015590000D356000059
:1001A000D5560000D7560000D9560000DB56000097
:1001B0001559000015590000155900001559000087
:1001C0001559000015590000155900001559000077
:1001D0001559000015590000155900001559000067
:1001E0001559000015590000155900001559000057
:10040000FFFFFFFFFFFFFFFFFFFFFFFFFEFFFFFFFD
:1004100062B64FF000004FF000014FF000024FF0C5
:1004200000034FF000044FF000054FF000064FF0BE
:1004300000074FF000084FF000094FF0000A4FF09E
:10044000000B4FF0000C03F0C3FCFEE730B40300D8
:100450000C0015006A1E002D04D025781D70641C48
:100460005B1CF6E730BC704710B403001400621E3A
:10047000002C02D019705B1CF8E710BC704770B4F8
:1004800003001C000D0000201600721E002E06D076
:1004900020782E78801B6D1C641C0028F4D070BC62
:1004A00070470278002A04D002788A4201D0401CAA
:1004B000F7E700787047F8B504000D00E06A060021
:1004C000AE4232D02079002821D00123320014F12D
:1004D0003001607801F0FCFC002801D0012025E00B
:1004E00000202071206AE169081886420FD2E07866
:1004F0000700FFB2022F0AD3E069861901233200F8
:1005000014F13001607801F0E3FC7F1EF1E7002D6B
:100510000BD001232A0014F13001607801F03DFC7A
:10052000002801D0012001E0E5620020F2BD38B5CD
:10053000040000212000FFF7BEFF0500EDB2002DF2
:100540005ED12078032852D1607900284FD0002056
:10055000E0624FF40072002114F13000FFF784FFD5
:10056000552084F82E02AA2084F82F02522084F805
:100570003000522084F83100612084F8320041209C
:1005800084F83300722084F81402722084F8150273
:10059000412084F81602612084F81702206984F84B
:1005A0001802206980B2000A84F819022069000C40
:1005B00084F81A022069000E84F81B02E06884F8AF
:1005C0001C02E06880B2000A84F81D02E068000C9A
:1005D00084F81E02E068000E84F81F02012362699D
:1005E00014F13001607801F073FC0020607100228A
:1005F0000021607801F000FD002801D001200500F5
:100600002800C0B232BD0200891E9069801E81425E
:1006100001D3002003E09078926A00FB012070472C
:100620002DE9F04104000D00022D02D3A06985429E
:1006300001D3012073E02078012804D06DD3032872
:100640004BD031D369E0A84618EB5808206A10EB6C
:1006500058212000FFF72FFF00285ED14FF40070D3
:10066000B8FBF0F101FB1081081990F8300006008A
:1006700018F10108206A10EB58212000FFF71BFF3A
:1006800000284AD14FF40070B8FBF0F101FB108153
:10069000081990F8300056EA0026E80701D530091D
:1006A00001E03005000D3AE0206A10EB1521200032
:1006B000FFF701FF002830D168004FF40071B0FB54
:1006C000F1F202FB1102101900F2300007007878F5
:1006D000397851EA002080B221E0206A10EBD51170
:1006E0002000FFF7E8FE002817D1A8004FF40071A2
:1006F000B0FBF1F202FB1102101900F2300007000A
:10070000F878B978090451EA0060797850EA012054
:10071000397808430001000901E05FF0FF30BDE8CF
:10072000F0812DE9F84304000D001600022D02D3DC
:10073000A069854202D302208146A6E020780128E4
:1007400005D0C0F09E80032870D050D399E02F00D0
:1007500017EB5707206A10EB57212000FFF7ABFE7D
:1007600081465FFA89F9B9F1000F40F08C804FF4AF
:100770000070B7FBF0F101FB1071081900F23000B6
:1007800080462800C00706D598F8000010F00F003A
:1007900050EA061000E0300088F800007F1C0120BD
:1007A0002071206A10EB57212000FFF784FE81465C
:1007B0005FFA89F9B9F1000F65D14FF40070B7FB0A
:1007C000F0F101FB1071081900F23000804628009A
:1007D000C00701D5300907E098F8000010F0F000DC
:1007E000310A11F00F01084388F800004BE0206A3D
:1007F00010EB15212000FFF75EFE81465FFA89F9B4
:10080000B9F1000F3FD168004FF40071B0FBF1F275
:1008100002FB1102101900F23000804688F80060D7
:10082000300080B2000A88F801002CE0206A10EB4A
:10083000D5112000FFF73FFE81465FFA89F9B9F133
:10084000000F20D1A8004FF40071B0FBF1F202FBC1
:100850001102101900F23000804698F803000006DB
:1008600010F07040064388F80060300080B2000A43
:1008700088F80100300C88F80200300E88F8030078
:1008800001E002208146012020714846C0B2BDE847
:10089000F283F8B504000D00022D02D3A069854251
:1008A00002D3022006002AE000200600A06985424B
:1008B00025D229002000FFF7B3FE0700002F1ED02D
:1008C000012F02D10220060019E017F1010F02D119
:1008D0000120060013E0002229002000FFF721FF7D
:1008E0000600F6B2002E0AD1206910F1010F04D0E3
:1008F0002069401C2061012060713D00D6E7300076
:10090000C0B2F2BD2DE9F84304000D00002D0AD15C
:10091000E0688046B8F1000F02D0A069804511D38D
:10092000012080460EE029002000FFF779FE060036
:10093000022E01D2012051E0A069864201D230008E
:100940004CE0A84647467F1CA069874205D3022099
:100950000700B84501D2002040E039002000FFF731
:100960005FFE0600002E0CD17FF07042390020009F
:10097000FFF7D7FE81465FFA89F9B9F1000F13D16D
:100980000AE016F1010F01D0012E01D1300025E05F
:100990004745D8D1002021E0002D05D03A0029009C
:1009A0002000FFF7BEFE81465FFA89F9B9F1000F1A
:1009B0000AD1E760206910F1010F0ED02069401EB6
:1009C00020610120607108E05FFA89F9B9F1010F37
:1009D00002D15FF0FF3700E001273800BDE8F28365
:1009E000F8B504000D00E580A0680600012E03D0D4
:1009F00020688069864201D302204CE0002E06D197
:100A000020680078032802D12068406A0600002E82
:100A10000ED1E66020680089ADB2854201D3022084
:100A200039E02068406AADB210EB1510206125E076
:100A30002068807880B200010700ADB2BFB2BD422D
:100A400013D331002068FFF7EBFD060016F1010F0C
:100A500001D101201FE0022E03D320688069864265
:100A600001D3022017E0ED1BE7E7E66031002068C4
:100A7000FFF7C9FDADB210EB15102061ADB210202B
:100A8000B5FBF0F101FB1051206810EB411000F2B2
:100A9000300060610020F2BD2DE9F04104000F003C
:100AA000E088401C0600B6B2002E02D02069002863
:100AB00001D104208FE0B6B21020B6FBF0F101FBAB
:100AC0001061002979D12069401C2061E06800286C
:100AD00006D120680089B6B286426ED304207AE03F
:100AE000B6B2300921688978491E084265D1E168AB
:100AF0002068FFF795FD0500022D01D202206AE073
:100B000015F1010F01D1012065E02068806985425F
:100B10004DD3002F01D104205DE0E1682068FFF78C
:100B2000F1FE0500002D01D1072054E0012D01D177
:100B3000022050E015F1010F01D101204BE000210E
:100B40002068FFF7B8FC002801D0012043E04FF4F3
:100B50000072002120683030FFF786FC29002068F1
:100B6000FFF751FD2168C862002080462068807828
:100B70005FFA88F8804512D22068012101710021B6
:100B80002068FFF798FC002801D0012023E02068AE
:100B9000C06A401C2168C86218F10108E6E72068B5
:100BA000C06A5FFA88F8B0EB08002168C862E560A7
:100BB00029002068FFF727FD2061E680B6B21020EB
:100BC000B6FBF0F101FB1061206810EB411000F260
:100BD000300060610020BDE8F081F8B5040000211C
:100BE0002000FFF7FDFE0700FFB2002F02D0380003
:100BF000C0B225E021692068FFF75DFC0700FFB265
:100C0000002F1BD16069060030780500EDB2002D81
:100C100002D10420070011E0F07A000706D40B226D
:100C2000A1693000FFF72BFC002807D0002120002D
:100C3000FFF732FF0700FFB2002FDBD03800C0B251
:100C4000F2BDF8B50400042005002069002822D078
:100C500021692068FFF72FFC0500EDB2002D1AD1A5
:100C60006069070038780600F6B2002E02D1042031
:100C7000050010E0F6B2E52E05D0F6B22E2E02D019
:100C8000F87A000707D500212000FFF705FF0500CF
:100C9000EDB2002DD9D0EDB2002D01D000202061A1
:100CA0002800C0B2F2BDF8B5040000212000FFF713
:100CB00097FE0500EDB2002D19D121692068FFF7DC
:100CC000FAFB0500EDB2002D11D160690078060035
:100CD000F6B2E52E02D0F6B2002E00D107E00121D7
:100CE0002000FFF7D9FE0500EDB2002DE5D0EDB2F2
:100CF000002D16D121692068FFF7DDFB0500EDB25C
:100D0000002D0ED160690700202200213800FFF776
:100D1000ABFB0B22A1693800FFF798FB206801218B
:100D200001712800C0B2F2BD2DE9F34F81B00298E5
:100D3000006883469BF800002F2803D09BF8000032
:100D40005C2802D11BF1010BF4E7019880690700D0
:100D50000B2220213800FFF787FB00200400C0B2DF
:100D6000824681460820804619F80B00050019F1DB
:100D70000109EDB2212D05D3EDB22F2D02D0EDB238
:100D80005C2D07D119EB0B0002990860EDB2212D03
:100D900061D25EE0EDB22E2D01D0C2450DD3B8F187
:100DA000080F02D1EDB22E2D01D0062072E00820EE
:100DB00082460B208046A400D6E7EDB2802D01D3F9
:100DC00054F00304EDB2812D22D3EDB2FF2D1FD2DA
:100DD00019F80B00060019F10109F6B2402E02D3F2
:100DE000F6B27F2E05D3F6B2802E06D3F6B2FF2ED2
:100DF00003D2B8F10100824501D306204AE00AF887
:100E000007501AF1010A0AF807601AF1010AABE764
:100E1000EDB22900DFF8D406FFF743FB002801D02C
:100E2000062037E0EDB2412D05D3EDB25B2D02D2A5
:100E300054F0020408E0EDB2612D05D3EDB27B2D34
:100E400002D254F00104203D0AF807501AF1010AB9
:100E50008AE7042500E00025BAF1000F01D1062041
:100E600018E03878E52801D105203870B8F1080F6E
:100E700000D1A400E4B214F00300012801D155F020
:100E80001005E4B214F00C00042801D155F0080557
:100E9000FD720020BDE8FE8FF0B401F209073D00AD
:100EA0000769002F46D047693B001F7B3A000027A7
:100EB0003E00082E0DD2F75C3C00E4B2202C08D096
:100EC000E4B2052C01D1E5273C002C706D1C761C8A
:100ED000EFE71F7A202F0FD02E272F706D1C0827C9
:100EE0003E000B2E08D2F75C3C00E4B2202C03D06D
:100EF0002C706D1C761CF4E7DF7A0F72DF7F93F89D
:100F00001EC05FEA0C4C5CEA076793F81DC057EA05
:100F10000C2793F81CC05CEA07070F605F7E93F80C
:100F200018C05CEA07278F80DF7D93F816C05CEA63
:100F30000727CF8000272F70F0BC7047F2B5040060
:100F4000009800782F2803D0009800785C2802D100
:100F50000098401C00900020A06000980078202895
:100F600007D200212000FFF73BFD05000020606153
:100F700031E000A92000FFF7D7FE0500EDB2002DFB
:100F800029D12000FFF729FE0500A069C07A0700DB
:100F9000EDB2002D07D0EDB2042D1CD1780701D49D
:100FA0000520050017E0780715D460690600F07A7F
:100FB000C00602D4052005000DE0707D317D51EAA8
:100FC000002080B2F17EB27E52EA012189B251EA5C
:100FD0000040A060CDE72800C0B2F2BD38B50400E3
:100FE0000D0001232A0014F13001607800F0D5FED5
:100FF000002801D003202DE094F82F0294F82E123F
:1010000051EA00204AF6552180B2884201D00220E0
:1010100020E094F8680094F86710090251EA004053
:1010200094F866100843DFF8C814884201D1002004
:1010300010E094F8840094F88310090251EA00400B
:1010400094F882100843DFF8A814884201D10020E8
:1010500000E0012032BD2DE9F74F86B00698D0F8A8
:10106000009099F800003038019001980A2809D2C0
:1010700099F801003A2805D119F102090698C0F83B
:10108000009001E0002001900198002801D00B2081
:10109000F8E10198DFF85C1451F8200082460799C6
:1010A0000860BAF1000F01D10C20EBE19AF80000C2
:1010B000002815D09AF8010000F0FBFF8DF8000021
:1010C0009DF80000C0070BD49DF82000002805D033
:1010D0009DF80000400701D50A20D3E10020D1E1AE
:1010E00000208AF8000001988AF801009AF80100AF
:1010F00000F0A0FC8DF800009DF80000C00701D5AD
:101100000320BFE19DF82000002805D09DF80000D5
:10111000400701D50A20B5E100218B465046FFF774
:101120005DFF0400E4B2012C23D100200600F6B2DA
:10113000002E00D0761EF6B21AEB061000F2EE106A
:10114000029002980079002813D00298C07A029980
:10115000897A090451EA00600299497A50EA01202B
:101160000299097A0843834659465046FFF736FFED
:101170000400E4B2032C01D1012083E1E4B2002C8D
:1011800001D00D207EE19AF83C009AF83B1051EA1C
:1011900000204FF4007180B2884201D00D2071E12F
:1011A0009AF847009AF8461051EA002080B20700EA
:1011B000002F0ED19AF857009AF85610090451EAF8
:1011C00000609AF8551050EA01209AF8541008432C
:1011D0000700CAF81C709AF8400005008AF803005E
:1011E000EDB2012D04D0EDB2022D01D00D2049E168
:1011F000EDB26F439AF83D0005008AF80200EDB2A7
:10120000002D04D0691E2800C0B2084201D00D2074
:1012100038E19AF842009AF8411051EA0020AAF801
:101220000800BAF808001021B0FBF1F202FB11022D
:10123000002A01D00D2025E19AF844009AF84310C5
:1012400051EA002080B20490049800280ED19AF848
:1012500053009AF85210090451EA00609AF85110AC
:1012600050EA01209AF85010084304909AF83F0081
:101270009AF83E1051EA0020ADF80200BDF80200D5
:10128000002801D10D20FDE0BDF8020017FA80F022
:10129000BAF8081010EB11100590049805998842CF
:1012A00001D20D20EEE004980599401A9AF8021038
:1012B000B0FBF1F003900398002801D10D20E1E08C
:1012C00001200400039840F6F671884201D3022001
:1012D000040003984FF6F671884201D303200400FE
:1012E0000398801CCAF81800059810EB0B00CAF888
:1012F0002800BDF802001BFA80F0CAF82000E4B212
:10130000032C1AD1BAF80800002801D00D20B9E04A
:101310009AF85F009AF85E10090451EA00609AF8A2
:101320005D1050EA01209AF85C100843CAF82400C6
:10133000DAF81800800080461CE0BAF8080000289F
:1013400001D10D209EE0DAF820003818CAF82400F8
:10135000E4B2022C04D1DAF818005FEA400809E090
:10136000DAF81800032148439AF8181011F0010127
:1013700011EB5008DAF81C0008F2FF11B0EB512F06
:1013800001D20D207EE05FF0FF30CAF8100000208F
:10139000CAF80C00E4B2032C64D100208AF80500DE
:1013A0009AF861009AF8601051EA00201BFA80F068
:1013B000CAF814000123DAF814201AF130019AF85F
:1013C000010000F0EAFC00284CD19AF82F029AF8AC
:1013D0002E1251EA00204AF6552180B2884241D1AE
:1013E0009AF833009AF83210090451EA00609AF82A
:1013F000311050EA01209AF8301008433E498842E3
:1014000030D19AF817029AF81612090451EA0060CE
:101410009AF8151250EA01209AF814120843374935
:1014200088421FD19AF81F029AF81E12090451EA45
:1014300000609AF81D1250EA01209AF81C12084325
:10144000CAF80C009AF81B029AF81A12090451EA19
:1014500000609AF8191250EA01209AF8181208430D
:10146000CAF810008AF8004025480088401C24492A
:101470000880AAF806000020CAF82C0000208AF88C
:101480000400002009B0BDE8F08F38B504000D005D
:10149000002C06D02078002803D0E088ADB2A84206
:1014A00001D0092007E0607800F003FEC00701D5F5
:1014B000032000E0002032BD0200D2B2012A01D395
:1014C0000B2011E0D2B20B4850F822000300002B91
:1014D00001D000201870002901D000200870D2B27D
:1014E000044840F82210002070470000E45A000031
:1014F000464154003C06FF1F5252614172724161E5
:10150000A00BFF1F2DE9F2438AB004001700002052
:10151000206017F01F0717F0FE0200A90AA8FFF7C6
:101520009AFD050007A80690EDB2002D04D10A9996
:1015300000A8FFF703FD050005980600EDB2002D99
:1015400003D1002E01D1062005001C20074267D0E0
:10155000EDB2002D0BD0EDB2042D03D100A8FFF7A2
:10156000A2FB050057F00807059806000AE0F07A8C
:101570001121084202D00720050003E0780701D5B9
:1015800008200500EDB2002D5AD1380758D500F0DB
:10159000AFFD804686F80E80404680B2000AF073A8
:1015A0005FEA184030745FEA186070740020F072CF
:1015B00000203077002070770020B0770020F0778F
:1015C000707D317D51EA002080B2F17EB27E52EA18
:1015D000012189B251EA004081460020B076002006
:1015E000F07600203075002070750098012101719F
:1015F000B9F1000F24D00098C06A8046494600988F
:10160000FFF747F90500EDB2002D19D10098B9F1A7
:101610000101C16041460098FEF74DFF05000FE053
:10162000EDB2002D0CD1F07AC00602D504200500E1
:1016300006E0B80704D5F07AC00701D507200500F9
:10164000EDB2002D07D1380701D557F020070098DB
:10165000C06AE0612662EDB2002D21D1A771707DD4
:10166000317D51EA002080B2F17EB27E52EA012142
:1016700089B251EA00402061F07FB17F090451EA4C
:101680000060717F50EA0120317F0843E060002054
:10169000A0600020A061009820600098C088A08011
:1016A0002800C0B20BB0BDE8F0832DE9FA4F83B03B
:1016B00004001500DDF80CA0049800210160A18849
:1016C0002068FFF7E2FE8DF804009DF80400002872
:1016D00002D09DF80400D0E0A079000601D50220D8
:1016E000CBE0A079C00701D40720C6E0E068A1687C
:1016F000401A00900098A84201D200980500002DE1
:1017000000F0BA80A0684FF40071B0FBF1F202FB68
:101710001102002A7BD1A068400A21688978491EFD
:10172000084081465FFA89F9B9F1000F1CD1A06821
:10173000002802D12069060004E061692068FEF7F4
:101740006FFF0600022E05D2A07950F08000A07134
:10175000022092E016F1010F05D1A07950F080002F
:10176000A071012089E0666161692068FEF74BFF86
:101770008346BBF1000F05D1A07950F08000A07125
:1017800002207AE05BFA89FB680A8046B8F1000F14
:101790003BD02068807858FA89F1884206D22068C8
:1017A00080785FFA89F9B0EB090080464346DBB2E6
:1017B0005A4651462068407800F0EFFA002805D0DC
:1017C000A07950F08000A071012056E020680079D7
:1017D000002814D02068C06AB0EB0B0040450ED240
:1017E0004FF40072206810F130012068C06AB0EB3D
:1017F0000B004FF4007303FB00A0FEF727FE4FF42D
:10180000007000FB08F007002AE0C4F818B04FF49D
:101810000070A1684FF40072B1FBF2F303FB1213E6
:10182000C01A0700BD4200D22F00A1692068FEF750
:1018300042FE002805D0A07950F08000A071012060
:101840001BE03A00A0684FF40071B0FBF1F303FB1A
:1018500011032068181810F130015046FEF7F6FD0C
:1018600017EB0A0AA0683818A060049800683818B6
:1018700004990860ED1B42E7002005B0BDE8F08F39
:10188000F8B50400A1882068FFF7FFFD0500EDB260
:10189000002D41D1A07980063ED5E1692068FEF790
:1018A0000AFE0500EDB2002D36D1206A0700F87A55
:1018B00050F02000F872E0683877E06880B2000AE3
:1018C0007877E068000CB877E068000EF877206958
:1018D000B876206980B2000AF8762069000C387565
:1018E0002069000C80B2000A787500F001FC060047
:1018F000BE75300080B2000AF875300C3876300EB4
:101900007876A07910F0DF00A071206801210171C4
:101910002068FEF70CFE05002800C0B2F2BD38B505
:1019200004002000FFF7ACFF0500EDB2002D01D14F
:10193000002020602800C0B232BD32B584B004005F
:101940000022210004A8FFF786FB0500EDB2002D60
:1019500034D100A8A06104992000FFF7EFFA050038
:10196000EDB2002D25D16069002817D06069C07ADA
:10197000C00611D56069407D6169097D51EA00208A
:1019800080B26169C97E6269927E52EA012189B2A0
:1019900051EA0040A06001E005200500EDB2002DF5
:1019A00007D12068C088A08000212000FFF718F828
:1019B0000500EDB2042D01D1052005002800C0B2BC
:1019C00005B030BD70B584B004000D00A18820685A
:1019D000FFF75BFD0600F6B2002E27D1002D05D1E2
:1019E00000212000FEF7FCFF06001FE000A8A06118
:1019F0002000FFF726F90600F6B2042E03D10020DE
:101A0000206100200600F6B2002E0FD12900200030
:101A1000FFF742FA00212000FFF73EF80600F6B279
:101A2000042E03D100202061002006003000C0B247
:101A300004B070BD2DE9F04389B00400DFF884766E
:101A4000DFF88486DFF88406C8F80000E4B2002CD2
:101A500001D0012050E1DFF878060078800703D537
:101A6000DFF86C06007847E1DFF8640600780321B0
:101A7000084201D100203FE1B8F1000F03D0D8F8AF
:101A80000000002801D1002036E1DFF84806386068
:101A9000012078600020C8F804000020C8F8080081
:101AA0000020C8F81000002088F80C00002088F8FA
:101AB0000D00DFF82406006850F40030DFF8181637
:101AC0000860002141F2013000F0D2FC002801D072
:101AD000002011E10020009000A941F2033000F045
:101AE000C7FC002801D0002006E10098022808D099
:101AF0000098032805D00098052802D000980628F1
:101B00001DD10098032802D00098062802D1012098
:101B100088F80C0002208DF8040000208DF80500E4
:101B20000020029000208DF80C000020049001A9F4
:101B300041F2023000F09CFC002802D103E00020BA
:101B4000DAE00020D8E003208DF8040000208DF8B2
:101B500005000020029000208DF80C000020049069
:101B600001A941F2023000F083FC002801D00020DE
:101B7000C2E00598000C0004C8F8100009208DF898
:101B8000040000208DF80500D8F810000290002015
:101B90008DF80C000020049001A941F2023000F001
:101BA00067FC002801D00020A6E0089810F4400F40
:101BB0001ED10798C0F3032006009DF81C0010F00A
:101BC000030081460698800D50EA89290698C0F3E3
:101BD000C210050019F101000121AA1C91404843DF
:101BE00001213200093A91404843C8F808000BE04F
:101BF000012088F80D000698C0F31520814619F1E0
:101C000001008002C8F8080007208DF804000020B9
:101C10008DF80500D8F81000029000208DF80C0017
:101C20000020049001A941F2023000F021FC0028BC
:101C300001D0002060E010208DF8040000208DF815
:101C400005004FF40070029000208DF80C00002079
:101C5000049001A941F2023000F00AFC002801D0F2
:101C6000002049E0D8F800000068012837D137206B
:101C70008DF8040000208DF80500D8F810000290BF
:101C800000208DF80C000020049001A941F20230E0
:101C900000F0EEFB002801D000202DE046208DF85A
:101CA000040000208DF805000220029000208DF82D
:101CB0000C000020049001A941F2023000F0D8FB92
:101CC000002801D0002017E00120009000A941F277
:101CD000073000F0CDFB002801D000200CE0DFF839
:101CE000F003007810F0FE00DFF8E4130870DFF86E
:101CF000E003007810F0030009B0BDE8F083F0B411
:101D000002001600DFF8D4030700002F01D10020E5
:101D100041E03868022808D03868032805D03868C0
:101D2000072802D03868082804D1DFF8B403006817
:101D30004007FAD40B00002B2CD0B3F5007F02D95A
:101D40004FF4007400E01C00E01C80080500002D2A
:101D50001ED0DFF89003006810F4E00F0CD0DFF81D
:101D60008403006840F4E00050F02000DFF874C302
:101D7000CCF8000000200EE0DFF8640300680005E6
:101D8000FAD5DFF8640300683060361D6D1EDEE7AB
:101D90001B1BD0E70120F0BC70472DE9F04188B053
:101DA00004000D0090461E00C74FE4B2002C02D183
:101DB000F6B2002E01D1042058E0C5480078C007D3
:101DC00001D5032052E0002D01D104204EE0387BE4
:101DD000002803D14FF4007000FB08F8F6B2012E82
:101DE0001DD111208DF8000000208DF80100CDF8E4
:101DF000048001208DF80800F6B2039600A941F294
:101E0000023000F035FB002829D14FF40071280082
:101E1000FFF775FF002822D0002006001FE01220E7
:101E20008DF8000000208DF80100CDF8048001201D
:101E30008DF80800F6B2039600A941F2023000F0D6
:101E400017FB00280BD1F6B24FF4007000FB06F12F
:101E50002800FFF754FF002801D000200600F6B24A
:101E6000002E01D0012000E00020C0B208B0BDE883
:101E7000F08170B4020013000C00002C25D0B4F5E2
:101E8000007F02D94FF4007500E02500641BE81CB8
:101E90008508002DF1D09348006810F4E00F0AD0B7
:101EA0009048006840F4E00050F010008D4E306023
:101EB0005FF0FF300AE08A4800684005FBD58A4899
:101EC0001E6806601B1D6D1EE3E7012070BC704795
:101ED0002DE9F04188B004000D0090461E007A4FB5
:101EE000E4B2002C02D1F6B2002E01D1042080E031
:101EF00077480078C00701D503207AE0744800785D
:101F0000400701D5022074E0002D01D1042070E0CB
:101F1000387B002803D14FF4007000FB08F8F6B2BC
:101F2000012E1DD118208DF8000000208DF8010031
:101F3000CDF8048000208DF80800F6B2039600A9C1
:101F400041F2023000F094FA002829D14FF40071D8
:101F50002800FFF78EFF002822D0002006001FE097
:101F600019208DF8000000208DF80100CDF80480C4
:101F700000208DF80800F6B2039600A941F2023065
:101F800000F076FA00280BD1F6B24FF4007000FB97
:101F900006F12800FFF76DFF002801D000200600A1
:101FA0000D208DF8000000208DF8010038690190A7
:101FB00000208DF808000020039000A941F20230B3
:101FC00000F056FA002801D0012012E00498474999
:101FD000084201D001200CE0049810F4F850B0F54C
:101FE000106FDDD1F6B2002E01D0012000E00020FC
:101FF000C0B208B0BDE8F0812DE9F04188B004001E
:102000000D001600DFF8C080E4B2002C01D00420DF
:102010004CE0012007002E480078C00701D50320BE
:1020200044E0EDB2002D05D0022D0CD005D3032DD8
:102030000FD037E00020070036E0D8F80800306005
:102040000020070030E04FF40070308000200700CF
:102050002AE009208DF8000000208DF80100D8F852
:102060001000019000208DF808000020039000A9C6
:1020700041F2023000F0FCF9002801D0012015E007
:10208000079810F4400F0AD10698C0F38640401C10
:102090000799090A11F00301491E884030600020A9
:1020A000070001E0042007003800C0B208B0BDE816
:1020B000F0810100C9B2002901D0012001E00448EB
:1020C000007870478C0BFF1F7009FF1F8409FF1FEA
:1020D000E805FF1F585C0000308004408809FF1F9E
:1020E00024100B4030100B4020100B400880D9FF0B
:1020F00000207047F0B580230F245FF0FF3C62465C
:102100005FF0020C6746B7F5807F16D85FF0010CD0
:102110006646112E0FD206FB07FC01FB0CFCBCEB44
:10212000000C6546002D04D4954202D22A003B00E3
:102130003400761CEDE77F00E5E7DFF810CADCF835
:1021400000C03CF0080CDFF804EACEF800C0DFF86D
:10215000FCC9DCF800C0DFF8F8E91EEA0C0C6646A2
:102160005FEAC31C1CF47F4C5CEA060CB4F1010E60
:102170005FEA0E1E1EF0F00E5EEA0C0C5CF4602CA2
:10218000DFF8C8E9CEF800C0DFF8C8C9DCF800C045
:102190005FEA0C7CF8D5DFF8B4C9DCF800C05CF06D
:1021A000080CDFF8A8E9CEF800C0DFF8ACC9DCF80D
:1021B00000C05CF4801CDFF8A0E9CEF800C0F0BDE0
:1021C00038B504000D0000202060DFF88009DFF83A
:1021D0008C190160DFF874090068C001FAD4DFF8D7
:1021E000800900210160DFF87C095FF48131016022
:1021F000DFF8740928210160DFF870095FF0011130
:102200000160DFF86C19DFF86C0900684FF47A722E
:102210005043FFF76FFFDFF83C09006810F0030040
:102220000028F8D1DFF8500940F243410160DFF89F
:102230004C0940F243410160DFF844094FF48861E2
:102240000160DFF8400940F243410160DFF83809DE
:1022500040F243410160DFF8340940F2434101603C
:10226000DFF82C09006850F40030DFF8241908600A
:10227000DFF8E4084FF6FF710160DFF81809DFF8B6
:1022800018190160DFF8C408006850F00060DFF83A
:10229000BC180860DFF8B40800680001FAD4DFF861
:1022A000B4080068C00301D501202060DFF8A80849
:1022B000006850F08000DFF8A0180860002032BDF0
:1022C000DFF89008006840F20731084201D0012091
:1022D00000E00020C0B270470100DFF87C281268DF
:1022E0000A4010000028F8D0704738B50400207864
:1022F00010F03F00DFF8A41851F820000500002D71
:1023000004D12078002801D00120B0E0DFF848088F
:10231000006850F08000DFF840180860DFF83408EB
:102320000068C007FAD46068DFF87418086035F4F4
:1023300040056078800510F440000543607802286D
:1023400001D155F40015607804280DD115F4403002
:10235000B0F5003F04D135F4403555F4403503E085
:1023600035F4403555F40035DFF8F807006880B2E1
:10237000DFF8F0170860E06800281FD015F440303F
:10238000B0F5403F01D055F40015207A002801D067
:1023900055F01005E068022801D355F02005E068EB
:1023A00010F1010F0AD0DFF8BC070068E16850EABD
:1023B0000140DFF8B017086055F00205DFF8E407C8
:1023C00000210160DFF8E0070560DFF8E007FFF7B4
:1023D00083FF01280BD0DFF88007006840F47020ED
:1023E00050F00100DFF87017086001203FE0DFF8CF
:1023F00068070068000609D5DFF85C07006850F040
:102400000110DFF854170860012030E0DFF84807BA
:102410000068C0030AD5DFF84007006850F00110DB
:10242000DFF8341708605FF0FF3020E015F4403F1C
:1024300014D0DFF87C070068206115F44030B0F557
:10244000803F0BD1DFF86C0700686061DFF8680738
:102450000068A061DFF864070068E061DFF8F80653
:10246000006850F00100DFF8F0160860002032BD6F
:102470002DE9F34F8BB05FF00009DDF830A0DFF8F5
:1024800040070400002C02D140F601205BE3DFF896
:1024900034070A900A98002802D140F60B2052E334
:1024A0000A98006809900998002802D140F60B208C
:1024B00049E30B98C01E00F02B83801F00F01D83A2
:1024C00041F2F821401A18D0401E00F0D981401E78
:1024D00000F0E782401E00F0E281401E00F0FC8127
:1024E000401E00F07B82401E00F09B82401E00F0E8
:1024F0004282401E00F04C8221E3DFF8CC1620001F
:10250000FFF75EFE8146B9F1000F40F01B8300200B
:102510000500002006000020070000208DF80100C3
:102520000020804600208DF8000000208DF8040077
:1025300000208DF805000020029000208DF80C008E
:102540000020049001A8FFF7D0FE002802D001204F
:102550008146F7E240F24C4000F03AFB08208DF84B
:10256000040000208DF805004FF4D5700290002083
:102570008DF80C000020049001A8FFF7B6FE8346FA
:10258000BBF1000F08D105980299884202D00120C2
:102590008146D7E20120804601208DF800009DF899
:1025A0000000002800F0F98037208DF8040000209A
:1025B0008DF805000020029000208DF80C0000200E
:1025C000049001A8FFF791FE8346BBF1010F02DBE7
:1025D00001208146B6E2BBF1000F6CD50020060059
:1025E000002005000020804601208DF80400002016
:1025F0008DF80500DFF8D405029000208DF80C005E
:102600000020049001A8FFF770FE002802D00120EE
:10261000814697E2059810F0C040B0F1005F01D10B
:10262000012080460120070027208DF804000020AB
:102630008DF805004FF44060029000208DF80C00EA
:102640000020049001A8FFF750FE002802D00120CE
:10265000814677E20598000ACE2801D1012000E0EA
:102660000020C0B2002800F0988027208DF80400D8
:1026700000208DF805004FF45060029000208DF886
:102680000C000020049001A8FFF72FFE002802D0C4
:102690000120814656E20598000AAA2801D10120AE
:1026A00000E00020C0B2002877D000200700012001
:1026B0008DF8010071E069208DF8040000208DF88C
:1026C00005000020029000208DF80C0000200490EE
:1026D00001A8FFF70AFE002802D00120814631E25E
:1026E000059810F4401F58D0002083460A2000F0BF
:1026F0006FFA1BF1010B37208DF8040000208DF8D4
:1027000005000020029000208DF80C0000200490AD
:1027100001A8FFF7EAFD002802D00120814624E04D
:1027200069208DF8040000208DF805005FFA88F814
:10273000B8F1000F03D0DFF89404029002E05FF4D8
:102740004010029000208DF80C000020049001A899
:10275000FFF7CBFD002802D00120814605E0059857
:10276000002802D4BBF1640FC0DBB9F1000F40F0C8
:10277000E981BBF1640F02DB002080460DE00120FF
:1027800005005FFA88F8B8F1000F06D000208046F7
:102790000598400001D501208046FFB2002F01D0EE
:1027A000072020609DF80100002801D0082020604B
:1027B000F6B2002E01D004202060EDB2002D08D02A
:1027C000022020605FFA88F8B8F1000F01D00320E2
:1027D0002060F6B2002E0BD0EDB2002D08D00520FF
:1027E00020605FFA88F8B8F1000F01D00620206061
:1027F000DFF8840300210160DFF88003002101601D
:10280000DFF87C0300210160DFF87803002101601C
:10281000DFF8740300210160DFF87003002101601C
:1028200009984168DFF84C0300684FF47A7250430E
:10283000FFF760FCDFF8400340F243410160DFF83E
:102840003C0340F243410160DFF834034FF48861F8
:102850000160DFF8300340F243410160DFF82803F4
:1028600040F243410160DFF8240340F2434101603C
:10287000DFF81C03006850F40030C549086061E1CE
:102880005046FFF732FD8346BBF1010F01DB02200A
:102890008146BBF1000F01D50320814652E1BAF118
:1028A000000F02D10C20814615E0A8480068C0093D
:1028B00010F4FF708346A5480068C0F30310401C65
:1028C00000FB0BFBAB4800684FF47A714843B0FB48
:1028D000FBF0CAF8000035E1BAF1000F02D10C207C
:1028E000814647E0DAF80000002802D10C2081463A
:1028F00040E0FFF7E5FC002839D19F480021016046
:102900009E48002101609E48002101609D480021F1
:1029100001609D48002101609C4800210160DAF8B7
:102920000010944800684FF47A725043FFF7E2FBBE
:10293000914840F243410160904840F243410160B8
:102940008F484FF4886101608E4840F24341016036
:102950008D4840F2434101608C4840F243410160A0
:102960008B48006850F400308949086002E040F666
:102970000A208146E6E0BAF1000F02D10C20814620
:1029800005E078480068C004C00CCAF80000D9E02F
:10299000BAF1000F02D10C2081461EE0FFF790FC37
:1029A000002817D1DAF80000B0F5805F02D30C20C0
:1029B000814612E06B480068400B4003694908609B
:1029C00068480068DAF80010C904C90C0843654972
:1029D000086002E040F60A208146B3E0BAF1000F39
:1029E00002D10C2081461BE05F480068C0F3410023
:1029F0008346BBF1000F03D10020CAF800000FE0AE
:102A0000BBF1010F03D10120CAF8000008E0BBF1BF
:102A1000100F03D10220CAF8000001E00520814612
:102A200090E0BAF1000F02D10C20814638E0FFF7A8
:102A300047FC002831D1DAF8000000280AD14A48C2
:102A4000006830F006004849086047484649096870
:102A5000016025E0DAF8000001280CD14248006846
:102A600030F00600404908603F48006850F002001E
:102A70003D49086014E0DAF8000002280AD13A481B
:102A8000006830F006003849086037483649096860
:102A9000016005E00520814602E040F60A208146FB
:102AA00050E0BAF1000F02D10C20814624E0274803
:102AB000006850F000602549086024480068000163
:102AC000FBD425480068000607D52348006850F06D
:102AD000800021490860002020601E480068C00373
:102AE00005D52068002804D10120206001E00020E5
:102AF00020602068CAF8000024E01C20CAF800000A
:102B00000420CAF804004FF41E70CAF8080019E047
:102B10000220FFF7E1FB1048006810F4E00F07D037
:102B20000D48006850F4E0000B490860042081461D
:102B30000948006850F032000749086002E040F69A
:102B40000920814648460DB0BDE8F08F2C100B409F
:102B50000F00F0FF24100B4030100B4000800001EC
:102B6000C0100B4004100B4028100B4044100B40C9
:102B700060CC0500940BFF1F00D0044004D004403B
:102B800008D004400CD0044010D0044014D00440BD
:102B90003080044034100B40B3007F0040540000EC
:102BA00008100B4000100B400C100B4001000E00F1
:102BB00010100B4014100B4018100B401C100B4051
:102BC0008809FF1F8C0BFF1F585C0000000030407D
:102BD0000C49096851F001010A4A11600B4908606B
:102BE0000B4905220A60084901220A600649096862
:102BF0000906FBD50449096849084900024A1160E1
:102C00007047000038800440000004400800044081
:102C1000040004400000000000000000000000006C
:102C200000000000000000F8000000000000003379
:102C30003000000000100C06100C06000000000020
:102C40000000000040C07840C0784000043F040409
:102C50003F040400007088FC08300000001820FFCA
:102C6000211E0000F008F000E018000000211C0305
:102C70001E211E0000F00888700000001E21232481
:102C80001927211010160E0000000000000000009F
:102C900000000000000000E018040200000000072F
:102CA0001820400000020418E00000000040201836
:102CB00007000000404080F0804040000202010F09
:102CC00001020200000000F0000000000101011FED
:102CD00001010100000000000000000080B0700051
:102CE00000000000000000000000000000010101E1
:102CF0000101010100000000000000000030300070
:102D00000000000000000000806018040060180649
:102D10000100000000E010080810E000000F102083
:102D200020100F00001010F8000000000020203FCD
:102D30002020000000700808088870000030282457
:102D400022213000003008888848300000182020F8
:102D500020110E000000C02010F80000000704241D
:102D6000243F240000F80888880808000019212062
:102D700020110E0000E0108888180000000F1120BC
:102D800020110E0000380808C83808000000003F75
:102D9000000000000070880808887000001C2221D4
:102DA00021221C0000E010080810E0000000312281
:102DB00022110F00000000C0C00000000000003021
:102DC0003000000000000080000000000000806073
:102DD00000000000000080402010080000010204F4
:102DE00008102000404040404040400004040404DB
:102DF0000404040000081020408000000020100897
:102E000004020100007048080808F00000000030CB
:102E100036010000C030C828E810E0000718272459
:102E200023140B000000C038E0000000203C230207
:102E30000227382008F8888888700000203F20206A
:102E400020110E00C030080808083800071820209C
:102E50002010080008F808080810E000203F202093
:102E600020100F0008F88888E8081000203F202074
:102E70002320180008F88888E8081000203F200068
:102E800003000000C03008080838000007182020A0
:102E9000221E020008F808000008F808203F21015F
:102EA00001213F20000808F8080800000020203F0A
:102EB0002020000000000808F8080800C08080807A
:102EC0007F00000008F888C028180800203F200173
:102ED0002638200008F8080000000000203F2020CD
:102EE0002020300008F8F800F8F80800203F003FE4
:102EF000003F200008F830C00008F808203F2000FC
:102F000007183F00E01008080810E0000F1020200C
:102F100020100F0008F808080808F000203F2101E1
:102F200001010000E01008080810E0000F18242438
:102F300038504F0008F8888888887000203F2000AB
:102F4000030C302000708808080838000038202161
:102F500021221C00180808F8080818000000203F6B
:102F60002000000008F808000008F808001F2020D2
:102F700020201F000878880000C8380800000738A3
:102F80000E010000F80800F80008F800033C0700F4
:102F9000073C0300081868808068180820302C035C
:102FA000032C30200838C800C83808000000203F33
:102FB0002000000010080808C83808002038262122
:102FC00020201800000000FE020202000000007F26
:102FD00040404000000C30C0000000000000000134
:102FE0000638C00000020202FE000000004040401F
:102FF0007F00000000000402020204000000000044
:1030000000000000000000000000000080808080C0
:1030100080808080000202040000000000000000A8
:103020000000000000008080808000000019242241
:1030300022223F2008F8008080000000003F11207D
:1030400020110E000000008080800000000E112082
:1030500020201100000000808088F800000E112060
:1030600020103F200000808080800000001F22226E
:1030700022221300008080F0888888180020203FDA
:10308000202000000000808080808000006B9494ED
:103090009493600008F8008080800000203F2100A9
:1030A00000203F2000809898000000000020203F72
:1030B00020200000000000809898000000C0808060
:1030C000807F000008F8000080808000203F2402FC
:1030D0002D302000000808F8000000000020203FEC
:1030E000202000008080808080808000203F2000A1
:1030F0003F20003F8080008080800000203F210032
:1031000000203F200000808080800000001F2020E1
:1031100020201F00808000808000000080FFA12010
:1031200020110E000000008080808000000E112021
:1031300020A0FF80808080008080800020203F21B0
:103140002000010000008080808080000033242463
:1031500024241900008080E0808000000000001F0F
:10316000202000008080000000808000001F2020C0
:1031700020103F20808080000080808000010E3081
:103180000806010080800080008080800F300C03E2
:103190000C300F0000808000808080000020312EE5
:1031A0000E312000808080000080808080818E70C1
:1031B0001806010000808080808080000021302C73
:1031C0002221300000000000807C0202000000008C
:1031D000003F404000000000FF0000000000000031
:1031E000FF0000000002027C800000000040403F21
:1031F00000000000000601010202040400000000BB
:10320000000000000821DFF85C25126852F000720F
:10321000DFF850351A6000BFDFF84825126832F039
:103220008062DFF840351A6000BF0A00511ED2B23A
:10323000002A25D0020608D5DFF82825126852F0AA
:103240000062DFF820351A6007E0DFF81825126801
:1032500032F00062DFF80C351A60DFF808251268DA
:1032600052F08062DFF8FC341A6000BFDFF8F4240B
:10327000126832F08062DFF8EC341A604000D4E764
:10328000704700000821DFF8DC24126832F0007279
:10329000DFF8D0341A60DFF8CC24126832F0806294
:1032A000DFF8C0341A600A00511ED2B2002A25D0BD
:1032B000020608D5DFF8AC24126852F00062DFF88D
:1032C000A4341A6007E0DFF89C24126832F0006230
:1032D000DFF890341A60DFF88C24126852F08062B4
:1032E000DFF880341A6000BFDFF87824126832F00B
:1032F0008062DFF870341A604000D4E7704738B558
:1033000004000D00B5F15000C0B2FFF7BBFFE4B2FE
:10331000200950F01000C0B2FFF7B4FF14F00F0006
:10332000FFF7B0FF31BD38B504000D002220FFF7D4
:10333000A9FF2800C0B2FFF7A5FF0720FFF7A2FFF3
:103340002120FFF79FFF2000C0B2FFF79BFF7F20E7
:10335000FFF798FF31BD70B5040000200500EDB205
:10336000082D17D2B5F15000C0B2FFF78BFF012036
:10337000FFF788FF1020FFF785FF00200600F6B258
:10338000802E05D22000C0B2FFF73CFF761CF6E786
:103390006D1CE4E770BD80B2002809D043F22642DC
:1033A00011000A00511E92B2002AFAD1401EF2E723
:1033B000704780B5002301221A21002000F0D6F9C1
:1033C000002301221B21002000F0D0F9002301225C
:1033D0001821002000F0CAF9012301221921002040
:1033E00000F0C4F9DFF87C035FF070610160DFF882
:1033F0007403006850F08060DFF868130860DFF83D
:103400006403006830F08070DFF8581308603220E1
:10341000FFF7C1FFDFF84C03006850F08070DFF861
:1034200044130860AE20FFF72DFF0020FFF72AFFAE
:103430001020FFF727FF4020FFF724FF8120FFF730
:1034400021FFCF20FFF71EFFA120FFF71BFFC820A1
:10345000FFF718FFA620FFF715FFA820FFF712FFC0
:103460003F20FFF70FFFD320FFF70CFF0020FFF7EF
:1034700009FFD520FFF706FF8020FFF703FFD920C3
:10348000FFF700FFF120FFF7FDFEDA20FFF7FAFE5D
:103490001220FFF7F7FEDB20FFF7F4FE4020FFF7D6
:1034A000F1FE2020FFF7EEFE0220FFF7EBFE8D205D
:1034B000FFF7E8FE1420FFF7E5FEA420FFF7E2FE89
:1034C000A620FFF7DFFEAF20FFF7DCFE0020FFF7AE
:1034D00042FF00210020FFF712FF01BD2DE9F84354
:1034E00004000D00160000275FF000085FF00009DF
:1034F0005FFA89F919F80600002842D05FFA89F9C5
:1035000019F8060020380700E4B2792C02D3002015
:1035100004006D1C2900C9B22000C0B2FFF7EFFE05
:10352000002080465FFA88F8B8F1080F0BD2FFB28E
:10353000380150FA88F0DFF83012405CFFF762FE85
:1035400018F10108EEE7691CC9B22000C0B2FFF70C
:10355000D6FE002080465FFA88F8B8F1080F0CD23A
:10356000FFB2380150FA88F0DFF8FC114018007AF9
:10357000FFF748FE18F10108EDE7083419F10109D9
:10358000B6E7BDE8F1837CB504000E00150000A885
:103590000021002206C00838F6B2F600EDB2642021
:1035A00095FBF0F00A2190FBF1F201FB12003030A4
:1035B0008DF800009DF80000302802D120208DF801
:1035C0000000EDB20A2095FBF0F00A2190FBF1F229
:1035D00001FB120030308DF80100EDB20A2095FB9E
:1035E000F0F100FB115030308DF8020025208DF8ED
:1035F000030000AA2100C9B23000C0B2FFF76EFF7D
:1036000073BD2DE9F04104000D001600F6B2FA2E4C
:1036100001D3F9200600F6B20A2096FBF0F007006D
:103620002900C9B22000C0B2FFF77DFE7E20FFF75F
:10363000E9FD8120FFF7E6FD002080465FFA88F86B
:10364000FFB2B8450ED2BD20FFF7DCFDBD20FFF76D
:10365000D9FDBD20FFF7D6FD8120FFF7D3FD18F17E
:103660000108EBE7F6B20A2096FBF0F100FB1160CF
:10367000002807D0F6B20A2096FBF0F100FB11609B
:1036800003280CDA8120FFF7BDFD8120FFF7BAFD8A
:103690008120FFF7B7FD8120FFF7B4FD45E0F6B2CA
:1036A0000A2096FBF0F100FB1160032814DBF6B250
:1036B0000A2096FBF0F100FB116006280CDABD2011
:1036C000FFF7A0FD8120FFF79DFD8120FFF79AFD08
:1036D0008120FFF797FD28E0F6B20A2096FBF0F173
:1036E00000FB1160062814DBF6B20A2096FBF0F10D
:1036F00000FB116009280CDABD20FFF783FDBD2017
:10370000FFF780FD8120FFF77DFD8120FFF77AFD27
:103710000BE0BD20FFF776FDBD20FFF773FDBD2058
:10372000FFF770FD8120FFF76DFD002080465FFAF6
:1037300088F8FFB2D7F1180080450EDA8120FFF734
:1037400061FD8120FFF75EFD8120FFF75BFD812099
:10375000FFF758FD18F10108E9E77E20FFF752FD59
:10376000BDE8F08100F00F40142C0000F8B5040013
:103770000D0016001F00EDB2202D02D2FFB2022F65
:1037800003D324212A4800F059F8EDB2E4B22948C5
:1037900050F82400F6B24FF48071314340F8251000
:1037A000F00705D5F6B2032E02D0F6B2132E0DD1D6
:1037B000E4B2214850F8240040690121A94088431F
:1037C000E4B21D4951F82410486130E0E4B21A48CF
:1037D00050F8240040690121A9400843E4B2164989
:1037E00051F824104861FFB2012F10D1E4B2124801
:1037F00050F8240000680121A94088430121A94014
:103800000843E4B20C4951F8241008600FE0E4B218
:10381000094850F8240000680121A940884300218C
:10382000A9400843E4B2044951F824100860F1BDEE
:10383000E05600000006FF1FEC05FF1F38B504002E
:103840000D002A002100024800F09DFAF9E700BFB0
:103850009455000070B504000D0016003068012872
:1038600002D0022805D00AE02000C0B27168884763
:1038700005E0B0680470B068401CB060FFE72868DD
:10388000401C286070BD2DE9F04704005FF0000A7D
:103890005046A1465FF0000A89F800A019F101091D
:1038A000002A1FD0D1F800A05546002D05D15FF0A9
:1038B000300A89F800A0401C38E0002D36D095FB76
:1038C000F3FA564603FB165A5746002F02D5FF431C
:1038D000313700E03037350089F8007019F10109FF
:1038E000401CEAE7D1F800A0D446BCF1000F05D196
:1038F0005FF0300A89F800A0401C17E0BCF1000F0F
:1039000014D0BCFBF3FAD64603FB1ECAD046B8F16E
:103910000A0F02D218F1300801E018F13708F44616
:1039200089F8008019F10109401CE7E7BDE8F0873C
:103930002DE9F04104000D0016001F00A046A84527
:1039400007DA3A0031003020FFF784FF18F1010850
:10395000F5E7BDE8F0812DE9F04104000D00160007
:103960001F00A046A84507DA3A0031002020FFF7E3
:1039700071FF18F10108F5E7BDE8F0812DE9F24F7C
:1039800092B00400150000200090129883469BF826
:1039900000000590002800F0F2810598252813D03A
:1039A00005980A2805D0220000A90598FFF752FFC4
:1039B00009E0220000A90D20FFF74CFF220000A91A
:1039C0000A20FFF747FFD7E100208146002003903F
:1039D0000398002822D11BF1010B9BF8000020283E
:1039E0000ED0232812D02B2807D02D2802D0302823
:1039F00009D00EE059F00109EAE759F00209E7E7BA
:103A000059F00409E4E759F00809E1E759F0100911
:103A1000DEE7BBF1010B01200390D9E700208246CD
:103A2000002003900398002813D11BF1010B9BF891
:103A3000000005903038092806D80A20059900FBB7
:103A40000A10B0F1300AEDE7BBF1010B0120039041
:103A5000E8E71BF1010B9BF800002E2811D1002094
:103A60000390039800280ED11BF1010B9BF8000076
:103A70003038092800D8F4E7BBF1010B012003908E
:103A8000EFE7BBF1010B1BF1010B9BF800004C2889
:103A900006D0682802D06C2801D002E003E002E0E2
:103AA00001E0BBF1010B1BF1010B9BF8000005903D
:103AB000582875D0622800F0D580632800F01D8159
:103AC000642813D0692811D06E2800F049816F282E
:103AD00000F0BD80702800F0D080732800F01681BF
:103AE000752800F0D58078285AD040E128680690E3
:103AF0002D1D0A23012206A909A8FFF7C4FE07000D
:103B000009A8381806000698002803D52D20029031
:103B10007F1C0FE04846800703D52B2002907F1CB6
:103B200008E04846400703D5202002907F1C01E0B2
:103B300000200290002004904846000711D502980A
:103B4000002804D0220000A90298FFF783FE01207C
:103B50000490230000AA51463800FFF7E9FE5746BB
:103B600012E04846C0070FD4230000AA514638008F
:103B7000FFF7F1FE0298002804D0220000A9029865
:103B8000FFF768FE012004900498002807D10298EE
:103B9000002804D0220000A90298FFF75BFE98E0FD
:103BA000286801902D1D1023002201A909A8FFF704
:103BB0006AFE070009A8381806000020049048464D
:103BC000000716D54846C0060BD5220000A93020B4
:103BD000FFF740FE220000A97820FFF73BFE0120FE
:103BE0000490230000AA51463800FFF7A1FE574673
:103BF0001BE04846C00718D44846C00600D5BF1C85
:103C0000230000AA51463800FFF7A5FE4846C0062B
:103C10000BD5220000A93020FFF71CFE220000A9CE
:103C20007820FFF717FE012004904846C0060DD506
:103C3000049800280AD1220000A93020FFF70AFECC
:103C4000220000A97820FFF705FEBF1C41E028688C
:103C500001902D1D0823002201A909A8FFF713FEDA
:103C600007001FE0286801902D1D0223002201A9F2
:103C700009A8FFF708FE070014E0286801902D1D31
:103C80001023002201A909A8FFF7FDFD070009E0A4
:103C9000286801902D1D0A23002201A909A8FFF719
:103CA000F2FD070009A8381806004846000707D5A6
:103CB000230000AA51463800FFF73AFE574608E0B5
:103CC0004846C00705D4230000AA51463800FFF734
:103CD00042FE3078002806D0220000A93078FFF795
:103CE000B9FD761EF5E74846C00705D5230000AAB2
:103CF00051463800FFF72FFE3EE0287807902D1D33
:103D0000220000A90798FFF7A5FD35E02868804646
:103D10002D1DB8F1000F22D0404600F049F80700F1
:103D20004846C00705D4230000AA51463800FFF7D3
:103D300012FE98F80000002808D0220000A998F888
:103D40000000FFF787FD18F10108F2E74846C007B9
:103D500005D5230000AA51463800FFF7FCFD0BE013
:103D6000286808902D1D08980099016004E0220041
:103D700000A90598FFF76EFD1BF1010B07E60098FF
:103D800013B0BDE8F08F0EB47EB5040001200090A2
:103D90000648019007A805002A00210000A8FFF7A7
:103DA000EDFD060030007EBC5DF810FB055C0000F8
:103DB00001000A000023002A01D1002007E01000C2
:103DC000421C0078002801D05B1CF8E718007047FF
:103DD00080B500F08DFA00F0A7FA00F005FBDFF8DF
:103DE000E803FFF7D0FFDFF8E4030068DFF8E01333
:103DF0004979491CB0FBF1F00090DFF8D00300686E
:103E0000DFF8CC130979491CB0FBF1F3DFF8BC03F0
:103E10000068DFF8BC13C978491CB0FBF1F2DFF889
:103E2000AC030168DFF8AC03FFF7ADFFDFF8A803D0
:103E30000078400703D5DFF8A403FFF7A4FFDFF8FD
:103E400098030078800703D5DFF89403FFF79BFF02
:103E5000DFF884030078C00703D5DFF88803FFF795
:103E600092FFDFF884030078000603D5DFF87C03B7
:103E7000FFF789FFDFF870030078400603D5DFF80D
:103E80007003FFF780FFDFF860030078800603D53A
:103E9000DFF86003FFF777FFDFF84C030078400797
:103EA00003D5DFF85403FFF76EFFDFF83C0300781B
:103EB000800703D5DFF84403FFF765FFDFF8280329
:103EC0000078C00703D5DFF83803FFF75CFFDFF8A1
:103ED0003403FFF758FFDFF83003DFF83013884270
:103EE00004D0DFF82C03FFF74EFF03E0DFF82403D4
:103EF000FFF749FF00F003F800F0BCFCFEE780B5D7
:103F0000DFF814030068000910F0070000280BD048
:103F1000022813D00DD3042819D014D306281ED09C
:103F200019D307281FD022E0DFF8F002FFF72BFF9C
:103F300020E0DFF8EC02FFF726FF1BE0DFF8E402E9
:103F4000FFF721FF16E0B848FFF71DFF12E0B74862
:103F5000FFF719FF0EE0B648FFF715FF0AE0B54876
:103F6000FFF711FF06E0B448FFF70DFF02E0B3488A
:103F7000FFF709FFA848006810F00F00022812D0D0
:103F8000042814D0052816D0062818D007281AD0DF
:103F900008281CD009281ED00A2820D00C2822D09E
:103FA0000E2824D027E0A648FFF7EDFE26E0A5481E
:103FB000FFF7E9FE22E0A448FFF7E5FE1EE0A34874
:103FC000FFF7E1FE1AE0A248FFF7DDFE16E0A14888
:103FD000FFF7D9FE12E0A048FFF7D5FE0EE09F489C
:103FE000FFF7D1FE0AE09E48FFF7CDFE06E09D48B0
:103FF000FFF7C9FE02E09C48FFF7C5FE864800684F
:10400000000B10F00F00002803D0022809D004D3C1
:104010000BE09648FFF7B7FE0AE09548FFF7B3FEBE
:1040200006E09448FFF7AFFE02E09348FFF7ABFECF
:1040300000F06AF891480068000E10F00F000728A1
:1040400006D0092808D00B280AD00F280CD00FE082
:104050008B48FFF798FE0EE08A48FFF794FE0AE0CF
:104060008948FFF790FE06E08748FFF78CFE02E0E4
:104070008648FFF788FE86480068000203D5854819
:10408000FFF781FE1EE07D480068000F002806D083
:10409000072808D009280AD00F280CD00FE07E4846
:1040A000FFF771FE0EE07D48FFF76DFE0AE07C48E9
:1040B000FFF769FE06E07A48FFF765FE02E07948FF
:1040C000FFF761FE78480068000B10F00F0005282C
:1040D00006D0072808D008280AD009280CD00FE0FD
:1040E0007248FFF750FE0EE07148FFF74CFE0AE001
:1040F0007048FFF748FE06E06F48FFF744FE02E015
:104100006E48FFF740FE01BDF8B56D480321017010
:104110006C48002101706C48002101706B4800213F
:1041200001706B48012101706A4880210170694863
:1041300000780006FBD568480078040067480078DE
:104140000500674800780600664800780700FFB25F
:104150000097F6B23300EDB22A00E4B221006248C3
:10416000FFF711FE564803210170564800210170E7
:10417000554800210170554804210170544801211F
:104180000170544880210170524800780006FBD528
:1041900051480078040051480078050050480078E4
:1041A0000600504800780700FFB20097F6B23300CF
:1041B000EDB22A00E4B221004C48FFF7E4FD454887
:1041C000FF210170F1BD000020580000980BFF1F77
:1041D0001C06FF1FE055000000E00740345B0000B4
:1041E000C0580000145C000001E00740445B000080
:1041F000445A00003059000048590000DC580000C3
:10420000205C0000405800000000FF1F000000007C
:104210002C5C0000385C000024800440605C0000DE
:10422000685C0000705C0000785C0000805C00004E
:10423000885C0000905C0000985C0000A0570000C3
:10424000545B0000645B0000745B0000845B000052
:10425000945B0000A45B0000B45B0000C45B000042
:10426000D45B0000E45B000048570000585A00008F
:104270006C5A0000805A0000285600004C80044010
:104280006059000078590000905900006058000003
:1042900050800440F45B0000A8590000C0590000A1
:1042A000D85900008058000000700440945A000063
:1042B000A85A0000BC5A0000D05A0000F85800006C
:1042C00007000240060002400500024004000240D0
:1042D0000F000240000002400B0002400A000240B2
:1042E0000900024008000240C8570000A058000022
:1042F00080B500F009F80A4800884FF6FE710840C2
:104300000749088001BD000072B606484CF22051F2
:10431000018004484DF62811018062B67047000004
:10432000002005400E2005402DE9F843244825498A
:1043300088420DD000208046B8F5826F08D2204810
:10434000204951F8281040F8281018F10108F3E727
:104350001B4800F0FDFA1C4807001C4806001C48DA
:104360000400A01B80464046B0F10108002804D09C
:1043700030783870761C7F1CF5E716488146164861
:104380000500B5EB090080464046B0F10108002861
:1043900005D0002089F8000019F10109F4E70F4861
:1043A0000F49104A531A98464346B3F10108002BAF
:1043B00004D00B780370491C401CF5E7BDE8F1837D
:1043C0000000FF1F00000000E805FF1F405500002F
:1043D000945500003C06FF1FA40BFF1F1004FF1F95
:1043E000685200004054000080B51148006850F445
:1043F00078500F490860962000F0B4FA0D49086023
:104400000C4800684FF47A7148430B4908600A4829
:1044100000680A490968C1F30361491CB0FBF1F067
:10442000074908605FF4E131052000F01DFC01BD83
:1044300038800440980BFF1F940BFF1F44800440FA
:104440009C0BFF1FDFF800F06104FF1FDFF800F096
:10445000DD04FF1FDFF800F03904FF1F70B5040012
:104460006068060014F1010F07D0B6F5F04F04D9CB
:104470003500206880F30888A84770BD020000233B
:1044800000200300DBB20D2B05D2DBB2DBB2585C9F
:1044900098545B1CF6E70120704730B5ADF5197DE7
:1044A000DFF88004002101800DA90020FDF704F849
:1044B0000400E4B2012C13D1DFF86C2403210C209A
:1044C000FFF70CF84FF4FA60FEF782FBDFF85C248C
:1044D00003210020FFF702F84FF4F040FFF7BEFF82
:1044E00030A106A8FDF729FA00282AD100A906A8BC
:1044F000FDF768FA002824D19DF808008006F5D55C
:104500009DF8090000281CD0DFF824140DF10900E3
:1045100000F0D6FC0500002DE8D00DF10901DFF810
:10452000040400881422DFF80C3402FB0030FFF78B
:10453000A5FFDFF8F0030088401CDFF8E8130880CF
:10454000D4E700210020FCF7B7FFDFF8D80300888C
:10455000012810D3DFF8E02303210C20FEF7BEFF73
:104560004FF4FA60FEF734FBDFF8C023032100208C
:10457000FEF7B4FF13E0DFF8C42303210C20FEF79D
:10458000ADFF4FF4FA60FEF723FBDFF8A023032111
:104590000020FEF7A3FF4FF4F040FFF75FFF0DF59B
:1045A000197D30BD000000002DE9F041ADF5167D0C
:1045B0000025002700240AA90020FCF77DFF012226
:1045C000DFF87C0300681421DFF8683301FB003159
:1045D00001A8FCF797FF80460498FA21B0FBF1F0A0
:1045E00005006D086D0000200700D64A00210C2050
:1045F000FEF774FF14F10F0080B2FFF723FF0028CD
:10460000F8D100AB4FF40072CF4901A8FDF74DF887
:1046100080465FFA88F8B8F1000F02D100980028B0
:1046200000D117E1002006004FF40070B6B28642B8
:1046300030D2B6B2C4483258310089B214F10F00FA
:1046400080B2FFF703FF0028F3D13F1D0498874293
:1046500001D304980700B7FBF5F005FB10700028A4
:1046600016D1B7FBF5F000F02DFC0022B74B00F09F
:1046700037FC00F069FD0200D2B206210420FEF7EB
:1046800082FFB7FBF5F2D2B207210D20FEF7B9FF8A
:10469000361DC9E700AB4FF40072AB4901A8FDF726
:1046A00004F880465FFA88F8B8F1000F02D100984C
:1046B000002800D1CEE0002006004FF40070B6B212
:1046C000864231D2B6B2A048325806F2002189B2F1
:1046D00014F10F0080B2FFF7B9FE0028F2D13F1DA0
:1046E0000498874201D304980700B7FBF5F005FB57
:1046F0001070002816D1B7FBF5F000F0E3FB0022A4
:10470000924B00F0EDFB00F01FFD0200D2B206213B
:104710000420FEF738FFB7FBF5F2D2B207210D20D7
:10472000FEF76FFF361DC8E700AB4FF400728649F5
:1047300001A8FCF7BAFF80465FFA88F8B8F1000FCD
:1047400002D10098002800D184E0002006004FF438
:104750000070B6B2864231D2B6B27B48325816F5F6
:10476000806189B214F10F0080B2FFF76FFE00285C
:10477000F2D13F1D0498874201D304980700B7FB8C
:10478000F5F005FB1070002816D1B7FBF5F000F02E
:1047900099FB00226D4B00F0A3FB00F0D5FC02005A
:1047A000D2B206210420FEF7EEFEB7FBF5F2D2B23C
:1047B00007210D20FEF725FF361DC8E700AB4FF49B
:1047C0000072614901A8FCF770FF80465FFA88F823
:1047D000B8F1000F02D10098002800D13AE0002083
:1047E00006004FF40070B6B2864231D2B6B25648D7
:1047F000325816F5C06189B214F10F0080B2FFF78C
:1048000025FE0028F2D13F1D0498874201D3049869
:104810000700B7FBF5F005FB1070002816D1B7FBB9
:10482000F5F000F04FFB0022484B00F059FB00F080
:104830008BFC0200D2B206210420FEF7A4FEB7FBD7
:10484000F5F2D2B207210D20FEF7DBFE361DC8E7D8
:10485000641CCFE601A8FDF762F800210020FCF7F8
:104860002BFE4FF47A70FEF7B3F90DF5167DBDE817
:10487000F081000080B572B600F08CFCFFF7EAFD15
:10488000FEF797FD62B6042000F09BFC002844D19F
:10489000FFF703FE002000F094FC002813D1284805
:1048A0000068401E264908602548006810F1010F85
:1048B00004D11C480088401E214908601B4A03217E
:1048C0000020FEF70BFE012000F07BFC002812D137
:1048D0001B480068401C1A490860194800681149C3
:1048E0000988884202D11648002101600F4A03213D
:1048F0000020FEF7F3FD1248006814210D4A01FB69
:10490000002203210C20FEF7E9FD042000F059FCF1
:104910000028BFD1FFF748FEB5E74FF4F040FFF79E
:104920009DFDB0E7A20BFF1FF45A0000305A0000B3
:10493000505C00004008FF1F045B0000145B000097
:104940006C09FF1F245B00004006FF1F00000440AD
:10495000014908607047000008ED00E0DFF800F052
:104960009905FF1F38B50400E4B2002C00F00E8159
:10497000E4B2200030281ED0322823D0602828D06E
:1049800064282DD06E2832D0782837D07D283CD0AE
:10499000822841D08C2846D096284BD0A02850D0D1
:1049A000AA2855D0B4285AD0C8285FD0E12864D0AE
:1049B000FA2869D06FE0A44818210170A2480021AC
:1049C00041706CE0A048182101709F48012141709E
:1049D00065E09D48182101709B48182141705EE0F8
:1049E00099481821017098481A21417057E096485B
:1049F0001821017094481F21417050E09248132102
:104A0000017091481821417049E08F4813210170CD
:104A10008D481A21417042E08B48132101708A4869
:104A20001C2141703BE088480E210170864812210C
:104A3000417034E084480E21017083481521417093
:104A40002DE081480E2101707F481821417026E039
:104A50007D480E2101707C481B2141701FE07A487F
:104A60000E21017078481E21417018E076480C2113
:104A7000017075481C21417011E073480B210170D1
:104A800071481E2141700AE06F480A2101706E488A
:104A90001F21417003E06420FFF764FFD2E06A4801
:104AA00000218170E4B2652C03D267480021C170F7
:104AB0001FE0E4B2C92C03D263480121C17018E0A1
:104AC0002000C0B240F22D1180B2884203D25E486D
:104AD0000221C1700DE02000C0B240F2911180B2FD
:104AE000884203D258480321C17002E056480F2182
:104AF000C17055485449C9780171E4B21A2C03D2E7
:104B000051480021417141E0E4B2332C03D24E48B8
:104B1000012141713AE0E4B24C2C03D24A4802210F
:104B2000417133E0E4B2652C03D24748032141715F
:104B30002CE0E4B27E2C03D243480421417125E0ED
:104B4000E4B2972C03D24048052141711EE0E4B243
:104B5000B02C03D23C480621417117E0E4B2C92CC5
:104B600003D239480721417110E0E4B2E22C03D2AC
:104B700035480821417109E0E4B2FB2C03D23248E8
:104B80000921417102E030480F2141712E484078DF
:104B9000183080B2322148432B490978491C89B228
:104BA00090FBF1F0050029480021017028480068B9
:104BB00050F08050264908602648007850F0800068
:104BC0002449087024489821017024480078C006C0
:104BD000FBD422480078C0F38100C0B20228F8D18B
:104BE0001948007810F01F001D4908701D48002169
:104BF000017015484379144802791348C178124866
:104C00008078FFF7ABFE1048407810F01F0050F09E
:104C1000400014490870114800788006FBD50F4801
:104C200000784006FBD50C48007810F03F000A4998
:104C300008700A480078C0F38100C0B20328F8D198
:104C40002800C0B232BD00BF1C06FF1F0140064055
:104C50003480044008C0074000400640064006403B
:104C60000440064005400640F0B4C0B2002808D019
:104C700002282CD018D304284FD03BD305285FD06E
:104C800071E0DFF8F8614FF440773760DFF8F061EA
:104C90004FF440773760DFF8EC61366856F4806691
:104CA000DFF8E0713E605EE0DFF8DC614FF44077F2
:104CB0003760DFF8D8614FF440773760DFF8C461C0
:104CC000366856F40066DFF8BC713E604BE0DFF8F2
:104CD000C0614FF440773760DFF8B8614FF4407738
:104CE0003760DFF8A061366856F48056DFF89471BB
:104CF0003E6038E0DFF8A0614FF440773760DFF8BE
:104D00009C614FF440773760DFF87861366856F47D
:104D10000056DFF870713E6025E0DFF884614FF4E3
:104D200040773760DFF87C614FF440773760DFF819
:104D30007861366856F48066DFF86C713E6012E088
:104D4000DFF868614FF440773760DFF864614FF453
:104D500040773760DFF85061366856F40066DFF858
:104D600048713E60FFE7C0B2DFF8486156F8206046
:104D7000F67816F0F306C0B2DFF8387157F82070F5
:104D8000FE70C0B2DFF82C6156F820600027B770C3
:104D9000C0B2002801D1012600E00026C0B20128DF
:104DA00001D1012700E000273E43F6B2002E07D0D4
:104DB000DFF8046136684FF47A777E43350006E009
:104DC000DFF8F86036684FF47A777E4335000E01DD
:104DD000B5FBF6F63200C0B2DFF8D86056F82060B6
:104DE000367816F0E006340092B2160A16F01F0666
:104DF0002643C0B2DFF8BC7057F820703E70C0B2D6
:104E0000DFF8B06056F8206072706E010F01B6FBDB
:104E1000F7F692B2B6EB42163300C0B2DFF89460F8
:104E200056F82060B67A16F0E0063400C0B2DFF81B
:104E3000846056F8206013F01F072743B772C0B292
:104E4000DFF8706056F82060F67856F00C06C0B2B5
:104E5000DFF8607057F82070FE70F0BC7047C0B289
:104E6000DFF8502052F8202012791206F7D5C0B290
:104E7000DFF8402052F82020D171704718C004405C
:104E80001CC00440348004400CB0044010B0044006
:104E90000CC0044008C0044028A004402CA00440DA
:104EA00064D0044060D004402880044024D00440F2
:104EB00020D004402406FF1F940BFF1F9C0BFF1FF4
:104EC00000F0B0B9010000BF09D0B0FA80F188400D
:104ED000C91CC1F58461090501EBD021400570476B
:104EE000F0B540F2FF7581EA030C0CF0004C15EAB6
:104EF00011541DBF15EA1357AC42AF42E5E0BC4167
:104F0000C1F31301C3F31303801A994143F48013CF
:104F100004D2641E4000494180185941C90241EA47
:104F20005051B1FBF3F603FB1611A2FB0675D7EB4C
:104F3000C020A94102D2761E80185941C90241EA17
:104F40005051B1FBF3FE03FB1E11A2FB0E75D7EB14
:104F5000C020A94103D2AEF1010E80185941890247
:104F600041EA9051760546EA8E2EB1FBF3F603FB3B
:104F70001611A2FB0675D7EB8020A94102D2761E3E
:104F800080185941C90241EA50514EEA060EB1FB60
:104F9000F3F603FB1611A2FB0675D7EBC020A9415F
:104FA00002D2761E80185941C90241EA5051B1FB24
:104FB000F3F703FB1711A2FB0735D3EBC020A94180
:104FC00067F100070CBF004247F0010766F3D527E1
:104FD0004FEA1E31B80814F5806412DDBD0775F183
:104FE000004250EB0E5051EB045111F5801F5CBF95
:104FF00041EA0C01F0BD4CF07F6141F0E04100203E
:10500000F0BDBD076D0840EA0E5041F48011D4F1A7
:105010000104B4F120060ADAC4F120060200E040DF
:1050200001FA06F3E1401843B24015430EE0342C78
:1050300013DCC6F1200445EA40056D0820FA06F2AB
:10504000154321FA06F0A1400D43002175F10042FD
:1050500050F1000051EB0C01F0BD00205FEA0C01A3
:10506000F0BDCFB992185B41B3FA83F704BFB2FA2F
:1050700082F6BF190B3FB7F120062FBF02FA06F3E5
:10508000BB40C7F1200622FA06F638BF3343BA40C8
:105090001CB1E419641E33E77F4231F00041B1FADC
:1050A00081F404BFB0FA80F6A4190B3CB4F12006D9
:1050B0002FBF00FA06F1A140C4F1200620FA06F63F
:1050C00038BF3143A0403C1B1AE7AC421ABF05EA87
:1050D0001357AF4212E050EA41061CBF52EA4306A2
:1050E000BFE750EA4107304661461CBF41EA05511F
:1050F000F0BD52EA430C08BFC143F0BD00204FF49D
:10510000001616EB410F98BF16EB430F08BF16EBC6
:10511000410F24BFC14305E016EB430F0CBF6146AE
:105120004CEA0551F0BD50F8041B61B150F8042B56
:10513000D30744BFA9F101039A18002342F8043BA6
:10514000091FFAD1EFE77047F446400D40EAC1204D
:10515000490006D200F00EF8004248BF6FF0004050
:10516000604700F007F84FF0004188428CBF0846C6
:105170004042604740F00040490DA1F58061491C64
:1051800005D4D1F11F0154BFC840C01770474FF07C
:105190000000704710B500200400E4B2052C0FD2C7
:1051A00000230322E4B21D48205C10F01F01E4B28A
:1051B0001A48205CC0B24009FEF7D8FA641CECE73C
:1051C00010BD70B50400E4B21448205CC0B24509BB
:1051D000E4B21248205C10F01F06EDB2104850F8FF
:1051E00025000069F040C00714D40A20FDF7F0FC48
:1051F000EDB20B4850F825000069F040C00709D413
:10520000EDB2074850F825000069F040C007F7D517
:10521000002000E0012070BD000000001406FF1F08
:10522000EC05FF1F38B50C46217831B932BD11F8B5
:10523000013F1578AB4206D0401C217800F008F8F9
:1052400028B10146224612F8013F002BEFD132BDB2
:105250000278C9B28A421AB11CBF10F8012FF9E7CF
:1052600018BF002070470000DFF800F03D38000054
:105270005348B0210170524800780006FBD55048D1
:1052800000783121084201D0012000E00020704761
:105290004C48006850F400204A4908604A480068B9
:1052A00050F4002048490860454800780006FBD5C6
:1052B000434830210170704710B582B00400A4B299
:1052C000E00200904148092101709DF80200404928
:1052D00008709DF801003F4908703F489DF8001094
:1052E0000170FFF7C5FF012801D1012021E0A4B220
:1052F000002C1DD135480621017035480021017070
:1053000034480421017034480C2101703348FF21D6
:1053100001703348FF2101703248FF21017032488B
:10532000FE210170FFF7A4FF012801D1022000E057
:10533000002016BD7CB504000D001600ADB204209F
:1053400095FBF0F101FB1051002903D0952127486E
:10535000FFF78AFF40F60100ADB2854203D39721E3
:105360002248FFF781FFA4B2E00210FA85F0019015
:1053700000961648062101709DF806001449087031
:105380009DF805001349087013489DF8041001703A
:105390009DF80300114908709DF80200104908703B
:1053A0009DF801000F4908700F489DF8001001702A
:1053B000FFF75EFF012801D1022000E0002076BD4A
:1053C0000000024004F0014008F0014007000240E4
:1053D0000600024005000240040002400B000240AB
:1053E0000A0002400900024008000240685600001E
:1053F000F0B4114E366834000F4E366856F47F060E
:105400000D4F3E600E0616F0706656EA00761705E0
:1054100017F470073E431F0417F470273E43074FED
:105420003E6000263500EDB29D4201D26D1CFAE7C8
:10543000014E3460F0BC704700F0014044800440ED
:1054400000000000000000010000090200001A0333
:10545000000000040000020500001A0600001B07FF
:1054600000001A08000009090000090A00001A0BD0
:105470000000DB0C00001A0D000000000000000F0F
:1054800000001A1000001A1100001A12000000009B
:1054900000001A140000000000001A1600001A177D
:1054A00000001A1800001A1900001A1A00001A1B2E
:1054B00000001B1C00001B1D00001A1E0000000045
:1054C00000001A2000001A2100001A2200001A23EE
:1054D00000001A2400001A2500001B2600000227E5
:1054E00000001A280000022900001B2A000000000A
:1054F00000000000000000000000000000000000AC
:1055000000000000000000000000000000001A334E
:1055100000001A3400001A350000000000001A379D
:1055200000001B3800000000000000000000000028
:1055300000001B3C00001B3D0000000000000000BC
:105540000100000000F00F4040F00F4080F00F40DD
:10555000C0F00F4000F10F400090044000A0044054
:1055600000B0044000C0044000D00440110D0F0EF4
:10557000100000000B1F00000009000000A0064002
:1055800000B0064000C0064000D0064000A00E401B
:1055900000B00E40B6CFD1D4B7A2C9FAD4DA257381
:1055A000CEC4BCFEB5C4B5DA2564D0D0A3A10AB67A
:1055B000CFD1D4CCF5BCFEB2BBB3C9C1A2A3ACC79A
:1055C000EBBCECB2E2B4EDCEF3D4ADD2F2A1A309C0
:1055D000A1AAA1AA20627920D2B0BBF00A0A0000D9
:1055E000C4DABACBC6B5C2CAA3BA25644D487A0993
:1055F000D7DCCFDFC6B5C2CA20A3BA25644D487A2E
:105600000A666C6578C6B5C2CAA3BA25644D487AE5
:105610002009666C617368C6B5C2CAA3BA25644D19
:10562000487A0A0A000000000A5468697320766507
:105630007273696F6E206F6620736F667477617224
:105640006520646F65736E2774207265636F676E83
:10565000697A6520746865207265766973696F6E12
:1056600020636F64652E0000433A5C557365727366
:105670005C4D522E57656E5C4465736B746F705C45
:10568000422DB5E7B4C55C7372635C64726976657C
:1056900072735C466C6173685C666C6173682E63E0
:1056A000000000007047704770470748006850F0DE
:1056B000800005490860704770477047704780B5A3
:1056C0000248FEF760FBFBE70000044000580000C2
:1056D0007047704770477047704770477047704712
:1056E000433A5C55736572735C4D522E57656E5C20
:1056F0004465736B746F705C422DB5E7B4C55C7321
:1057000072635C647269766572735C6770696F5C02
:105710006770696F2E6300000A2A2A2A2A64656668
:1057200061756C745F69737220656E74657265640F
:10573000206F6E20766563746F722025642A2A2A92
:105740002A2A0D0A0A0000000A556E7265636F6707
:105750006E697A6564204B696E6574697320706147
:10576000636B61676520636F64652E2020202020B5
:105770002000000010B5084979441C31074C7C44D6
:105780001A34A14206D0081D0A68511888470146FC
:10579000A142F8D110BD00BF580000006400000015
:1057A0000A556E7265636F676E697A6564204B692E
:1057B0006E657469732066616D696C7920646576C5
:1057C0006963652E0A000000466C61736820706191
:1057D00072616D657465722076657273696F6E2093
:1057E00025642E25642E25642E25640A0000000001
:1057F00037F9FFFF680500003C06FF1F00000000AE
:105800000A2A2A2A2AD3B2BCFEC9CFB7C3B4EDCE26
:10581000F32121212A2A2A2A2A0D0A0A000000003F
:105820000A0A0909D2B0BBF06B696E65746973BA74
:10583000CBD0C4B0E5B2E2CAD4B3CCD0F20A0000F7
:105840000AD2B0BBF04B696E65746973BFAAB7A288
:10585000B0E5C6F4B6AFB7BDCABDA3BA000000003C
:10586000455252212120556E646566696E6564203B
:10587000502D666C6173682073697A650A000000B8
:10588000455252212120556E646566696E6564201B
:10589000466C65784E564D2073697A650A000000A3
:1058A000466C6173682076657273696F6E20494437
:1058B0002025642E25642E25642E25640A00000010
:1058C000436F7265204C6F636B7570204576656E13
:1058D000742052657365740A000000004C6F772DC8
:1058E000766F6C74616765204465746563742052DB
:1058F000657365740A000000455252212120556EDF
:10590000646566696E65642052414D2073697A65ED
:105910000A0A000010B504480478E4B221000348E4
:10592000FEF731FA10BD00BF04ED00E0185700008B
:105930005761746368646F6728434F50292052652C
:105940007365740A000000004C6F7373206F66204B
:10595000436C6F636B2052657365740A000000002E
:10596000313238206B4279746573206F6620502D78
:10597000666C617368090000323536206B427974B9
:105980006573206F6620502D666C61736809000096
:10599000353132206B4279746573206F6620502D4B
:1059A000666C61736809000030206B42797465731E
:1059B000206F6620466C65784E564D0A0000000048
:1059C000313238206B4279746573206F6620466CE3
:1059D00065784E564D0A0000323536206B42797498
:1059E0006573206F6620466C65784E564D0A000040
:1059F00000F009F8002801D0FFF7BCFE0020FEF7F8
:105A000039FF00F002F80120704700F001B80000F3
:105A10000746384600F002F8FBE7000080B5C046B4
:105A2000C046024A11001820ABBEFBE72600020068
:105A30002020202020202020202020202020202066
:105A40000000000045787465726E616C2050696ECC
:105A50002052657365740A0053696C69636F6E2028
:105A600072657620312E302020200A0053696C693F
:105A7000636F6E2072657620312E3120200A00007F
:105A800053696C69636F6E2072657620312E322007
:105A9000200A00003332206B4279746573206F66F0
:105AA0002052414D0A0A00003634206B4279746559
:105AB00073206F662052414D0A0A00003936206B70
:105AC0004279746573206F662052414D0A0A0000C6
:105AD000313238206B4279746573206F66205241F1
:105AE0004D0A0A00222A2B2C3A3B3C3D3E3F5B5D8F
:105AF0007C7F000020204E4F20534463616465206A
:105B00002000000046696E64206669726D776172DC
:105B100065000000204E6F206669726D77617265C6
:105B20002000000053797374656D205570646174B2
:105B300061000000536F667477617265205265736F
:105B400065740A00506F7765722D6F6E2052657311
:105B500065740A00333270696E20202020202020D6
:105B600000000000343870696E20202020202020A2
:105B700000000000363470696E2020202020202094
:105B800000000000383070696E2020202020202086
:105B900000000000383170696E2020202020202075
:105BA0000000000031303070696E2020202020205D
:105BB0000000000031303470696E20202020202049
:105BC0000000000031343470696E20202020202035
:105BD0000000000031393670696E2020202020201E
:105BE0000000000032353670696E20202020202011
:105BF00000000000502D666C617368206F6E6C7938
:105C00000A00000010B504002100C9B20520FFF70A
:105C100026F910BD4A5441472052657365740A0045
:105C20004C4C57552052657365740A00666C61735D
:105C300068C6F4B6AF0A00005352414DC6F4B6AF81
:105C40000A000000C046C046C046C046FFF7D0FE6E
:105C50002E42494E000000000000000040787D0107
:105C60000A4B31302D0000000A4B32302D0000006D
:105C70000A4B33302D0000000A4B34302D00000059
:105C80000A4B36302D0000000A4B37302D00000043
:105C90000A4B35302D0000000A4B35332D00000033
:0400000500005C4556
:00000001FF
