:1000000070F7FF1FA92F0000C12F0000C12F0000B3
:10001000C12F0000C12F0000C12F0000C12F000020
:10002000C12F0000C12F0000C12F0000C12F000010
:10003000C12F0000C12F0000C12F0000C12F000000
:10004000C12F0000C12F0000C12F0000C12F0000F0
:10005000C12F0000C12F0000C12F0000C12F0000E0
:10006000C12F0000C12F0000C12F0000C12F0000D0
:10007000C12F0000C12F0000CD1D0000C12F0000C6
:10008000C12F0000C12F0000C12F0000C12F0000B0
:10009000C12F0000C12F0000D12E0000C12F000091
:1000A000C12F0000C12F0000C12F0000C12F000090
:1000B000C12F0000C12F0000C12F0000C12F000080
:1004100080B5012000F0CFFC06490860012000F003
:10042000C2FC022000F0C7FC02498866022000F0EE
:10043000BAFC01BDF8F0FF1F80B500F03FFD00F0F1
:1004400001F801BDF8B58B4800688B4908608A48FF
:1004500000688949C968401A874908608648006869
:10046000322100F0A1FD8449086082484068824939
:1004700048608148406880490969401A7E4948605F
:100480007D484068322100F08FFD7B494860794803
:100490008068794988607848806877494969401A56
:1004A0007549886074488068322100F07DFD72498A
:1004B00088607148406870498968401A6E49C8630D
:1004C0006D4840686C490968401A6B4908646A487D
:1004D000006869498968401A674948646648C06B82
:1004E00001281ADB6448C06B00F0B8FD0022B84B4D
:1004F00000F0CCFD04000D005F484821405E00F094
:10050000ADFD02000B002000290000F081FE00F08C
:10051000F5FE00B25849C86319E05748C06B00F0B7
:100520009DFD0022AB4B00F0B1FD04000D005248D0
:100530004E21405E00F092FD02000B0020002900D9
:1005400000F066FE00F0DAFE00B24B49C8634A488C
:10055000006C01281ADB4848006C00F07FFD002287
:100560009B4B00F093FD04000D0043484A21405E80
:1005700000F074FD02000B002000290000F048FE8E
:1005800000F0BCFE00B23C49086419E03A48006C37
:1005900000F064FD0022904B00F078FD04000D0097
:1005A00035485021405E00F059FD02000B0020004C
:1005B000290000F02DFE00F0A1FE00B22E490864D3
:1005C0002D48406C01281ADB2B48406C00F046FD9A
:1005D0000022824B00F05AFD04000D0026484C21F9
:1005E000405E00F03BFD02000B002000290000F0FF
:1005F0000FFE00F083FE00B21F49486419E01E4858
:10060000406C00F02BFD0022CA4B00F03FFD0400BF
:100610000D0019485221405E00F020FD02000B0041
:100620002000290000F0F4FD00F068FE00B212493D
:1006300048641148C06B052820DA0F48C06B0321BD
:10064000C94388421ADB0C48006C052816DA0A48B0
:10065000006C0321C943884210DBB74800780228A8
:1006600003D0B5480078032808D10020CD49087090
:100670006CE100BF4CF3FF1F78F2FF1FCA48006C0B
:1006800007282DDAC848406C0421C943884227DA7C
:10069000A9480078002803D0A748007802281FD175
:1006A0000220A54908700A20BE490870BE48C06BE8
:1006B00000F0D4FCD3A20CCA00F0E8FCD3A20CCA10
:1006C00000F045FE00F01AFE00B2B7490866B648D1
:1006D000006E6E2800DB39E16E20B349086635E113
:1006E000B148006C07287BDBAF48406C002877D509
:1006F00091480078002807D08F480078012803D05F
:100700008D48007802286BD100208B490870142096
:10071000A4490870A448C06B00F0A0FCA3A20CCAB6
:1007200000F0B4FC04000D009F48C06B00F096FC84
:1007300022002B0000F0AAFC04000D009A48C06BB8
:1007400000F08CFC22002B0000F0A0FC06000F0043
:100750009548C06B00F082FC96A20CCA00F096FC93
:1007600004000D009048C06B00F078FC22002B00C4
:1007700000F08CFC32003B0000F0E9FD04000D00AD
:100780008948C06B00F06AFC8CA20CCA00F07EFCA9
:1007900002000B002000290000F03CFE89A20CCAD8
:1007A00000F0D5FD00F0AAFD00B27F4908667E4842
:1007B000006E6F2803DB6E207B490866C6E07A482E
:1007C000006E002800D4C1E0002077490866BDE033
:1007D0000040754000A074C0009075C00090754046
:1007E0007148C06B042873DB6F48406C00286FD4DD
:1007F00051480078002807D04F480078012803D0DE
:100800004D480078032863D101204B4908701E2011
:10081000644908706448006C00F020FC6BA20CCAAC
:1008200000F034FC04000D005F48006C00F016FC82
:1008300022002B0000F02AFC04000D005A48006C36
:1008400000F00CFC22002B0000F020FC06000F0042
:100850005548006C00F002FC5EA20CCA00F016FCC9
:1008600004000D005048006C00F0F8FB22002B0043
:1008700000F00CFC32003B0000F069FD04000D00AC
:100880004948006C00F0EAFB54A20CCA00F0FEFBE1
:1008900022002B0000F05BFD52A20CCA00F057FDB5
:1008A00000F02CFD00B2404908663F48006E012868
:1008B00003DB00203C49086648E03B48006E6D21A0
:1008C000C943884242DA6D20C043374908663DE09B
:1008D0003548C06B042831DA3348406C02282DDBE0
:1008E00015480078012803D013480078032825D143
:1008F00003201149087028202A4908702A48006CF2
:1009000000F0ACFB39A20CCA00F0C0FB39A20CCA43
:1009100000F01DFD00F0F2FC00B2234908662248F9
:10092000006E6C21C943884210DB6D20C0431E4914
:1009300008660BE000F074C0D1F2FF1F32201949A5
:10094000087019486421405E174908662B480078F2
:1009500001281DD13C20134908702E4800782849F1
:10096000087011486421405E0F49096E401A15282D
:1009700009DA0D486421405E0B49096E401A1321C3
:10098000C943884204DA08486421405E0649086683
:100990000548006E20490880194800781D490870F4
:1009A000F1BD00BFD2F2FF1F78F2FF1F8DEDB5A0A1
:1009B000F7C6A0BEF168E388B5F8E43E03098A1FD4
:1009C00063EEBA3F23DBF97E6ADC4A4048AFBC9A4B
:1009D000F2D79A3E691D554D10750F3FD122DBF9B4
:1009E0007E6ABC3F6666666666764EC060764F1E5F
:1009F000166AD1BF14AE47E17A146AC06FF3FF1FC5
:100A0000D1F2FF1F43AD69DE718AD23FAE47E17A72
:100A100014166A40D3F2FF1FDCF2FF1F38B5040042
:100A20000D00E4B2002C03D0022C55D039D36EE077
:100A3000AB480068802149040143A9480160EDB238
:100A4000002D08D0022D12D00BD3042D1BD014D3AF
:100A5000052D1ED023E08021C900412000F052FD69
:100A60001EE08021C900422000F04CFD18E08021EA
:100A7000C900432000F046FD12E08021C900442057
:100A800000F040FD0CE0C0218900482000F03AFD54
:100A900006E0C0218900492000F034FD00E036E086
:100AA00035E08F4800688021890401438C4801604B
:100AB000EDB2002D02D0012D06D00BE0C02189003F
:100AC0000C2000F01FFD06E0C02189000D2000F081
:100AD00019FD00E01BE01AE0814800688021C9048C
:100AE00001437F480160EDB2002D02D0012D06D0F8
:100AF0000BE0C0218900322000F004FD06E0C02197
:100B00008900332000F0FEFC00E000E0FFE731BD8B
:100B1000FCB583B006000F003900C9B23000C0B286
:100B2000FFF77CFF6F4800686F4948434008019019
:100B30000198000C039900F03AFA04000020050027
:100B4000A4B220002841012801DB6D1CF8E70198C0
:100B5000E840039900F02BFA0400F6B2002E03D00F
:100B6000022E18D00CD321E00498A4B22100491C15
:100B70004843FA21890000F01AFA6946088015E016
:100B80000498A4B22100491C4843642100F00FFAE4
:100B9000694608800AE00498A4B22100491C484331
:100BA000642100F004FA69460880FFE78648F6B23F
:100BB000042171434058FFB208217943401882490B
:100BC000F6B2042272438958FFB208227A43891888
:100BD000C96804229143C1607B48F6B20421714385
:100BE0004058FFB20821794340182821C160774856
:100BF0000068774901407548016074480068C02169
:100C00008904014371480160EDB26907490F08206A
:100C100008436D49F6B20422724389580860A4B2B1
:100C20006948F6B204217143405884606648F6B2C0
:100C3000042171434058FFB20821794340186946A6
:100C40000988016100206049F6B204227243895884
:100C5000486005B0F0BDF8B504000D00160000278F
:100C6000E4B2002C03D0022C03D001D302E001E057
:100C700000E0FFE75448E4B2042161434058806833
:100C80000700002FF6D0E4B2002C03D0022C12D0C3
:100C900009D318E03800401C7043FA21890000F0A5
:100CA00086F900900FE03800401C7043642100F08A
:100CB0007EF9009007E03800401C7043642100F08A
:100CC00076F90090FFE74048E4B2042161434058C0
:100CD000EDB208216943401800990161F1BD00009F
:100CE0003C80044064F3FF1F40420F0070B50400D5
:100CF0000D001600E4B2002C03D0022C11D008D352
:100D000016E03448006880214904014331480160FD
:100D10000EE0304800688021890401432D480160BD
:100D200006E02C4800688021C9040143294801607D
:100D3000EDB2002D0DD12848006880214904A14062
:100D40008843254908608021C9004C2000F0DAFB67
:100D50000FE0EDB2012D0CD11F480068802149043D
:100D6000A14001431C4801608021C9004D2000F0D2
:100D7000C9FBF6B27007400F102101431248E4B2DC
:100D8000042262438058016014480F49E4B20422EF
:100D900062438958886000200B49E4B20422624310
:100DA0008958486070BD0021074AC0B204234343FC
:100DB000D258516070470449C0B2042250430858C9
:100DC000406880B270470000ECF0FF1F04800440D0
:100DD000FFFFFFFC3C8004400C800440FFFF00004C
:100DE00080B55F49082000F009FD5D49092000F049
:100DF00005FD5B490A2000F001FD10210B2000F0E9
:100E0000FDFCC02149000C2000F0F8FCC021490085
:100E10000D2000F0F3FCC02149000E2000F0EEFC94
:100E200000210F2000F0EAFC80210901102000F0D1
:100E3000E5FC80210901112000F0E0FC802109017E
:100E4000122000F0DBFC1021132000F0D7FC4549F4
:100E5000142000F0D3FC4349152000F0CFFC414999
:100E6000162000F0CBFC3F49172000F0C7FC3E499C
:100E7000192000F0C3FC3D491A2000F0BFFC3C499A
:100E80001B2000F0BBFCE72189011E2000F0B6FC0E
:100E9000E72189011F2000F0B1FCC6218901202033
:100EA00000F0ACFC80210901212000F0A7FC01BD6D
:100EB00080B52E491A2000F0A1FC01BD10B5002418
:100EC000002000F0B4FC0400A4B22005000D0004D2
:100ED00028490860A4B220000012F02101402648F1
:100EE0000170012000F0A3FC2249096880B201438F
:100EF00020480160022000F09AFC0400A4B2200502
:100F0000000D00041B494860A4B220000012F0212B
:100F1000014019484170032000F089FC15494968D7
:100F200080B2014313484160042000F080FC0400BB
:100F3000A4B22005000D00040E498860A4B2200070
:100F40000012F02101400C488170052000F06FFC78
:100F50000849896880B201430648816010BD0000DD
:100F6000B03600000110000001F80000011E000072
:100F700009A200004CF3FF1F5CF3FF1FF44600289A
:100F800004D4494200F013F840426047404200292F
:100F900005D45FD000F00BF8404249426047494217
:100FA00000F005F84942604703460B43E6D40022AF
:100FB000030A8B420BD203098B4219D243088B429E
:100FC0002ED2411A00D20146524110467047FF22EC
:100FD00009023FD012068B4205D3121209028B423E
:100FE00001D31212090203098B4219D300E0090A46
:100FF000C3098B4201D3CB01C01A524183098B42F2
:1010000001D38B01C01A524143098B4201D34B01DA
:10101000C01A524103098B4201D30B01C01A52413D
:10102000C3088B4201D3CB00C01A524183088B42C4
:1010300001D38B00C01A524143088B4201D34B00AD
:10104000C01A5241884200D3401A5241CFD20146C1
:101050001046704708B5C046C04608BD010007D518
:10106000F446404200F004F80122D20711436047E1
:1010700042221201D21E004207D002D4521E001892
:10108000FCD5C10A4005120589187047F0B50E005D
:101090005E400125ED072E40B446AE0ADF184C181D
:1010A000F44208D2F7420ED2640D01D07F0D12D166
:1010B00000206146F0BD05D1F74201D87F0D05D172
:1010C0000020C143F0BDFBD1640DF9D00020C14325
:1010D000490549088FE0E419C902DB0229432B4383
:1010E000DB0A460DC00231438E4630B487B295B25A
:1010F0007D432E0CADB2140C7C43A419260C2404A1
:1011000025439CB27C43A419190C7943270CC919B7
:10111000A4B20F043C43090C000C97B247432E0CB9
:10112000BE193543ADB2170C4743360CBF19A6B2F2
:10113000BF193E043543240C3E0C36199FB2474379
:10114000BF19BCB23E0C89191F0C47437F183E04DF
:101150003443390C704680B297B247432E0CBE1907
:101160003543ADB2170C4743360CBF19A6B2BF19B1
:101170003E043543240C3E0C36199FB24743BF1939
:10118000BCB23E0C89191F0C47437F183E04344300
:10119000390C77463F0C90B278432E0C8019060428
:1011A000ADB22E43050CA0B22D18120C7A43501983
:1011B000020C80B2240CA4189AB27A4312191404B7
:1011C0002043120C89181B0C7B43C91830BCEF0A52
:1011D000394203D1B61940414941641E6F12BF0D17
:1011E000E41B0BDBFF19BC4211DA2405002742087F
:1011F000AE417841614166463143F0BD641C05D182
:10120000401C6141CF0201D34908F4E750E75DE794
:10121000F0B40E005E400125ED072E40B446AE0A44
:10122000DF184C18F4423BD2F74241D2640D43D050
:101230007F0D38D0E41BC902DB0229432B43CF0AC0
:10124000DB0A0600B61A9F4104D2641EB6197F411C
:10125000B6185F416812800D24180018844222DA03
:10126000E80C0021B6197F41B61A9F4102D2B61888
:101270005F413F1C40414941F4D3241C21DD24053A
:10128000B6197F41B61A9F4105D33743C607374386
:101290000026012F7041614166463143F0BC704722
:1012A000FCD1F74205D20020C14349054908F3E7C4
:1012B00004D00020C143F1E77F0DFAD00020614641
:1012C000ECE72442FAD1401C61410F03F6D3002021
:1012D000E2E730B4012100220368001D002B0BD08F
:1012E0000468001D0C4202D04D466D1E6419226038
:1012F000241D1B1FF0D0FAE730BC7047F4464A1893
:1013000005D200F00FF801D580174008604700F0C3
:1013100009F80121C907884200D908004042604706
:101320004A1812D2400DC90208430121C9070843D7
:10133000520D40210901521A521C06D452421F324A
:1013400001D4D0407047C017704700207047F0B4F8
:101350000125ED070F005F404FD48B4200D1824240
:1013600005D98446100062468C4619006346DF1892
:101370004C18640D7F0D3AD0661C760537D0E61BFD
:10138000352E34DCDB022B43DB0A0C0DC90229436A
:10139000C912202E0DDB1700203E06D01F00F7419A
:1013A000F3405F400026012A7741C01871410DD2F9
:1013B00017E01700F741F2405740F3415A40B3405D
:1013C000F3405A400026801859410AD3A21C520506
:1013D0000FD0C207012F724117004008CB071843F6
:1013E0004908641C24054208AF4170416141F0BCCA
:1013F0007047641C21050020F9E76B4010E06B404A
:10140000ABE7F742F3D1E943F1E72442EFD1002003
:101410000021ECE7F0B40125ED070F005F40EED4AA
:101420000C00871A9C4105D2C01BA141D21963410F
:1014300069406B40AE0ADF184C18F442E1D2640DEB
:101440007F0DE2D0E61B362ED1DCDB022B43DB0A1C
:10145000A4460C0DC9022943C90A012E28DC04D177
:10146000D6075208DF073A435B08EF0A76429041FD
:10147000994114D039423BD1B61940414941761CBB
:10148000394204D1761C001849413942FAD0B94397
:101490006746B74208D9A41B24052143A7E70042A9
:1014A000EAD13642E8D1A2E7E40AE10700209EE74C
:1014B000202E0BDD203E1F00F340F7415F40012A44
:1014C000002257417E42984191410BE01700F741BD
:1014D000F2405740F3415A40B340F3405A407E42F5
:1014E000904199410A0303D2641EB6194041494113
:1014F0000027641E24054208AE4178416141F0BCDA
:101500007047000010B40D4A126880239B0004004D
:10151000E4B26409A3401343084A1360084AC0B206
:1015200003005B1104246343D258C0B2C306DB0E30
:1015300004246343D15010BC70470000388004403D
:10154000C4F0FF1F80B5A8480068802189040143CA
:10155000A5480160A5480068802189040143A3488B
:1015600001600220C046C046A048006880214904AE
:1015700001439E4801600220C046C0469B48006867
:101580009B490140994801600220C046C0469748E7
:10159000006898490140954801600220C046C04655
:1015A00001BD80B5904800688021890401438E48C0
:1015B00001608E4800688E4901408C48016002201D
:1015C000C046C046894800688021490401438748D5
:1015D00001600220C046C04684480068802189041A
:1015E0000143824801600220C046C04601BD10B5DB
:1015F0007E4800688021490401437C480160022044
:10160000C046C04600200400774800687849014081
:10161000754801607848006801008901C90F0029F8
:1016200001D0012004000220C046C0466F48006877
:10163000704901406D4801606B4800688021890451
:101640000143694801602000C0B210BD80B5664802
:101650000068802189040143634801606348006891
:10166000802189040143614801600220C046C046D0
:101670005E4800688021490401435C480160022003
:10168000C046C046594800685A4901405748016061
:101690000220C046C04601BD80B553480068802185
:1016A0008904014350480160504800685049014096
:1016B0004E4801600220C046C0464C480068802168
:1016C00049040143494801600220C046C0464748DA
:1016D0000068484901404548016001BD38B5040033
:1016E00000200500EDB2082D28DA3F48006880216F
:1016F000890401433C4801603C4800683C49014082
:101700002000C0B2C009C0B2400608433749086093
:1017100036480068802149040143344801600220B2
:10172000C046C04631480068324901402F48016038
:101730000220C046C04664006D1CD3E7FFF757FF88
:1017400031BD38B5082500242800451EC0B2002848
:1017500046D0254800688021890401432248016061
:10176000224800688021890401432048016002204A
:10177000C046C0461D4800681E4901401B48016024
:101780000220C046C0461948006880214904014330
:10179000164801600220C046C0461348006814493C
:1017A000014011480160640013480068010089018C
:1017B000C90F002903D020000124044302E02000C7
:1017C000FE240440094800680A49014007480160B6
:1017D0000548006880218904014303480160B3E79C
:1017E0002000C0B232BD000014F10F4000F10F40E4
:1017F000FFFFFFFDFFFFFFFE10F10F4038B50500B2
:101800000C00FFF79FFE5420FFF768FF2800C0B2CE
:10181000FFF764FF200080B2000AC0B2FFF75EFF4E
:101820002000C0B2FFF75AFFFFF7BBFE31BD38B54D
:1018300004000025FFF786FE5420FFF74FFF20002D
:10184000C0B2FFF74BFFFFF77DFE5520FFF746FFC5
:10185000FFF777FF05002D02FFF71EFFFFF771FF6F
:1018600028430500FFF7F2FEFFF79BFE280080B239
:1018700032BD000070B504000D001600306801286C
:1018800002D0022805D00BE02000C0B27168884762
:1018900006E02000B1680870B068401CB060FFE747
:1018A0002868401C286070BDFFB584B00020060089
:1018B00004980500002028706D1C0698002825D08B
:1018C0000598006801900198002803D13020287005
:1018D000761C3FE0019800283CD001980799FFF75B
:1018E00063FB039001980399079A5143401A07003C
:1018F000002F03D5F8430700313700E03037039855
:101900000190380028706D1C761CE3E7059800688C
:1019100000900098002803D130202870761C19E030
:101920000098002816D000980799FFF740FB029016
:1019300000980299079A5143401A04000A2C01D2D8
:10194000303400E0373402980090200028706D1C7D
:10195000761CE5E7300008B0F0BDF8B507000E00D2
:1019600015003C00B44206DA009A29003020FFF747
:1019700081FF641CF6E7F1BDF8B507000E00150005
:101980003C00B44206DA009A29002020FFF772FFDB
:10199000641CF6E7F1BDF3B595B01400002000908B
:1019A00016980500287802900298002800D1E1E1FD
:1019B0000298252813D002980A2805D0159A69465E
:1019C0000298FFF757FF09E0159A69460D20FFF7C7
:1019D00051FF159A69460A20FFF74CFFC8E1002025
:1019E0000700002005900598002824D16D1C287858
:1019F000202810D0232816D02B2808D02D2802D03C
:101A000030280CD013E0380001270743EBE73800FB
:101A100002270743E7E7380004270743E3E73800D6
:101A200008270743DFE7380010270743DBE76D1E71
:101A300001200590D7E7002001900020059005982F
:101A4000002812D16D1C287802900298303809289D
:101A500007D801980A21484302994018303801906C
:101A6000EDE76D1E01200590E9E76D1C28782E2812
:101A70000ED100200590059800280AD16D1C287809
:101A80003038092800D8F6E76D1E01200590F2E7EE
:101A90006D1E6D1C28784C2806D0682802D06C2852
:101AA00001D002E002E001E000E06D1E6D1C28782C
:101AB00002900298582872D0622800D1CCE06328A6
:101AC00000D116E1642813D0692811D06E2800D106
:101AD00042E16F2800D1B4E0702800D1C7E073283C
:101AE00000D110E1752800D1CCE0782857D03AE138
:101AF0002068241D09900A23012209A90CA8FFF7D8
:101B0000D3FE06000CA8801908900998002803D578
:101B10002D200490761C0DE0B80703D52B200490EF
:101B2000761C07E0780703D520200490761C01E09E
:101B30000020049000200690380712D50498002851
:101B400004D0159A69460498FFF794FE0120069088
:101B5000159B6A4601993000FFF7FFFE01980600C9
:101B600011E0F8070FD4159B6A4601993000FFF782
:101B700003FF0498002804D0159A69460498FFF7DB
:101B800079FE012006900698002807D104980028C5
:101B900004D0159A69460498FFF76CFE92E020681D
:101BA000241D03901023002203A90CA8FFF77CFE3C
:101BB00006000CA88019089000200690380716D55A
:101BC000F8060BD5159A69463020FFF753FE159A93
:101BD00069467820FFF74EFE01200690159B6A4665
:101BE00001993000FFF7B9FE0198060018E0F807E8
:101BF00016D4F80600D5B61C159B6A46019930002C
:101C0000FFF7BAFEF8060BD5159A69463020FFF7A4
:101C100031FE159A69467820FFF72CFE01200690C8
:101C2000F8060DD5069800280AD1159A6946302085
:101C3000FFF720FE159A69467820FFF71BFEB61CB9
:101C400040E02068241D03900823002203A90CA86B
:101C5000FFF72AFE06001FE02068241D03900223E0
:101C6000002203A90CA8FFF71FFE060014E020685D
:101C7000241D03901023002203A90CA8FFF714FED3
:101C8000060009E02068241D03900A23002203A90E
:101C90000CA8FFF709FE06000CA880190890380769
:101CA00008D5159B6A4601993000FFF756FE01984A
:101CB000060007E0F80705D4159B6A460199300035
:101CC000FFF75AFE08980078002809D0159A69464F
:101CD00008980078FFF7CEFD0898401E0890F1E7BD
:101CE000F80705D5159B6A4601993000FFF744FEB9
:101CF0003EE02068241DC0B20A90159A69460A98F1
:101D0000FFF7B8FD34E02068241D079007980028ED
:101D100021D0079800F048F80600F80705D4159B75
:101D20006A4601993000FFF727FE079800780028DF
:101D300009D0159A694607980078FFF79BFD079828
:101D4000401C0790F1E7F80705D5159B6A460199F5
:101D50003000FFF711FE0BE02068241D0B90009867
:101D60000B99086004E0159A69460298FFF782FD16
:101D70006D1C17E6009817B0F0BD0EB47EB50500D7
:101D8000012000900748019007A8060032002900B2
:101D90006846FFF700FE0400200003B0039970BC02
:101DA00004B00847D92F000000B501000A00002345
:101DB000002A01D1002008E010000200521C007827
:101DC000002801D05B1CF7E7180000BDF8B572B61B
:101DD000022000F045F99C4908719B48006864287E
:101DE00000DBF4E0984800799749974A126889180F
:101DF000887195480068401C9349086092480068C3
:101E0000292800DA93E090488F4909684018233860
:101E10000078FF2800D08AE08B488B490968401879
:101E200022380078552800D081E087488649096823
:101E3000401821380078AA2879D183488249096856
:101E4000401820380078102871D100207F49087090
:101E50007D480068293805002C007B480068401E3A
:101E6000844209DA79480078774909198979401854
:101E700076490870641CF0E7744800787249724A29
:101E800012688918497988424DD100200400092C34
:101E900047DA6D480421614369184018807A80212F
:101EA00049044843684904226243AA188918C97A38
:101EB0008022520251434018634904226243AA1807
:101EC0008918097B80225200514340185E49042240
:101ED0006243AA188918497B401806008020000632
:101EE000864203D35A48801B070000E037003800C1
:101EF000FFF7B4F8574A08236343D21803C2083ADD
:101F0000544808216143401803C80022524BFFF790
:101F10007FF9504A08236343D21803C2083A641C6D
:101F2000B5E700F059F800204749086052E04648FC
:101F3000006807284EDB4448434909684018401EA2
:101F40000078FF2846D140483F490968405C552841
:101F500040D13D483C49096840184078AA2839D109
:101F600039483949096840188078772832D10020EB
:101F70003649087034480068C01F05002C003248FC
:101F80000068401E844209DA304800782E49091959
:101F9000897940182D490870641CF0E72B480078B7
:101FA0002949294A12688918497988420BD126485B
:101FB00025490968401801792348234A1268801886
:101FC000C07800F00EF800201F49086002E00020F1
:101FD0001D49086062B6F1BD80B5022000F07EF8B0
:101FE00001BD38B505000C00E4B22000062816D06B
:101FF000072815D0082814D0092813D00A2812D091
:102000000B2811D00C2810D064280FD065280ED0D2
:10201000662810D067280FD068280ED010E00FE097
:102020000EE00DE00CE00BE00AE009E008E0002023
:102030000A49087004E003E002E001200749087043
:10204000022000F04BF831BDE0F2FF1F4BF3FF1F01
:10205000FFFFFF7F30F2FF1F0000F0406EF3FF1F15
:1020600000B50100154A1648C9B204234B43C018F5
:10207000001F0368C9B2002904D110798006FCD57D
:10208000D07903E018798006FCD5D87900BD10B569
:102090000A4A0B4BC0B2042444431B191B1F1B6884
:1020A000C0B2002804D114792406FCD5D17103E014
:1020B0001C792406FCD5D97110BD000000A0064093
:1020C000F42F000080B500220121632000F010F8F9
:1020D00000220121802000F00BF801BD0021034AFD
:1020E0001180014908707047C0F0FF1F6CF3FF1F9B
:1020F00070B504000D0016002D48E4B2210049110E
:10210000042251434058E4B2E106C90E042251436F
:10211000802252004250EDB2012D1BD12548E4B27D
:10212000210049110422514340582249E4B22200BF
:10213000521104235A43895849690122E306DB0EF0
:102140009A400A4342613100C9B22000C0B200F097
:1021500017F814E01748E4B2210049110422514352
:1021600040581449E4B22200521104235A438958BA
:1021700049690122E306DB0E9A409143416170BD3B
:1021800030B40C4AC0B203005B1104246343D2583C
:1021900013680122C406E40EA2401A43054BC0B2E4
:1021A0000400641104256C431B591A6030BC70474D
:1021B000C4F0FF1FD8F0FF1FAA2040007449088018
:1021C000AA20400073490880FF205A3072490880D5
:1021D000724873490880734873490880734874498A
:1021E000088074487649C860734875490861734827
:1021F0007349486100207449724A03C2083A0020BA
:102200007149724A03C2083A00207249704A03C2F7
:10221000083A00206F49704A03C2083A00206F490B
:102220006F4A03C2083A002000216E4A03C2083AEE
:102230006DA003C86E4A03C2083A55207A49088047
:10224000704780B55E48006EFEF708FF694A03C21A
:10225000083A63480CC80838664803C8FEF716FFFA
:10226000664A03C2083A634803C8634A0CCAFFF7C8
:10227000D1F85F4A0CCAFEF709FF604A0CCAFFF7A3
:1022800066F85E4A03C2083A5A4803C85A4A03C26B
:10229000083A5A4803C85F4A03C2083A5D4803C86F
:1022A0000022574B00F0C6F804D800205449594A80
:1022B00003C2083A574803C852A20CCA00F0D3F828
:1022C00004D200205149534A03C2083A5048D4214D
:1022D000405EFEF7C3FE4F4A0CCAFFF79BF8FFF7BC
:1022E0000DF84B4988804A48D421405EFEF7B6FE7F
:1022F000484A0CCAFFF72BF8FFF700F84B49088053
:1023000001BD80B5FFF79DFF00F00DF9404A106C4C
:10231000516C0122414B00F08DF804D800203F4958
:102320003D4A03C2083A3A4A106C516C002200231D
:1023300000F099F804D200200021374A03C2083A7D
:10234000374803C80122354B00F074F804D8002048
:102350003249334A03C2083A314803C800220023F5
:1023600000F081F804D2002000212D4A03C2083A6F
:102370001348006E2B49884204DA1148006E2C493C
:10238000884202DA0320FFF7A9FE00F085F801BDBC
:10239000C0F2FF1FC2F2FF1FC4F2FF1FB6FEFFFF15
:1023A000C6F2FF1FA7FEFFFFC8F2FF1FB1FEFFFF2F
:1023B000CAF2FF1F2BD400008E9B000023F2000006
:1023C00078F2FF1F00F1FF1F0000E83F68F1FF1FD8
:1023D00008F1FF1F0000FC3F70F1FF1F0000E03F0D
:1023E000D0F1FF1FD8F1FF1FFCA9F1D24D62403F91
:1023F000E0F1FF1F10F2FF1F18F2FF1F00F2FF1F96
:1024000000805140FFFFFFFFFF7F51C0008051C09F
:10241000F8F0FF1F08F2FF1F38F1FF1F00408F4048
:10242000A0F1FF1FDC050000CCF1FF1F64F1FF1FCE
:1024300025FAFFFF30B4012464054D00EC420BD8AF
:102440005D00EC4208D80C001C43640004431443B4
:1024500004D28B4200D1824230BC7047FCD09942FA
:10246000FAD19042F8E730B4012464054D00EC4203
:102470000BD85D00EC4208D80C001C4364000443F8
:10248000144304D2994200D1904230BC7047FCD032
:102490008B42FAD18242F8E780B55C4A106C516CED
:1024A00001225B4BFFF7C6FF04D800205849594A68
:1024B00003C2083A584803C80122554BFFF7BAFF38
:1024C00004D800205249544A03C2083A4F4A106CBB
:1024D000516C00220023FFF7C6FF04D20020002128
:1024E0004C4A03C2083A4C4803C800220023FFF7B5
:1024F000BAFF04D200200021474A03C2083A434AE7
:10250000106C516CFEF70CFF020000210020FEF75A
:10251000A2FB414803C8FEF703FF0200032100208D
:10252000FEF799FB01BD10B5FDF772FF3748042196
:10253000405E36490968401AFEF790FD374A03C2EB
:10254000083A32486C21405E3049896E401AFEF7E5
:1025500085FD334A03C2083A2C4A906CD16C2B4C4F
:10256000226D636DFEF756FF2E4A0CCAFEF78EFDF4
:102570002D4A03C2083A2D480CC80838234CA06CD9
:10258000E16CFEF783FD284A0CCAFEF7E0FE264AFE
:1025900003C2083A224803C8254A0CCAFEF73AFF8C
:1025A0001A4C226F636FFEF771FD224A03C2083A8C
:1025B0001648826FC36F1A4803C8FEF767FD1D4AAD
:1025C0000CCAFEF7C4FE1B4A03C2083A0F4A906CBD
:1025D000D16C194A03C2083A114803C8144A03C20D
:1025E000083A0A48026C436C0F4803C8FEF7AFFE76
:1025F000084A03C2083A08480CC808380D4803C8FE
:10260000FEF7A5FE044A03C2083A10BDF8F0FF1F0A
:1026100000408F4038F1FF1FA0F1FF1F40F1FF1F66
:10262000A8F1FF1F00F1FF1F30F1FF1F08F1FF1F8E
:10263000B0F1FF1F98F1FF1F48F1FF1F80B5012285
:1026400000214720FFF754FD012200214820FFF719
:102650004FFD012200214920FFF74AFD0122002100
:102660004A20FFF745FD012200214B20FFF740FDE6
:10267000FF20001D53498968C861FF20001D514992
:1026800089680862FF20001D4E4989684862FF2062
:10269000001D4C4989688862FF20001D49498968EE
:1026A000C86201BD80B54848006801000906C90F2D
:1026B000002914D14548006808218843434908602F
:1026C0004348016832204143012000F0BDF83F48F3
:1026D0000068082101433D480160012070E03A484C
:1026E00000680100C905C90F002914D137480068E6
:1026F0000821884335490860354801683220414344
:10270000012000F0A1F831480068082101432F485A
:102710000160042054E02C48006801008905C90FBD
:10272000002914D1294800680821884327490860F6
:102730002748016832204143012000F085F82348F2
:1027400000680821014321480160032038E01E4849
:10275000006801004905C90F002914D11B48006811
:10276000082188431949086019480168322041430B
:10277000012000F069F8154800680821014313485A
:10278000016002201CE01048006801000905C90F23
:10279000002914D10D480068082188430B490860BE
:1027A0000B48016832204143012000F04DF80748F2
:1027B00000680821014305480160052000E0002071
:1027C00002BD0000C4F0FF1F90F00F40C0F00F40AA
:1027D00068F3FF1F38B505000C00494800688021E8
:1027E0000904014346480160002046490860601E14
:1027F0004549EDB210226A4388504348EDB210219A
:1028000069434018C068012101433F48EDB21022DE
:102810006A438018C1603C48EDB2102169434018FA
:102820008068012188433849EDB210226A43891833
:10283000886003203449EDB210226A438918886009
:10284000162000F06EF831BD10B52D4A12688023B5
:102850001B0413432A4A13602A4A126802239A432C
:10286000284B1A60284AC0B210234343D2189268FA
:1028700001239A43244BC0B2102444431B199A608D
:102880004A1E214BC0B2102444431A511E4AC0B202
:1028900010234343D218D268012313431A4AC0B20B
:1028A000102444431219D360174AC0B21023434383
:1028B000D218926801239A43134BC0B210244443A8
:1028C0001B199A600122104BC0B2102444431B19FB
:1028D0009A600D4AC0B210234343D218D268D2077F
:1028E000F7D5094AC0B210234343D218D268012356
:1028F0001343054AC0B2102444431219D36010BDDB
:102900003C80044000700340007103402848006888
:10291000042188432649086030BF70472549086074
:10292000704770B50400212C03DB2348FFF725FA1C
:1029300015E022480568012620002021FEF734FB1F
:102940008E402E431D4806601D4805680126200064
:102950002021FEF729FB8E402E431948066070BDEA
:10296000F8B507000E0000240025212F04DB1548D0
:10297000FFF703FA01200400042E04DB1248FFF7DE
:10298000FCF901200400E4B2012C0ED0380004212F
:10299000FEF70AFB05000D48EDB20421694340181B
:1029A00000903000800100990870F1BD0000000027
:1029B00010ED00E008ED00E0302E000080E200E0C5
:1029C00000E100E0F42D0000742D000000E400E0C0
:1029D00000B508213F4A1268082313433D4A13609B
:1029E0003C4A126804239A433A4B1A600A00511E6B
:1029F000D2B2002A1DD0020606D5364A126802233A
:102A00001343344A136005E0324A126802239A43A2
:102A1000304B1A602F4A1268042313432D4A136067
:102A200000BF2C4A126804239A432A4B1A604000C4
:102A3000DCE700BD00B50821264A126808239A4346
:102A4000244B1A60234A126804239A43214B1A60CC
:102A50000A00511ED2B2002A1DD0020606D51D4A18
:102A60001268022313431B4A136005E0194A1268D7
:102A700002239A43174B1A60164A12680423134321
:102A8000144A136000BF134A126804239A43114B7F
:102A90001A604000DCE700BD38B500200400E4B255
:102AA000082C16DA20005038C0B2FFF7C3FF01200F
:102AB000FFF7C0FF1020FFF7BDFF00200500EDB2BB
:102AC000802D04DA0020FFF783FF6D1CF7E7641CFC
:102AD000E5E731BD00F10F4000B52F480068F8214F
:102AE000890101432C4801602C48007840210143B2
:102AF0002A4801702A4800784007FBD5284800780A
:102B0000C006FBD527480078FD210140254801700B
:102B100025480078BF2101402348017021480078F2
:102B2000022101431F4801701E4800780121014322
:102B30001C480170194800780221014317480170B0
:102B400000201A490870C0208002194908601948FD
:102B50000068194901401748016018480068C02101
:102B60000903014315480160042015490860144811
:102B70000068FA218900484312490860114800683A
:102B80000B490968090C4907490F491CFEF70FFA60
:102B90000D49086000BD00BF388004400040064079
:102BA00006400640014006400540064008400640F9
:102BB0004480044004800440FFFFFEFF0070044096
:102BC00064F3FF1F60F3FF1F68F3FF1F80B53448F5
:102BD00000782021014332480170324800784021BA
:102BE00001433048017030480078C0B20428FAD15F
:102BF000FFF768FA2D480068012101432B48016066
:102C00002B48006808218843294908600023294A85
:102C100000210020FDF77CFF0023264A012100202F
:102C2000FDF776FF0023234A02210020FDF770FF05
:102C30000023204A03210020FDF76AFF0022002123
:102C40000120FEF753F8002201210220FEF74EF882
:102C5000012201219820FFF74BFA0122012199203E
:102C6000FFF746FAFEF7BCF8FEF722F9FFF7E6FC9D
:102C700000211620FFF774FE0F480168142041431D
:102C80000020FFF7A7FD0948006801218843074994
:102C9000086007480068082101430548016001BD3C
:102CA00000E0074001E0074003E0074000F10F406B
:102CB000C0F00F408813000068F3FF1FF0B583B029
:102CC0002248234988420DD000200400C02C09D29C
:102CD0001F480421614340581C4904226243885024
:102CE000641CF3E71948FFF719FE1A4807001A4851
:102CF00005001A4801900198401B04002000441E62
:102D0000002804D0287838706D1C7F1CF6E7144822
:102D10000600144800900098801B04002000441E08
:102D2000002803D000203070761CF7E70E480F49CA
:102D30000F4A531A1C0023005C1E002B04D00B7892
:102D40000370491C401CF6E7F7BD00BF00F0FF1FF1
:102D500000000000C0F0FF1F682E0000A02E000041
:102D6000F8F0FF1F70F3FF1F70F3FF1FFC2F000030
:102D7000FC2F00000A4552522120496E76616C6991
:102D800064207072696F726974792076616C756500
:102D90002070617373656420746F207072696F7244
:102DA000697479206972712066756E6374696F6EDB
:102DB000210A000080B5FFF775FC022802D100F05F
:102DC00004F801E000F010F801BD80B50548016885
:102DD000FA20800041430120FFF736FD0020FFF775
:102DE0007DF901BD68F3FF1F80B50120FFF776F97B
:102DF00001BD00000A4552522120496E76616C697E
:102E000064204952512076616C756520706173733E
:102E1000656420746F207072696F726974792069BB
:102E200072712066756E6374696F6E210A0000000E
:102E30000A4552522120496E76616C6964204952DC
:102E4000512076616C7565207061737365642074C0
:102E50006F20656E61626C65206972712066756EA7
:102E60006374696F6E210A00040000000090044042
:102E700000A0044000B0044000C0044000D0044062
:102E800000F00F4040F00F4080F00F40C0F00F40C6
:102E900000F10F40008003400090034000A0034079
:102EA0000A2A2A2A2A64656661756C745F697372DE
:102EB00020656E7465726564206F6E20766563743C
:102EC0006F722025642A2A2A2A2A0D0A0A00000085
:102ED00080B50848006801210143064801600648A2
:102EE0000088401C04490880FDF7A6FAFFF709FA9C
:102EF00001BD00BF0C7103406CF3FF1F10B5074903
:102F000079441831064C7C44163404E0081D0A68E4
:102F1000891888470100A142F8D110BD08000000BF
:102F200014000000AFE3FFFF78020000F8F0FF1F7D
:102F30000000000080B572B6FFF748FEFFF73AFFC9
:102F4000FFF73AF9FFF7A8FD62B6FFF7DFFCFCE7F1
:102F500080B5002004490860FFF7B0FEFFF7BCFD14
:102F6000FFF7E8FFFEE700BF008104400120C046F4
:102F7000002801D0FFF7C2FF0020C046C046FFF77F
:102F8000D9FF00F000F880B500F002F801BD0000A4
:102F90000746384600F002F8FBE70000202109034D
:102FA00026311820ABBEF9E70020002100220023C3
:102FB000002400250026002762B6FFF7C9FFFEE7C0
:102FC00080B5034801680348FEF7D7FE01BD000045
:102FD00004ED00E0A02E000010B504002100C9B2ED
:102FE0000020FFF754F810BDC046C046C046C0469A
:0C2FF000FFF7BCFF00B0064000C0064028
:0400000500002FE9DF
:00000001FF
