S01800004E58505F706F77657263746C5F4B36302E7372656337
S11300002019FF1F110400002104000051470000C3
S1130010210400002104000021040000000000006D
S113002000000000000000000000000021040000A7
S11300302104000000000000210400004D550000D0
S113004095480000AB480000C1480000D7480000B4
S1130050ED48000003490000194900002F49000041
S1130060454900005B4900007149000087490000D0
S11300709D490000B3490000C9490000DF49000060
S113008021040000210400002104000021040000D8
S113009021040000210400002104000021040000C8
S11300A02104000021040000A13C00004B3D00009D
S11300B0F53D00002104000021040000210400009B
S11300C02104000021040000210400002104000098
S11300D02104000021040000210400002104000088
S11300E02104000021040000210400002104000078
S11300F0210400005321000021040000832100009A
S113010021040000B321000021040000E3210000C9
S113011021040000132200002104000043220000F7
S113012021040000B7320000C132000021040000A5
S11301302104000021040000490D0000530D0000BB
S11301405D0D000021040000D150000000000000FB
S1130150574C00006D4C0000834C0000994C00008B
S1130160E14E0000210400002104000021040000ED
S113017021040000210400002104000021040000E7
S113018021040000210400002104000021040000D7
S113019021040000794B000021040000571C0000DA
S11301A0691C00007B1C00008D1C00009F1C0000CB
S11301B021040000210400002104000021040000A7
S11301C02104000021040000210400002104000097
S11301D02104000021040000210400002104000087
S11301E05B4700005B4700005B4700005B47000083
S11304100148804701480047354600002954000040
S113042004F09BB90FB43EB59DF81C000F2108429F
S113043004D13521DFF8A80800F0CEFC0698DFF8D7
S1130440A41888420AD100200500DFF89C0800683F
S113045050F08070DFF89018086021E00698DFF80B
S11304608C1888420AD101200500DFF87C08006856
S113047050F00070DFF87018086011E00698DFF89B
S1130480701888420AD102200500DFF86808006865
S113049050F08070DFF85C18086001E0002052E042
S11304A09DF81C00C0070AD506A984B068461C2222
S11304B000F09EFC0FBC00F0A9F804002BE09DF8AE
S11304C01C0080070AD506A984B068461C2200F0E7
S11304D08FFC0FBC00F04CF904001CE09DF81C00DC
S11304E040070AD506A984B068461C2200F080FCA7
S11304F00FBC00F007FC04000DE09DF81C00000791
S113050009D506A984B068461C2200F071FC0FBC12
S113051000F016FC0400E4B2012C12D10C9800285F
S11305200FD00C98DFF8D017EDB241F825009DF8F4
S11305302C00012805D10698006850F04000069967
S113054008602000C0B23EBC5DF814FB2DE9F843FE
S113055005000E0017009846089C42F2117087426D
S113056004D3C121DFF8780700F036FC4246D2B24A
S11305703100C9B2280000F04AF9002801D1002056
S11305801BE0E4B2242C02D142F21070C71BA8680D
S113059000900098401C00FB07F042F21071B0FB81
S11305A0F1F08146E4B2F6B215EBC600C460F6B2CF
S11305B015EBC600C0F810900120BDE8F283F8B531
S11305C004000D00160042F21170864204D3F92192
S11305D0DFF80C0700F000FCEDB214EBC500C068B6
S11305E0400702D542F21070861BA0680090009864
S11305F0401C00FB06F042F21071B0FBF1F0070062
S1130600EDB214EBC50007610120F2BD0FB42DE972
S1130610F84FDDF830800D9800909DF838909DF8E3
S113062039A0DDF828B0B8F1000F05D140F2A721B8
S1130630DFF8AC0600F0D0FB5FFA8AFABAF1400F9B
S113064005DB4FF42A71DFF8980600F0C5FBDFF8EC
S1130650180700680400444501D2002084E080208B
S113066000FB08F0B4FBF0F005004FF6FF70854284
S113067079D2072007002E00402000FB08F0B4FBCD
S1130680F0F005004FF6FF70854248D206200700BF
S11306902E005FEA4810B4FBF0F005004FF6FF703F
S11306A085423CD2052007002E005FEA0810B4FB07
S11306B0F0F005004FF6FF70854230D204200700A9
S11306C02E005FEAC800B4FBF0F005004FF6FF709F
S11306D0854224D2032007002E005FEA8800B4FB81
S11306E0F0F005004FF6FF70854218D20220070093
S11306F02E005FEA4800B4FBF0F005004FF6FF70EF
S113070085420CD2012007002E00B4FBF8F005004E
S11307104FF6FF70854202D2002007002E00002011
S1130720CBF800000020CBF804000020CBF84C00EC
S1130730CBF808605FFA89F95FEA891010F0C0000D
S11307405FFA8AFA1AF03F010843CBF86800009870
S1130750CBF86400FFB217F0070050F00800CBF8A4
S11307600000012000E00020BDE8F20F5DF814FB5A
S11307700FB4F8B59DF82B500C9E069FEDB2082DD2
S113078005DB4FF43F71DFF8580500F025FBC0206E
S1130790C7F8840000203860002078600020F864E6
S11307A00020B8607FF00100C7F880000020B8671F
S11307B03868EDB215F0070151F0080108433860BC
S11307C0386830F020003860300000281BD0DFF893
S11307D01405874202D1002004000FE0DFF80C0565
S11307E0874202D10120040008E0DFF804058742B3
S11307F002D10220040001E0002005E0DFF8F80443
S1130800E4B240F824600120F2BC5DF814FB10B49B
S11308100300DFF8E804834240F00D81C9B20029E7
S11308200FD002294BD02BD3042900F0868065D346
S1130830062900F0C080C0F09F80072900F0DA800C
S1130840F7E0D2B2032A0AD1DFF82005006830F4B9
S1130850E06050F44070DFF8144520600FE0D2B23D
S11308603D2A0AD1DFF80805006830F4E06050F44E
S11308708060DFF8FC44206001E000202DE22BE2E0
S1130880D2B2042A0AD1DFF8EC04006830F4E06044
S113089050F44070DFF8DC4420600FE0D2B23E2A0E
S11308A00AD1DFF8D404006830F4E06050F48060CA
S11308B0DFF8C444206001E000200EE20CE2D2B272
S11308C0052A0AD1DFF8B404006830F4E06050F47B
S11308D04070DFF8A84420600FE0D2B23F2A0AD16A
S11308E0DFF89C04006830F4E06050F48060DFF8C6
S11308F09044206001E00020EFE1EDE1D2B2062A4D
S11309000AD1DFF88004006830F4E06050F44070ED
S1130910DFF8704420600FE0D2B2402A0AD1DFF839
S11309206804006830F4E06050F48060DFF85844F4
S1130930206001E00020D0E1CEE1D2B2072A0AD142
S1130940DFF84804006830F4E06050F44070DFF8E9
S11309503C4420600FE0D2B2602A0AD1DFF83004B0
S1130960006830F4E06050F48060DFF824442060D4
S113097001E00020B1E1AFE1D2B2002A0AD1DFF8F0
S11309801404006830F4E06050F44070DFF804446C
S113099020600FE0D2B2612A0AD1DFF8FC030068BC
S11309A030F4E06050F48060DFF8EC43206001E054
S11309B0002092E190E1D2B2012A0AD1DFF8DC03EF
S11309C0006830F4E06050F44070DFF8D0432060F9
S11309D00FE0D2B2622A0AD1DFF8C403006830F40F
S11309E0E06050F48060DFF8B843206001E000204C
S11309F073E171E1D2B2022A0AD1DFF8A8030068D8
S1130A0030F4E06050F44070DFF8984320600FE069
S1130A10D2B2632A0AD1DFF89003006830F4E060B0
S1130A2050F48060DFF88043206001E0002054E14E
S1130A3052E1002051E1DFF8C802834240F0BD805A
S1130A40C9B20800002807D0012832D008285DD098
S1130A50092800F08680AEE0D2B2082A0AD1DFF875
S1130A604C03006830F4E06050F44070DFF83C431D
S1130A7020601DE0D2B20C2A0AD1DFF834030068EA
S1130A8030F4E06050F44070DFF8244320600FE05D
S1130A90D2B2202A0AD1DFF81C03006830F4E060E7
S1130AA050F44070DFF80C43206001E0002014E1B2
S1130AB012E1D2B2092A0AD1DFF8FC02006830F44C
S1130AC0E06050F44070DFF8F04220601DE0D2B2E4
S1130AD00D2A0AD1DFF8E402006830F4E06050F433
S1130AE04070DFF8D84220600FE0D2B2212A0AD148
S1130AF0DFF8CC02006830F4E06050F44070DFF8B6
S1130B00C042206001E00020E7E0E5E0D2B2082A1C
S1130B100AD1DFF89802006830F4E06050F4C06055
S1130B20DFF8884220601BE0D2B20C2A08D1DFF83B
S1130B308002006850F4E060DFF8744220600FE047
S1130B40D2B2202A0AD1DFF86C02006830F4E060E7
S1130B5050F4C060DFF85C42206001E00020BCE09B
S1130B60BAE0D2B2092A0AD1DFF84C02006830F4A4
S1130B70E06050F4C060DFF8404220601BE0D2B275
S1130B800D2A08D1DFF83402006850F4E060DFF881
S1130B902C4220600FE0D2B2212A0AD1DFF82002D1
S1130BA0006830F4E06050F4C060DFF81442206064
S1130BB001E0002091E000208FE04D48834240F0A6
S1130BC08980C9B20800002806D0012823D008284B
S1130BD040D009285DD07BE0D2B20A2A0AD1DFF8DE
S1130BE0E401006830F4E06050F44070DFF8D44170
S1130BF020600FE0D2B2322A0AD1DFF8CC010068BB
S1130C0030F4E06050F44070DFF8BC41206001E053
S1130C10002062E060E0D2B20B2A0AD1DFF8AC0116
S1130C20006830F4E06050F44070DFF8A0412060C8
S1130C300FE0D2B2332A0AD1DFF89401006830F40D
S1130C40E06050F44070DFF88841206001E000204B
S1130C5043E041E0D2B20A2A0AD1DFF86801006811
S1130C6030F4E06050F4C060DFF8584120600FE0D9
S1130C70D2B2322A0AD1DFF85001006830F4E060C1
S1130C8050F4C060DFF84041206001E0002024E01F
S1130C9022E0D2B20B2A0AD1DFF83001006830F426
S1130CA0E06050F4C060DFF8244120600FE0D2B26D
S1130CB0332A0AD1DFF81801006830F4E06050F4F8
S1130CC0C060DFF80C41206001E0002005E003E093
S1130CD0002002E0002000E0012010BC704700006A
S1130CE018530000008003403C80044000900340FF
S1130CF000800B40308004401808FF1F0080034030
S1130D00009003400FB49DF81210009A506D50F0FB
S1130D10010050650020D064002050604FF6FF7041
S1130D209060D2F88000C9B20843C2F88000D2F8BB
S1130D30800050F00100C2F88000012004B0704728
S1130D400FB4002004B0704780B522480068804783
S1130D5001BD80B51F484068804701BD80B51D486E
S1130D608068804701BD00001804FF1F0C900440F8
S1130D7004B004401090044008B0044014900440AF
S1130D800CB004401890044010B004401C9004407F
S1130D9010C004400090044014C004400490044077
S1130DA018C00440089004401CC004402090044033
S1130DB03090044000A00440249004403490044047
S1130DC004A004402890044048A004402C9004400F
S1130DD04CA004401808FF1F38B504000D002A0079
S1130DE02100024800F0DFFAFEE700BF985300003C
S1130DF0103A07D330B4B1E83810103AA0E83810EC
S1130E00F9D230BC530724BFB1E80810A0E8081099
S1130E1044BF51F8043B40F8043BD20724BF31F8E7
S1130E20022B20F8022B44BF0B7803707047083A5A
S1130E3007D3B1E80810083A40F8043B40F804CB63
S1130E40F7D25307E4E750F8041B61B150F8042BC0
S1130E50D30744BFA9F101039A18002342F8043BC5
S1130E60091FFAD1EFE7704770B504000D001600B2
S1130E703068012802D0022805D00AE0200040B2E0
S1130E807168884705E0B0680470B068401CB060C1
S1130E90FFE72868401C286070BD2DE9F047040076
S1130EA05FF0000A5046A1465FF0000A89F800A0EE
S1130EB019F10109002A1FD0D1F800A05546002DD0
S1130EC005D15FF0300A89F800A0401C38E0002DFD
S1130ED036D095FBF3FA564603FB165A5746002FB5
S1130EE002D5FF43313700E03037350089F8007010
S1130EF019F10109401CEAE7D1F800A0D446BCF17D
S1130F00000F05D15FF0300A89F800A0401C17E0FB
S1130F10BCF1000F14D0BCFBF3FAD64603FB1ECA87
S1130F20D046B8F10A0F02D218F1300801E018F1E6
S1130F303708F44689F8008019F10109401CE7E7F5
S1130F40BDE8F0872DE9F04104000D0016001F00F4
S1130F50A046A84507DA3A0031003020FFF784FFA5
S1130F6018F10108F5E7BDE8F0812DE9F04104002E
S1130F700D0016001F00A046A84507DA3A0031000C
S1130F802020FFF771FF18F10108F5E7BDE8F081B3
S1130F902DE9F24F92B00400150000200090129841
S1130FA083469BF9000001900198002800F0F78126
S1130FB00198252813D001980A2805D0220000A9F9
S1130FC00198FFF751FF09E0220000A90D20FFF767
S1130FD04BFF220000A90A20FFF746FFDCE10020B6
S1130FE08146002004900498002822D11BF1010BB3
S1130FF09BF9000020280ED0232812D02B2807D0DC
S11310002D2802D0302809D00EE059F00109EAE772
S113101059F00209E7E759F00409E4E759F008092F
S1131020E1E759F01009DEE7BBF1010B0120049060
S1131030D9E700208246002004900498002814D1A7
S11310401BF1010B9BF9000001900198303809282D
S113105006D80A20019900FB0A10B0F1300AECE727
S1131060BBF1010B01200490E7E71BF1010B9BF995
S113107000002E2811D100200490049800280ED1DD
S11310801BF1010B9BF900003038092800D8F4E764
S1131090BBF1010B01200490EFE7BBF1010B1BF145
S11310A0010B9BF900004C2806D0682802D06C285C
S11310B001D002E003E002E001E0BBF1010B1BF10F
S11310C0010B9BF9000001900198582875D0622803
S11310D000F0D580632800F01F81642813D06928AC
S11310E011D06E2800F04C816F2800F0BD8070286C
S11310F000F0D080732800F01981752800F0D580A5
S113110078285AD043E128682D1D06900A2301222D
S113111006A909A8FFF7C1FE070009A838180600A8
S11311200698002803D52D2003907F1C0FE05FEA6A
S1131130897003D52B2003907F1C08E05FEA497077
S113114003D5202003907F1C01E0002003900020A1
S113115005905FEA097011D50398002804D0220095
S113116000A90398FFF780FE01200590230000AA40
S113117051463800FFF7E6FE574612E05FEAC970B1
S11311800FD4230000AA51463800FFF7EEFE03985F
S1131190002804D0220000A90398FFF765FE01206F
S11311A005900598002807D10398002804D0220050
S11311B000A90398FFF758FE98E028682D1D0290B7
S11311C01023002202A909A8FFF767FE070009A857
S11311D038180600002005905FEA097016D55FEA0A
S11311E0C9600BD5220000A93020FFF73DFE220084
S11311F000A97820FFF738FE01200590230000AAFB
S113120051463800FFF79EFE57461BE05FEAC9705F
S113121018D45FEAC96000D5BF1C230000AA514658
S11312203800FFF7A2FE5FEAC9600BD5220000A9CF
S11312303020FFF719FE220000A97820FFF714FEE2
S1131240012005905FEAC9600DD5059800280AD1F0
S1131250220000A93020FFF707FE220000A9782011
S1131260FFF702FEBF1C41E028682D1D02900823F1
S1131270002202A909A8FFF710FE07001FE0286852
S11312802D1D02900223002202A909A8FFF705FEE2
S1131290070014E028682D1D02901023002202A9E3
S11312A009A8FFF7FAFD070009E028682D1D029040
S11312B00A23002202A909A8FFF7EFFD070009A8E5
S11312C0381806005FEA097007D5230000AA5146C2
S11312D03800FFF737FE574608E05FEAC97005D4C7
S11312E0230000AA51463800FFF73FFE96F900009C
S11312F0002807D0220000A996F90000FFF7B4FDEA
S1131300761EF3E75FEAC97005D5230000AA5146AB
S11313103800FFF72AFE3FE028682D1D40B20790F1
S1131320220000A90798FFF79FFD35E028682D1DCE
S11313308046B8F1000F22D0404600F049F807007B
S11313405FEAC97005D4230000AA51463800FFF7AC
S11313500CFE98F90000002808D0220000A998F992
S11313600000FFF781FD18F10108F2E75FEAC97098
S113137005D5230000AA51463800FFF7F6FD0BE01F
S113138028682D1D089000980899086004E0220040
S113139000A90198FFF768FD1BF1010B01E6009815
S11313A013B0BDE8F08F0EB47EB5040001200090A8
S11313B00648019007A805002A00210000A8FFF7AD
S11313C0E7FD060030007EBC5DF810FB39550000D7
S11313D001000A000023002A01D1002008E01000C7
S11313E0421C90F90000002801D05B1CF7E71800AC
S11313F07047000000B587B0DFF8B00601905FF0D9
S1131400F85002900020039001208DF81000012074
S11314108DF811000020059001A984B068461422BB
S1131420FFF7E6FC0FBC00F055FB07B000BD000061
S113143038B50400082501221B21DFF8700600F0EE
S1131440F9FB00221821DFF8640600F0F3FB280002
S1131450451EC0B200281DD0200606D50122192140
S1131460DFF8480600F0E6FB05E000221921DFF86A
S11314703C0600F0DFFB01221821DFF8300600F003
S1131480D9FB00BF00221821DFF8200600F0D2FBB0
S11314906400DCE731BD000038B5040008250022F3
S11314A01B21DFF8080600F0C5FB00221821DFF835
S11314B0FC0500F0BFFB2800451EC0B200281DD06B
S11314C0200606D501221921DFF8E00500F0B2FB61
S11314D005E000221921DFF8D40500F0ABFB01225E
S11314E01821DFF8C80500F0A5FB00BF0022182171
S11314F0DFF8B80500F09EFB6400DCE731BD38B5C9
S113150004000D00B5F15000C0B2FFF7C5FFE4B20E
S1131510200950F01000C0B2FFF7BEFF14F00F0016
S113152050F00100C0B2FFF7B7FF31BD70B5040041
S113153000200500EDB2082D17DAB5F15000C0B255
S1131540FFF7AAFF0120FFF7A7FF1020FFF7A4FF72
S113155000200600F6B2802E05DA2000C0B2FFF7A4
S113156067FF761CF6E76D1CE4E770BD38B5002014
S11315700400E4B2082C16DAB4F15000C0B2FFF74C
S11315808BFF0120FFF788FF1020FFF785FF002065
S11315900500EDB2802D04DA0020FFF749FF6D1C31
S11315A0F7E7641CE5E731BD80B2002809D04FF4A9
S11315B07A5211000A00511E92B2002AFAD1401E3A
S11315C0F2E7704780B5FFF715FF01221821DFF815
S11315D0DC0400F02FFB00221C21DFF8D00400F013
S11315E029FB00221A21DFF8C40400F023FB322077
S11315F0FFF7DAFF01221A21DFF8B00400F01AFB2A
S1131600AE20FFF749FF0020FFF746FF1020FFF749
S113161043FF4020FFF740FF8120FFF73DFFCF202D
S1131620FFF73AFFA120FFF737FFC820FFF734FF89
S1131630A620FFF731FFA820FFF72EFF3F20FFF77A
S11316402BFFD320FFF728FF0020FFF725FFD5202D
S1131650FFF722FF8020FFF71FFFD920FFF71CFFB1
S1131660F120FFF719FFDA20FFF716FF1220FFF72A
S113167013FFDB20FFF710FF4020FFF70DFF2020B2
S1131680FFF70AFF0220FFF707FF8D20FFF704FF93
S11316901420FFF701FFA420FFF7FEFEA620FFF7AA
S11316A0FBFEAF20FFF7F8FE0020FFF73FFF00210D
S11316B00020FFF724FF01BD2DE9F843040089460B
S11316C01500002600275FF00008B5F12000060091
S11316D0E4B2792C03DB0020040019F10109494626
S11316E0C9B22000C0B2FFF70AFF00200700FFB212
S11316F0082F0ADADFF8C403F6B2310151FA87F190
S1131700085CFFF795FE7F1CF1E719F10101C9B2EE
S11317102000C0B2FFF7F3FE00200700FFB2082F3D
S11317200BDADFF89803F6B2310151FA87F10818A1
S1131730007AFFF77DFE7F1CF0E7083418F10108FA
S1131740BDE8F1832DE9F84304000D0016000027DD
S11317505FF000085FF000095FFA89F919F80600E4
S113176000282BD05FFA89F919F806002038070001
S1131770E4B27F2C02DB002004006D1C2900C9B2F6
S11317802000C0B2FFF7BBFE002080465FFA88F855
S1131790B8F1060F0EDADFF82003FFB2062101FBD1
S11317A007005FFA88F818F80000FFF741FE18F107
S11317B00108EBE7A41D19F10109CDE7BDE8F183A8
S11317C02DE9F84304000D00160000275FF000081F
S11317D05FF000095FFA89F919F80600002842D081
S11317E05FFA89F919F8060020380700E4B2792C69
S11317F002DB002004006D1C2900C9B22000C0B225
S1131800FFF77DFE002080465FFA88F8B8F1080FE4
S11318100BDADFF8A802FFB2390151FA88F1085C4B
S1131820FFF706FE18F10108EEE7691CC9B22000B3
S1131830C0B2FFF764FE002080465FFA88F8B8F172
S1131840080F0CDADFF87402FFB2390151FA88F19B
S11318500818007AFFF7ECFD18F10108EDE70834E9
S113186019F10109B6E7BDE8F1832DE9F84F040049
S11318700D0016001F00DDF828805FF00009FFB29C
S1131880082097FBF0F101FB1071002905D1FFB28C
S1131890082097FBF0F0834605E0FFB2082097FB91
S11318A0F0F0401C8346AB46FFB25FFA8BFB5F450A
S11318B019D35946C9B22000C0B2FFF720FEA24690
S11318C05FFA8AFAF6B2B2450AD21FFA89F919F810
S11318D00800FFF7ADFD19F101091AF1010AEFE75C
S11318E01BF1010BE0E7BDE8F18F2DE9F84F04008F
S11318F00D00160036B2002E0AD56BA22900C9B21B
S11319002000C0B2FFF75CFF36B27042834607E0A6
S113191067A22900C9B22000C0B2FFF751FFB34645
S11319201FFA8BFB42F210709BFBF0F080B20A218D
S113193090FBF1F201FB120081461FFA8BFB4FF47E
S11319407A709BFBF0F080B20A2190FBF1F201FB6C
S1131950120082461FFA8BFB64209BFBF0F080B2DE
S11319600A2190FBF1F201FB120007001FFA8BFB26
S11319700A209BFBF0F080B20A2190FBF1F201FBFC
S1131980120080461FFA8BFB0A209BFBF0F100FB40
S113199011B08DF800005FFA89F9B9F1000F0AD08F
S11319A019F13002D2B22900C9B214F10800C0B250
S11319B0FFF782FE07E03FA22900C9B214F1080034
S11319C0C0B2FFF7FDFE5FFA8AFABAF1000F04D144
S11319D05FFA89F9B9F1000F0AD01AF13002D2B2D4
S11319E02900C9B214F11000C0B2FFF765FE07E088
S11319F030A22900C9B214F11000C0B2FFF7A2FE50
S1131A005FFA8AFABAF1000F07D15FFA89F9B9F1DE
S1131A10000F02D1FFB2002F0AD017F13002D2B268
S1131A202900C9B214F11800C0B2FFF745FE07E05F
S1131A3020A22900C9B214F11800C0B2FFF7C0FEF9
S1131A405FFA8AFABAF1000F0CD15FFA89F9B9F199
S1131A50000F07D1FFB2002F04D15FFA88F8B8F164
S1131A60000F0AD018F13002D2B22900C9B214F121
S1131A702000C0B2FFF720FE07E00EA22900C9B281
S1131A8014F12000C0B2FFF79BFE9DF8000010F196
S1131A903002D2B22900C9B214F12800C0B2FFF753
S1131AA00BFEBDE8F18F00002D00000000F10F4097
S1131AB02B000000200000004C38000040230000F0
S1131AC0012110F01F029140794A40B2430942F8C3
S1131AD0231070470FB42DE9F84F0C9850F480761A
S1131AE00A9FDDF82C809DF834909DF835A0DDF830
S1131AF038B07048874203D335216F48FFF76CF93B
S1131B005FFA89F9B9F1020F03DB36216A48FFF75E
S1131B1063F95FFA8AFABAF1020F03DB37216648E8
S1131B20FFF75AF96548874204D16548050000204B
S1131B30040021E06348874204D163480500012082
S1131B40040019E06148874204D16148050002207D
S1131B50040011E05F48874204D15F480500032078
S1131B60040009E05D48874204D15D480500042073
S1131B70040001E000202CE05FFA89F9B9F1010FBB
S1131B800ED1786958EA000078615FFA8AFABAF1EE
S1131B90010F02D1C7F8048006E0C7F8088003E00B
S1131BA0786930EA080078610020C0B2202808DA99
S1131BB038FA00F1C90702D5C0B245F82060401CCC
S1131BC0F3E75846002803D04648E4B240F824B06E
S1131BD00120BDE8F20F5DF814FB0FB438B5049D85
S1131BE03448854203D38A213348FFF7F5F8334854
S1131BF0854202D10020040013E03248854202D11C
S1131C00012004000DE03148854202D10220040085
S1131C1007E03048854202D10320040001E004209B
S1131C20040014F1570040B2FFF74AFF012032BC10
S1131C305DF814FB10B4036801248C40A343D2B2B2
S1131C4012FA01F42343036010BC70470069C840D2
S1131C5010F00100704780B52248006880475FF0AB
S1131C60FF302149086001BD80B51E4840688047A7
S1131C705FF0FF301D49086001BD80B519488068D8
S1131C8080475FF0FF301A49086001BD80B51548F0
S1131C90C06880475FF0FF301649086001BD80B519
S1131CA01048006980475FF0FF301349086001BDA8
S1131CB000E100E001F10F40C851000000F00F40C6
S1131CC00090044040F00F4000A0044080F00F401A
S1131CD000B00440C0F00F4000C0044000F10F40C9
S1131CE000D004402408FF1FA0900440A0A004409A
S1131CF0A0B00440A0C00440A0D00440012110F0D2
S1131D001F029140DFF86C2540B2430942F82310CA
S1131D1070470FB42DE9F047089D099E9DF828707F
S1131D209DF829C0DDF82CE0DDF83080002E02D1CA
S1131D304FF416594E46DFF840954D454AD15FF0B1
S1131D4000094C46DFF83495D9F800904A46DFF88C
S1131D503095D9F8009059F48069DFF824A5CAF8C1
S1131D600090FFB2022F06D14FF40079DFF814A5DA
S1131D70CAF800900FE0FFB20E2F06D14FF440795D
S1131D80DFF804A5CAF8009005E04FF44079DFF8C5
S1131D90FCA4CAF800905FFA8CFCBCF1010F06D1D8
S1131DA04FF40079DFF8E8A4CAF800901EE15FFA66
S1131DB08CFCBCF10F0F06D14FF44079DFF8D4A4AA
S1131DC0CAF8009012E14FF44079DFF8CCA4CAF8C5
S1131DD000900BE1DFF8C4944D4534D15FF0010964
S1131DE04C46DFF89894D9F800904A46DFF890946E
S1131DF0D9F8009059F40069DFF884A4CAF8009077
S1131E00FFB27C2F06D14FF44079DFF894A4CAF8CE
S1131E10009005E04FF44079DFF888A4CAF80090F8
S1131E205FFA8CFCBCF17D0F06D14FF44079DFF8EA
S1131E3078A4CAF80090D9E04FF44079DFF86CA494
S1131E40CAF80090D2E0DFF86894D9F800904A46C6
S1131E50DFF860944D4519D15FF002094C46DFF874
S1131E602094D9F8009059F48059DFF814A4CAF8E2
S1131E7000904FF44079DFF840A4CAF800904FF482
S1131E804079DFF838A4CAF80090AFE0DFF8309466
S1131E904D4545D15FF003094C46DFF8E493D9F88A
S1131EA0009059F40059DFF8D8A3CAF80090FFB2A3
S1131EB0802F06D14FF44079DFF808A4CAF80090C7
S1131EC00FE0FFB22B2F06D14FF44079DFF8F8A3CF
S1131ED0CAF8009005E04FF44079DFF8F0A3CAF89F
S1131EE000905FFA8CFCBCF1810F06D14FF440796D
S1131EF0DFF8DCA3CAF8009078E05FFA8CFCBCF150
S1131F002A0F06D14FF44079DFF8C8A3CAF800902D
S1131F106CE04FF44079DFF8C0A3CAF8009065E0A4
S1131F20DFF8B8934D452FD15FF004094C46DFF834
S1131F30B093D9F8009059F48069DFF8A4A3CAF8E3
S1131F400090FFB2942F06D14FF44079DFF894A3A8
S1131F50CAF8009005E04FF44079DFF88CA3CAF882
S1131F6000905FFA8CFCBCF1950F06D14FF44079D8
S1131F70DFF878A3CAF8009038E04FF44079DFF82E
S1131F8070A3CAF8009031E05FF005094C46DFF811
S1131F9064934D46DFF84893D9F8009059F40069EA
S1131FA0DFF83CA3CAF80090FFB2652F06D14FF4C6
S1131FB04079DFF844A3CAF8009005E04FF4407973
S1131FC0DFF838A3CAF800905FFA8CFCBCF1640F08
S1131FD006D14FF44079DFF828A3CAF8009005E051
S1131FE04FF44079DFF81CA3CAF8009095F80390E9
S1131FF019F0F30985F803905FF0000985F8029061
S11320005FEA0619B2FBF9F9484695F8009019F011
S1132010E0094B4680B25FEA102919F01F0959EA1A
S1132020030985F8009068705FEA42195FEA061AAE
S1132030B9FBFAF980B2B9EB4019494695F80A9010
S113204019F0E0094B4611F01F0959EA030985F814
S11320500A909DF82A90B9F1010F0FD1F146B9F118
S1132060000F0BD095F8039059F0200985F80390E0
S1132070DFF89492E4B249F824E005E095F803907F
S113208019F0DF0985F803909DF82B90B9F1010F41
S11320900FD1C146B9F1000F0BD095F8039059F058
S11320A0800985F80390DFF86492E4B249F824804B
S11320B005E095F8039019F07F0985F8039095F8E9
S11320C0039059F00C0985F80390BDE8F0075DF81A
S11320D014FB01798906FCD590F9070040B27047DA
S11320E002791206FCD5C17170470FB480B502980D
S11320F06149884203D12D20FFF700FE26E00298B3
S11321006649884203D12F20FFF7F8FD1EE00298AC
S11321106849884203D13120FFF7F0FD16E00298A8
S11321206749884203D13320FFF7E8FD0EE00298A7
S11321306A49884203D13520FFF7E0FD06E00298A2
S11321406C49884202D13720FFF7D8FD01BC5DF805
S113215014FB80B56E480078800606D56D4800787B
S1132160800602D568480068804769480078000600
S113217006D568480078000602D5644800688047A0
S113218001BD80B564480078800606D563480078B0
S1132190800602D55C48406880475F4800780006A6
S11321A006D55E480078000602D558484068804746
S11321B001BD80B55A480078800606D55948007894
S11321C0800602D55048806880475548007800064C
S11321D006D554480078000602D54C4880688047EC
S11321E001BD80B550480078800606D54F48007878
S11321F0800602D54448C06880474B4800780006F2
S113220006D54A480078000602D54048C068804791
S113221001BD80B546480078800606D5454800785B
S1132220800602D538480069804741480078000696
S113223006D540480078000602D534480069804736
S113224001BD80B53C480078800606D53B4800783F
S1132250800602D52C48406980473748007800063C
S113226006D536480078000602D5284840698047DC
S113227001BD000000E100E000A006401404FF1FBF
S113228034800440089004403890044044A0044042
S1132290049004403C90044040A0044000B0064038
S11322A000D0044010B0044004D004400CB00440FA
S11322B01804FF1F00C006400CC0044008C00440BE
S11322C000D0064010D004402CA0044044B0044088
S11322D014D0044028A0044040B0044000A00E40A4
S11322E02880044060D004403CB0044064D00440E2
S11322F038B0044000B00E4024C0044020D0044054
S113230020C0044024D00440AC08FF1FC408FF1FB1
S113231004A0064003A0064004B0064003B00640F3
S113232004C0064003C0064004D0064003D0064063
S113233004A00E4003A00E4004B00E4003B00E40B3
S11323400000000000000000000000000000000089
S1132350000000F80000000000000033300000001E
S113236000100C06100C0600000000000000000025
S113237040C07840C0784000043F04043F04040097
S1132380007088FC08300000001820FF211E0000A7
S1132390F008F000E018000000211C031E211E00BC
S11323A000F00888700000001E2123241927211042
S11323B010160E00000000000000000000000000E5
S11323C0000000E01804020000000007182040008C
S11323D000020418E000000000402018070000007C
S11323E0404080F0804040000202010F01020200E0
S11323F0000000F0000000000101011F01010100C4
S1132400000000000000000080B070000000000028
S113241000000000000000000001010101010101B1
S11324200000000000000000003030000000000048
S1132430000000008060180400601806010000001D
S113244000E010080810E000000F102020100F001A
S1132450001010F8000000000020203F20200000A1
S113246000700808088870000030282422213000F9
S113247000300888884830000018202020110E0001
S11324800000C02010F8000000070424243F2400AA
S113249000F80888880808000019212020110E007F
S11324A000E0108888180000000F112020110E0091
S11324B000380808C83808000000003F0000000089
S11324C00070880808887000001C222121221C004A
S11324D000E010080810E0000000312222110F0073
S11324E0000000C0C0000000000000303000000008
S11324F00000008000000000000080600000000078
S11325000000804020100800000102040810200090
S113251040404040404040000404040404040400DB
S11325200008102040800000002010080402010070
S1132530007048080808F000000000303601000070
S1132540C030C828E810E0000718272423140B0023
S11325500000C038E0000000203C2302022738209D
S113256008F8888888700000203F202020110E0081
S1132570C030080808083800071820202010080078
S113258008F808080810E000203F202020100F0061
S113259008F88888E8081000203F2020232018002D
S11325A008F88888E8081000203F20000300000095
S11325B0C03008080838000007182020221E020036
S11325C008F808000008F808203F210101213F20F5
S11325D0000808F8080800000020203F2020000020
S11325E000000808F8080800C08080807F00000010
S11325F008F888C028180800203F20012638200049
S113260008F8080000000000203F202020203000AF
S113261008F8F800F8F80800203F003F003F2000C9
S113262008F830C00008F808203F200007183F00D1
S1132630E01008080810E0000F10202020100F0000
S113264008F808080808F000203F210101010000F3
S1132650E01008080810E0000F18242438504F0038
S113266008F8888888887000203F2000030C3020F8
S113267000708808080838000038202121221C0036
S1132680180808F8080818000000203F200000007F
S113269008F808000008F808001F202020201F0068
S11326A00878880000C83808000007380E010000C8
S11326B0F80800F80008F800033C0700073C030092
S11326C0081868808068180820302C03032C3020F8
S11326D00838C800C83808000000203F2000000067
S11326E010080808C83808002038262120201800BF
S11326F0000000FE020202000000007F4040400093
S1132700000C30C000000000000000010638C000CA
S113271000020202FE000000004040407F00000072
S11327200000040202020400000000000000000097
S11327300000000000000000808080808080808095
S1132740000202040000000000000000000000007D
S113275000008080808000000019242222223F2073
S113276008F8008080000000003F112020110E00B6
S11327700000008080800000000E11202020110045
S1132780000000808088F800000E112020103F20F7
S11327900000808080800000001F2222222213007B
S11327A0008080F0888888180020203F20200000C6
S11327B00000808080808000006B9494949360007B
S11327C008F8008080800000203F210000203F2086
S11327D000809898000000000020203F2020000086
S11327E0000000809898000000C08080807F000076
S11327F008F8000080808000203F24022D30200053
S1132800000808F8000000000020203F20200000FD
S11328108080808080808000203F20003F20003F17
S11328208080008080800000203F210000203F2025
S11328300000808080800000001F202020201F00D6
S1132840808000808000000080FFA12020110E0005
S11328500000008080808000000E112020A0FF80F6
S1132860808080008080800020203F2120000100A3
S113287000008080808080000033242424241900F8
S1132880008080E0808000000000001F2020000005
S11328908080000000808000001F202020103F2046
S11328A0808080000080808000010E3008060100D6
S11328B080800080008080800F300C030C300F007B
S11328C000808000808080000020312E0E312000A6
S11328D0808080000080808080818E7018060100D6
S11328E000808080808080000021302C22213000F4
S11328F000000000807C020200000000003F404015
S113290000000000FF00000000000000FF000000C5
S11329100002027C800000000040403F00000000F4
S1132920000601010202040400000000000000008F
S113293000B587B0DFF8180501905FF08850029069
S113294001208DF8100001208DF811000020039063
S11329500020059001A984B068461422FEF748FAC5
S11329600FBCFFF7B7F807B000BD80B5DFF8E4048B
S11329700078002809D002280DD009D304280DD0EE
S11329800FD3062810D012D313E000F021F810E082
S113299000F0B4F80DE000F037F90AE000F0BCF9FB
S11329A007E000F00CF904E000F010FA01E000F098
S11329B08CF9DFF8A4040078002808D0DFF8940428
S11329C00078032803D10520DFF88814087001BDBE
S11329D080B5DFF88804008864280CDA0122182105
S11329E0DFF86C04FFF726F900221C21DFF86004ED
S11329F0FFF720F981E0DFF864040088C9280CDAC5
S1132A0000221821DFF84804FFF714F901221C21E1
S1132A10DFF83C04FFF70EF96FE0DFF840040088AC
S1132A20B0F5967F0CDC01221821DFF82404FFF7AF
S1132A3001F900221C21DFF81804FFF7FBF85CE021
S1132A40DFF818040088B0F5C87F0CDC00221821D8
S1132A50DFF8FC03FFF7EEF801221C21DFF8F00396
S1132A60FFF7E8F849E0DFF8F4030088B0F5FA7FEF
S1132A700CDC01221821DFF8D803FFF7DBF8002271
S1132A801C21DFF8CC03FFF7D5F836E0DFF8CC03E0
S1132A900088B0F57A7F0CDC00221821DFF8B0033F
S1132AA0FFF7C8F801221C21DFF8A403FFF7C2F8DE
S1132AB023E0DFF8A803008840F2DD5188420CDAF5
S1132AC001221821DFF88803FFF7B4F800221C2143
S1132AD0DFF87C03FFF7AEF80FE000221821DFF8DF
S1132AE07003FFF7A7F801221C21DFF86403FFF746
S1132AF0A1F80320DFF85C13087001BD80B5DFF88E
S1132B005C03008832280CDA01221821DFF8400324
S1132B10FFF790F800221C21DFF83403FFF78AF84E
S1132B204CE0DFF83803008865280CDA002218210D
S1132B30DFF81C03FFF77EF801221C21DFF81003E5
S1132B40FFF778F83AE0DFF81403008896280ADAE9
S1132B5001221821BE48FFF76DF800221C21BC4851
S1132B60FFF768F82AE0BD480088C9280ADA00227D
S1132B701821B748FFF75EF801221C21B448FFF77B
S1132B8059F81BE0B5480088FA280ADA012218210E
S1132B90AF48FFF74FF800221C21AD48FFF74AF871
S1132BA00CE000221821AA48FFF744F801221C2156
S1132BB0A748FFF73FF80320A649087001BD80B578
S1132BC0A648008864280ADA01221821A048FFF7E1
S1132BD031F800221C219E48FFF72CF813E09F488F
S1132BE0008842F2117188420ADA002218219848BA
S1132BF0FFF720F801221C219548FFF71BF802E09B
S1132C0000209649088001BD80B594480088B0F53D
S1132C10FA7F0ADA012218218D48FFF70BF8002207
S1132C201C218B48FFF706F84EE08C480088B0F56D
S1132C307A7F0ADC002218218548FEF7FBFF012277
S1132C401C218348FEF7F6FF3EE08448008840F2EA
S1132C50DC5188420ADA012218217D48FEF7EAFF96
S1132C6000221C217A48FEF7E5FF2DE07B4800880E
S1132C70B0F5FA6F0ADC002218217548FEF7DAFF76
S1132C8001221C217248FEF7D5FF1DE0734800881D
S1132C9040F6C41188420ADA012218216C48FEF772
S1132CA0C9FF00221C216A48FEF7C4FF0CE0002281
S1132CB018216748FEF7BEFF01221C216448FEF775
S1132CC0B9FF03206349087001BD80B563480088DB
S1132CD00A280ADA012218215D48FEF7ABFF002218
S1132CE01C215B48FEF7A6FF15E05C480088B0F5A0
S1132CF07A7F0ADC002218215548FEF79BFF012247
S1132D001C215348FEF796FF05E000205349088034
S1132D1003205049087001BD80B5504800881E2822
S1132D200ADA012218214A48FEF784FF00221C21F6
S1132D304748FEF77FFF48E0484800883D280ADA04
S1132D40002218214248FEF775FF01221C21404849
S1132D50FEF770FF39E0414800885A280ADA012258
S1132D6018213B48FEF766FF00221C213848FEF775
S1132D7061FF2AE03948008879280ADA00221821FC
S1132D803348FEF757FF01221C213148FEF752FF5A
S1132D901BE032480088AA280ADA012218212C48AC
S1132DA0FEF748FF00221C212948FEF743FF0CE0F0
S1132DB0002218212648FEF73DFF01221C21244849
S1132DC0FEF738FF03202349087001BD80B523486E
S1132DD0008832280ADA012218211D48FEF72AFF4A
S1132DE000221C211A48FEF725FF2AE01B48008810
S1132DF065280ADA002218211548FEF71BFF012274
S1132E001C211348FEF716FF1BE01448008896287F
S1132E100ADA012218210E48FEF70CFF00221C21B9
S1132E200B48FEF707FF0CE0002218210848FEF7C4
S1132E3001FF01221C210648FEF7FCFE0320054980
S1132E40087001BD0021054A1180024908707047CD
S1132E5000F00F401004FF1FE406FF1F1809FF1FB6
S1132E600FB42DE9F84F0A9C9DF82C509DF82D00C5
S1132E708DF801009DF82E609DF82F008DF800005C
S1132E809DF830709DF832809DF831909DF834A003
S1132E90DDF838B0EDB2002D07D0EDB2202D04D00E
S1132EA03921DFF82804FDF797FF9DF80100042875
S1132EB004DB3A21DFF81404FDF78EFFF6B2002E8E
S1132EC007D0F6B2102E04D03B21DFF80004FDF742
S1132ED083FF9DF80000042804DB3C21DFF8EC03A9
S1132EE0FDF77AFFFFB217F00300042804D33D2155
S1132EF0DFF8D803FDF770FF5FFA88F8B8F1000F28
S1132F0009D05FFA88F8B8F1100F04D03E21DFF839
S1132F10BC03FDF761FF5FFA89F919F00700042883
S1132F2004DB3F21DFF8A403FDF756FFDFF8A0031D
S1132F3084420BD100208DF80200DFF8980300686A
S1132F4050F00060DFF88C13086011E0DFF88803AC
S1132F5084420BD101208DF80200DFF88003006861
S1132F6050F00060DFF87413086001E0002048E0CE
S1132F709DF83300012802D1200000F049F9F6B28F
S1132F809DF80100800010F00C00304350F0010067
S1132F90A0605FFA88F89DF8000010F0030050EA82
S1132FA0080050F00400E06041F23420A06145F2D2
S1132FB07860E0615FFA8AFA1AF0400050F0180075
S1132FC020629DF83500012803D1206A50F00400E6
S1132FD02062FFB267625FFA89F95FEA09402065FF
S1132FE0EDB25FFA8AFA1AF0010044F8205058460C
S1132FF0002805D0DFF8E8029DF8021040F821B05F
S11330000120BDE8F20F5DF814FB026832F04002C3
S1133010026002685209520102600268C9B211F0EA
S11330201F031A43026002681206FCD5006980B2CD
S1133030704710B40200D068C0F30013C9B21F294E
S113304001DB0020E2E0A248824279D1C9B2080043
S11330500028032823D9001F22D0401E27D0401E59
S113306001282BD9801E012835D9801E01283CD97E
S1133070801E012843D9801E01284AD9801E52D0BF
S1133080401E012850D9801E012856D9001F54D053
S1133090C01E012851D9C01E01284ED94EE0B4E00B
S11330A0DBB2012B02D100208E4C2060ADE0DBB2FC
S11330B0012B02D100208C4C2060A6E0DBB2012B56
S11330C008D10020C9B28C0004F1804414F598247E
S11330D044F8040C99E00020C9B28C0004F1804447
S11330E014F5942444F8200C8FE00020C9B28C001D
S11330F004F1804414F5922444F80C0C85E000207B
S1133100C9B28C0004F1804414F5942444F8280CCA
S11331107BE00020C9B28C0004F1804414F59624AD
S113312044F8380C71E070E00020C9B28C0004F15E
S1133130804414F59A24E06167E066E0002065E0CD
S1133140654882425FD1C9B20800002803281BD910
S1133150001F032819D9001F01282CD9801E032819
S113316033D9001F01283AD9801E42D0401E41D0D5
S1133170401E022844D9401F42D0C01E01283FD916
S1133180C01E01283CD93CE03FE0DBB2002B09D152
S11331900020C9B28C0004F1804414F59A2444F848
S11331A0100C07E00020C9B28C0004F1804414F52F
S11331B09624206129E00020C9B28C0004F18044E7
S11331C014F5942444F8200C1FE00020C9B28C00AC
S11331D004F1804414F5942444F8180C15E00020FC
S11331E0C9B28C0004F1804414F5942444F8100C02
S11331F00BE00AE000203D4CC9B244F8210004E091
S113320003E0002002E0002000E0012010BC704731
S11332100100712088600420C86041F23420886174
S113322045F27860C86100200862486A30F00B00FB
S11332304862486A50F007004862486A50F08000CB
S1133240486208680006FCD5486A400601D500209B
S113325030E000200200C86C0200886C8218486CC0
S11332608218086C8218C86B8218886B821892B214
S1133270022092FBF0F252F4004292B2CA620020A1
S11332800200C86E0200886E8218486E8218086EAA
S11332908218C86D8218886D821892B2022092FB3F
S11332A0F0F252F4004292B20A63486A30F08000AD
S11332B048620120704780B509480068804701BD15
S11332C080B507484068804701BD0000D85200001F
S11332D000B003403C80044000B00B403080044008
S11332E0D007FF1F08B0044004C00440009004400D
S11332F038B500257FF004019848FEF7F1FE6D21F2
S11333009648FEF7EDFE25219448FEF7E9FE6D1F71
S11333106D3525350020040091480078E4B28442DC
S11333200CD28D48E4B2215649B28C48FEF7D8FE3F
S11333308948E4B2205C4519641CEDE7290049B2D0
S11333408648FEF7CDFE31BDF8B58448FEF7C1FED0
S11333508449087183480068642880F2F8808148B1
S1133360007980497F4A1268511888717D48006845
S1133370401C7C4908607B4800682928C0F293807F
S1133380784878490968081810F8230CFF2840F099
S11333908A80744873490968081810F8220C552863
S11333A040F081806F486F490968081810F8210CB3
S11333B0AA2878D16B486B490968081810F8200CC2
S11333C0102870D10020674981F86B0065480068B7
S11333D0293805002C0063480068401E84420BDA3B
S11333E0604890F86B005F496118897908185D4955
S11333F081F86B00641CEEE75A4890F86B00594959
S1133400584A126851184979884248D1002004006A
S1133410092C42DA534815EB84010818807A5FF0CE
S11334208071504A15EB84039A18D27A5FF4803382
S11334305A4301FB00204B4915EB84025118097BC8
S11334404FF4807202FB0100464915EB84025118C7
S1133450497B50FA81F00700B7F1004F04D37FF0A5
S11334600040C01B060000E03E00300000F0B2F84F
S11334703D4A12EBC402C2E900013B4810EBC4020E
S1133480D2E900010022394B00F0BCF8364A12EBB5
S1133490C402C2E90001641CBAE700F069F8002024
S11334A03049086056E02F480068072852DB2D4851
S11334B02C490968081810F8010CFF284AD129483A
S11334C028490968085C552844D1264825490968D3
S11334D008184078AA283DD12248224909680818CA
S11334E08078772836D100201E4981F86B001D486A
S11334F00068C01F05002C001A480068401E844262
S11335000BDA184890F86B00164961188979081885
S1133510144981F86B00641CEEE7124890F86B00C4
S11335201049104A12685118497988420BD10D4844
S11335300C490968081801790A480A4A12681018DF
S1133540C07800F01AF800200649086002E0002064
S113355004490860F1BD0000F806FF1F00B00E40EA
S11335601104FF1F4807FF1F8806FF1F0000F040DB
S113357080B50120FFF766FC01BD38B504000D00DD
S1133580EDB22800062816D0072815D0082814D034
S1133590092813D00A2812D00B2811D00C2810D0D7
S11335A064280FD065280ED066280DD067280CD06B
S11335B068280BD00AE009E008E007E006E005E02F
S11335C004E003E002E001E000E0FFE70120FFF790
S11335D039FC31BD010040F10980F446404200F05D
S11335E005F851F000416047010000BF09D0B0FA6E
S11335F080F18840C91CC1F58461090501EBD02123
S113360040057047F0B540F2FF7581EA030C0CF0F9
S1133610004C15EA11541DBF15EA1357AC42AF42D2
S1133620E5E0BC41C1F31301C3F31303801A9941CC
S113363043F4801304D2641E400049418018594168
S1133640C90241EA5051B1FBF3F603FB1611A2FB88
S11336500675D7EBC020A94102D2761E80185941C5
S1133660C90241EA5051B1FBF3FE03FB1E11A2FB58
S11336700E75D7EBC020A94103D2AEF1010E80181C
S11336805941890241EA9051760546EA8E2EB1FBF2
S1133690F3F603FB1611A2FB0675D7EB8020A941B4
S11336A002D2761E80185941C90241EA50514EEAAD
S11336B0060EB1FBF3F603FB1611A2FB0675D7EB5E
S11336C0C020A94102D2761E80185941C90241EA9C
S11336D05051B1FBF3F703FB1711A2FB0735D3EBF2
S11336E0C020A94167F100070CBF004247F0010761
S11336F066F3D5274FEA1E31B80814F5806412DD4D
S1133700BD0775F1004250EB0E5051EB045111F519
S1133710801F5CBF41EA0C01F0BD4CF07F6141F0B9
S1133720E0410020F0BDBD076D0840EA0E5041F4B1
S11337308011D4F10104B4F120060ADAC4F12006A0
S11337400200E04001FA06F3E1401843B240154399
S11337500EE0342C13DCC6F1200445EA40056D0864
S113376020FA06F2154321FA06F0A1400D43002188
S113377075F1004250F1000051EB0C01F0BD002046
S11337805FEA0C01F0BDCFB992185B41B3FA83F73D
S113379004BFB2FA82F6BF190B3FB7F120062FBF60
S11337A002FA06F3BB40C7F1200622FA06F638BF38
S11337B03343BA401CB1E419641E33E77F4231F04D
S11337C00041B1FA81F404BFB0FA80F6A4190B3CAD
S11337D0B4F120062FBF00FA06F1A140C4F120067F
S11337E020FA06F638BF3143A0403C1B1AE7AC422E
S11337F01ABF05EA1357AF4212E050EA41061CBF54
S113380052EA4306BFE750EA4107304661461CBF0F
S113381041EA0551F0BD52EA430C08BFC143F0BD73
S113382000204FF4001616EB410F98BF16EB430F20
S113383008BF16EB410F24BFC14305E016EB430F4D
S11338400CBF61464CEA0551F0BD000000000000C9
S113385000000000002F0000000007000700001413
S11338607F147F1400242A7F2A1200626408132321
S113387000364955225000000503000000001C22B8
S11338804100000041221C000014083E08140008F6
S1133890083E0808000000A06000000808080808A6
S11338A0000060600000002010080402003E51493E
S11338B0453E0000427F40000042615149460021DC
S11338C041454B31001814127F10002745454539F6
S11338D0003C4A4949300001710905030036494951
S11338E0493600064949291E00003636000000000A
S11338F05636000000081422410000141414141455
S113390000004122140800020151090600324959FD
S1133910513E007C1211127C007F49494936003E19
S113392041414122007F4141221C007F49494941D4
S1133930007F09090901003E4149497A007F0808CE
S1133940087F0000417F4100002040413F01007F8B
S113395008142241007F40404040007F020C027F57
S1133960007F0408107F003E4141413E007F090969
S11339700906003E4151215E007F0919294600468F
S1133980494949310001017F0101003F4040403F66
S1133990001F2040201F003F4038403F00631408B0
S11339A0146300070870080700615149454300008B
S11339B07F41410000552A552A55000041417F00AE
S11339C000040201020400404040404000000102A3
S11339D00400002054545478007F4844443800388C
S11339E04444442000384444487F00385454541814
S11339F000087E0901020018A4A4A47C007F080426
S1133A0004780000447D4000004080847D00007FF5
S1133A10102844000000417F4000007C0418047812
S1133A20007C0804047800384444443800FC24240E
S1133A3024180018242418FC007C080404080048F6
S1133A405454542000043F444020003C4040207C17
S1133A50001C2040201C003C4030403C0044281006
S1133A602844001CA0A0A07C004464544C441414BA
S1133A701414141403500000FFFFFFFFFFFFFFFFA7
S1133A80FFFFFFFFFFFFFFFF00000000000000003A
S1133A900000000000000080C0E06070303838187A
S1133AA01C0C0C0C0C040404040C0C0C081838300A
S1133AB07060C0C080000000000000000000000032
S1133AC000000000000000000000000000000000F2
S1133AD000000000C0701C06070301000000000085
S1133AE000000000000000000000000000000000D2
S1133AF000000000000103070F0E183070E0C080C2
S1133B008080000000000000000000000000008031
S1133B10C0E030180E0301000000000000000000A7
S1133B200000000000000000000000000000000091
S1133B300000000000000000000000000000000081
S1133B400001010303030206040C18F0C0F0FCFE9C
S1133B500F0301000000000000000000000000004E
S1133B600000000000000000000000008080C0C0D1
S1133B70E0E0E0E0F0F07070783C3C3C1C1E0E1E6F
S1133B8038F8F8F87E7E9E1626EEFEFEFEFF7FFFD6
S1133B901D71C0800000000000E0F8FC0E0F0E0E46
S1133BA00E0C0C0C0C0E0E0E060676FFFFFF7303B4
S1133BB0030301010140C0808080C0806000001EBA
S1133BC01F1F1F0E03070E1E3E7FCF8F0707030123
S1133BD0003F000000010103030206FF8300000010
S1133BE000000000000000000000000000000000D1
S1133BF000000000000000000001010000000000BF
S1133C000000000000000000000000000003FEF8B7
S1133C1000000000000000000000000000071F7802
S1133C20E080000000000000000000000000000030
S1133C300000000000000000000000000000000080
S1133C4000000000000000000000000080C0603898
S1133C501F0700000000000000000000000000003A
S1133C600000000103060C18183020606040C0C03A
S1133C70C0808080808080808080808080C0C0C040
S1133C80404060602020301018080C040603010036
S1133C90000000000000000000E1F5050000000045
S1133CA080B582480068002809D57D4800688047AF
S1133CB07E48006850F000407C49086044E07B483E
S1133CC00068C00009D57648406880477748006896
S1133CD050F080507549086036E07448006800016F
S1133CE009D56F48806880477048006850F00060CC
S1133CF06E49086028E06D480068800109D568486D
S1133D00006980476948006850F00070674908609E
S1133D101AE066480068000309D56148C068804716
S1133D206248006850F40020604908600CE05F4875
S1133D300068800308D55A48406980475B4800689A
S1133D4050F400305949086001BD80B558480068F6
S1133D50002809D55348006880475548006850F04A
S1133D6000405349086044E051480068C00009D548
S1133D704C48406880474E48006850F080504C4999
S1133D80086036E04A480068000109D54548806863
S1133D9080474748006850F000604549086028E0C3
S1133DA043480068800109D53E480069804740487F
S1133DB0006850F000703E4908601AE03C48006812
S1133DC0000309D53748C06880473948006850F473
S1133DD00020374908600CE035480068800308D5A6
S1133DE03048406980473248006850F40030304918
S1133DF0086001BD80B52F480068002809D52A480D
S1133E00006880472B48006850F00040294908604A
S1133E1044E028480068C00009D52348406880472A
S1133E202448006850F080502249086036E0214858
S1133E300068000109D51C48806880471D48006857
S1133E4050F000601B49086028E01A4800688001AF
S1133E5009D51548006980471648006850F000707D
S1133E60144908601AE013480068000309D50E4895
S1133E70C06880470F48006850F400200D4908606E
S1133E800CE00C480068800308D507484069804767
S1133E900848006850F400300649086001BD00007D
S1133EA06008FF1F7808FF1F9008FF1F2CC0024006
S1133EB02CD002402CC00A40DFF800F03906FF1F66
S1133EC02DE9F84F83465FFA8BFBBBF1C90F02D390
S1133ED05FF0C80BFFE75FFA8BFB584630280ED023
S1133EE0322811D0602814D0642817D078281AD02A
S1133EF096281DD0B42820D0C82823D027E0182025
S1133F0005000020060026E0182005000120060018
S1133F1021E018200500182006001CE018200500E8
S1133F201A20060017E0132005001820060012E0EE
S1133F300F200500182006000DE00E2005001E20AD
S1133F40060008E00C2005001C20060003E06020A9
S1133F50FFF7B6FFA1E05C46002007005FFA8BFB89
S1133F603220BBFBF0F0401E80465FFA88F8B8F1BF
S1133F70FF0F02D1002080460BE05FFA8BFB5FFA53
S1133F8088F818F101009BFBF0F0332801D318F1F5
S1133F9001085FFA8BFB3220BBFBF0F0401E814628
S1133FA05FFA89F9B9F1FF0F02D1002081460BE0D5
S1133FB05FFA8BFB5FFA89F919F101009BFBF0F0C2
S1133FC0332801D319F101095FFA8BFB1920BBFBDC
S1133FD0F0F0401E82465FFA8AFABAF1FF0F02D16E
S1133FE0002082460BE05FFA8BFB5FFA8AFA1AF133
S1133FF001009BFBF0F01A2801D31AF1010A0020FA
S1134000274908702748006850F080502549086007
S11340102548007850F080002349087098202349EF
S1134020087023480078C006FBD421480078C0F308
S11340308100C0B20228F8D115F01F001D49087094
S113404000201D4908705FFA8AFA53465FFA89F91D
S11340504A465FFA88F84146FFB23800FFF72CFF62
S113406016F01F0050F04000134908701048007803
S11340708006FBD50E4800784006FBD50B48007837
S113408010F03F000949087009480078C0F3810026
S1134090C0B20328F8D12000C0B2BDE8F28F00BF3F
S11340A0014006403480044008C0074000400640F8
S11340B006400640044006400540064010F0070252
S11340C06D4B1B6819004FF6FF0319406B4B53EA05
S11340D002231943684B19607047012110F01F0235
S11340E09140674A40B2430942F8231070470121C6
S11340F010F01F029140634A40B2430942F8231072
S1134100704710B440B2002808D50A015E4B40B293
S113411010F00F04E31803F8042C03E00A015B4BCE
S113412040B2C25410BC704770B4030013F00704CB
S1134130D4F10706052E01D3042001E0D4F10700D1
S1134140261D072E01D2002500E0E51E012616FAE1
S113415000F0401E0840A8400121A940491E11401A
S1134160084370BC70470FB42DE9F04701249DF952
S11341702050099E0A9FDDF82C809DF83090072E70
S11341800BD0062E09D0052E07D0042E05D0032E01
S113419003D03A213E48FCF71FFE102F03D33B21E6
S11341A03B48FCF719FEB8F1100F03D33C21384803
S11341B0FCF712FE032E33D03DD3052E1AD024D3A0
S11341C0072E01D00BD336E00720FFF777FF002F2F
S11341D002D1B8F1100F01D3002004002DE0062015
S11341E0FFF76CFF022F02D2B8F1080F01D30020B1
S11341F0040022E00520FFF761FF042F02D2B8F18A
S1134200040F01D30020040017E00420FFF756FF39
S1134210082F02D2B8F1020F01D3002004000CE0F1
S11342200320FFF74BFF102F02D2B8F1000F01D08B
S11342300020040001E000201AE04246390030006A
S1134240FFF772FF82465146280040B2FFF759FF3C
S11342505FFA89F9B9F1010F04D1280040B2FFF7E0
S11342603CFF03E0280040B2FFF741FF2000C0B24A
S1134270BDE8F0075DF814FB0CED00E00000FA0562
S113428000E100E080E100E018ED00E000E400E07F
S11342900C52000080B55E480088401C5C490880D0
S11342A05C480088401C5B4908805B480078401CDF
S11342B05949087056480088B0F57A7F02D1002029
S11342C05349088055480078012802D100F00AF8C3
S11342D001E000F00FF851484078012801D100F0C6
S11342E010F801BD80B542F20F7200214C48FCF772
S11342F066F901BD80B5002200214948FCF75FF949
S113430001BD80B508214748FEF77FFE4349486058
S1134310424880684149496888420AD23F48C06897
S11343203E49496808183D498968401A3B49C860B4
S113433009E03A48C06839494968401A37498968E8
S113434008183649C8603548C068FFF743F90022A9
S1134350354BFFF757F90022344B00F073F8002275
S11343605FF0804300F06EF80022314B00F06AF8F1
S1134370304A314B00F066F800F036F927490861FD
S11343802E480078401C2D4908702C480078642879
S113439004D100202949087000F001F801BD80B55E
S11343A0FDF7E4F817A200210020FDF709FA1B48E5
S11343B040681A498968401AFFF716F900221A4B17
S11343C0FFF720F900221E4B00F03CF800F00CF936
S11343D000B2420012B202210020FDF786FA0AA2BE
S11343E002215020FDF7ECF90C48026912B20421B5
S11343F00020FDF77AFA05A204215020FDF7E0F928
S113440001BD0000575554006D410000572A730048
S11344101A09FF1F1809FF1F1D09FF1FE406FF1FCC
S11344200080034000B003400000E040000014405E
S113443000002840FCA9F1D24D62503F1C09FF1F27
S11344400088B340B0B581EA030C0CF0004C40F294
S1134450FF7515EA11541DBF15EA1357AC42AF425C
S113446039E0E41923EA455343F48013C90241F0C7
S1134470004141EA505EC7021100A7FB0202002876
S11344804FF00000EEFB01204FF00001E3FB072199
S113449018BF42F00102401800214941E3FB0E011C
S11344A0A4F580640F0302D252004041494154F103
S11344B001046CDD470872F1004250F1000051EB39
S11344C00451A1F580115CBF41EA0C01B0BD4CEA76
S11344D005510020B0BD05EA1357AC4214BFAF42EA
S11344E041E050EA410E1CBF52EA430E02E061462D
S11344F00020B0BD24423C441BD15FEA070EF6D035
S1134500090302BF01460020AEF1140EB1FA81F78F
S1134510AEEB070401FA07FE0C37C7F1200100FADD
S113452007F7C8404EEA000E23EA455343F48013CC
S1134530A2E733F00043B3FA83F704BFB2FA82FE72
S113454077440B3FE41BB7F1200E2FBF02FA0EF3A2
S1134550BB40C7F1200E22FA0EFE38BF43EA0E0319
S1134560BA40641C82E750EA410E14BF52EA430E7B
S11345706FF000014FF4001717EB430F8ABF194681
S113458017EB410FB5E74CEA05510020B0BDD4F15B
S11345900104B4F120070FDAC4F12007520828BF40
S11345A042F0010210FA07F501FA07F7E1BF2A43C6
S11345B0E0403843E1400FE0352C98DCC7F120049B
S11345C052EA400220FA07F218BF42F0010231FA1F
S11345D007F0A1400A43002172F1004250F10000AB
S11345E051EB0C01B0BD0000F446400D40EAC1207F
S11345F0490006D200F00EF8004248BF6FF00040B8
S1134600604700F007F84FF0004188428CBF08462D
S11346104042604740F00040490DA1F58061491CCB
S113462005D4D1F11F0154BFC840C01770474FF0E3
S11346300000704700B587B04E48006850F47850C9
S11346404C4908604CF220504B4908804DF6281024
S1134650494908804FF4E9704849088000F0BAF8E5
S11346606420FFF72DFC00F05FF8454800684549D9
S113467008604448006844490968C1F30361491C5F
S1134680B0FBF1F0414908603E4800683E490968C2
S1134690C1F30351491CB0FBF1F03D4908603948AE
S11346A0006839490968C1F30341491CB0FBF1F0C2
S11346B038490860384801905FF4E130029001A95C
S11346C084B068461422FCF793FB0FBCFDF721FB72
S11346D027A0FCF768FE3148FCF765FE30493148F5
S11346E0FCF761FE294800682F49B0FBF1F2254828
S11346F000682D49B0FBF1F12C48FCF754FE254825
S113470000682949B0FBF1F2214800682649B0FB52
S1134710F1F12748FCF747FE2648FCF744FE2648FB
S1134720FCF741FE07B000BD24490978C9B211F075
S11347301F011831224A5143080022490978C9B29D
S113474011F01F01491CB0FBF1F00D4908607047DE
S113475080B51D48FCF727FE01BD80B51B480078D5
S1134760C0B2B0F110011A48FCF71DFE01BD0000F3
S11347700D0A0000388004400E200540002005404A
S11347803406FF1F1404FF1F448004401804FF1F55
S11347902004FF1F1C04FF1F00B00E4050520000F5
S11347A068550000C853000040420F007C540000CC
S11347B0A0540000945200008051000005400640BF
S11347C080F0FA0204400640D454000004ED00E0F6
S11347D0F8530000F0B5244E244FBE420CD00026FE
S11347E03000B0F5826F07D2204E56F820601E4F7D
S11347F047F82060401CF4E71B4E1D4F3E601D4EE1
S113480031001D4E32001D4E33009E1A300006004A
S1134810701E002E04D016780E70521C491CF6E748
S1134820174E3400174E35002E1B30000600701E44
S1134830002E03D000262670641CF7E7124E134F97
S1134840DFF84CC0BCEB070E70468646BEF1010093
S1134850BEF1000F06D097F800E086F800E07F1C58
S1134860761CF2E7F0BD00BF0000FF1F000000004F
S113487008ED00E01004FF1F743A0000A03C0000A3
S11348808806FF1F1E09FF1F3806FF1F3051000056
S11348908051000080B5574800688047564800683A
S11348A050F001005449086001BD80B5514840688A
S11348B080475148006850F002004F49086001BD2C
S11348C080B54C48806880474B48006850F004002D
S11348D04949086001BD80B54648C06880474648DC
S11348E0006850F008004449086001BD80B54148A3
S11348F0006980474048006850F010003E49086055
S113490001BD80B53B48406980473B48006850F092
S113491020003949086001BD80B536488069804768
S11349203548006850F040003349086001BD80B547
S11349303048C06980473048006850F080002E49F4
S1134940086001BD80B52B48006A80472A4800688A
S113495050F480702849086001BD80B52548406A3C
S113496080472548006850F400702349086001BD61
S113497080B52048806A80471F48006850F00100D5
S11349801D49086001BD80B51A48C06A80471A48AD
S1134990006850F400601849086001BD80B51548EE
S11349A0006B80471448006850F480501249086036
S11349B001BD80B50F48406B80470F48006850F434
S11349C000500D49086001BD80B50A48806B8047DE
S11349D00948006850F480400749086001BD80B56B
S11349E00448C06B80470448006850F40040024902
S11349F0086001BDD807FF1F2480004080B50A204D
S1134A0000F09AF85FF0FF304249086042480068BD
S1134A10002806D00120FEF715FA00203F4908704F
S1134A2009E03F480068002805D00120FEF70AFA93
S1134A3001203A49087001BD00B587B0394801909A
S1134A400F20029000208DF810003748039037485B
S1134A50059001A984B068461422FCF7C9F90FBC7B
S1134A60FDF738F801A984B068461422FCF7C0F9B0
S1134A700FBCFDF7B2F807B000BD80B5642000F0AC
S1134A805BF82B480068400608D5012023490870CC
S1134A9006212848FDF7DAF80028F9D024480068F0
S1134AA0000608D501201D49487007212148FDF75B
S1134AB0CDF80028F9D01E480068400508D500202C
S1134AC0164908700A211B48FDF7C0F80028F9D0E0
S1134AD017480068000508D500201049C8600B215C
S1134AE01448FDF7B3F80028F9D011480068C00451
S1134AF008D50020094948700C210E48FDF7A6F896
S1134B000028F9D00120FEF79DF95FF0FF30084935
S1134B10086001BDA0C00440001AFE43E406FF1F64
S1134B20081AFE43C0F00F4002000900FD490000CE
S1134B30A0D0044000F10F4080B200281BD01449DB
S1134B40096851F00101124A116080B213490860EA
S1134B500521114A11600F49096851F001010D4AFC
S1134B6011600C4909680906FBD50A490968490816
S1134B704900084A1160704780B50648006850F043
S1134B8080000449086006480068804701BD0000B1
S1134B90388004400000044004000440080004403D
S1134BA03808FF1F0FB470B5059841490968414A98
S1134BB0B1FBF2F1069A3E4B1B683E4CB3FBF4F397
S1134BC05A434FF47A735A4301FB00200799384A39
S1134BD01268384BB2FBF3F25143364A02FB01042C
S1134BE09DF81050089EEDB2042D03DB32213248AB
S1134BF0FCF7F2F8002C03D133212F48FCF7ECF832
S1134C002E48006850F400002C49086000202C490C
S1134C1008603000002809D02A48EDB240F8256029
S1134C2002202949EDB211EB05118860601E264966
S1134C30EDB22A0150502448EDB210EB0510806803
S1134C4050F001002049EDB211EB051188600120FC
S1134C5070BC5DF814FB80B51A48006880471B4897
S1134C60006850F001001949086001BD80B515487D
S1134C70406880471648006850F0010014490860F5
S1134C8001BD80B50F48806880471248006850F025
S1134C9001001049086001BD80B50A48C06880471A
S1134CA00D48006850F001000B49086001BD000088
S1134CB01804FF1F40420F00585300003C8004407A
S1134CC0007003404408FF1F007103400C7103404F
S1134CD01C7103402C7103403C71034080B55A2081
S1134CE02F49087004202E49486000202C49886010
S1134CF000202B49C860012029490874284984B040
S1134D0068461422FCF774F80FBCFFF72CFA5B20FA
S1134D102349087004202249486001202049886002
S1134D2000201F49C86001201D4908741C4984B033
S1134D3068461422FCF75CF80FBCFFF714FA37201E
S1134D4017490870042016494860022014498860F5
S1134D5000201349C860012011490874104984B027
S1134D6068461422FCF744F80FBCFFF7FCF9442012
S1134D700B49087004200A494860032008498860E8
S1134D8000200749C860012005490874044984B01B
S1134D9068461422FCF72CF80FBCFFF7E4F901BDB8
S1134DA0DC08FF1F80B525482549086000202449F8
S1134DB0087103202249487110202149887101207B
S1134DC01F49C87107201E49087201201C49C87276
S1134DD01B4984B068461422FCF70AF80FBCFEF79E
S1134DE03FF808211548FEF724F901BD10B5002449
S1134DF0FFF780FA08211148FEF707F91149886086
S1134E000220FFF799FE00200400A4B2B4F5FA6F63
S1134E1013DA08210948FEF7F8F80A49896811FAF3
S1134E2080F0084988600748806840080549886020
S1134E300220FFF781FE641CE7E710BD00B00340C9
S1134E40D006FF1FE406FF1F00B587B0DFF880001F
S1134E5001904FF4E650029000208DF81000DFF826
S1134E6074000390DFF87000059001A984B06846CF
S1134E701422FBF7BDFF0FBCFCF72CFE01A984B084
S1134E8068461422FBF7B4FF0FBCFCF7A6FEDFF85C
S1134E904C0001905FF03050029000208DF810001B
S1134EA0032003900020059001A984B068461422D1
S1134EB0FBF79EFF0FBCFCF70DFE01A984B068460A
S1134EC01422FBF795FF0FBCFCF787FE07B000BD6B
S1134ED000F10F4003000A007B4A000000F00F407D
S1134EE080B51A48006840060CD51848006880064A
S1134EF008D51748006880471448006830F040001F
S1134F001249086014480068C0070CD50F480068AF
S1134F10800308D50F48006880470F48006850F0A8
S1134F2001000D4908600D48006880070CD507484A
S1134F300068800308D50748006880470748006870
S1134F4050F002000549086001BD00000060034004
S1134F503C08FF1F4008FF1F146003403C600340EF
S1134F6080B5FDF7E5FC012218211748FCF762FE25
S1134F7000221C211448FCF75DFE00F02BF800F021
S1134F8057F8FCF71FFB1148009007234222002129
S1134F900020FCF76AFCFFF74FFDFFF755FFFFF712
S1134FA001FF00F077F8002009490861FFF796FE39
S1134FB0002218210448FCF73DFE01221C2102486E
S1134FC0FCF738FE01BD00BF00F00F402404FF1FB2
S1134FD0E406FF1F80B51348134908605FF4E1300D
S1134FE01149486085201049487284200E4908728E
S1134FF001200D4988720D480B49C8600A4984B0E4
S113500068461422FBF7F4FE0FBCFCF782FE064947
S113501084B068461422FBF7EBFE0FBCFDF765F87D
S113502001BD00BF00B00E400409FF1F493300005A
S1135030E0B5164816490860012015490871322068
S11350401349886010201249C86000201049087470
S11350500A200F49487400200D49487400200C4967
S1135060087500200A498861094984B068461C22F1
S1135070FBF7BEFE0FBCFBF7D5F9282000903D23BB
S1135080002200210148FBF761FA07BD00800340BC
S1135090B407FF1F80B500200B49087000200A499F
S11350A0C860012008498860002007494860074813
S11350B005490861044984B068461422FBF798FE48
S11350C00FBCFFF76FFD01BDF008FF1F9542000004
S11350D080B516480068C00709D5134800688047A2
S11350E01248006850F00100104908601AE00F48A7
S11350F00068800709D50C48406880470B48006861
S113510050F00200094908600CE0084800684007B4
S113511008D50548806880470448006850F00400BA
S11351200249086001BD00005408FF1F14D0034069
S1135130F0B4114E366834000F4E366856F47F06CC
S11351400D4F3E600E0616F0706656EA007617059F
S113515017F470073E431F0417F470273E43074FAC
S11351603E6000263500EDB29D4201D26D1CFAE787
S1135170014E3460F0BC704700F0014044800440AC
S11351802A2A2A2A2A2A2A2A2A2A2A2A2A2A2A2A7B
S11351902A2A2A2A2A2A2A2A2A2A2A2A2A2A2A2A6B
S11351A02A2A2A2A2A2A2A2A2A2A2A2A2A2A2A2A5B
S11351B02A2A2A2A2A2A2A2A2A2A2A2A2A2A2A2A4B
S11351C02A2A2A2A0D0A0000433A5CB0D9B6C8D468
S11351D0C6CDACB2BDC5CC5CB1C8C8FCB4FAC2EB98
S11351E05C4C504C445F4F534B696E657469735FFC
S11351F056335C6C69625C4C504C445C48575C4868
S1135200575F4750494F2E6300000000433A5CB09B
S1135210D9B6C8D4C6CDACB2BDC5CC5CB1C8C8FC87
S1135220B4FAC2EB5C4C504C445F4F534B696E650F
S11352307469735F56335C6C69625C4C504C445CBB
S113524048575C48575F4E5649432E6300000000A0
S11352502A2A2A2A2A2A2A2A2A2A2A20BBF9D3DAFB
S1135260C0ADC6D5C0BCB5C24B3630B5D7B2E3BFAE
S1135270E220687474703A2F2F7777772E6C706CF5
S1135280642E636E202A2A2A2A2A2A2A2A2A2A2AC9
S11352900D0A0000CFB5CDB3C6F4B6AFCDEAB1CF99
S11352A0A3ACC8F4D2AABDFBD3C3B5F7CAD4CAE42D
S11352B0B3F6C7EBB6A8D2E55052494E545F4F4EF1
S11352C05F4F4646CEAA31286B36305F6361726405
S11352D02E68290D0A000000433A5CB0D9B6C8D440
S11352E0C6CDACB2BDC5CC5CB1C8C8FCB4FAC2EB87
S11352F05C4C504C445F4F534B696E657469735FEB
S113530056335C6C69625C4C504C445C48575C4856
S1135310575F4144432E6300433A5CB0D9B6C8D4C6
S1135320C6CDACB2BDC5CC5CB1C8C8FCB4FAC2EB46
S11353305C4C504C445F4F534B696E657469735FAA
S113534056335C6C69625C4C504C445C48575C4816
S1135350575F46544D2E6300433A5CB0D9B6C8D467
S1135360C6CDACB2BDC5CC5CB1C8C8FCB4FAC2EB06
S11353705C4C504C445F4F534B696E657469735F6A
S113538056335C6C69625C4C504C445C48575C48D6
S1135390575F5049542E6300B6CFD1D4CAA7B0DCAE
S11353A0B7A2C9FAD3DA20257320B4FAC2EBB5C484
S11353B0B5DA20256420D0D0A3ACC7EBBCECB2E9AD
S11353C0B2CECAFDA1A30A004F534B696E6574693E
S11353D073B9CCBCFEBFE2B0E6B1BE3A2573096D29
S11353E061696C3A737570706F7274406C706C6440
S11353F02E636E0D0A0000000D0A2A2A2A2ABDF81F
S1135400C8EBCEB4B6A8D2E5D6D0B6CF2C496E74CC
S1135410657272757074204E756D626572202564B4
S11354202A2A2A2A2A0D0A0080B5FFF799FDFFF7D8
S1135430DDFC0020FDF706FDFDF797FA044800782F
S11354400A28F9DBFDF754FF002001490870F3E74F
S11354501D09FF1F10B5074979441831064C7C44D7
S1135460163404E00A68081D511888470146A14211
S1135470F8D110BD500000005C000000CFB5CDB3E2
S1135480C4DABACBCAB1D6D33A25644D487A09D71F
S1135490DCCFDFCAB1D6D33A25644D487A0D0A0071
S11354A0466C6578427573CAB1D6D33A25644D48C3
S11354B07A09466C617368CAB1D6D33A25644D48FB
S11354C07A0D0A0083B9FFFF980200008806FF1FC7
S11354D0000000000D0A2A2A2A2AC4DABACBB7A28D
S11354E0C9FAD3B2BCFEB4EDCEF32A2A2A2A2A0D75
S11354F00A00000000F00BF8002801D0FFF7AAFF13
S11355000020C046C046FFF78FFF00F002F80120DC
S1135510704700F001B800000746384600F002F872
S1135520FBE7000080B5C046C046024A11001820BF
S1135530ABBEFBE72600020010B50400210049B20F
S11355400148FCF7CDFD10BD00B00E4080B5024807
S11355500068804701BD0000A808FF1FC046C04680
S1135560C046C046FFF7C6FF332E303300000000AC
S903555D4A
