:020000041FFFDC
:10F00000C014002019100020311000203110002001
:10F01000311000203110002031100020311000206C
:10F02000311000203110002031100020311000205C
:10F03000311000203110002031100020311000204C
:10F04000311000203110002031100020311000203C
:10F05000311000203110002031100020311000202C
:10F06000311000203110002031100020311000201C
:10F07000311000203110002031100020311000200C
:10F0800031100020311000203110002031100020FC
:10F090003110002031100020730E002031100020AC
:10F0A00031100020311000203110002031100020DC
:10F0B000490E002031100020570E00203110002092
:020000042000DA
:1000000070B504000D0016003068012802D00228E7
:1000100005D00BE02000C0B27168884706E0B068E8
:1000200021000170B068401CB060FFE72868401CE8
:10003000286070BDFFB584B000200600049805005C
:10004000002028706D1C0698002825D005980068AF
:1000500001900198002803D130202870761C3FE0E1
:10006000019800283CD00198079900F079FA039094
:1000700001980399079A5143401A0700002F03D5AE
:10008000F8430700313700E030370398019038001B
:1000900028706D1C761CE3E70598006800900098B6
:1000A000002803D130202870761C19E00098002821
:1000B00016D00098079900F056FA0290009802991D
:1000C000079A5143401A04000A2C01D2303400E050
:1000D000373402980090200028706D1C761CE5E7EC
:1000E000300008B0F0BDF1B50F0015001E000098FB
:1000F0000400BC4206DA320029003020FFF780FFFE
:10010000641CF6E7F1BDF1B50F0015001E00009864
:100110000400BC4206DA320029002020FFF770FFFD
:10012000641CF6E7F1BDF3B595B017000020009010
:100130001698040020780690002800D1DFE1069888
:10014000252813D006980A2805D0159A69460698DE
:10015000FFF756FF09E0159A69460D20FFF750FF9B
:10016000159A69460A20FFF74BFFC6E100200600FA
:10017000002004900498002824D1641C20782028B2
:1001800010D0232816D02B2808D02D2802D03028B4
:100190000CD013E0300001260643EBE730000226C6
:1001A0000643E7E7300004260643E3E7300008266D
:1001B0000643DFE7300010260643DBE7641E01201C
:1001C0000490D7E7002001900020049004980028B4
:1001D00011D1641C207806903038092807D801987E
:1001E0000A2148430699401830380190EEE7641E12
:1001F00001200490EAE7641C20782E280ED100200C
:100200000490049800280AD1641C2078303809280A
:1002100000D8F6E7641E01200490F2E7641E641C17
:1002200020784C2806D0682802D06C2801D002E043
:1002300002E001E000E0641E641C2078069058286B
:1002400072D0622800D1CCE0632800D116E1642886
:1002500013D0692811D06E2800D142E16F2800D157
:10026000B4E0702800D1C7E0732800D110E17528F0
:1002700000D1CCE0782857D03AE1386809903F1D8A
:100280000A23012209A90CA8FFF7D4FE05000CA837
:10029000401908900998002803D52D2003906D1C63
:1002A0000DE0B00703D52B2003906D1C07E070070D
:1002B00003D5202003906D1C01E000200390002056
:1002C0000590300712D50398002804D0159A694686
:1002D0000398FFF795FE01200590159B6A4601994A
:1002E0002800FFF700FF0198050011E0F0070FD488
:1002F000159B6A4601992800FFF705FF039800281F
:1003000004D0159A69460398FFF77AFE01200590FC
:100310000598002807D10398002804D0159A69464B
:100320000398FFF76DFE92E0386802903F1D10239E
:10033000002202A90CA8FFF77DFE05000CA84019B9
:10034000089000200590300716D5F0060BD5159AB9
:1003500069463020FFF754FE159A69467820FFF76A
:100360004FFE01200590159B6A4601992800FFF772
:10037000BAFE0198050018E0F00716D4F00600D583
:10038000AD1C159B6A4601992800FFF7BCFEF006DC
:100390000BD5159A69463020FFF732FE159A69464B
:1003A0007820FFF72DFE01200590F0060DD5059869
:1003B00000280AD1159A69463020FFF721FE159AC8
:1003C00069467820FFF71CFEAD1C40E038680290BB
:1003D0003F1D0823002202A90CA8FFF72BFE0500F1
:1003E0001FE0386802903F1D0223002202A90CA8DA
:1003F000FFF720FE050014E0386802903F1D10232F
:10040000002202A90CA8FFF715FE050009E03868D4
:1004100002903F1D0A23002202A90CA8FFF70AFE42
:1004200005000CA840190890300708D5159B6A46AE
:1004300001992800FFF757FE0198050007E0F00733
:1004400005D4159B6A4601992800FFF75CFE0898C1
:100450000078002809D0159A694608980078FFF7B7
:10046000CFFD0898401E0890F1E7F00705D5159BD1
:100470006A4601992800FFF746FE3EE03868C0B2A0
:100480000A903F1D159A69460A98FFF7B9FD34E0B6
:10049000386807903F1D0798002821D0079800F082
:1004A000B9F80500F00705D4159B6A4601992800A4
:1004B000FFF729FE07980078002809D0159A6946A9
:1004C00007980078FFF79CFD0798401C0790F1E71C
:1004D000F00705D5159B6A4601992800FFF713FE22
:1004E0000BE038680B903F1D0B980099016004E009
:1004F000159A69460698FFF783FD641C1AE6009872
:1005000017B0F0BD0EB47EB505000120009008487C
:10051000019007A80600320029006846FFF703FE95
:100520000400200003B0039970BC04B00847000029
:1005300071100020F446002804D4494200F013F85A
:10054000404260474042002905D45FD000F00BF8DC
:10055000404249426047494200F005F8494260473D
:1005600003460B43E6D40022030A8B420BD2030955
:100570008B4219D243088B422ED2411A00D2014637
:10058000524110467047FF2209023FD012068B42AB
:1005900005D3121209028B4201D312120902030978
:1005A0008B4219D300E0090AC3098B4201D3CB0166
:1005B000C01A524183098B4201D38B01C01A5241A8
:1005C00043098B4201D34B01C01A524103098B42AC
:1005D00001D30B01C01A5241C3088B4201D3CB0097
:1005E000C01A524183088B4201D38B00C01A52417A
:1005F00043088B4201D34B00C01A5241884200D3BA
:10060000401A5241CFD201461046704708B500F05B
:1006100013F808BD00B501000A000023002A01D12B
:10062000002008E010000200521C0078002801D0D1
:100630005B1CF7E7180000BD704738B401210022A9
:100640000368001D002B0BD00468001D0C4202D073
:100650004D466D1E64192260241D1B1FF0D0FAE761
:1006600032BC704738B50400E4B2002C00D1D6E0AB
:10067000E4B22000302820D0322825D050282AD0BB
:1006800060282FD0642834D06E2839D078283ED006
:100690007D2843D0822848D08C284DD0962852D02F
:1006A000A02857D0AA285CD0B42861D0C82866D02A
:1006B000E1286BD0FA2870D076E0854818210170C7
:1006C00083480021417073E08148182101708048FF
:1006D000012141706CE07E48182101707C48102196
:1006E000417065E07A4818210170794818214170FD
:1006F0005EE077481821017075481A21417057E073
:1007000073481821017072481F21417050E07048F1
:10071000132101706E481821417049E06C48132183
:1007200001706B481A21417042E069481321017041
:1007300067481C2141703BE065480E210170644808
:100740001221417034E062480E2101706048152189
:1007500041702DE05E480E2101705D481821417006
:1007600026E05B480E21017059481B2141701FE0B3
:1007700057480E21017056481E21417018E0544818
:100780000C21017052481C21417011E050480B218E
:1007900001704F481E2141700AE04D480A21017046
:1007A0004B481F21417003E06420FFF75BFF8EE0A0
:1007B000474800218170E4B2192C03DA4448002133
:1007C00041712CE0E4B2312C03DA4148012141713E
:1007D00025E0E4B2492C03DA3D48022141711EE0D4
:1007E000E4B2612C03DA3A480321417117E0E4B224
:1007F000792C03DA36480421417110E0E4B2912CDF
:1008000003DA33480521417109E0E4B2A92C03DA87
:100810002F480621417102E02D48072141712C48E3
:100820004178183189B23220484329490978491C56
:1008300089B2FFF795FE050026482C210170264855
:1008400098210170254800788007FBD5234800785F
:10085000C006FBD421480078C0B280088007800F12
:100860000228F7D11A480078C006C00E1C4908704B
:100870001C48002101701648807800071449497906
:100880000904E022D2020A400243174802601048DD
:100890004078C006C00E40210143124801700F4845
:1008A00000788006FBD50D4800784006FBD50A4845
:1008B00000788006800E0849087008480078C0B2A9
:1008C00080088007800F0328F7D12800C0B232BD0E
:1008D00094100020014006400040064006400640BB
:1008E000044006400540064044800440F2B582B012
:1008F0000700774DFFB20420784376490818001F9F
:1009000000680400FFB2002F61D1734800688021A5
:10091000C900014370480160C02189000F2000F028
:10092000F1F8C02189000E2000F0ECF86B48006857
:100930008021C9040143694801606848006880213A
:100940004902014365480160E878F3210140E970FC
:1009500065480068019064480068FA2189004843AE
:10096000029910225143FFF7FEFD060068462978E0
:10097000E0220A40027068460078310089B2090A14
:10098000C906C90E014329703000687054480F2110
:1009900001705448002101705448002101705448EE
:1009A00000210170534800210170534800781F2135
:1009B00001435148017051480078C02101434F481C
:1009C0000170E8780C210143E97000205AE0FFB281
:1009D0003800012802D0022812D023E03E480068E7
:1009E0008021090101433C480160C0218900432066
:1009F00000F088F8C0218900442000F083F813E05B
:100A00003548006880214901014333480160C02115
:100A10008900622000F076F8C0218900632000F090
:100A200071F801E001202DE0E078F3210140E17050
:100A30000020A0702C480068FA21890048430299E0
:100A400010225143FFF78FFD060068462178E0220F
:100A50000A40027068460078310089B2090AC90666
:100A6000C90E01432170300060700020A07000208A
:100A7000A0711F20207100206071E0780C210143DB
:100A8000E1700020FEBD30B50200114CD2B204204E
:100A90005043104D2818001F056800200300184817
:100AA00083420ED2D2B2002A04D12079000606D5A4
:100AB000E17106E02879000601D5E97101E05B1CCF
:100AC000EDE70F48834201D3012000E0002030BD54
:100AD00000A006408C1000203480044004800440B4
:100AE0000AA0064002A00640B810002006A006405A
:100AF00008A0064009A0064004A0064005A0064044
:100B0000BBFB000010B40D4A126880239B00040058
:100B1000E4B26409A3401343084A1360C0B2C2069A
:100B2000D20E04235A43C0B203005B110424634372
:100B3000034CE358995010BC7047000038800440C3
:100B40009C100020F7B50500EDB228002021FFF72A
:100B500007FD0600EDB228002021FFF701FD0F0080
:100B6000F6B2042070433C4908580090F6B20420C5
:100B700070433A4908580400FFB2042078430099B2
:100B8000802252000A506846007901280BD1606922
:100B90000121B940014361616846017A2800C0B271
:100BA00000F007F804E060690121B140884360610A
:100BB000F7BDF8B504000D00E4B220002021FFF7D6
:100BC000CFFC69460870E4B220002021FFF7C8FC82
:100BD0000F00684600780421484320490858060061
:100BE000EDB2012D05D130680121B94001433160DA
:100BF00004E030680121B94088433060F1BDF8B5A8
:100C00000400E4B220002021FFF7AAFC6946087026
:100C1000E4B220002021FFF7A3FC0E006846007814
:100C2000042148430D49085805002869F040010097
:100C3000C907C90F0F00FFB2002F05D12868012195
:100C4000B1400143296004E028680121B140884394
:100C50002860F1BD00000000481000205C1000205A
:100C6000F0B583B02248234988420DD0002004000B
:100C7000C02C09D2042060431D49042262431D4B4D
:100C80009A580A50641CF3E7194800F045F81A48CE
:100C900007001A4805001A4801900198401B0400FB
:100CA0002000441E002804D0287838706D1C7F1C5A
:100CB000F6E714480600144800900098801B0400D2
:100CC0002000441E002803D000203070761CF7E777
:100CD0000E480F490F4A531A1C0023005C1E002BBC
:100CE00004D00B780370491C401CF6E7F7BD00BF29
:100CF00000F0FF1F00F0FF1F94100020B40F002031
:100D0000D00F0020B0100020BD100020BD1000202A
:100D1000941000209410002010490860704770B5AE
:100D20000400212C03DB0E48FFF7ECFB15E00D4817
:100D30000568012620002021FFF712FC8E402E437B
:100D40000848066008480568012620002021FFF7B2
:100D500007FC8E402E430448066070BD08ED00E09D
:100D6000F80E002080E200E000E100E010B41A4A32
:100D7000126880231B041343174A1360174A002389
:100D80001360C0B210224243154B4C1E9C50C0B29F
:100D900010224243124B9A18D26801231343C0B267
:100DA000102242430E4CA218D360C0B2102242431C
:100DB0000B4B9A18926801239A43C0B21023434305
:100DC000074CE3189A60C0B210224243044B9A18B1
:100DD0000323936010BC70473C80044000700340C4
:100DE0000071034080B572B6154801686420414324
:100DF0000020FFF7BBFF1620FFF791FFE12149021A
:100E00000020FFF773FD012201212020FFF79AFE49
:100E1000012201212220FFF795FE62B609480078E1
:100E20000028FBD0074800210170FF210020FFF7B8
:100E30002AFE2020FFF7E3FE2220FFF7E0FEEDE789
:100E4000B8100020BC100020114800688021014328
:100E50000F480160704700B50020062108000D49C9
:100E60000968C140C90703D501218140094A1160C1
:100E700000BD00B508480068012808D10648006890
:100E8000012101430448016004480121017000BDB3
:100E900000000440A09004400C710340BC100020EE
:100EA00080B510480068F821890101430D480160B0
:100EB0006420FFF7D7FB0C4908600B480068FA2153
:100EC00089004843094908600848006808490968DA
:100ED000090C4907490F491CFFF745FB0549086004
:100EE00001BD00BF38800440B4100020B0100020C5
:100EF00044800440B81000200A4552522120496E17
:100F000076616C6964204952512076616C75652068
:100F100070617373656420746F20656E61626C65C7
:100F2000206972712066756E6374696F6E210A00A4
:100F30000A2A2A2A2A64656661756C745F6973726D
:100F400020656E7465726564206F6E2076656374CB
:100F50006F722025642A2A2A2A2A0D0A0A00000014
:100F600010B5074979441831064C7C44163404E026
:100F7000081D0A68891888470100A142F8D110BDF0
:100F80000800000014000000B3F6FFFF100000008E
:100F9000B01000200000000080B50548002101606D
:100FA000FFF75EFEFFF77CFFFFF71CFFFEE700BFC9
:100FB000008104400B1F0000000900000090044065
:100FC00000A0044000B0044000C0044000D0044031
:100FD00000F00BF8002801D0FFF7C2FF0020C04648
:100FE000C046FFF7FFFE00F002F80120704780B511
:100FF00000F002F801BD00000746384600F002F894
:10100000FBE7000080B5C046C046024A1100182028
:10101000ABBEFBE7260002000020002100220023D7
:10102000002400250026002762B6FFF7B5FFFEE783
:1010300080B5034801680348FFF764FA01BD00006A
:1010400004ED00E0300F00200090044000A00440B8
:1010500000B0044000C0044000D0044000F00F4045
:1010600040F00F4080F00F40C0F00F4000F10F4003
:1010700010B504002100C9B20120FFF704FD10BD26
:10108000C046C046C046C046FFF7A2FF00B00640BB
:0410900000C0064056
:040000052000108146
:00000001FF
