:1000000068FAFF1FCD3B0000E53B0000E53B000028
:10001000E53B0000E53B0000E53B0000E53B000060
:10002000E53B0000E53B0000E53B0000E53B000050
:10003000E53B0000E53B0000E53B0000E53B000040
:10004000E53B0000E53B0000E53B0000E53B000030
:10005000E53B0000E53B0000E53B0000E53B000020
:10006000E53B0000E53B0000E53B0000E53B000010
:10007000D11A0000E53B0000E53B0000E53B000035
:10008000E53B0000E53B0000E53B0000E53B0000F0
:10009000E53B0000E53B0000F1390000E53B0000D6
:1000A000E53B0000E53B0000E53B0000E53B0000D0
:1000B000E53B0000E53B0000E53B0000E53B0000C0
:1004100070B504000D0016003068012802D00228D3
:1004200005D00BE02000C0B27168884706E02000CC
:10043000B1680870B068401CB060FFE72868401CD5
:10044000286070BDFFB584B0002006000498050048
:10045000002028706D1C0698002825D0059800689B
:1004600001900198002803D130202870761C3FE0CD
:10047000019800283CD00198079900F079FA039080
:1004800001980399079A5143401A0700002F03D59A
:10049000F8430700313700E0303703980190380007
:1004A00028706D1C761CE3E70598006800900098A2
:1004B000002803D130202870761C19E0009800280D
:1004C00016D00098079900F056FA02900098029909
:1004D000079A5143401A04000A2C01D2303400E03C
:1004E000373402980090200028706D1C761CE5E7D8
:1004F000300008B0F0BDF8B507000E0015003C0054
:10050000B44206DA009A29003020FFF781FF641C0C
:10051000F6E7F1BDF8B507000E0015003C00B44247
:1005200006DA009A29002020FFF772FF641CF6E724
:10053000F1BDF3B595B014000020009016980500A9
:10054000287802900298002800D1E1E1029825283D
:1005500013D002980A2805D0159A69460298FFF729
:1005600057FF09E0159A69460D20FFF751FF159ACC
:1005700069460A20FFF74CFFC8E100200700002071
:1005800005900598002824D16D1C2878202810D0CB
:10059000232816D02B2808D02D2802D030280CD0A4
:1005A00013E0380001270743EBE738000227074331
:1005B000E7E7380004270743E3E738000827074345
:1005C000DFE7380010270743DBE76D1E01200590A9
:1005D000D7E700200190002005900598002812D14F
:1005E0006D1C2878029002983038092807D80198A5
:1005F0000A2148430299401830380190EDE76D1EFA
:1006000001200590E9E76D1C28782E280ED10020E6
:100610000590059800280AD16D1C287830380928E3
:1006200000D8F6E76D1E01200590F2E76D1E6D1CE7
:1006300028784C2806D0682802D06C2801D002E027
:1006400002E001E000E06D1E6D1C28780290029827
:10065000582872D0622800D1CCE0632800D116E17E
:10066000642813D0692811D06E2800D142E16F2888
:1006700000D1B4E0702800D1C7E0732800D110E1A8
:10068000752800D1CCE0782857D03AE12068241DA5
:1006900009900A23012209A90CA8FFF7D3FE06003E
:1006A0000CA8801908900998002803D52D200490E3
:1006B000761C0DE0B80703D52B200490761C07E0CC
:1006C000780703D520200490761C01E000200490D8
:1006D00000200690380712D50498002804D0159AF7
:1006E00069460498FFF794FE01200690159B6A4620
:1006F00001993000FFF7FFFE0198060011E0F807AE
:100700000FD4159B6A4601993000FFF703FF049848
:10071000002804D0159A69460498FFF779FE012055
:1007200006900698002807D10498002804D0159A4E
:1007300069460498FFF76CFE92E02068241D039040
:100740001023002203A90CA8FFF77CFE06000CA8CA
:100750008019089000200690380716D5F8060BD5AA
:10076000159A69463020FFF753FE159A694678209E
:10077000FFF74EFE01200690159B6A460199300056
:10078000FFF7B9FE0198060018E0F80716D4F8063E
:1007900000D5B61C159B6A4601993000FFF7BAFEDA
:1007A000F8060BD5159A69463020FFF731FE159AE9
:1007B00069467820FFF72CFE01200690F8060DD53B
:1007C000069800280AD1159A69463020FFF720FEC6
:1007D000159A69467820FFF71BFEB61C40E020689A
:1007E000241D03900823002203A90CA8FFF72AFE6A
:1007F00006001FE02068241D03900223002203A9A5
:100800000CA8FFF71FFE060014E02068241D0390CB
:100810001023002203A90CA8FFF714FE060009E02C
:100820002068241D03900A23002203A90CA8FFF7C7
:1008300009FE06000CA880190890380708D5159BFA
:100840006A4601993000FFF756FE0198060007E05E
:10085000F80705D4159B6A4601993000FFF75AFE48
:1008600008980078002809D0159A694608980078F9
:10087000FFF7CEFD0898401E0890F1E7F80705D570
:10088000159B6A4601993000FFF744FE3EE0206860
:10089000241DC0B20A90159A69460A98FFF7B8FD60
:1008A00034E02068241D07900798002821D007987D
:1008B00000F0B8F80600F80705D4159B6A460199C0
:1008C0003000FFF727FE07980078002809D0159A16
:1008D000694607980078FFF79BFD0798401C079032
:1008E000F1E7F80705D5159B6A4601993000FFF737
:1008F00011FE0BE02068241D0B9000980B990860F6
:1009000004E0159A69460298FFF782FD6D1C17E610
:10091000009817B0F0BD0EB47EB505000120009020
:100920000748019007A80600320029006846FFF733
:1009300000FE0400200003B0039970BC04B0084717
:10094000FD3B0000F446002804D4494200F013F8AF
:10095000404260474042002905D45FD000F00BF8C8
:10096000404249426047494200F005F84942604729
:1009700003460B43E6D40022030A8B420BD2030941
:100980008B4219D243088B422ED2411A00D2014623
:10099000524110467047FF2209023FD012068B4297
:1009A00005D3121209028B4201D312120902030964
:1009B0008B4219D300E0090AC3098B4201D3CB0152
:1009C000C01A524183098B4201D38B01C01A524194
:1009D00043098B4201D34B01C01A524103098B4298
:1009E00001D30B01C01A5241C3088B4201D3CB0083
:1009F000C01A524183088B4201D38B00C01A524166
:100A000043088B4201D34B00C01A5241884200D3A5
:100A1000401A5241CFD201461046704708B5C04631
:100A2000C04608BD00B501000A000023002A01D11C
:100A3000002008E010000200521C0078002801D0BD
:100A40005B1CF7E7180000BD80B500220121632080
:100A500000F08AFA00220121802000F085FA01BD11
:100A600080B59B480078002808D0022809D014D30C
:100A700004280FD008D3052809D010E000F010F8A2
:100A80000DE000F095F80AE000F028F907E000F02A
:100A90008DF904E000F0F2F801E000F0F1F901BD99
:100AA00000B58C4800880A280CDA8B4800680121C0
:100AB000014389480160BC48006808218843BA495D
:100AC000086074E08348008815280CDA82480068C2
:100AD0000121884380490860B34800680821014328
:100AE000B148016063E07B4800881F280CDA7A482F
:100AF00000680121014378480160AB480068082183
:100B00008843A949086052E07248008829280CDA15
:100B100071480068012188436F490860A248006855
:100B200008210143A048016041E06A480088332859
:100B30000CDA6948006801210143674801609A485E
:100B40000068082188439849086030E061480088BF
:100B500065280CDA60480068012188435E49086016
:100B600091480068082101438F4801601FE05948FF
:100B7000008897280CDA584800680121014356483C
:100B800001608948006808218843874908600EE0B1
:100B900051480068012188434F4908608248006835
:100BA000082101438048016004204949087000BDC4
:100BB00000B54848008805280CDA4748006801213C
:100BC0000143454801607848006808218843764918
:100BD000086052E03F4800880B280CDA3E48006865
:100BE000012188433C4908606F480068082101439F
:100BF0006D48016041E0374800880F280CDA36481C
:100C000000680121014334480160674800680821F9
:100C100088436549086030E02E48008815280CDAC2
:100C20002D480068012188432B4908605E48006810
:100C3000082101435C4801601FE02648008819280C
:100C40000CDA254800680121014323480160564819
:100C5000006808218843544908600EE01E48006877
:100C6000012188431C4908604F480068082101435E
:100C70004D48016004201649087000BD00B57E484B
:100C800000880A280CDA1448006801210143124840
:100C9000016045480068082188434349086015E021
:100CA00075480088FF21F63188420CDA0A4800684E
:100CB00001218843084908603B4800680821014336
:100CC0003948016002E000206B49088000BD000047
:100CD000C0F0FF1F64F6FF1F00F10F4000B566482B
:100CE000008832280CDA6548006801210143634816
:100CF00001602D480068082188432B49086052E0B4
:100D00005D48008865280CDA5C480068012188434A
:100D10005A490860244800680821014322480160BC
:100D200041E05548008896280CDA544800680121B3
:100D30000143524801601C480068082188431A4951
:100D4000086030E04C480088C9280CDA4B4800683D
:100D5000012188434949086013480068082101437C
:100D6000114801601FE044480088FA280CDA434823
:100D7000006801210143414801600B4800680821D7
:100D80008843094908600EE03C4800680121884317
:100D90003A4908600448006808210143024801609C
:100DA00004206D49087000BDC0F00F4000B5324806
:100DB000008803280CDA31480068012101432F48DC
:100DC000016066480068082188436449086052E071
:100DD0002948008807280CDA284800680121884340
:100DE000264908605D480068082101435B480160AE
:100DF00041E02148008809280CDA204800680121D8
:100E000001431E4801605548006808218843534942
:100E1000086030E0184800880D280CDA1748006890
:100E200001218843154908604C48006808210143A6
:100E30004A4801601FE01048008811280CDA0F486A
:100E40000068012101430D48016044480068082101
:100E50008843424908600EE0084800680121884341
:100E6000064908603D480068082101433B4801608D
:100E700004203949087000BD64F6FF1F00F10F40DF
:100E800000B5374800880A280CDA36480068012186
:100E900001433448016031480068082188432F49E4
:100EA000086052E02E48008815280CDA2D480068AA
:100EB000012188432B490860284800680821014324
:100EC0002648016041E0264800881E280CDA2548A3
:100ED000006801210143234801602048006808217F
:100EE00088431E49086030E01D48008829280CDA34
:100EF0001C480068012188431A49086017480068A7
:100F000008210143154801601FE015480088322878
:100F10000CDA1448006801210143124801600F48AF
:100F20000068082188430D4908600EE00D480068FC
:100F3000012188430B4908600848006808210143E3
:100F40000648016004200449087000BD0021044ADD
:100F50001180014908707047C0F0FF1FC0F00F40BA
:100F600064F6FF1F00F10F4070B504000D0016007D
:100F70002D48E4B221004911042251434058E4B203
:100F8000E106C90E04225143802252004250EDB2C4
:100F9000012D1BD12548E4B22100491104225143FF
:100FA00040582249E4B22200521104235A4389587E
:100FB00049690122E306DB0E9A400A43426131008F
:100FC000C9B22000C0B200F017F814E01748E4B22C
:100FD000210049110422514340581449E4B222002F
:100FE000521104235A43895849690122E306DB0E52
:100FF0009A409143416170BD30B40C4AC0B20300C5
:101000005B1104246343D25813680122C406E40E22
:10101000A2401A43054BC0B20400641104256C437E
:101020001B591A6030BC7047C4F0FF1FD8F0FF1F77
:1010300038B504000D00E4B2002C03D0022C55D0CA
:1010400039D36EE0AB480068802149040143A948C8
:101050000160EDB2002D08D0022D12D00BD3042D6B
:101060001BD014D3052D1ED023E08021C9004120C0
:1010700000F0C0F91EE08021C900422000F0BAF95A
:1010800018E08021C900432000F0B4F912E080216B
:10109000C900442000F0AEF90CE0C02189004820CE
:1010A00000F0A8F906E0C0218900492000F0A2F96B
:1010B00000E036E035E08F48006880218904014374
:1010C0008C480160EDB2002D02D0012D06D00BE05E
:1010D000C02189000C2000F08DF906E0C0218900B4
:1010E0000D2000F087F900E01BE01AE0814800685D
:1010F0008021C90401437F480160EDB2002D02D078
:10110000012D06D00BE0C0218900322000F072F9D9
:1011100006E0C0218900332000F06CF900E000E017
:10112000FFE731BDFCB583B006000F003900C9B23E
:101130003000C0B2FFF77CFF6F4800686F4948433A
:10114000400801900198000C0399FFF714FC04007B
:1011500000200500A4B220002841012801DB6D1CFD
:10116000F8E70198E8400399FFF705FC0400F6B2A0
:10117000002E03D0022E18D00CD321E00498A4B284
:101180002100491C4843FA218900FFF7F4FB694616
:10119000088015E00498A4B22100491C484364214A
:1011A000FFF7E9FB694608800AE00498A4B2210031
:1011B000491C48436421FFF7DEFB69460880FFE7CE
:1011C0008648F6B2042171434058FFB208217943A2
:1011D00040188249F6B2042272438958FFB20822AD
:1011E0007A438918C96804229143C1607B48F6B2EA
:1011F000042171434058FFB2082179434018282147
:10120000C1607748006877490140754801607448BB
:10121000006880214904014371480160EDB269070B
:10122000490F082008436D49F6B2042272438958D9
:101230000860A4B26948F6B2042171434058846042
:101240006648F6B2042171434058FFB20821794341
:10125000401869460988016100206049F6B20422FD
:1012600072438958486005B0F0BDF8B504000D0020
:1012700016000027E4B2002C03D0022C03D001D3C7
:1012800002E001E000E0FFE75448E4B204216143DA
:10129000405880680700002FF6D0E4B2002C03D03D
:1012A000022C12D009D318E03800401C7043FA21F8
:1012B0008900FFF760FB00900FE03800401C70438E
:1012C0006421FFF758FB009007E03800401C704392
:1012D0006421FFF750FB0090FFE74048E4B204218F
:1012E00061434058EDB208216943401800990161FB
:1012F000F1BD00003C8004405CF6FF1F40420F003F
:1013000070B504000D001600E4B2002C03D0022CCE
:1013100011D008D316E03448006880214904014305
:10132000314801600EE030480068802189040143A3
:101330002D48016006E02C4800688021C904014363
:1013400029480160EDB2002D0DD1284800688021A8
:101350004904A1408843254908608021C9004C20E8
:1013600000F048F80FE0EDB2012D0CD11F480068E5
:1013700080214904A14001431C4801608021C9002B
:101380004D2000F037F8F6B27007400F10210143EE
:101390001248E4B2042262438058016014480F49A5
:1013A000E4B2042262438958886000200B49E4B209
:1013B000042262438958486070BD0021074AC0B2C8
:1013C00004234343D258516070470449C0B20422F9
:1013D00050430858406880B270470000FCF2FF1F7D
:1013E00004800440FFFFFFFC3C8004400C8004406C
:1013F000FFFF000010B40D4A126880239B00040018
:10140000E4B26409A3401343084A1360084AC0B217
:1014100003005B1104246343D258C0B2C306DB0E41
:1014200004246343D15010BC70470000388004404E
:10143000C4F0FF1F80B5012201218120FFF794FD38
:10144000012201218220FFF78FFD0122012183204B
:10145000FFF78AFD012201218420FFF785FD01228B
:1014600001218520FFF780FD01BD000000B50821A6
:10147000A04A1268082313439E4A13609D4A1268CB
:1014800004239A439B4B1A600A00511ED2B2002AD1
:101490001DD0020606D5974A126802231343954AC7
:1014A000136005E0934A126802239A43914B1A6035
:1014B000904A1268042313438E4A136000BF8D4A7A
:1014C000126804239A438B4B1A604000DCE700BD8E
:1014D00000B50821874A126808239A43854B1A6091
:1014E000844A126804239A43824B1A600A00511EF0
:1014F000D2B2002A1DD0020606D57E4A1268022307
:1015000013437C4A136005E07A4A126802239A4327
:10151000784B1A60774A126804231343754A1360A4
:1015200000BF744A126804239A43724B1A60400049
:10153000DCE700BD38B505000C0020005038C0B213
:10154000FFF7C6FF2900C9B2090910200843C0B23D
:10155000FFF7BEFF2907090F01200843C0B2FFF7BC
:10156000B7FF31BD70B5040000200500EDB2082DB5
:1015700017DA28005038C0B2FFF7AAFF0120FFF7A2
:10158000A7FF1020FFF7A4FF00200600F6B2802E70
:1015900005DA2000C0B2FFF769FF761CF6E76D1C84
:1015A000E4E770BD38B500200400E4B2082C16DA78
:1015B00020005038C0B2FFF78BFF0120FFF788FFF3
:1015C0001020FFF785FF00200500EDB2802D04DA22
:1015D0000020FFF74BFF6D1CF7E7641CE5E731BD0A
:1015E00000B580B2002809D0FA22920111000A0049
:1015F000511E92B2002AFAD1401EF2E700BD80B51A
:10160000FFF718FF3B480068042101433948016097
:10161000384800681021884336490860354800681A
:1016200020218843334908603220FFF7D9FF314831
:101630000068202101432F480160AE20FFF748FFDA
:101640000020FFF745FF1020FFF742FF4020FFF783
:101650003FFF8120FFF73CFFCF20FFF739FFA1209C
:10166000FFF736FFC820FFF733FFA620FFF730FF54
:10167000A820FFF72DFF3F20FFF72AFFD320FFF719
:1016800027FF0020FFF724FFD520FFF721FF802050
:10169000FFF71EFFD920FFF71BFFF120FFF718FF10
:1016A000DA20FFF715FF1220FFF712FFDB20FFF70C
:1016B0000FFF4020FFF70CFF2020FFF709FF02205B
:1016C000FFF706FF8D20FFF703FF1420FFF700FF51
:1016D000A420FFF7FDFEA620FFF7FAFEAF20FFF7DC
:1016E000F7FE0020FFF73EFF00210020FFF722FF5A
:1016F00001BD000000F10F40F7B51F000024FFB24C
:1017000038000821FFF734F9002906D1FFB238006C
:101710000821FFF72DF9060006E0FFB23800082186
:10172000FFF726F9401C0600684600790600FFB264
:10173000F6B2B74217D33100C9B268460078FFF756
:10174000F9FE6846007805006846007AEDB28542E9
:1017500007D20898A4B2005DFFF788FE641C6D1CD8
:10176000F2E7761CE3E7F7BD80B5A8480068802162
:1017700089040143A5480160C548006880218904A7
:101780000143C34801600220C046C046C04800680B
:10179000802149040143BE4801600220C046C04682
:1017A000BB4800689A490140B94801600220C04620
:1017B000C046B748006897490140B548016002201B
:1017C000C046C04601BD80B59048006880218904AC
:1017D00001438E480160AE4800688D490140AC4825
:1017E00001600220C046C046A94800688021490423
:1017F0000143A74801600220C046C046A4480068D3
:10180000802189040143A24801600220C046C046ED
:1018100001BD10B59E4800688021490401439C48E1
:1018200001600220C046C0460020040077480068DE
:1018300077490140754801609648006801008901B8
:10184000C90F002901D0012004000220C046C04673
:101850008F4800686F4901408D4801606B480068FF
:10186000802189040143694801602000C0B210BD95
:1018700080B566480068802189040143634801609F
:101880008348006880218904014381480160022067
:10189000C046C0467E4800688021490401437C4818
:1018A00001600220C046C04679480068594901409D
:1018B000774801600220C046C04601BD80B553484C
:1018C0000068802189040143504801607048006825
:1018D0004F4901406E4801600220C046C0466C4836
:1018E0000068802149040143694801600220C04624
:1018F000C04667480068474901406548016001BD2E
:1019000038B5040000200500EDB2082D28DA3F4864
:1019100000688021890401433C4801605C480068FC
:101920003B4901402000C0B2C009C0B24006084394
:1019300057490860564800688021490401435448CB
:1019400001600220C046C04651480068314901404C
:101950004F4801600220C046C04664006D1CD3E7BA
:10196000FFF757FF31BD38B5082500242800451E74
:10197000C0B2002846D02548006880218904014370
:1019800022480160424800688021890401434048A0
:1019900001600220C046C0463D4800681D49014024
:1019A0003B4801600220C046C0463948006880219B
:1019B00049040143364801600220C046C04613482E
:1019C0000068134901401148016064003148006813
:1019D00001008901C90F002903D02000012404431C
:1019E00002E02000FE240440294800680949014023
:1019F00027480160054800688021890401430348A5
:101A00000160B3E72000C0B232BD000014F10F4006
:101A1000FFFFFFFDFFFFFFFE38B505000C00FFF7DD
:101A2000A3FE5420FFF76CFF2800C0B2FFF768FF49
:101A3000200080B2000AC0B2FFF762FF2000C0B2EF
:101A4000FFF75EFFFFF7BFFE31BD38B5040000258C
:101A5000FFF78AFE5420FFF753FF2000C0B2FFF7C4
:101A60004FFFFFF781FE5520FFF74AFFFFF77BFF8F
:101A700005002D02FFF722FFFFF775FF2843050041
:101A8000FFF7F6FEFFF79FFE280080B232BD000090
:101A900000F10F4010F10F4030B504000D00ADB261
:101AA000280080214900FEF763FFA849E4B2022222
:101AB00062438854ADB2280080214900FEF758FFE8
:101AC000A248E4B2022262438018417030BD000097
:101AD000F8B572B6002000F017FA9D4908719C48CD
:101AE0000068642800DBF4E0994800799849984A36
:101AF00012688918887196480068401C94490860EB
:101B000093480068292800DA93E0914890490968D1
:101B1000401823380078FF2800D08AE08C488C4990
:101B20000968401822380078552800D081E088489C
:101B300087490968401821380078AA2879D1844853
:101B400083490968401820380078102871D1002096
:101B5000804908707E480068293805002C007C48C0
:101B60000068401E844209DA7A48007878490919E9
:101B70008979401877490870641CF0E77548007847
:101B80007349734A12688918497988424DD10020F7
:101B90000400092C47DA6E48042161436918401893
:101BA000807A802149044843694904226243AA1883
:101BB0008918C97A8022520251434018644904228C
:101BC0006243AA188918097B8022520051434018A9
:101BD0005F4904226243AA188918497B401806000D
:101BE00080200006864203D35B48801B070000E08C
:101BF0003700380000F0F2F9584A08236343D2183E
:101C000003C2083A554808216143401803C800221E
:101C1000534B00F0FBF9514A08236343D21803C227
:101C2000083A641CB5E700F059F8002048490860FC
:101C300052E04748006807284EDB45484449096898
:101C40004018401E0078FF2846D1414840490968A5
:101C5000405C552840D13E483D49096840184078CD
:101C6000AA2839D13A483A49096840188078772833
:101C700032D100203749087035480068C01F050080
:101C80002C0033480068401E844209DA314800784D
:101C90002F490919897940182E490870641CF0E70A
:101CA0002C4800782A492A4A1268891849798842BA
:101CB0000BD1274826490968401801792448244A4D
:101CC00012688018C07800F00EF8002020490860E3
:101CD00002E000201E49086062B6F1BD80B5022016
:101CE000FFF734F901BD38B505000C00E4B220005F
:101CF000062816D0072815D0082814D0092813D094
:101D00000A2812D00B2811D00C2810D064280FD02C
:101D100065280ED0662810D067280FD068280ED00E
:101D200010E00FE00EE00DE00CE00BE00AE009E04F
:101D300008E000200B49087004E003E002E0012005
:101D4000084908700220FFF701F931BD60F5FF1F57
:101D5000B0F5FF1F1BF6FF1FFFFFFF7F08F3FF1FFC
:101D60000000F04066F6FF1FF0B583B006000F00DC
:101D70007C4C7D48F6B2042171434018001F006876
:101D80000500F6B2002E64D1784800688021C900B1
:101D9000014376480160C02189006620FFF72AFBD5
:101DA000C02189006720FFF725FB7148006880216A
:101DB000C90401436E4801606D48006880214902F2
:101DC00001436B480160E078F3210140E17068460F
:101DD000684909684908818068468188FA2080003E
:101DE000484310217943FEF7C6FD694608806846DE
:101DF0002178E0220A408270684680786946098826
:101E000089B2090AC906C90E0143217068460088D3
:101E100060700F2067490870002067490870002033
:101E200066490870002066490870002065490870FE
:101E3000654800781F2101436348017063480078BA
:101E4000C021014361480170E0780C210143E17039
:101E500059E0F6B23000012802D0022812D023E067
:101E60004248006880210901014340480160C021C7
:101E700089004320FFF7BEFAC02189004420FFF704
:101E8000B9FA11E039480068802149010143374817
:101E90000160C02189006420FFF7ACFAC0218900ED
:101EA0006520FFF7A7FAFFE7E878F3210140E97022
:101EB0000020A87046480068FA2189004843102194
:101EC0007943FEF758FD6946088068462978E02284
:101ED0000A408270684680786946098889B2090A92
:101EE000C906C90E01432970684600886870002041
:101EF000A8700020A8711F20287100206871E87860
:101F00000C210143E970F7BD00B50100154A1648E0
:101F1000C9B204234B43C018001F0368C9B200298B
:101F200004D110798006FCD5D07903E018798006B9
:101F3000FCD5D87900BD10B50A4A0B4BC0B20424B9
:101F400044431B191B1F1B68C0B2002804D114791D
:101F50002406FCD5D17103E01C792406FCD5D97187
:101F600010BD000000A00640183C00003480044072
:101F70000480044058F6FF1F70B50400154D164844
:101F8000E4B2042161434018001F0668E4B2002C4B
:101F900004D1E87820210143E97003E0F0782021A2
:101FA0000143F170E4B220000C3000F0B0F870BDD5
:101FB000000000000AA0064002A0064006A006405D
:101FC00008A0064009A0064004A0064005A006405F
:101FD00060F6FF1F00A00640183C0000010007D576
:101FE000F446404200F004F80122D2071143604752
:101FF00042221201D21E004207D002D4521E001803
:10200000FCD5C10A4005120589187047F0B40E00CE
:102010005E400125ED072E40B446AE0ADF184C188D
:10202000F4423BD2F74241D2640D43D07F0D38D009
:10203000E41BC902DB0229432B43CF0ADB0A06005B
:10204000B61A9F4104D2641EB6197F41B6185F418B
:102050006812800D24180018844222DAE80C00214E
:10206000B6197F41B61A9F4102D2B6185F413F1C94
:1020700040414941F4D3241C21DD2405B6197F4198
:10208000B61A9F4105D33743C60737430026012FB1
:102090007041614166463143F0BC7047FCD1F74264
:1020A00005D20020C14349054908F3E704D00020C8
:1020B000C143F1E77F0DFAD000206146ECE72442EE
:1020C000FAD1401C61410F03F6D30020E2E730B49F
:1020D000012100220368001D002B0BD00468001DA5
:1020E0000C4202D04D466D1E64192260241D1B1F38
:1020F000F0D0FAE730BC70472848006804218843D4
:102100002649086030BF704725490860704770B5A0
:102110000400212C03DB2348FEF7FDFB15E02248D9
:102120000568012620002021FEF722FC8E402E4368
:102130001D4806601D480568012620002021FEF785
:1021400017FC8E402E431948066070BDF8B5070095
:102150000E0000240025212F04DB1548FEF7DBFBD1
:1021600001200400042E04DB1248FEF7D4FB0120FA
:102170000400E4B2012C0ED038000421FEF7F8FB75
:1021800005000D48EDB2042169434018009030006D
:10219000800100990870F1BD0000000010ED00E022
:1021A00008ED00E0B43A000080E200E000E100E069
:1021B000783A0000383A000000E400E06B486C49CF
:1021C00008806C486C4908806C486D4908806D48EF
:1021D0006D4908806D486E4908806E486E490880D8
:1021E0006E486F49C8606F486D4908616E486C4918
:1021F00048616E486E4908656C486E4908606E48D3
:102200006B4948656C486D4908606D486D490860C8
:1022100000206D4908606D486D4908606D486E4941
:10222000086055206D490880704780B55C48C06DD6
:1022300000F0F4F86A49086062480168684800687C
:1022400000F005F967490860654800686649096853
:1022500000F08FF95E49096800F0F9F861490968F2
:1022600000F04FF95F4908605D4800685E4908600A
:102270005C4800685D4908605C4800685C4900F0A3
:10228000D1F902D85A485949086058480068594954
:1022900000F0DCF902D258485449086053480068FD
:1022A000002100F0BFF90CD24C480021405E00F044
:1022B000B5F84E49096800F05CF900F0DBF94F49C8
:1022C00008804A480068002100F0C0F90CD2434859
:1022D0000021405E00F0A2F84449096800F011F9BD
:1022E00000F0C8F94649088001BD80B5FFF79DFFA1
:1022F00000F016FA2E48C06F424900F093F902D858
:1023000041482B49C8672A48C06F002100F09EF958
:1023100002D200202649C8673C480068394900F0CD
:1023200081F902D8384839490860384800680021E6
:1023300000F08CF902D20020344908601848C06DC2
:102340003349884204DA1648C06D3249884202DABD
:102350000320FEF7FBFD1648C06F154948632B4864
:1023600000682D49086000F0A3F901BD2B020000B0
:1023700048F5FF1F290200004AF5FF1F3F02000039
:102380004CF5FF1F17FEFFFF4EF5FF1FE0FDFFFF9F
:1023900050F5FF1FCBFDFFFF52F5FF1F958C22006C
:1023A00000F5FF1FF25F23008CCF220000001040D9
:1023B00050F3FF1F30F4FF1F9A99593F34F4FF1F69
:1023C000CDCCCC3DC0F4FF1FC4F4FF1F6F12033A05
:1023D000C8F4FF1F0AD7233CE4F4FF1FBCF4FF1F1F
:1023E000F0F4FF1FE8F4FF1FF4F4FF1FECF4FF1FED
:1023F00000008C42FFFF8BC200008CC29CF3FF1FC9
:102400002CF4FF1F01007A4400007A445CF4FF1FA3
:10241000DC05000025FAFFFF14F4FF1F9D210200D8
:1024200008D5F446524200F005F80122D2071043C5
:10243000604700000AD002D4491E9218FCD5C90595
:10244000100A1206524100D3012A4841704730B4A5
:1024500005004D400122D20715404B180418240EE8
:1024600030D01B0E34D0FF2C36D0FF2B3CD0E418DC
:102470000002090210431143000A090A9446C2B23D
:102480004A43000AC3B24B43000A4843110A5B188F
:10249000190A12061B0C1A43120A091801D449180A
:1024A000641E080A7F3C23DBFE2C08DAE4050906DB
:1024B0001143634699416041284330BC7047FF2077
:1024C000C005F9E728001B0EFF2BF6D1D043F4E737
:1024D0002800FF2CF1D1F9E74002F7D1FF2B01D101
:1024E0004902F3D1E005E7E7D8054902E4D0EDE77A
:1024F00043020020641CDFD15B129B1CDCD9D80591
:10250000DAE70122D20703004B402ED4431A01D24E
:10251000C01AC91830B44B180418240E1B0E22D050
:10252000FF2C20D0E31A182B1DDC09021143C40D27
:10253000641E0002104394461925ED1A0A00AA40B1
:10254000D940451801D36D08A41CE405D209280A16
:102550002D062A436546AA41604103181B0EFF2B36
:1025600001D3C00DC00530BC7047514006E051405A
:10257000CCE70122D20703004B40F8D4431A03D220
:10258000C01AC9185040514030B44B1809021143C9
:102590000418240E1B0E40D0FF2C3AD025009D417C
:1025A0000BD31ED8C50D4002401A0BD3ED05010018
:1025B000400AC90591416841D5E7C50D4002491857
:1025C000401AD0D001214008491C0018FCD58C428B
:1025D00004D36D1A000AED054019C4E7E805104060
:1025E000C1E7182DBFDCAC1C0D00E140E5414D40BA
:1025F000012D4941C40D00021043451A01D46D1943
:102600009543641EE405280A2D069541604130BCBF
:102610007047FF2BA7D1D843A5E72442A3D10020C0
:10262000A1E700000CB4012212060318DA4207D811
:102630004B18DA4204D802000A43921802D28142AF
:102640000CBC7047FCD088420CBC70470CB4012213
:1026500012060318DA4207D84B18DA4204D80200EF
:102660000A43921802D288420CBC7047FCD08142C7
:10267000FAE700000122D2070118090E7F3910D4B1
:1026800049421F310FD4001805D2C0011043C84081
:1026900000D5D0437047C0011043C84005D4404224
:1026A0007047002070470042F3D5100070470000CB
:1026B00080B55148406B5149FFF7B4FF02D85048EC
:1026C0004D4948634F4800684C49FFF7ABFF02D8BB
:1026D0004B484C4908604848406B0021FFF7B6FF63
:1026E00002D2002044494863464800680021FFF7B1
:1026F000ADFF02D20020434908603F48406B00F024
:1027000095F8020000210020FEF7AFFD3D4800686B
:1027100000F08CF8020003210020FEF7A6FD01BDA9
:1027200080B500F097F834484C21405E3249896CFE
:10273000401AFFF773FE354908602F48DC21405EE0
:1027400033490968401AFFF769FE324908602F488B
:10275000006831490968FFF70CFF2749096DFFF749
:1027600076FE254988672448416D28480068FFF7B0
:102770006EFE2149896FFFF7C4FE1F49886725480F
:10278000006826490968FFF7F4FE25490968FFF744
:102790005EFE24490860244801681E480068FFF76F
:1027A00056FE20490968FFF7ACFE1E49086017482D
:1027B00000681949086017480068184908600E4801
:1027C000C16F0D48806FFFF79CFE0B49C8670E482C
:1027D000016814480068FFF794FE0B49086006483A
:1027E000816C89B20020FFF757F90948016889B266
:1027F0000120FFF751F901BD50F3FF1F01007A449A
:1028000000007A4414F4FF1F5CF4FF1FD0F3FF1F95
:1028100028F4FF1F60F4FF1FD4F3FF1F64F4FF1FB1
:1028200030F4FF1F58F4FF1F34F4FF1F00180ED2BE
:10283000010E7F390BD449421F3105D4C00101225A
:10284000D2071043C84070470020401E7047002048
:102850007047000080B50120FEF7B7FD8449886409
:102860000120FEF7AAFD0220FEF7AFFD8D490860AA
:102870000220FEF7A2FD01BD80B500F089F900F04D
:1028800001F801BDF8B57B480068874908608648B3
:1028900000688549C968401A834908608248006811
:1028A000C821FEF765F880490860724840687E4993
:1028B00048607D4840687C490969401A7A49486007
:1028C00079484068C821FEF753F87749486069485D
:1028D0008068754988607448806873494969401AFE
:1028E0007149886070488068C821FEF741F86E49D8
:1028F00088606D4880686C490968401A6A49C863F5
:102900006948006868498968401A674908646648E8
:102910004068142805DB6448806863490968884278
:1029200002DA0120564908705F484068142805DB28
:102930005D4800685C498968884202DA01204F4995
:10294000087059484068142805DB00204C4908707D
:1029500000204A49087054484068FA280BDB524866
:102960000068652807DB50488068652803DB012084
:102970004149087002E000203F4908703F48007854
:1029800000285BD13E480078002857D13A480078AB
:10299000002853D13B48007800284FD13A480078AE
:1029A00000284BD14048C06BFFF718FB37A20CCA78
:1029B00000F04CF904000D003B48C06BFFF70EFB24
:1029C00022002B0000F042F904000D003648C06BD5
:1029D000FFF704FB22002B0000F038F906000F007F
:1029E0003148C06BFFF7FAFA2AA20CCA00F02EF9A0
:1029F00004000D002C48C06BFFF7F0FA22002B00FA
:102A000000F024F902000B003000390000F043FA16
:102A100004000D002448C06BFFF7E0FA1FA20CCAA7
:102A200000F014F922002B0000F0D2F91FA20CCA0A
:102A300000F0CEF900F0A6FA1B49C8651A480168F3
:102A400089B20220FFF728F81748816889B203206D
:102A5000FFF722F81448C16B89B20420FFF71CF875
:102A60001148C16D89B20520FFF716F8F1BD0000CD
:102A700050F3FF1F1CF6FF1F56F5FF1F55F5FF1FF4
:102A800054F5FF1F57F5FF1F58F5FF1FF168E38846
:102A9000B5F8E43E2D431CEBE2361A3F6744696FFC
:102AA000F085FA3F28F4FF1F00F5FF1FB4C876BE7B
:102AB0009F9A34C080B5B82149010820FEF7ACFFC9
:102AC000B82149010920FEF7A7FFB82149010A20D2
:102AD000FEF7A2FF10210B20FEF79EFF00210C2025
:102AE000FEF79AFF00210D20FEF796FF00210E2031
:102AF000FEF792FF00210F20FEF78EFF8021C90014
:102B00001020FEF789FF802109011120FEF784FFC4
:102B1000802109011220FEF77FFF10211320FEF70C
:102B20007BFF44491420FEF777FF42491520FEF74A
:102B300073FF40491620FEF76FFF3E491720FEF74E
:102B40006BFF3D491920FEF767FF3C491A20FEF74D
:102B500063FF3B491B20FEF75FFFC62189011E2052
:102B6000FEF75AFFC72189011F20FEF755FFA52157
:102B700089012020FEF750FF8421C9012120FEF7A2
:102B80004BFF01BD80B52D491A20FEF745FF01BD61
:102B900010B500240020FEF758FF0400A4B2200561
:102BA000000D000427490860A4B220000012F021A3
:102BB0000140254801700120FEF747FF21490968BF
:102BC00080B201431F4801600220FEF73EFF04006F
:102BD000A4B22005000D00041A494860A4B22000E8
:102BE0000012F0210140184841700320FEF72DFF2C
:102BF0001449496880B20143124841600420FEF73D
:102C000024FF0400A4B22005000D00040D498860D3
:102C1000A4B220000012F02101400B488170052071
:102C2000FEF713FF0749896880B2014305488160B8
:102C300010BD00000110000001F80000011E00009E
:102C40000CA200001CF6FF1F2CF6FF1FF0B50E00B3
:102C50005E400125ED072E40B446AE0ADF184C1841
:102C6000F44208D2F7420ED2640D01D07F0D12D18A
:102C700000206146F0BD05D1F74201D87F0D05D196
:102C80000020C143F0BDFBD1640DF9D00020C14349
:102C9000490549088FE0E419C902DB0229432B43A7
:102CA000DB0A460DC00231438E4630B487B295B27E
:102CB0007D432E0CADB2140C7C43A419260C2404C5
:102CC00025439CB27C43A419190C7943270CC919DC
:102CD000A4B20F043C43090C000C97B247432E0CDE
:102CE000BE193543ADB2170C4743360CBF19A6B217
:102CF000BF193E043543240C3E0C36199FB247439E
:102D0000BF19BCB23E0C89191F0C47437F183E0403
:102D10003443390C704680B297B247432E0CBE192B
:102D20003543ADB2170C4743360CBF19A6B2BF19D5
:102D30003E043543240C3E0C36199FB24743BF195D
:102D4000BCB23E0C89191F0C47437F183E04344324
:102D5000390C77463F0C90B278432E0C801906044C
:102D6000ADB22E43050CA0B22D18120C7A435019A7
:102D7000020C80B2240CA4189AB27A4312191404DB
:102D80002043120C89181B0C7B43C91830BCEF0A76
:102D9000394203D1B61940414941641E6F12BF0D3B
:102DA000E41B0BDBFF19BC4211DA240500274208A3
:102DB000AE417841614166463143F0BD641C05D1A6
:102DC000401C6141CF0201D34908F4E750E75DE7B9
:102DD000F0B40125ED070F005F404FD48B4200D1C6
:102DE000824205D98446100062468C46190063462B
:102DF000DF184C18640D7F0D3AD0661C760537D06D
:102E0000E61B352E34DCDB022B43DB0A0C0DC9023A
:102E10002943C912202E0DDB1700203E06D01F00CB
:102E2000F741F3405F400026012A7741C018714105
:102E30000DD217E01700F741F2405740F3415A40D6
:102E4000B340F3405A400026801859410AD3A21CCF
:102E500052050FD0C207012F724117004008CB075F
:102E600018434908641C24054208AF417041614180
:102E7000F0BC7047641C21050020F9E76B4010E0AE
:102E80006B40ABE7F742F3D1E943F1E72442EFD1DE
:102E900000200021ECE7F0B40125ED070F005F40B2
:102EA000EED40C00871A9C4105D2C01BA141D21957
:102EB000634169406B40AE0ADF184C18F442E1D21E
:102EC000640D7F0DE2D0E61B362ED1DCDB022B43F6
:102ED000DB0AA4460C0DC9022943C90A012E28DCCD
:102EE00004D1D6075208DF073A435B08EF0A76425F
:102EF0009041994114D039423BD1B61940414941E2
:102F0000761C394204D1761C001849413942FAD066
:102F1000B9436746B74208D9A41B24052143A7E754
:102F20000042EAD13642E8D1A2E7E40AE1070020F4
:102F30009EE7202E0BDD203E1F00F340F7415F404F
:102F4000012A002257417E42984191410BE017002F
:102F5000F741F2405740F3415A40B340F3405A40E2
:102F60007E42904199410A0303D2641EB619404142
:102F700049410027641E24054208AE417841614161
:102F8000F0BC7047F4464A1805D200F00DF801D5A0
:102F900080174008604700F007F80121C907884200
:102FA00000D9080040426047400DC9020843012192
:102FB000C9070843520D40210901521A521C06D478
:102FC00052421F3201D4D0407047C01770470020D2
:102FD00070470000040000000090044000A004407E
:102FE00000B0044000C0044000D0044000F00F4096
:102FF00040F00F4080F00F40C0F00F4000F10F4054
:103000000000000000000000000000000000008040
:10301000C0E06070303838181C0C0C0C0C04040430
:10302000040C0C0C081838307060C0C08000000020
:103030000000000000000000000000000000000090
:10304000000000000000000000000000C0701C062E
:103050000703010000000000000000000000000065
:103060000000000000000000000000000001030755
:103070000F0E183070E0C08080800000000000005B
:103080000000000000000080C0E030180E030100C6
:103090000000000000000000000000000000000030
:1030A0000000000000000000000000000000000020
:1030B00000000000000000000001010303030206FD
:1030C000040C18F0C0F0FCFE0F030100000000002B
:1030D00000000000000000000000000000000000F0
:1030E000000000008080C0C0E0E0E0E0F0F0707020
:1030F000783C3C3C1C1E0E1E38F8F8F87E7E9E166E
:1031000026EEFEFEFEFF7FFF1D71C0800000000066
:1031100000E0F8FC0E0F0E0E0E0C0C0C0C0E0E0E3A
:10312000060676FFFFFF7303030301010140C08021
:103130008080C0806000001E1F1F1F0E03070E1E30
:103140003E7FCF8F07070301003F0000000101030E
:10315000030206FF830000000000000000000000E2
:10316000000000000000000000000000000000005F
:10317000000101000000000000000000000000004D
:10318000000000000003FEF8000000000000000046
:103190000000000000071F78E08000000000000031
:1031A000000000000000000000000000000000001F
:1031B000000000000000000000000000000000000F
:1031C0000000000080C060381F0700000000000001
:1031D00000000000000000000000000103060C18C1
:1031E000183020606040C0C0C080808080808080B7
:1031F0008080808080C0C0C040406060202030104F
:1032000018080C0406030100000000000000000084
:10321000008003400090034000A0034080B50122DD
:1032200000214720FDF7A0FE012200214820FDF7E4
:103230009BFE012200214920FDF796FE012200217C
:103240004A20FDF791FE012200214B20FDF78CFE64
:10325000FF20001D71498968C861FF20001D6F496A
:1032600089680862FF20001D6C4989684862FF2058
:10327000001D6A4989688862FF20001D67498968C6
:10328000C86201BD80B56648006801000906C90F23
:10329000002920D163480068012101436148016091
:1032A00061480068082188435F4908605F480168F9
:1032B00032204143012000F0F5F85A48006801210E
:1032C0008843584908605848006808210143564817
:1032D00001600120A0E0524800680100C905C90F43
:1032E000002920D14F480068012101434D48016069
:1032F0004D480068082188434B4908604B480168E5
:1033000032204143012000F0CDF8464800680121F9
:103310008843444908604448006808210143424802
:103320000160042078E03E48006801008905C90F6B
:10333000002920D13B480068012101433948016040
:1033400039480068082188433749086037480168D0
:1033500032204143012000F0A5F8324800680121E5
:1033600088433049086030480068082101432E48EE
:103370000160032050E02A48006801004905C90F98
:10338000002920D127480068012101432548016018
:1033900025480068082188432349086023480168BC
:1033A00032204143012000F07DF81E4800680121D1
:1033B00088431C4908601C480068082101431A48DA
:1033C0000160022028E01648006801000905C90FC5
:1033D000002920D1134800680121014311480160F0
:1033E00011480068082188430F4908600F480168A8
:1033F00032204143012000F055F80A4800680121BD
:1034000088430849086008480068082101430648C5
:103410000160052000E0002002BD0000C4F0FF1F95
:1034200090F00F4000F10F40C0F00F4060F6FF1F1A
:1034300038B505000C0049480068802109040143A3
:1034400046480160002046490860601E4549EDB2CB
:1034500010226A4388504348EDB210216943401856
:10346000C068012101433F48EDB210226A43801831
:10347000C1603C48EDB210216943401880680121C9
:1034800088433849EDB210226A43891888600320C6
:103490003449EDB210226A43891888601620FEF77D
:1034A00036FE31BD10B52D4A126880231B0413432C
:1034B0002A4A13602A4A126802239A43284B1A6048
:1034C000284AC0B210234343D218926801239A437A
:1034D000244BC0B2102444431B199A604A1E214B4E
:1034E000C0B2102444431A511E4AC0B210234343B1
:1034F000D218D268012313431A4AC0B2102444439D
:103500001219D360174AC0B210234343D2189268ED
:1035100001239A43134BC0B2102444431B199A60F1
:103520000122104BC0B2102444431B199A600D4A6B
:10353000C0B210234343D218D268D207F7D5094A44
:10354000C0B210234343D218D26801231343054A63
:10355000C0B2102444431219D36010BD3C80044013
:10356000007003400071034038B504002500EDB23F
:103570006D09EDB2002D10D1464800688021090583
:10358000014344480160444800689021884342490F
:1035900008604148006840490860E4B22000002803
:1035A00024D0012827D002282AD003282DD004288F
:1035B00030D0052833D0062836D0072839D008283F
:1035C0003CD009283FD00B2842D00C2845D00D28EC
:1035D00048D00E284BD00F284ED0172851D01A288B
:1035E00054D01D2853D01E2852D052E000219420E0
:1035F000FDF700FF4DE000219020FDF7FBFE48E0C5
:1036000000219220FDF7F6FE43E000219620FDF711
:10361000F1FE3EE000219520FDF7ECFE39E00021AF
:103620009120FDF7E7FE34E000219320FDF7E2FE54
:103630002FE000219720FDF7DDFE2AE00021202069
:10364000FDF7D8FE25E000212120FDF7D3FE20E084
:1036500000214220FDF7CEFE1BE000212220FDF7D5
:10366000C9FE16E000212320FDF7C4FE11E0002171
:103670004020FDF7BFFE0CE000214120FDF7BAFE1F
:1036800007E000219E20FDF7B5FE02E001E000E02A
:10369000FFE731BD3C8004401880044080B5FDF751
:1036A000D3F93C480068012101433A4801603A4897
:1036B00000680821884338490860E1214902002058
:1036C000FEF752FB002201216520FDF74DFC00238F
:1036D000324A00210020FDF725FD00232F4A012159
:1036E0000020FDF71FFD00232C4A02210020FDF7DA
:1036F00019FD0023294A03210020FDF713FD0022B4
:1037000000210120FDF7FCFD002201210220FDF730
:10371000F7FDFDF774FF22480090072342220021A5
:103720000020FDF7E9FF0920FFF71EFF0C20FFF73F
:103730001BFF012201219820FDF716FC0122012127
:103740009920FDF711FCFFF7B5F9FFF71BFA00F020
:103750002BF8FFF763FD00210C20FEF7F7FC012199
:103760001620FEF7F3FC0F480168142041430020A7
:10377000FFF75EFE0020FEF7FFFB06480068012110
:10378000884304490860044800680821014302484E
:10379000016001BD00F10F40C0F00F401027000094
:1037A000ECF0FF1F60F6FF1F00B5104800788006A0
:1037B00006D50E480078202101430C48017014E022
:1037C0000A480078C00606D5084800781021014351
:1037D0000648017009E005480078400605D5034811
:1037E0000078402101430148017000BD0000024003
:1037F00000B52C480068F82189010143294801607F
:103800002948007840210143274801702748007863
:103810004007FBD525480078C006FBD52448007832
:10382000FD2101402248017022480078BF2101405B
:10383000204801701E480078022101431C48017095
:103840001B480078012101431948017000201A49E2
:103850000870C02080021949086019480068194999
:1038600001401748016018480068C021090301435E
:103870001548016004201549086014480068FA21C1
:103880008900484312490860114800680B490968DB
:10389000090C4907490F491CFDF76DF80D490860EF
:1038A00000BD00BF3880044000400640064006408E
:1038B0000140064005400640084006404480044060
:1038C00004800440FFFFFEFF007004405CF6FF1F11
:1038D00058F6FF1F60F6FF1FF0B583B0224823495A
:1038E00088420DD000200400C02C09D21F480421BA
:1038F000614340581C49042262438850641CF3E72A
:103900001948FEF701FC1A4807001A4805001A4832
:1039100001900198401B04002000441E002804D0A0
:10392000287838706D1C7F1CF6E714480600144890
:1039300000900098801B04002000441E002803D043
:1039400000203070761CF7E70E480F490F4A531AD3
:103950001C0023005C1E002B04D00B780370491C54
:10396000401CF6E7F7BD00BF00F0FF1F000000009D
:10397000C0F0FF1FD42F00001C32000008F3FF1F0F
:1039800067F6FF1F67F6FF1F203C0000203C000089
:1039900080B5FFF777FC022802D100F004F801E0BF
:1039A00000F020F801BD10B500240D480168FA2090
:1039B000800041430120FFF775FD00200400E4B2C0
:1039C0000A2C07DAE4B20548E4B20421614344500A
:1039D000641CF4E70020FDF7B9FA10BD30F6FF1FB4
:1039E00060F6FF1F80B50120FDF7B0FA01BD0000B1
:1039F00080B50E480068012101430C4801600C4865
:103A00000068202101430A4801600A480088401CE0
:103A100008490880FEF730FFFEF767FC044800689D
:103A2000202188430249086001BD00BF0C7103409A
:103A3000C0F00F4064F6FF1F0A4552522120496E24
:103A400076616C6964207072696F7269747920762E
:103A5000616C75652070617373656420746F20708C
:103A600072696F72697479206972712066756E630C
:103A700074696F6E210A00000A4552522120496E76
:103A800076616C6964204952512076616C756520BD
:103A900070617373656420746F207072696F7269EE
:103AA0007479206972712066756E6374696F6E2116
:103AB0000A0000000A4552522120496E76616C6965
:103AC00064204952512076616C7565207061737372
:103AD000656420746F20656E61626C652069727127
:103AE0002066756E6374696F6E210A000A2A2A2A9D
:103AF0002A64656661756C745F69737220656E74A3
:103B000065726564206F6E20766563746F72202520
:103B1000642A2A2A2A2A0D0A0A00000010B5074939
:103B200079441831064C7C44163404E0081D0A68B8
:103B3000891888470100A142F8D110BD0800000093
:103B4000140000008BE5FFFF6003000008F3FF1F77
:103B50000000000080B572B6FFF7A0FDFFF718FF68
:103B6000FEF72CFBFDF71EFD62B6FCF779FFFEF7B2
:103B7000C3FAFAE780B5002004490860FFF7ACFEFD
:103B8000FFF736FEFFF7E6FFFEE700BF00810440C7
:103B90000120C046002801D0FFF7C0FF0020C0462A
:103BA000C046FFF7D7FF00F000F880B500F002F83C
:103BB00001BD00000746384600F002F8FBE70000B0
:103BC0002021090326311820ABBEF9E7002000218F
:103BD00000220023002400250026002762B6FFF7FC
:103BE000C9FFFEE780B5034801680348FCF793FE70
:103BF00001BD000004ED00E0EC3A000010B5040047
:103C00002100C9B20020FEF796F910BDC046C0469B
:103C1000C046C046FFF7BCFF00B0064000C00640EB
:0400000500003C0DAE
:00000001FF
