:10000000D8F7FF1F41290000592900005929000095
:1000100059290000592900005929000059290000D8
:1000200059290000592900005929000059290000C8
:1000300059290000592900005929000059290000B8
:1000400059290000592900005929000059290000A8
:100050005929000059290000592900005929000098
:100060005929000059290000592900005929000088
:10007000A115000059290000592900005929000044
:100080005929000059290000592900005929000068
:100090005929000059290000892800005929000029
:1000A0005929000059290000592900005929000048
:1000B0005929000059290000592900005929000038
:1004100070B504000D0016003068012802D00228D3
:1004200005D00BE02000C0B27168884706E02000CC
:10043000B1680870B068401CB060FFE72868401CD5
:10044000286070BDFFB584B0002006000498050048
:10045000002028706D1C0698002825D0059800689B
:1004600001900198002803D130202870761C3FE0CD
:10047000019800283CD00198079900F079FA039080
:1004800001980399079A5143401A0700002F03D59A
:10049000F8430700313700E0303703980190380007
:1004A00028706D1C761CE3E70598006800900098A2
:1004B000002803D130202870761C19E0009800280D
:1004C00016D00098079900F056FA02900098029909
:1004D000079A5143401A04000A2C01D2303400E03C
:1004E000373402980090200028706D1C761CE5E7D8
:1004F000300008B0F0BDF8B507000E0015003C0054
:10050000B44206DA009A29003020FFF781FF641C0C
:10051000F6E7F1BDF8B507000E0015003C00B44247
:1005200006DA009A29002020FFF772FF641CF6E724
:10053000F1BDF3B595B014000020009016980500A9
:10054000287802900298002800D1E1E1029825283D
:1005500013D002980A2805D0159A69460298FFF729
:1005600057FF09E0159A69460D20FFF751FF159ACC
:1005700069460A20FFF74CFFC8E100200700002071
:1005800005900598002824D16D1C2878202810D0CB
:10059000232816D02B2808D02D2802D030280CD0A4
:1005A00013E0380001270743EBE738000227074331
:1005B000E7E7380004270743E3E738000827074345
:1005C000DFE7380010270743DBE76D1E01200590A9
:1005D000D7E700200190002005900598002812D14F
:1005E0006D1C2878029002983038092807D80198A5
:1005F0000A2148430299401830380190EDE76D1EFA
:1006000001200590E9E76D1C28782E280ED10020E6
:100610000590059800280AD16D1C287830380928E3
:1006200000D8F6E76D1E01200590F2E76D1E6D1CE7
:1006300028784C2806D0682802D06C2801D002E027
:1006400002E001E000E06D1E6D1C28780290029827
:10065000582872D0622800D1CCE0632800D116E17E
:10066000642813D0692811D06E2800D142E16F2888
:1006700000D1B4E0702800D1C7E0732800D110E1A8
:10068000752800D1CCE0782857D03AE12068241DA5
:1006900009900A23012209A90CA8FFF7D3FE06003E
:1006A0000CA8801908900998002803D52D200490E3
:1006B000761C0DE0B80703D52B200490761C07E0CC
:1006C000780703D520200490761C01E000200490D8
:1006D00000200690380712D50498002804D0159AF7
:1006E00069460498FFF794FE01200690159B6A4620
:1006F00001993000FFF7FFFE0198060011E0F807AE
:100700000FD4159B6A4601993000FFF703FF049848
:10071000002804D0159A69460498FFF779FE012055
:1007200006900698002807D10498002804D0159A4E
:1007300069460498FFF76CFE92E02068241D039040
:100740001023002203A90CA8FFF77CFE06000CA8CA
:100750008019089000200690380716D5F8060BD5AA
:10076000159A69463020FFF753FE159A694678209E
:10077000FFF74EFE01200690159B6A460199300056
:10078000FFF7B9FE0198060018E0F80716D4F8063E
:1007900000D5B61C159B6A4601993000FFF7BAFEDA
:1007A000F8060BD5159A69463020FFF731FE159AE9
:1007B00069467820FFF72CFE01200690F8060DD53B
:1007C000069800280AD1159A69463020FFF720FEC6
:1007D000159A69467820FFF71BFEB61C40E020689A
:1007E000241D03900823002203A90CA8FFF72AFE6A
:1007F00006001FE02068241D03900223002203A9A5
:100800000CA8FFF71FFE060014E02068241D0390CB
:100810001023002203A90CA8FFF714FE060009E02C
:100820002068241D03900A23002203A90CA8FFF7C7
:1008300009FE06000CA880190890380708D5159BFA
:100840006A4601993000FFF756FE0198060007E05E
:10085000F80705D4159B6A4601993000FFF75AFE48
:1008600008980078002809D0159A694608980078F9
:10087000FFF7CEFD0898401E0890F1E7F80705D570
:10088000159B6A4601993000FFF744FE3EE0206860
:10089000241DC0B20A90159A69460A98FFF7B8FD60
:1008A00034E02068241D07900798002821D007987D
:1008B00000F0B8F80600F80705D4159B6A460199C0
:1008C0003000FFF727FE07980078002809D0159A16
:1008D000694607980078FFF79BFD0798401C079032
:1008E000F1E7F80705D5159B6A4601993000FFF737
:1008F00011FE0BE02068241D0B9000980B990860F6
:1009000004E0159A69460298FFF782FD6D1C17E610
:10091000009817B0F0BD0EB47EB505000120009020
:100920000748019007A80600320029006846FFF733
:1009300000FE0400200003B0039970BC04B0084717
:1009400071290000F446002804D4494200F013F84D
:10095000404260474042002905D45FD000F00BF8C8
:10096000404249426047494200F005F84942604729
:1009700003460B43E6D40022030A8B420BD2030941
:100980008B4219D243088B422ED2411A00D2014623
:10099000524110467047FF2209023FD012068B4297
:1009A00005D3121209028B4201D312120902030964
:1009B0008B4219D300E0090AC3098B4201D3CB0152
:1009C000C01A524183098B4201D38B01C01A524194
:1009D00043098B4201D34B01C01A524103098B4298
:1009E00001D30B01C01A5241C3088B4201D3CB0083
:1009F000C01A524183088B4201D38B00C01A524166
:100A000043088B4201D34B00C01A5241884200D3A5
:100A1000401A5241CFD201461046704708B5C04631
:100A2000C04608BD00B501000A000023002A01D11C
:100A3000002008E010000200521C0078002801D0BD
:100A40005B1CF7E7180000BD80B50022012166207D
:100A500000F01AFA00220121202000F015FA01BD51
:100A600080B598480078002806D002280AD006D31E
:100A700004280AD00CD30DE000F00DF80AE000F0D5
:100A800092F807E000F024F904E000F089F901E0B1
:100A900000F0EFF801BD00B58B4800880A280CDA99
:100AA0008A4800684021014388480160BB480068CB
:100AB00001218843B949086074E0834800881528FB
:100AC0000CDA824800684021884380490860B348B6
:100AD000006801210143B148016063E07A48008861
:100AE0001F280CDA794800684021014377480160EB
:100AF000AA48006801218843A849086052E072486A
:100B0000008829280CDA71480068402188436F4921
:100B10000860A248006801210143A048016041E04B
:100B20006948008833280CDA68480068402101438E
:100B30006648016099480068012188439749086028
:100B400030E06148008865280CDA60480068402180
:100B500088435E49086091480068012101438F483D
:100B600001601FE05848008897280CDA5748006851
:100B700040210143554801608848006801218843AD
:100B8000864908600EE051480068402188434F497B
:100B90000860824800680121014380480160032009
:100BA0004849087000BD00B54748008805280CDAA0
:100BB0004648006840210143444801607748006886
:100BC000012188437549086052E03F4800880B289E
:100BD0000CDA3E480068402188433C4908606F4871
:100BE0000068012101436D48016041E036480088FA
:100BF0000F280CDA35480068402101433348016072
:100C000066480068012188436449086030E02E4846
:100C1000008815280CDA2D480068402188432B49AC
:100C200008605E480068012101435C4801601FE0E4
:100C30002548008819280CDA24480068402101431F
:100C400022480160554800680121884353490860E3
:100C50000EE01E480068402188431C4908604F4848
:100C60000068012101434D480160032015490870C7
:100C700000BD00B5804800880A280CDA13480068D7
:100C80004021014311480160444800680121884324
:100C90004249086015E078480088FF21F631884213
:100CA0000CDA0A48006840218843084908603B483C
:100CB0000068012101433948016002E000206E49CB
:100CC000088000BDC0F0FF1FD0F3FF1FC0F00F4031
:100CD00000B56948008832280CDA6848006840216D
:100CE0000143664801602D480068012188432B4973
:100CF000086052E06048008865280CDA5F480068A8
:100D0000402188435D49086024480068012101436F
:100D10002248016041E05848008896280CDA57487C
:100D2000006840210143554801601C4800680121CA
:100D300088431A49086030E04F480088C9280CDA17
:100D40004E480068402188434C49086013480068B9
:100D500001210143114801601FE047480088FA283B
:100D60000CDA4648006840210143444801600B48C2
:100D7000006801218843094908600EE03F48006887
:100D8000402188433D49086004480068012101432F
:100D90000248016003203A49087000BD40F00F404E
:100DA00000B53548008803280CDA34480068402133
:100DB00001433248016033480068012188433149CA
:100DC000086052E02C48008807280CDA2B4800689D
:100DD00040218843294908602A48006801210143CD
:100DE0002848016041E02448008809280CDA23489B
:100DF0000068402101432148016022480068012128
:100E000088432049086030E01B4800880D280CDA30
:100E10001A4800684021884318490860194800684A
:100E200001210143174801601FE013480088112881
:100E30000CDA124800684021014310480160114853
:100E40000068012188430F4908600EE00B480068E4
:100E500040218843094908600A480068012101438C
:100E60000848016003200649087000BD0021024ABD
:100E70001180034908707047D0F3FF1FC0F00F4086
:100E8000C0F0FF1F40F00F4070B504000D001600C9
:100E90002D48E4B221004911042251434058E4B2E4
:100EA000E106C90E04225143802252004250EDB2A5
:100EB000012D1BD12548E4B22100491104225143E0
:100EC00040582249E4B22200521104235A4389585F
:100ED00049690122E306DB0E9A400A434261310070
:100EE000C9B22000C0B200F017F814E01748E4B20D
:100EF000210049110422514340581449E4B2220010
:100F0000521104235A43895849690122E306DB0E32
:100F10009A409143416170BD30B40C4AC0B20300A5
:100F20005B1104246343D25813680122C406E40E03
:100F3000A2401A43054BC0B20400641104256C435F
:100F40001B591A6030BC7047C4F0FF1FD8F0FF1F58
:100F500038B504000D00E4B2002C03D0022C55D0AB
:100F600039D36EE0884800688021490401438648EF
:100F70000160EDB2002D08D0022D12D00BD3042D4C
:100F80001BD014D3052D1ED023E08021C9004120A1
:100F900000F06AF91EE08021C900422000F064F9E7
:100FA00018E08021C900432000F05EF912E08021A2
:100FB000C900442000F058F90CE0C0218900482005
:100FC00000F052F906E0C0218900492000F04CF9F8
:100FD00000E036E035E06C48006880218904014378
:100FE00069480160EDB2002D02D0012D06D00BE062
:100FF000C02189000C2000F037F906E0C0218900EB
:101000000D2000F031F900E01BE01AE05E480068B6
:101010008021C90401435C480160EDB2002D02D07B
:10102000012D06D00BE0C0218900322000F01CF910
:1010300006E0C0218900332000F016F900E000E04E
:10104000FFE731BDFCB583B006000F003900C9B21F
:101050003000C0B2FFF77CFF4C4800684C49484361
:10106000400801900198000C0399FFF784FC0400EC
:1010700000200500A4B220002841012801DB6D1CDE
:10108000F8E70198E8400399FFF775FC0400F6B211
:10109000002E03D0022E17D00BD320E00498A4B268
:1010A0002100491C48436421FFF765FC694608801C
:1010B00015E00498A4B22100491C48436421FFF7BD
:1010C0005AFC694608800AE00498A4B22100491C31
:1010D00048436421FFF74FFC69460880FFE75C48FE
:1010E000F6B2042171434058FFB2082179434018F9
:1010F0005749F6B2042272438958FFB208227A4354
:101100008918C96804229143C1605148F6B204218C
:1011100071434058FFB20821794340182821C1602B
:101120004C4800684C4901404A4801604948006801
:1011300080214904014347480160EDB26907490F26
:10114000082008434249F6B20422724389580860D5
:10115000A4B23F48F6B204217143405884603C4831
:10116000F6B2042171434058FFB208217943401878
:1011700069460988016100203549F6B204227243AC
:101180008958486005B0F0BD3C800440C8F3FF1F9B
:1011900040420F0070B504000D001600E4B2002CB0
:1011A00003D0022C11D008D316E02C48006880210F
:1011B00049040143294801600EE028480068802165
:1011C000890401432548016006E024480068802125
:1011D000C904014321480160EDB2002D0DD1204822
:1011E000006880214904A14088431D49086080218E
:1011F000C9004C2000F038F80FE0EDB2012D0CD101
:101200001748006880214904A14001431448016047
:101210008021C9004D2000F027F8F6B27007400F7A
:10122000102101430A48E4B204226243805801605D
:101230000C480749E4B204226243895888600020C0
:101240000349E4B2042262438958486070BD00003B
:1012500004F3FF1F04800440FFFFFFFC3C800440B8
:101260000C800440FFFF000010B40D4A1268802378
:101270009B000400E4B26409A3401343084A1360CE
:10128000084AC0B203005B1104246343D258C0B2C1
:10129000C306DB0E04246343D15010BC704700002A
:1012A00038800440C4F0FF1F80B501220121812055
:1012B000FFF7EAFD012201218220FFF7E5FD01226F
:1012C00001218320FFF7E0FD012201218420FFF7A7
:1012D000DBFD012201218520FFF7D6FD01BD0000C5
:1012E00000B50821914A1268082313438F4A1360FE
:1012F0008E4A126804239A438C4B1A600A00511ECE
:10130000D2B2002A1DD0020606D5884A12680223EE
:101310001343864A136005E0844A126802239A4305
:10132000824B1A60814A1268042313437F4A136078
:1013300000BF7E4A126804239A437C4B1A60400027
:10134000DCE700BD00B50821784A126808239A43FB
:10135000764B1A60754A126804239A43734B1A60DD
:101360000A00511ED2B2002A1DD0020606D56F4ACD
:101370001268022313436D4A136005E06B4A12683A
:1013800002239A43694B1A60684A12680423134384
:10139000664A136000BF654A126804239A43634B90
:1013A0001A604000DCE700BD38B505000C002000E5
:1013B0005038C0B2FFF7C6FF2900C9B20909102092
:1013C0000843C0B2FFF7BEFF2907090F01200843F9
:1013D000C0B2FFF7B7FF31BD70B5040000200500B3
:1013E000EDB2082D17DA28005038C0B2FFF7AAFF77
:1013F0000120FFF7A7FF1020FFF7A4FF0020060041
:10140000F6B2802E05DA2000C0B2FFF769FF761C25
:10141000F6E76D1CE4E770BD00B580B2002809D086
:10142000FA22920111000A00511E92B2002AFAD14A
:10143000401EF2E700BD80B5FFF736FF3B4800686D
:10144000042101433948016038480068102188436D
:1014500036490860354800682021884333490860D0
:101460003220FFF7D9FF31480068202101432F487F
:101470000160AE20FFF766FF0020FFF763FF10203A
:10148000FFF760FF4020FFF75DFF8120FFF75AFF65
:10149000CF20FFF757FFA120FFF754FFC820FFF729
:1014A00051FFA620FFF74EFFA820FFF74BFF3F207C
:1014B000FFF748FFD320FFF745FF0020FFF742FF6B
:1014C000D520FFF73FFF8020FFF73CFFD920FFF733
:1014D00039FFF120FFF736FFDA20FFF733FF122044
:1014E000FFF730FFDB20FFF72DFF4020FFF72AFF3B
:1014F0002020FFF727FF0220FFF724FF8D20FFF7B2
:1015000021FF1420FFF71EFFA420FFF71BFFA620DA
:10151000FFF718FFAF20FFF715FF0020FFF75CFF74
:1015200000210020FFF740FF01BD000000F10F4047
:10153000F7B51F000024FFB238000821FFF718FAA2
:10154000002906D1FFB238000821FFF711FA060082
:1015500006E0FFB238000821FFF70AFA401C060037
:10156000684600790600FFB2F6B2B74217D33100E1
:10157000C9B268460078FFF717FF68460078050093
:101580006846007AEDB2854207D20898A4B2005DA1
:10159000FFF7A6FE641C6D1CF2E7761CE3E7F7BDBF
:1015A000F8B5002000F016FA9C4908719B480068C5
:1015B000642800DBF4E0994800799849974A12685A
:1015C0008918887195480068401C944908609348C0
:1015D0000068292800DA93E090489049096840188B
:1015E00023380078FF2800D08AE08C488B490968AE
:1015F000401822380078552800D081E08748874974
:101600000968401821380078AA2879D1834883498D
:101610000968401820380078102871D100208049CE
:1016200008707E480068293805002C007B48006857
:10163000401E844209DA7A48007878490919897984
:10164000401877490870641CF0E7754800787349C2
:10165000724A12688918497988424DD100200400E5
:10166000092C47DA6D480421614369184018807AD3
:10167000802149044843694904226243AA18891811
:10168000C97A8022520251434018644904226243BD
:10169000AA188918097B80225200514340185F49DB
:1016A00004226243AA188918497B4018060080204A
:1016B0000006864203D35B48801B070000E037002A
:1016C000380000F0F1F9584A08236343D21803C2E6
:1016D000083A554808216143401803C80022534B7B
:1016E00000F0FAF9504A08236343D21803C2083ABB
:1016F000641CB5E700F058F800204849086052E043
:101700004648006807284EDB4448444909684018A9
:10171000401E0078FF2846D1404840490968405C97
:10172000552840D13D483D49096840184078AA28CD
:1017300039D13A483949096840188078772832D138
:1017400000203749087035480068C01F05002C008C
:1017500032480068401E844209DA314800782F4937
:101760000919897940182E490870641CF0E72C4843
:1017700000782A49294A12688918497988420BD188
:10178000264826490968401801792448234A1268E6
:101790008018C07800F00DF800202049086002E0B1
:1017A00000201E490860F1BD80B50120FFF75EFBF7
:1017B00001BD38B505000C00E4B22000062816D0A3
:1017C000072815D0082814D0092813D00A2812D0C9
:1017D0000B2811D00C2810D064280FD065280ED00B
:1017E000662810D067280FD068280ED010E00FE0D0
:1017F0000EE00DE00CE00BE00AE009E008E000205C
:101800000B49087004E003E002E001200849087079
:101810000120FFF72BFB31BD0000000058F3FF1F34
:10182000C3F3FF1FFFFFFF7F10F3FF1F0000F04017
:10183000D2F3FF1FF0B583B006000F007C4C7D484B
:10184000F6B2042171434018001F00680500F6B28B
:10185000002E64D1784800688021C9000143764891
:101860000160C02189003020FFF7FEFCC021890003
:101870003120FFF7F9FC714800688021C904014359
:101880006E4801606D4800688021490201436B4841
:101890000160E078F3210140E17068466849096819
:1018A0004908818068468188FA20800048431021D9
:1018B0007943FFF760F86946088068462178E0229E
:1018C0000A408270684680786946098889B2090AA8
:1018D000C906C90E014321706846008860700F2058
:1018E0006749087000206749087000206649087041
:1018F0000020664908700020654908706548007836
:101900001F2101436348017063480078C0210143EF
:1019100061480170E0780C210143E17059E0F6B2B2
:101920003000012802D0022812D023E0424800688B
:1019300080210901014340480160C02189008120C4
:10194000FFF792FCC02189008020FFF78DFC11E099
:101950003948006880214901014337480160C021AE
:1019600089006420FFF780FCC02189006520FFF713
:101970007BFCFFE7E878F3210140E9700020A870C4
:1019800046480068FA218900484310217943FEF750
:10199000F2FF6946088068462978E0220A40827092
:1019A000684680786946098889B2090AC906C90E5D
:1019B000014329706846008868700020A8700020E4
:1019C000A8711F20287100206871E8780C2101435C
:1019D000E970F7BD00B50100154A1648C9B20423E5
:1019E0004B43C018001F0368C9B2002904D1107905
:1019F0008006FCD5D07903E018798006FCD5D8792B
:101A000000BD10B50A4A0B4BC0B2042444431B1955
:101A10001B1F1B68C0B2002804D114792406FCD512
:101A2000D17103E01C792406FCD5D97110BD0000EA
:101A300000A006408C29000034800440048004404B
:101A4000C4F3FF1F70B50400154D1648E4B204211D
:101A500061434018001F0668E4B2002C04D1E87806
:101A600020210143E97003E0F07820210143F17067
:101A7000E4B220000C3000F0A8F870BD00000000B7
:101A80000AA0064002A0064006A0064008A00640A4
:101A900009A0064004A0064005A00640CCF3FF1FA5
:101AA00000A006408C290000010007D5F446404202
:101AB00000F004F80122D2071143604742221201CC
:101AC000D21E004207D002D4521E0018FCD5C10A13
:101AD0004005120589187047F0B40E005E400125DC
:101AE000ED072E40B446AE0ADF184C18F4423BD244
:101AF000F74241D2640D43D07F0D38D0E41BC902B8
:101B0000DB0229432B43CF0ADB0A0600B61A9F41AA
:101B100004D2641EB6197F41B6185F416812800D69
:101B200024180018844222DAE80C0021B6197F41FB
:101B3000B61A9F4102D2B6185F413F1C404149414D
:101B4000F4D3241C21DD2405B6197F41B61A9F4128
:101B500005D33743C60737430026012F7041614143
:101B600066463143F0BC7047FCD1F74205D20020F5
:101B7000C14349054908F3E704D00020C143F1E718
:101B80007F0DFAD000206146ECE72442FAD1401CD8
:101B900061410F03F6D30020E2E730B401210022B7
:101BA0000368001D002B0BD00468001D0C4202D0FE
:101BB0004D466D1E64192260241D1B1FF0D0FAE7EC
:101BC00030BC704724490860704770B50400212C70
:101BD00003DB2248FEF79FFE15E021480568012639
:101BE00020002021FEF7C4FE8E402E431C480660D4
:101BF0001C480568012620002021FEF7B9FE8E4012
:101C00002E431848066070BDF8B507000E0000248A
:101C10000025212F04DB1448FEF77DFE012004007F
:101C2000042E04DB1148FEF776FE01200400E4B226
:101C3000012C0ED038000421FEF79AFE05000C4856
:101C4000EDB20421694340180090300080010099F2
:101C50000870F1BD0000000008ED00E0F42700006E
:101C600080E200E000E100E0B827000078270000F3
:101C700000E400E038B50400E4B2002C00D1D6E066
:101C8000E4B22000302820D0322825D050282AD095
:101C900060282FD0642834D06E2839D078283ED0E0
:101CA0007D2843D0822848D08C284DD0962852D009
:101CB000A02857D0AA285CD0B42861D0C82866D004
:101CC000E1286BD0FA2870D076E01820844908709B
:101CD00000208349487073E0182081490870012072
:101CE0007F4948706CE018207D49087010207C49BD
:101CF000487065E018207A490870182078494870C3
:101D00005EE01820764908701A207549487057E03F
:101D10001820734908701F207149487050E0132043
:101D20006F49087018206E49487049E013206C49CB
:101D300008701A206A49487042E013206849087008
:101D40001C20674948703BE00E206549087012204E
:101D50006349487034E00E206149087015206049DD
:101D600048702DE00E205E49087018205C494870CC
:101D700026E00E205A4908701B20594948701FE080
:101D80000E20574908701E205549487018E00C2055
:101D9000534908701C205249487011E00B205049EB
:101DA00008701E204E4948700AE00A204C4908700D
:101DB0001F204B49487003E06420FFF75BFF8EE073
:101DC000002047498870E4B21F2C03DA0020444900
:101DD00048712CE0E4B23D2C03DA012040494871FF
:101DE00025E0E4B25B2C03DA02203D4948711EE095
:101DF000E4B2792C03DA03203949487117E0E4B2E0
:101E0000972C03DA04203649487110E0E4B2B52C6F
:101E100003DA05203249487109E0E4B2D32C03DA31
:101E200006202F49487102E007202D4948712C48AF
:101E30004178183189B23220484329490978491C30
:101E400089B2FEF795FD05002C2026490870B820C0
:101E500025490870254800788007FBD5234800787D
:101E6000C006FBD421480078C0B280088007800FEC
:101E70000228F7D11A480078C006C00E1C49087025
:101E800000201C49087016488078000714494979D9
:101E90000904E022D2020A400243174802601048B7
:101EA0004078C006C00E40210143124801700F481F
:101EB00000788006FBD50D4800784006FBD50A481F
:101EC00000788006800E0849087008480078C0B283
:101ED00080088007800F0328F7D12800C0B232BDE8
:101EE000ECF0FF1F0140064000400640064006405F
:101EF00004400640054006404480044003000000C2
:101F00000090044000A0044000B0044000C0044021
:101F100000D0044000F00F4040F00F4080F00F4030
:101F2000C0F00F4000F10F400B1F0000000900003F
:101F30000000000000000000000000000000008021
:101F4000C0E06070303838181C0C0C0C0C04040411
:101F5000040C0C0C081838307060C0C08000000001
:101F60000000000000000000000000000000000071
:101F7000000000000000000000000000C0701C060F
:101F80000703010000000000000000000000000046
:101F90000000000000000000000000000001030736
:101FA0000F0E183070E0C08080800000000000003C
:101FB0000000000000000080C0E030180E030100A7
:101FC0000000000000000000000000000000000011
:101FD0000000000000000000000000000000000001
:101FE00000000000000000000001010303030206DE
:101FF000040C18F0C0F0FCFE0F030100000000000C
:1020000000000000000000000000000000000000D0
:10201000000000008080C0C0E0E0E0E0F0F0707000
:10202000783C3C3C1C1E0E1E38F8F8F87E7E9E164E
:1020300026EEFEFEFEFF7FFF1D71C0800000000047
:1020400000E0F8FC0E0F0E0E0E0C0C0C0C0E0E0E1B
:10205000060676FFFFFF7303030301010140C08002
:102060008080C0806000001E1F1F1F0E03070E1E11
:102070003E7FCF8F07070301003F000000010103EF
:10208000030206FF830000000000000000000000C3
:102090000000000000000000000000000000000040
:1020A000000101000000000000000000000000002E
:1020B000000000000003FEF8000000000000000027
:1020C0000000000000071F78E08000000000000012
:1020D0000000000000000000000000000000000000
:1020E00000000000000000000000000000000000F0
:1020F0000000000080C060381F07000000000000E2
:1021000000000000000000000000000103060C18A1
:10211000183020606040C0C0C08080808080808097
:102120008080808080C0C0C040406060202030102F
:1021300018080C0406030100000000000000000065
:10214000008003400090034000A0034010B504004D
:10215000E4B2614800686043FA218900FEF70BFC95
:102160000100012000F018F910BD80B55B4800683F
:102170008021890401435948016059480068802141
:1021800089040143564801600220FFF7DFFF5448ED
:102190000068802149040143514801600220FFF793
:1021A000D5FF4F4800684F4901404D48016002206B
:1021B000FFF7CCFF4A4800684B490140484801609E
:1021C0000220FFF7C3FF01BD80B5444800688021AD
:1021D0008904014341480160414800684149014088
:1021E0003F4801600220FFF7B1FF3D4800688021B1
:1021F000490401433A4801600220FFF7A7FF38482D
:102200000068802189040143354801600220FFF7FE
:102210009DFF01BD10B5324800688021490401438B
:102220002F4801600220FFF791FF002004002B4897
:1022300000682C490140294801602C4800680100D1
:102240008901C90F002901D0012004000220FFF7F5
:102250007DFF2348006824490140214801601F4850
:1022600000688021890401431C4801602000C0B23D
:1022700010BD38B5040000200500EDB2082D28DAA5
:1022800016480068802189040143144801601448FD
:102290000068144901402000C0B2C009C0B2400625
:1022A00008430F4908600E48006880214904014333
:1022B0000B4801600220FFF749FF094800680A49FE
:1022C0000140074801600220FFF740FF64006D1CD9
:1022D000D3E7FFF79FFF31BDCCF3FF1F14F10F4091
:1022E00000F10F40FFFFFFFDFFFFFFFE10F10F4069
:1022F00038B505000C00FFF738FF5420FFF7B9FF91
:102300002800C0B2FFF7B5FF200080B2000AC0B2BB
:10231000FFF7AFFF2000C0B2FFF7ABFFFFF754FF9E
:1023200031BD000038B505000C0049480068802127
:102330000904014346480160002046490860601EC8
:102340004549EDB210226A4388504348EDB210214E
:1023500069434018C068012101433F48EDB2102293
:102360006A438018C1603C48EDB2102169434018AF
:102370008068012188433849EDB210226A438918E8
:10238000886003203449EDB210226A4389188860BE
:102390001620FFF71AFC31BD10B52D4A12688023B4
:1023A0001B0413432A4A13602A4A126802239A43E1
:1023B000284B1A60284AC0B210234343D2189268AF
:1023C00001239A43244BC0B2102444431B199A6042
:1023D0004A1E214BC0B2102444431A511E4AC0B2B7
:1023E00010234343D218D268012313431A4AC0B2C0
:1023F000102444431219D360174AC0B21023434338
:10240000D218926801239A43134BC0B2102444435C
:102410001B199A600122104BC0B2102444431B19AF
:102420009A600D4AC0B210234343D218D268D20733
:10243000F7D5094AC0B210234343D218D26801230A
:102440001343054AC0B2102444431219D36010BD8F
:102450003C800440007003400071034080B5FEF7EB
:10246000F3FA3D480068402101433B4801603B4886
:1024700000680121884339490860E12149020020B0
:10248000FFF7D8F9002201214620FEF7FDFC0022CB
:1024900001214520FEF7F8FC3148006820218843DF
:1024A0002F4908602E480068402188432C49086065
:1024B0000A232C4A00210020FEF7C4FD0A23294AE2
:1024C00001210020FEF7BEFD6423264A02210020E0
:1024D000FEF7B8FD6423234A03210020FEF7B2FD76
:1024E000002200210220FEF755FEFEF7A4FF1E4841
:1024F00000900723422200210020FFF719F8002254
:1025000001219820FEF7C0FC002201219920FEF74E
:10251000BBFC00F02DF800F094F8144801680A2084
:1025200041430020FFF7FEFE0020FFF78BFA002159
:102530000C20FFF769FB01211620FFF765FB064819
:10254000006840218843044908600448006801216C
:1025500001430248016001BDC0F00F4040F00F4050
:1025600080F00F4010270000F4F0FF1FCCF3FF1F96
:1025700080B5B82149010820FFF7BAFEB82149010A
:102580000920FFF7B5FEB82149010A20FFF7B0FE88
:102590008021C9000B20FFF7ABFE00210C20FFF7C4
:1025A000A7FE00210D20FFF7A3FE00210E20FFF75C
:1025B0009FFE00210F20FFF79BFE8021C900102005
:1025C000FFF796FE8021C9001120FFF791FE8021C0
:1025D000C9001220FFF78CFE8021C9001320FFF7ED
:1025E00087FE1C491420FFF783FE1A491520FFF7C8
:1025F0007FFE18491620FFF77BFE16491720FFF7CC
:1026000077FE15491920FFF773FE11491A20FFF7CD
:102610006FFE12491B20FFF76BFE8421C9011E20AB
:10262000FFF766FE0E491F20FFF762FE8421C901F5
:102630002020FFF75DFE842189012120FFF758FE4D
:1026400001BD80B507491A20FFF752FE01BD000009
:10265000013E00000110000001F8000009A2000086
:10266000404A0000011E0000F0B583B02248234913
:1026700088420DD000200400C02C09D21F4804213C
:10268000614340581C49042262438850641CF3E7AC
:102690001948FFF797FA1A4807001A4805001A4820
:1026A00001900198401B04002000441E002804D023
:1026B000287838706D1C7F1CF6E714480600144813
:1026C00000900098801B04002000441E002803D0C6
:1026D00000203070761CF7E70E480F490F4A531A56
:1026E0001C0023005C1E002B04D00B780370491CD7
:1026F000401CF6E7F7BD00BF00F0FF1F0000000020
:10270000C0F0FF1FFC1E00004C21000010F3FF1F53
:10271000D3F3FF1FD3F3FF1F942900009429000077
:1027200080B510480068F821890101430D48016017
:102730003020FFF79FFA0C4908600B480068FA2127
:102740008900484309490860084800680849096841
:10275000090C4907490F491CFEF70DF905490860A6
:1027600001BD00BF38800440C8F3FF1FC4F3FF1F42
:1027700044800440CCF3FF1F0A4552522120496E89
:1027800076616C6964207072696F72697479207601
:10279000616C75652070617373656420746F20705F
:1027A00072696F72697479206972712066756E63DF
:1027B00074696F6E210A00000A4552522120496E49
:1027C00076616C6964204952512076616C75652090
:1027D00070617373656420746F207072696F7269C1
:1027E0007479206972712066756E6374696F6E21E9
:1027F0000A0000000A4552522120496E76616C6938
:1028000064204952512076616C7565207061737344
:10281000656420746F20656E61626C6520697271F9
:102820002066756E6374696F6E210A000A2A2A2A6F
:102830002A64656661756C745F69737220656E7475
:1028400065726564206F6E20766563746F722025F3
:10285000642A2A2A2A2A0D0A0A00000080B572B6C4
:10286000FFF7FCFD07480168FA2080004143012082
:10287000FFF792FD0020FEF7F9FA62B6FEF7F0F8D6
:10288000FCE700BFCCF3FF1F80B5074800680121BB
:1028900001430548016005480088401C0349088041
:1028A000C046C04601BD00BF0C710340D0F3FF1FFE
:1028B00010B5074979441831064C7C44163404E0BD
:1028C000081D0A68891888470100A142F8D110BD87
:1028D0000800000014000000C3F2FFFFC400000065
:1028E00010F3FF1F0000000080B5002004490860BD
:1028F000FFF7BAFEFFF714FFFFF7B0FFFEE700BFD8
:10290000008104400120C046002801D0FFF7D0FF1D
:102910000020C046C046FFF7A1FF00F000F880B5D8
:1029200000F002F801BD00000746384600F002F84A
:10293000FBE700002021090326311820ABBEF9E790
:10294000002000210022002300240025002600276B
:1029500062B6FFF7C9FFFEE780B503480168034888
:10296000FDF7D9FF01BD000004ED00E02C280000B8
:1029700010B504002100C9B20020FFF742F810BDD5
:10298000C046C046C046C046FFF7BCFF00B0064088
:0429900000C006403D
:04000005000029814D
:00000001FF
