S02200004E58505F28676F6C64656E5F63797072696E6F6964295F4B36302E73726563A3
S1130000989AFF1F1104000021040000A17500004C
S1130010210400002104000021040000000000006D
S113002000000000000000000000000021040000A7
S1130030210400000000000021040000B12D000094
S113004051780000677800007D7800009378000004
S1130050A9780000BF780000D5780000EB78000094
S113006001790000177900002D7900004379000020
S1130070597900006F790000857900009B790000B0
S113008021040000210400002104000021040000D8
S113009021040000210400002104000021040000C8
S11300A0AD7D0000077E0000B56C00005F6D0000B0
S11300B0096E0000357200003D72000045720000B8
S11300C0557200005F720000697200006B720000DC
S11300D06D7200006F720000777200007F72000082
S11300E08F72000099720000C1720000C372000098
S11300F0C57200002B260000210400005B260000CE
S1130100210400008B26000021040000BB2600000F
S113011021040000EB260000210400001B2700003E
S113012021040000758400007F8400002104000085
S11301302104000021040000BD3E0000C73E000071
S1130140D13E000021040000A18000000000000056
S1130150CB340000E1340000F73400000D3500001A
S1130160B57F00001985000021040000817F000094
S11301705B7F0000357F0000977F000021040000B2
S113018021040000B97C0000237D000035800000BC
S1130190210400000511000021040000ED130000FB
S11301A0FF13000011140000231400003514000094
S11301B021040000210400002104000021040000A7
S11301C02104000021040000210400002104000097
S11301D02104000021040000210400002104000087
S11301E0AB750000AB750000AB750000AB7500008B
S1130410014880470148004785740000B97900000D
S113042007F0C3B810B500240020DFF8F41BA1F8CE
S11304304C000020DFF8E81BA1F84E000020DFF894
S1130440E01BA1F850000020DFF8D41BA1F85200F3
S11304500020DFF8CC1BA1F854000020DFF8C01BFB
S1130460A1F8560000200400A4B2962C80F2038167
S1130470052000F027FE00F0D3FEDFF8A80B00688B
S1130480DFF8A41B0818DFF8981B4863DFF8900B0B
S1130490406B232190FBF1F0DFF8841B4863DFF805
S11304A0800B406BDFF8781B0968401ADFF8701B7B
S11304B04863DFF8700B4068DFF8701B0818DFF83A
S11304C0601B8863DFF8580B806B232190FBF1F0ED
S11304D0DFF84C1B8863DFF8480B806BDFF8401BA8
S11304E04968401ADFF8381B8863DFF8380B8068E6
S11304F0DFF83C1B0818DFF8281BC863DFF8200B63
S1130500C06B232190FBF1F0DFF8141BC863DFF804
S1130510100BC06BDFF8081B8968401ADFF8001B5A
S1130520C863DFF8FC0A806BDFF8F41AC96B401A61
S1130530DFF8EC1A8862DFF8E80A806BDFF8E01A6B
S1130540496B401ADFF8D81AC862DFF8D40A406B46
S1130550DFF8CC1AC96B401ADFF8C41A0863DFF855
S1130560C00AB0F94C00DFF8B81A896A88420DDA7B
S1130570DFF8AC0A806AB0F5167F07DADFF8A00A64
S1130580806ADFF89C1AA1F84C0016E0DFF8900AA4
S1130590806ADFF88C1AB1F9521088420DDADFF85C
S11305A0800A806ADFF88C1A884206DBDFF8700A5A
S11305B0806ADFF86C1AA1F85200DFF8640AB0F917
S11305C04E00DFF85C1AC96A88420DDADFF8500A77
S11305D0C06AB0F5167F07DADFF8440AC06ADFF8AC
S11305E0401AA1F84E0016E0DFF8340AC06ADFF8BA
S11305F0301AB1F9541088420DDADFF8240AC06ABF
S1130600DFF8301A884206DBDFF8140AC06ADFF824
S1130610101AA1F85400DFF8080AB0F95000DFF806
S1130620001A096B88420DDADFF8F409006BB0F5A3
S1130630167F07DADFF8E809006BDFF8E419A1F8A0
S1130640500016E0DFF8D809006BDFF8D419B1F9CF
S1130650561088420DDADFF8C809006BDFF8D419A8
S1130660884206DBDFF8B809006BDFF8B419A1F89B
S11306705600641CF8E601220A21DFF8BC0900F0E8
S1130680A4FE00220B21DFF8B00900F09EFE322008
S113069000F018FD00220A21DFF89C0900F095FE05
S11306A001220B21DFF8900900F08FFE642000F096
S11306B009FD01220A21DFF8800900F086FE0022EC
S11306C00B21DFF8740900F080FE322000F0FAFC00
S11306D000220A21DFF8600900F077FE01220B21D5
S11306E0DFF8540900F071FE642000F0EBFC0122F5
S11306F00A21DFF8440900F068FE00220B21DFF82C
S1130700380900F062FE322000F0DCFC00220A21ED
S1130710DFF8240900F059FE01220B21DFF8180943
S113072000F053FE10BD10B500F07AFD052000F076
S1130730C9FCDFF8F0080068DFF8E418C861DFF8E6
S1130740E4084068DFF8D8180862DFF8D808806841
S1130750DFF8CC18486200200400E4B20F2C3FDA22
S113076000F05EFD052000F0ADFCDFF8B408C069C0
S1130770DFF8B01809680818DFF8A418C861DFF8B2
S1130780A008006ADFF89C1849680818DFF8901878
S11307900862DFF88C08406ADFF88818896808184E
S11307A0DFF87C184862DFF87808C069022190FB02
S11307B0F1F0DFF86C18C861DFF86408006A022100
S11307C090FBF1F0DFF858180862DFF85408406A2B
S11307D0022190FBF1F0DFF848184862641CBCE782
S11307E0DFF83C08C069DFF840180818DFF8301853
S11307F00860DFF82C080068232190FBF1F0DFF893
S113080020180860DFF81808006ADFF820180818B4
S1130810DFF80C184860DFF808084068232190FBD3
S1130820F1F0DFF8FC174860DFF8F407406ADFF8FE
S113083000180818DFF8E8178860DFF8E407806814
S1130840232190FBF1F0DFF8D817886010BD70B554
S1130850002005000020060005200400E4B2002C5E
S11308600FD0DFF8BC07E4B210EB4400B0F8560038
S1130870DFF8AC17E4B211EB4401A1F85800641E90
S1130880ECE7DFF89C07C06BDFF89417496B401A5C
S113089001280FDBDFF88807006CDFF88417C96BC9
S11308A00818DFF87C17496B401ADFF87417A1F8B1
S11308B04A000EE0DFF86807006CDFF86417496B44
S11308C00818DFF85C17C96B401ADFF85417A1F851
S11308D04A00DFF84C07B0F84A00DFF84417A1F8E3
S11308E05800DFF83C07B0F84A1089B20C2000F039
S11308F0CFFDDFF82C07E4B210EB4400B0F9580048
S1130900B0F5487F22DDDFF81807E4B210EB4400AD
S1130910B0F9580041F28831884217DA0020040007
S1130920E4B2062C2EDADFF8F806E4B210EB440049
S1130930B0F95800B0F5617F06DDDFF8E406006C1D
S1130940B0F5FA7F00DD6D1C641CE9E7DFF8D00622
S1130950E4B210EB4400B0F95800B0F5167F11DA98
S113096000200400E4B2062C0CDADFF8B406E4B28A
S113097010EB4400B0F95800B0F52F7F00DA761C74
S1130980641CEFE7EDB2062D1CDB0120DFF8AC168A
S1130990087001220A21DFF8A00600F016FDDFF836
S11309A0A0060078022804D10320DFF8941608700A
S11309B008E0DFF88C060078002803D10120DFF876
S11309C080160870DFF874060078012828D1F6B282
S11309D0062E25DBDFF868060078032817D10020EF
S11309E0DFF85816087000220A21DFF84C0600F0E0
S11309F0ECFC0020DFF8481608700020DFF84416ED
S1130A00C1F8A4000020DFF84016087008E0DFF801
S1130A1030060078012803D10220DFF8241608707C
S1130A2070BDF8B5DFF8F805806BDFF8F415C96B15
S1130A30401ADFF8EC15A1F84400DFF8E405806BF8
S1130A40DFF8DC15496B401ADFF8D415A1F846002D
S1130A50DFF8CC05406BDFF8C815C96B401ADFF826
S1130A60C015A1F84800DFF8B805B0F94400012822
S1130A701FDBDFF8AC05B0F9440000F0D7FE00221C
S1130A80DFF8C83500F0E8FE04000D00DFF890053B
S1130A90B0F94C0000F0CAFE02000B00200029004F
S1130AA000F0BCFF01F0DEF8DFF87415A1F8440093
S1130AB01EE0DFF86C05B0F9440000F0B7FE002238
S1130AC0DFF88C3500F0C8FE04000D00DFF8500597
S1130AD0B0F9520000F0AAFE02000B002000290029
S1130AE000F09CFF01F0BEF8DFF83415A1F84400D3
S1130AF0DFF82C05B0F9460001281FDBDFF82005DC
S1130B00B0F9460000F092FE0022DFF8483500F00C
S1130B10A3FE04000D00DFF80805B0F94E0000F054
S1130B2085FE02000B002000290000F077FF01F091
S1130B3099F8DFF8EC14A1F846001EE0DFF8E004B1
S1130B40B0F9460000F072FE0022DFF80C3500F028
S1130B5083FE04000D00DFF8C804B0F9540000F06F
S1130B6065FE02000B002000290000F057FF01F091
S1130B7079F8DFF8AC14A1F84600DFF8A404B0F962
S1130B80480001281FDBDFF89804B0F9480000F0A2
S1130B904DFE0022DFF8C43400F05EFE04000D00B8
S1130BA0DFF87C04B0F9500000F040FE02000B00B6
S1130BB02000290000F032FF01F054F8DFF860143F
S1130BC0A1F848001EE0DFF85804B0F9480000F02E
S1130BD02DFE0022DFF8883400F03EFE04000D00F4
S1130BE0DFF83C04B0F9560000F020FE02000B00D0
S1130BF02000290000F012FF01F034F8DFF820147F
S1130C00A1F84800DFF81804B0F8441089B20020B5
S1130C1000F03EFCDFF80804B0F8461089B2012069
S1130C2000F036FCDFF8F803B0F8481089B202206F
S1130C3000F02EFCDFF8E803B0F94400082824DAB9
S1130C40DFF8DC03B0F9440010F1070F1DDBDFF817
S1130C50D003B0F94600092817DADFF8C403B0F965
S1130C60460010F1070F10DBDFF8F80390F90000DD
S1130C70022805D0DFF8EC0390F90000032804D122
S1130C800020DFF8E01388708BE1DFF89403B0F9FB
S1130C90460008283DDADFF88803B0F9480010F16F
S1130CA0050F36DADFF8BC0390F90000002805D000
S1130CB0DFF8B00390F9000002282AD10220DFF8FF
S1130CC0A41308700A20DFF89C138870DFF850031F
S1130CD0B0F9440000F0AAFDDFF88C23DFF88C3370
S1130CE000F0BAFDDFF88823DFF8883300F0E0FF76
S1130CF000F0B8FFDFF86C134881DFF86803B0F93F
S1130D000A00692880F24D816920DFF85813488170
S1130D1047E1C348B0F946000828C0F28280C048C1
S1130D20B0F9480000287CD5DFF8380390F90000BA
S1130D3000280BD0DFF82C0390F90000012805D01F
S1130D40DFF8200390F9000002286AD10020C54989
S1130D5008701420C3498870B148B0F9440000F009
S1130D6065FDC54AC54B00F077FD04000D00AC4895
S1130D70B0F9440000F05AFD22002B0000F06CFD95
S1130D8004000D00A648B0F9440000F04FFD220015
S1130D902B0000F061FD04000D00A148B0F94400EF
S1130DA000F044FDB64AB74B00F056FD06000F00B4
S1130DB09B48B0F9440000F039FD32003B0000F0DC
S1130DC04BFD22002B0000F073FF04000D0094483B
S1130DD0B0F9440000F02AFDAB4AAC4B00F03CFDF6
S1130DE002000B002000290000F0D6FFA84AA94BFE
S1130DF000F05EFF00F036FF9A4948819948B0F947
S1130E000A006A2803DB692096494881C9E09548AD
S1130E10B0F90A00002840F1C480002091494881BB
S1130E20BFE07F48B0F9440008287DDB7C48B0F976
S1130E304800002878D48B4890F90000002809D095
S1130E40884890F90000012804D0864890F90000F1
S1130E50032869D10120834908701E2081498870C4
S1130E606F48B0F9460000F0E1FC8B4A8B4B00F070
S1130E70F3FC04000D006A48B0F9460000F0D6FC0B
S1130E8022002B0000F0E8FC04000D006448B0F9D7
S1130E90460000F0CBFC22002B0000F0DDFC040037
S1130EA00D005F48B0F9460000F0C0FC744A7C4B6A
S1130EB000F0D2FC06000F005948B0F9460000F0DB
S1130EC0B5FC32003B0000F0C7FC22002B0000F010
S1130ED0EFFE04000D005248B0F9460000F0A6FCF5
S1130EE0704A714B00F0B8FC22002B0000F0E0FEC9
S1130EF06E4A6F4B00F0DCFE00F0B4FE59494881A5
S1130F005848B0F90A00012803DB002055494881FC
S1130F1047E05448B0F90A0010F1690F41DA7FF054
S1130F206800504948813CE03D48B0F94400082835
S1130F3030DA3B48B0F9480002282BDB494890F9E5
S1130F400000012804D0474890F90000032821D16B
S1130F500320444908702820424988703048B0F979
S1130F60460000F063FC534A534B00F075FC404AC2
S1130F70524B00F09DFE00F075FE3A494881394815
S1130F80B0F90A0010F1680F0BDB7FF068003549F7
S1130F90488106E03220334988703248008931495B
S1130FA048814748007801281DD13C202D4988708C
S1130FB02C4840782B4908702A48B0F90800294980
S1130FC0B1F90A10401A152809DA2648B0F90800C0
S1130FD02449B1F90A10401A10F1140F03DA214818
S1130FE00089204948811F4840891E4908811D48BD
S1130FF000781C4948701B4890F9021089B20820F7
S113100000F046FA174890F9001089B2092000F060
S11310103FFA1448C18889B20A2000F039FAF1BDB8
S11310203886FF1F348AFF1F3056E8FF7020E8FF20
S1131030B850E8FFA9FDFFFF00F10F408A8AFF1FA7
S11310408E8AFF1F6885FF1F1284FF1F00207040D7
S1131050001071C000A06F4000206FC000806F407E
S113106000A071C02C86FF1FF46C567DAEB6D63F2F
S1131070B81E85EB51186A405F196547F47CA7BE1A
S1131080F168E388B5F8F43E87A757CA32C4C13F74
S113109017D9CEF7531349408DEDB5A0F7C6B03E2E
S11310A0B5F8043F16FBCBEEC9C3C23F8FC2F52887
S11310B05C9F4DC098DD9387855AD7BF51186AC08D
S11310C08B8AFF1F80B200281BD01449096851F095
S11310D00101124A116080B2134908600521114AC6
S11310E011600F49096851F001010D4A11600C4962
S11310F009680906FBD50A49096849084900084AEC
S11311001160704780B50648006850F080000449BB
S1131110086006480068804701BD0000388004402C
S11311200000044004000440080004408489FF1FB8
S113113080B540F65431082001F006F840F65431E9
S1131140092001F001F840F654310A2000F0FCFFB8
S11311504FF480610B2000F0F7FF00210C2000F019
S1131160F3FF00210D2000F0EFFF00210E2000F01E
S1131170EBFF00210F2000F0E7FF4FF48061102007
S113118000F0E2FF4FF48061112000F0DDFF4FF426
S11311908061122000F0D8FF4FF48061132000F02A
S11311A0D3FF41F20101142000F0CEFF41F201010E
S11311B0152000F0C9FF41F20101162000F0C4FF20
S11311C041F20101172000F0BFFF4FF60101192081
S11311D000F0BAFF43F601611A2000F0B5FF4AF2AD
S11311E009211B2000F0B0FF4FF446511E2000F0EF
S11311F0ABFF4FF467511F2000F0A6FF4FF4465198
S1131200202000F0A1FF4FF40841212000F09CFFB2
S113121001BD80B541F601611A2000F095FF01BDC2
S113122010B50024002000F0A7FF0400A4B220059C
S1131230000D000421490860A4B2201210F0F0004F
S11312401F490870012000F097FF1C49096880B20B
S113125008431A490860022000F08EFF0400A4B27B
S11312602005000D000415494860A4B2201210F0B6
S1131270F00013494870032000F07EFF0F494968CD
S113128080B208430D494860042000F075FF040053
S1131290A4B22005000D000408498860A4B22012FD
S11312A010F0F00006498870052000F065FF03493E
S11312B0896880B208430149886010BD348AFF1FE1
S11312C0448AFF1F0FB42DE9F84F0C9850F4807630
S11312D00A9FDDF82C809DF834909DF835A0DDF848
S11312E038B05948874203D33521584800F066FF87
S11312F05FFA89F9B9F1020F03DB3621534800F094
S11313005DFF5FFA8AFABAF1020F03DB37214F4817
S113131000F054FF4E48874204D14E480500002097
S1131320040021E04C48874204D14C4805000120C8
S1131330040019E04A48874204D14A4805000220C3
S1131340040011E04848874204D1484805000320BE
S1131350040009E04648874204D1464805000420B9
S1131360040001E000202CE05FFA89F9B9F1010FD3
S11313700ED1786958EA000078615FFA8AFABAF106
S1131380010F02D1C7F8048006E0C7F8088003E023
S1131390786930EA080078610020C0B2202808DAB1
S11313A038FA00F1C90702D5C0B245F82060401CE4
S11313B0F3E75846002803D02F48E4B240F824B09D
S11313C00120BDE8F20F5DF814FB10B4036801249A
S11313D08C40A343D2B212FA01F42343036010BC3D
S11313E070470069C84010F00100704780B522487A
S11313F0006880475FF0FF302049086001BD80B578
S11314001D48406880475FF0FF301D49086001BDFA
S113141080B51948806880475FF0FF30194908603B
S113142001BD80B51448C06880475FF0FF3016499D
S1131430086001BD80B51048006980475FF0FF3047
S11314401249086001BD000001F10F4098810000BD
S113145000F00F400090044040F00F4000A0044012
S113146080F00F4000B00440C0F00F4000C00440C2
S113147000F10F4000D004406889FF1FA090044091
S1131480A0A00440A0B00440A0C00440A0D00440E8
S113149089B24FF4807291FBF2F2DFF87033C0B27C
S11314A003F8102089B24FF4807291FBF2F303FB2E
S11314B01213DFF85823C0B212EB40025370704786
S11314C038B500257FF00401DFF8440301F074F817
S11314D06D21DFF83C0301F06FF82521DFF83003BC
S11314E001F06AF86D1F6D35253500200400DFF822
S11314F024030078E4B284420FD2DFF81003E4B28C
S1131500215649B2DFF8080301F056F8DFF8FC026F
S1131510E4B2205C4519641CE9E7290049B2BC48DF
S113152001F04AF831BDF8B5B94801F03EF8BA49BE
S11315300871B9480068642880F2F880B6480079D8
S1131540B549B54A126851188871B3480068401CFF
S1131550B1490860B04800682928C0F29380AE48B9
S1131560AD490968081810F8230CFF2840F08A8058
S1131570A948A9490968081810F8220C552840F010
S11315808180A548A4490968081810F8210CAA28E4
S113159078D1A148A0490968081810F8200C10282F
S11315A070D100209C4981F86B009B480068293861
S11315B005002C0098480068401E84420BDA9648C7
S11315C090F86B009449611889790818924981F858
S11315D06B00641CEEE7904890F86B008E498E4ACD
S11315E0126851184979884248D100200400092C16
S11315F042DA894815EB84010818807A5FF080711B
S1131600854A15EB84039A18D27A5FF480335A43DF
S113161001FB0020804915EB84025118097B4FF42B
S1131620807202FB01007C4915EB84025118497B4E
S113163050FA81F00700B7F1004F04D37FF0004067
S1131640C01B060000E03E00300000F0EFF8734AD3
S113165012EBC402C2E90001704810EBC402D2E9E3
S1131660000100226E4B00F0D9F96C4A12EBC4025F
S1131670C2E90001641CBAE700F05CF80020664986
S1131680086056E064480068072852DB62486249F3
S11316900968081810F8010CFF284AD15E485E4911
S11316A00968085C552844D15B485B4909680818F7
S11316B04078AA283DD158485749096808188078C5
S11316C0772836D10020544981F86B0052480068CD
S11316D0C01F05002C0050480068401E84420BDAED
S11316E04D4890F86B004C496118897908184A49AB
S11316F081F86B00641CEEE7474890F86B0046499C
S1131700454A12685118497988420BD142484249E6
S113171009680818017940483F4A12681018C078CF
S113172000F03FF800203C49086002E000203A49FC
S11317300860F1BD80B5394AD2E9000100F092FA9F
S11317403849A1F85C00354AD2E9020101F064F895
S113175034494861314AD2E9040101F05DF8314964
S113176008622E4AD2E9060101F056F82D49886133
S11317702A4AD2E9080101F04FF82A494862274A67
S1131780D2E90A0101F048F82649C861234AD2E99E
S11317900C0101F041F823498862012001F084FA28
S11317A001BD38B504000D00EDB22800062816D09E
S11317B0072815D0082814D0092813D00A2812D0D5
S11317C00B2811D00C2810D064280FD065280ED017
S11317D0662810D0672811D0682810D012E011E0D4
S11317E010E00FE00EE00DE00CE00BE00AE000205A
S11317F00D49087006E001F071FA03E002E00120EF
S113180009490870012001F04FFA31BD9C86FF1F81
S113181000D006401684FF1FC086FF1F2085FF1FCF
S11318200000F0406885FF1F1584FF1F010040F190
S11318300780F446404200F003F851F0004160474D
S113184009D0B0FA80F18840C91CC1F5846109054A
S113185001EBD02140057047B0B581EA030C0CF0D0
S1131860004C40F2FF7515EA11541DBF15EA1357D9
S1131870AC42AF4239E0E41923EA455343F4801300
S1131880C90241F0004141EA505EC7021100A7FBC2
S1131890020200284FF00000EEFB01204FF000018F
S11318A0E3FB072118BF42F001024018002149411F
S11318B0E3FB0E01A4F580640F0302D25200404101
S11318C0494154F101046CDD470872F1004250F1C2
S11318D0000051EB0451A1F580115CBF41EA0C01F9
S11318E0B0BD4CEA05510020B0BD05EA1357AC4227
S11318F014BFAF4241E050EA410E1CBF52EA430E0E
S113190002E061460020B0BD24423C441BD15FEAA2
S1131910070EF6D0090302BF01460020AEF1140EF3
S1131920B1FA81F7AEEB070401FA07FE0C37C7F1F1
S1131930200100FA07F7C8404EEA000E23EA455397
S113194043F48013A2E733F00043B3FA83F704BFF0
S1131950B2FA82FE77440B3FE41BB7F1200E2FBF8F
S113196002FA0EF3BB40C7F1200E22FA0EFE38BF76
S113197043EA0E03BA40641C82E750EA410E14BFE6
S113198052EA430E6FF000014FF4001717EB430FB8
S11319908ABF194617EB410FB5E74CEA0551002001
S11319A0B0BDD4F10104B4F120070FDAC4F120076B
S11319B0520828BF42F0010210FA07F501FA07F7AE
S11319C0E1BF2A43E0403843E1400FE0352C98DC86
S11319D0C7F1200452EA400220FA07F218BF42F08D
S11319E0010231FA07F0A1400A43002172F10042DA
S11319F050F1000051EB0C01B0BD50F8041B61B173
S1131A0050F8042BD30744BFA9F101039A1800230B
S1131A1042F8043B091FFAD1EFE77047F0B540F2F2
S1131A20FF7581EA030C0CF0004C15EA11541DBF3C
S1131A3015EA1357AC42AF42E5E0BC41C1F31301D0
S1131A40C3F31303801A994143F4801304D2641E30
S1131A504000494180185941C90241EA5051B1FB43
S1131A60F3F603FB1611A2FB0675D7EBC020A941C0
S1131A7002D2761E80185941C90241EA5051B1FB85
S1131A80F3FE03FB1E11A2FB0E75D7EBC020A94188
S1131A9003D2AEF1010E80185941890241EA9051F6
S1131AA0760546EA8E2EB1FBF3F603FB1611A2FB74
S1131AB00675D7EB8020A94102D2761E80185941C1
S1131AC0C90241EA50514EEA060EB1FBF3F603FB9C
S1131AD01611A2FB0675D7EBC020A94102D2761ECF
S1131AE080185941C90241EA5051B1FBF3F703FB95
S1131AF01711A2FB0735D3EBC020A94167F10007FA
S1131B000CBF004247F0010766F3D5274FEA1E31A8
S1131B10B80814F5806412DDBD0775F1004250EB7E
S1131B200E5051EB045111F5801F5CBF41EA0C01CA
S1131B30F0BD4CF07F6141F0E0410020F0BDBD07F5
S1131B406D0840EA0E5041F48011D4F10104B4F15F
S1131B5020060ADAC4F120060200E04001FA06F386
S1131B60E1401843B24015430EE0342C13DCC6F1B7
S1131B70200445EA40056D0820FA06F2154321FACF
S1131B8006F0A1400D43002175F1004250F1000020
S1131B9051EB0C01F0BD00205FEA0C01F0BDCFB9A0
S1131BA092185B41B3FA83F704BFB2FA82F6BF1905
S1131BB00B3FB7F120062FBF02FA06F3BB40C7F173
S1131BC0200622FA06F638BF3343BA401CB1E419A2
S1131BD0641E33E77F4231F00041B1FA81F404BF5F
S1131BE0B0FA80F6A4190B3CB4F120062FBF00FA1A
S1131BF006F1A140C4F1200620FA06F638BF3143AD
S1131C00A0403C1B1AE7AC421ABF05EA1357AF4287
S1131C1012E050EA41061CBF52EA4306BFE750EA0D
S1131C204107304661461CBF41EA0551F0BD52EA06
S1131C30430C08BFC143F0BD00204FF4001616EB5F
S1131C40410F98BF16EB430F08BF16EB410F24BF9B
S1131C50C14305E016EB430F0CBF61464CEA055146
S1131C60F0BD0000F446400D40EAC120490006D210
S1131C7000F00EF8004248BF6FF00040604700F0EB
S1131C8007F84FF0004188428CBF08464042604745
S1131C9040F00040490DA1F58061491C05D4D1F103
S1131CA01F0154BFC840C01770474FF00000704771
S1131CB070B44FF0004591EA030C44BF6B4000F050
S1131CC075B800BF841A71EB030603D2001BB1413F
S1131CD0121973414FF4001C1CEB410F34BF7CEB11
S1131CE0430443E00C0DA4EB1356352E50DC45EAB7
S1131CF0C323DB0A45EAC121C912B6F120050DDD73
S1131D0063FA05F6EB4086EA0305124218BF45F074
S1131D100105C01851F100010CD213E062FA06F576
S1131D20F2405540F3415A40B340F3405A408018C2
S1131D30594107D349085FEA30005FEA350528BFF7
S1131D4045F0010501F58011420875F1004250F19A
S1131D50000041EB045170BC4FF4001C1CEB410F1C
S1131D6038BF70470020090D090570471CEB410F6F
S1131D7010D252EA43060BD0BCEB410F05D80C0D30
S1131D80AB43661E342EB5DD02E0AB4380185941E7
S1131D9070BC704770BC704770B44FF0004591EA56
S1131DA0030F44BF6B40FFF78DBF00BF841A71EB74
S1131DB0030604D26E40001BB141121973414FF463
S1131DC0001C1CEB410F34BF7CEB430684E00C0D7C
S1131DD0A4EB1356362E7DDC012E43DC45EAC323E7
S1131DE043EA525312BFD20292025B08240545EA29
S1131DF0C12141EA5051D2EBC020994125D407D1E9
S1131E00B0FA80F610FA06F164D00020203608E01B
S1131E10B1FA81F6B140C6F1200220FA02F2114370
S1131E20B0404FEAF474B4EB465434F001064FEA80
S1131E3074040AD8D6F50016760D04F00044F04078
S1131E4061FA06F25040F1404840C00A40EA41506D
S1131E5021F0004128BF5FEA500550F1000044EB37
S1131E60D12137E045EAC323DB0A45EAC121C90A87
S1131E70B6F120050EDD42EA0242120CC5F120063D
S1131E8003FA06F6EB4042EA06056D42984161F119
S1131E9000010DE062FA06F5F240554063FA06FCD3
S1131EA082EA0C02F3405A406D42904161EB030117
S1131EB011F4801F05D1641E620502D06D004041FB
S1131EC0494121F48011430875F1004350F10000A9
S1131ED041EB045170BC70471CEB410F15D223F049
S1131EE0004352EA43060BD04FEA4C0CBCEB410FC3
S1131EF004D80C0D661E342EB7DDEBE7801A994129
S1131F0050EA410608BF0021E4E708BF1CEB430F79
S1131F1028BF6FF00001DDE710B50400E4B2200033
S1131F2000F01EFF10BD00B587B0824801904FF449
S1131F308060029001208DF8100001208DF81100BE
S1131F400020039001A984B06846142200F044FFE5
S1131F500FBCFFF7B7F907B000BD00B587B07548EF
S1131F6001904FF40060029000208DF810000120D1
S1131F708DF811000020039001A984B06846142252
S1131F8000F02AFF0FBCFFF79DF907B000BD80B534
S1131F900120694908600120684908600220FFF7B0
S1131FA0BBFF0120664908600220FFF7B5FF00204F
S1131FB0624908600220FFF7AFFF00206049086013
S1131FC00220FFF7A9FF01BD80B501205A4908602E
S1131FD000205A4908600220FFF79EFF012058495B
S1131FE008600220FFF798FF01205449086002208E
S1131FF0FFF792FF01BD10B501205149086002208E
S1132000FFF78AFF0020040000204B4908604D4878
S11320100068012801D1012004000220FFF77CFFA1
S11320200020474908600120434908602000C0B2ED
S113203010BD80B501204049086001203F49086077
S11320400220FFF769FF01203D4908600220FFF7E5
S113205063FF00203A4908600220FFF75DFF01BDDD
S113206080B501203449086000203449086002200A
S1132070FFF752FF0120324908600220FFF74CFFAE
S113208000202F49086001BD38B504000020050078
S1132090EDB2082D16DA012027490860E4B2E00900
S11320A0C0B2264908600120254908600220FFF7D4
S11320B033FF0020224908600220FFF72DFF64004F
S11320C06D1CE5E7FFF797FF31BD38B508250024FF
S11320D02800451EC0B2002828D0012016490860F7
S11320E00120164908600220FFF716FF002014495A
S11320F008600220FFF710FF012011490860022048
S1132100FFF70AFF00200C49086064000D480068CE
S1132110012802D154F0010401E014F0FE0400206F
S113212007490860012004490860D1E72000C0B2D3
S113213032BD000080F00F40AC12FE432C10FE4371
S11321402810FE432C12FE4338B504000D00FFF79F
S11321501EFF5420FFF798FF2000C0B2FFF794FF42
S1132160ADB2280AC0B2FFF78FFF2800C0B2FFF754
S11321708BFFFFF729FF31BD38B504000025FFF7B9
S113218006FF5420FFF780FF2000C0B2FFF77CFF5A
S1132190FFF7FDFE5520FFF777FFFFF796FF0500D9
S11321A02D02FFF75DFFFFF790FF28430500FFF7BF
S11321B040FFFFF709FF280080B232BD38B50400A4
S11321C00D002A002100024801F0D1F8FEE700BF0B
S11321D028830000012110F01F029140DFF86C25D4
S11321E040B2430942F8231070470FB42DE9F04779
S11321F0089D099E9DF828709DF829C0DDF82CE003
S1132200DDF83080002E02D14FF416594E46DFF827
S113221040954D454AD15FF000094C46DFF83495AE
S1132220D9F800904A46DFF83095D9F8009059F46F
S11322308069DFF824A5CAF80090FFB2022F06D106
S11322404FF40079DFF814A5CAF800900FE0FFB24C
S11322500E2F06D14FF44079DFF804A5CAF8009098
S113226005E04FF44079DFF8FCA4CAF800905FFA67
S11322708CFCBCF1010F06D14FF40079DFF8E8A41F
S1132280CAF800901EE15FFA8CFCBCF10F0F06D176
S11322904FF44079DFF8D4A4CAF8009012E14FF467
S11322A04079DFF8CCA4CAF800900BE1DFF8C494BD
S11322B04D4534D15FF001094C46DFF89894D9F8C4
S11322C000904A46DFF89094D9F8009059F40069D8
S11322D0DFF884A4CAF80090FFB27C2F06D14FF433
S11322E04079DFF894A4CAF8009005E04FF44079EF
S11322F0DFF888A4CAF800905FFA8CFCBCF17D0F6B
S113230006D14FF44079DFF878A4CAF80090D9E0F8
S11323104FF44079DFF86CA4CAF80090D2E0DFF8FB
S11323206894D9F800904A46DFF860944D4519D175
S11323305FF002094C46DFF82094D9F8009059F474
S11323408059DFF814A4CAF800904FF44079DFF8FC
S113235040A4CAF800904FF44079DFF838A4CAF8D2
S11323600090AFE0DFF830944D4545D15FF00309AC
S11323704C46DFF8E493D9F8009059F40059DFF89B
S1132380D8A3CAF80090FFB2802F06D14FF4407949
S1132390DFF808A4CAF800900FE0FFB22B2F06D193
S11323A04FF44079DFF8F8A3CAF8009005E04FF441
S11323B04079DFF8F0A3CAF800905FFA8CFCBCF116
S11323C0810F06D14FF44079DFF8DCA3CAF80090FE
S11323D078E05FFA8CFCBCF12A0F06D14FF4407907
S11323E0DFF8C8A3CAF800906CE04FF44079DFF836
S11323F0C0A3CAF8009065E0DFF8B8934D452FD12B
S11324005FF004094C46DFF8B093D9F8009059F412
S11324108069DFF8A4A3CAF80090FFB2942F06D114
S11324204FF44079DFF894A3CAF8009005E04FF424
S11324304079DFF88CA3CAF800905FFA8CFCBCF1F9
S1132440950F06D14FF44079DFF878A3CAF80090CD
S113245038E04FF44079DFF870A3CAF8009031E017
S11324605FF005094C46DFF864934D46DFF8489366
S1132470D9F8009059F40069DFF83CA3CAF8009039
S1132480FFB2652F06D14FF44079DFF844A3CAF8B0
S1132490009005E04FF44079DFF838A3CAF80090C3
S11324A05FFA8CFCBCF1640F06D14FF44079DFF87D
S11324B028A3CAF8009005E04FF44079DFF81CA384
S11324C0CAF8009095F8039019F0F30985F8039081
S11324D05FF0000985F802905FEA0619B2FBF9F98A
S11324E0484695F8009019F0E0094B4680B25FEA3F
S11324F0102919F01F0959EA030985F8009068703A
S11325005FEA42195FEA061AB9FBFAF980B2B9EB3D
S11325104019494695F80A9019F0E0094B4611F024
S11325201F0959EA030985F80A909DF82A90B9F120
S1132530010F0FD1F146B9F1000F0BD095F80390BC
S113254059F0200985F80390DFF89492E4B249F831
S113255024E005E095F8039019F0DF0985F803906D
S11325609DF82B90B9F1010F0FD1C146B9F1000FBD
S11325700BD095F8039059F0800985F80390DFF8A3
S11325806492E4B249F8248005E095F8039019F0C8
S11325907F0985F8039095F8039059F00C0985F8A4
S11325A00390BDE8F0075DF814FB01798906FCD5BA
S11325B090F9070040B2704702791206FCD5C17148
S11325C070470FB480B502986149884203D12D2029
S11325D0FFF700FE26E002986649884203D12F20C7
S11325E0FFF7F8FD1EE002986849884203D13120C4
S11325F0FFF7F0FD16E002986749884203D13320C3
S1132600FFF7E8FD0EE002986A49884203D13520BD
S1132610FFF7E0FD06E002986C49884202D13720BA
S1132620FFF7D8FD01BC5DF814FB80B56E48007857
S1132630800606D56D480078800602D56848006893
S1132640804769480078000606D568480078000687
S113265002D564480068804701BD80B564480078AD
S1132660800606D563480078800602D55C48406839
S113267080475F480078000606D55E48007800066B
S113268002D558484068804701BD80B55A48007853
S1132690800606D559480078800602D550488068DF
S11326A0804755480078000606D55448007800064F
S11326B002D54C488068804701BD80B550480078F9
S11326C0800606D54F480078800602D54448C06885
S11326D080474B480078000606D54A480078000633
S11326E002D54048C068804701BD80B5464800789F
S11326F0800606D545480078800602D5384800692A
S1132700804741480078000606D540480078000616
S113271002D534480069804701BD80B53C48007843
S1132720800606D53B480078800602D52C484069CF
S1132730804737480078000606D5364800780006FA
S113274002D528484069804701BD000000E100E04F
S113275000A00640B884FF1F348004400890044061
S11327603890044044A00440049004403C90044049
S113277040A0044000B0064000D0044010B0044023
S113278004D004400CB00440BC84FF1F00C00640C9
S11327900CC0044008C0044000D0064010D00440DF
S11327A02CA0044044B0044014D0044028A00440A9
S11327B040B0044000A00E402880044060D0044093
S11327C03CB0044064D0044038B0044000B00E4033
S11327D024C0044020D0044020C0044024D004403D
S11327E0008AFF1F188AFF1F04A0064003A00640AA
S11327F004B0064003B0064004C0064003C00640CF
S113280004D0064003D0064004A00E4003A00E40AE
S113281004B00E4003B00E404FEAF17CBCF1E04C32
S11328202CBFBCF5001F11E05FEA4C0C34BFBCF1B7
S11328307F5F2EE05FEA9C0C4FEA0C1C4FEA3C0CD5
S1132840C10071F100414CEB50707047C90241EA7C
S11328505051C00218BF41F0010141F000414FEA5C
S11328606C50C0F10900212810D240EACC7CCCF194
S1132870200C11FA0CF070F10040CCF1200C21FA7C
S11328800CF00CF0004C40EB0C0070474FEACC709D
S11328907047490011F5001F04D84FEACC10FF30EF
S11328A0C0057047C817704700B587B0DFF8040447
S11328B001904FF48060029001208DF810000120F7
S11328C08DF81100202003900020059001A984B008
S11328D06846142200F080FA0FBCFEF7F3FC07B040
S11328E000BD00B587B0DFF8CC0301904FF4006061
S11328F0029001208DF8100001208DF811000020B5
S113290003900020059001A984B06846142200F0C9
S113291063FA0FBCFEF7D6FC07B000BD80B5DFF844
S113292098030078002806D002280AD006D3042889
S11329300AD00CD30DE000F00DF80AE000F09EF888
S113294007E000F0F6F804E000F054F901E000F0CC
S1132950EFF801BD80B5DFF86403008864280CDA61
S113296001220A21DFF84C03FEF72FFD00220B2180
S1132970DFF84003FEF729FD7FE0DFF8400300881D
S1132980C9280CDA00220A21DFF82803FEF71DFD0E
S113299001220B21DFF81C03FEF717FD6DE0DFF8C1
S11329A01C030088B0F5967F0CDC01220A21DFF8B5
S11329B00403FEF70AFD00220B21DFF8F802FEF7FC
S11329C004FD5AE0DFF8F4020088B0F5C87F0CDC9F
S11329D000220A21DFF8DC02FEF7F7FC01220B21BA
S11329E0DFF8D002FEF7F1FC47E0DFF8D002008800
S11329F0B0F5FA7F0CDC01220A21DFF8B802FEF7F9
S1132A00E4FC00220B21DFF8AC02FEF7DEFC34E02C
S1132A10DFF8A8020088B0F57A7F0CDC00220A21D6
S1132A20DFF89002FEF7D1FC01220B21DFF88402CB
S1132A30FEF7CBFC21E0DFF88402008840F2DD5190
S1132A4088420CDA01220A21DFF86802FEF7BDFC95
S1132A5000220B21DFF85C02FEF7B7FC0DE0002238
S1132A600A21DFF85002FEF7B0FC01220B21914845
S1132A70FEF7ABFC03209049087001BD80B58F4878
S1132A80008832280ADA01220A218A48FEF79DFCCE
S1132A9000220B218748FEF798FC48E0874800880D
S1132AA065280ADA00220A218248FEF78EFC0122F8
S1132AB00B218048FEF789FC39E08048008896287D
S1132AC00ADA01220A217B48FEF77FFC00220B214F
S1132AD07848FEF77AFC2AE078480088C9280ADAA0
S1132AE000220A217348FEF770FC01220B21714871
S1132AF0FEF76BFC1BE071480088FA280ADA012211
S1132B000A216C48FEF761FC00220B216948FEF79C
S1132B105CFC0CE000220A216648FEF756FC012208
S1132B200B216448FEF751FC03206349087001BD82
S1132B30704780B561480088B0F5FA7F0ADA01224F
S1132B400A215C48FEF741FC00220B215948FEF79C
S1132B503CFC4EE059480088B0F57A7F0ADC00223C
S1132B600A215448FEF731FC01220B215148FEF79B
S1132B702CFC3EE05148008840F2DC5188420ADADD
S1132B8001220A214B48FEF720FC00220B21494870
S1132B90FEF71BFC2DE049480088B0F5FA6F0ADC0B
S1132BA000220A214348FEF710FC01220B21414870
S1132BB0FEF70BFC1DE04148008840F6C411884232
S1132BC00ADA01220A213B48FEF7FFFB00220B210F
S1132BD03848FEF7FAFB0CE000220A213548FEF7DC
S1132BE0F4FB01220B213348FEF7EFFB03203249AB
S1132BF0087001BD80B5314800881E280ADA012218
S1132C000A212C48FEF7E1FB00220B212948FEF79C
S1132C10DCFB48E0294800883D280ADA00220A2122
S1132C202448FEF7D2FB01220B212248FEF7CDFBFC
S1132C3039E0224800885A280ADA01220A211D486C
S1132C40FEF7C3FB00220B211A48FEF7BEFB2AE065
S1132C501A48008879280ADA00220A211548FEF762
S1132C60B4FB01220B211348FEF7AFFB1BE0134812
S1132C700088AA280ADA01220A210E48FEF7A5FBD9
S1132C8000220B210B48FEF7A0FB0CE000220A21D6
S1132C900848FEF79AFB01220B210648FEF795FB34
S1132CA003200549087001BD0021044A118002492E
S1132CB00870704700F10F401084FF1F848AFF1FC3
S1132CC080B5012021490870214984B06846142246
S1132CD000F082F80FBC00F0CCFB01BD80B50320EE
S1132CE01B4908701B4800781949C860002018491E
S1132CF0886000201649486017481549086114493E
S1132D0084B06846142200F067F80FBC00F058FB4A
S1132D100F4984B06846142200F05EF80FBC00F03E
S1132D20C1FB00200949087001BD80B5074800783F
S1132D30012809D100220021084800F0DAFC002211
S1132D400121064800F0D5FC01BD00001584FF1FD9
S1132D501886FF1F1484FF1FC12C0000008003404D
S1132D60184A194B1A60154A1268154BB2FBF3F254
S1132D7002FB00F2521E1100B1F1807F17D2144AF7
S1132D8011600022134B1A600F4A126852F00102BC
S1132D900D4B1A600C4A1268110011F00112012A3D
S1132DA0F8D0084A084B1A6000220A4B1A60704790
S1132DB080B506480068804701BD0000B884FF1F45
S1132DC040420F000400010010E000E0F489FF1FFE
S1132DD014E000E018E000E0103A07D330B4B1E8A2
S1132DE03810103AA0E83810F9D230BC530724BF89
S1132DF0B1E80810A0E8081044BF51F8043B40F8BB
S1132E00043BD20724BF31F8022B20F8022B44BF25
S1132E100B7803707047083A07D3B1E80810083AF2
S1132E2040F8043B40F804CBF7D25307E4E7000032
S1132E3070B504000D0016003068012802D0022885
S1132E4005D00AE0200040B27168884705E0B06808
S1132E500470B068401CB060FFE72868401C28601C
S1132E6070BD2DE9F04704005FF0000A5046A1460A
S1132E705FF0000A89F800A019F10109002A1FD0A7
S1132E80D1F800A05546002D05D15FF0300A89F82D
S1132E9000A0401C38E0002D36D095FBF3FA5646CE
S1132EA003FB165A5746002F02D5FF43313700E083
S1132EB03037350089F8007019F10109401CEAE740
S1132EC0D1F800A0D446BCF1000F05D15FF0300A60
S1132ED089F800A0401C17E0BCF1000F14D0BCFB23
S1132EE0F3FAD64603FB1ECAD046B8F10A0F02D243
S1132EF018F1300801E018F13708F44689F8008029
S1132F0019F10109401CE7E7BDE8F0872DE9F0411C
S1132F1004000D0016001F00A046A84507DA3A0079
S1132F2031003020FFF784FF18F10108F5E7BDE810
S1132F30F0812DE9F04104000D0016001F00A046A9
S1132F40A84507DA3A0031002020FFF771FF18F195
S1132F500108F5E7BDE8F0812DE9F24F92B00400D5
S1132F60150000200090129883469BF90000019000
S1132F700198002800F0F7810198252813D00198C2
S1132F800A2805D0220000A90198FFF751FF09E0A3
S1132F90220000A90D20FFF74BFF220000A90A2000
S1132FA0FFF746FFDCE100208146002004900498EE
S1132FB0002822D11BF1010B9BF9000020280ED020
S1132FC0232812D02B2807D02D2802D0302809D04E
S1132FD00EE059F00109EAE759F00209E7E759F070
S1132FE00409E4E759F00809E1E759F01009DEE7BC
S1132FF0BBF1010B01200490D9E700208246002098
S113300004900498002814D11BF1010B9BF90000D3
S1133010019001983038092806D80A20019900FB4C
S11330200A10B0F1300AECE7BBF1010B0120049067
S1133030E7E71BF1010B9BF900002E2811D10020BA
S11330400490049800280ED11BF1010B9BF9000099
S11330503038092800D8F4E7BBF1010B01200490B3
S1133060EFE7BBF1010B1BF1010B9BF900004C28AE
S113307006D0682802D06C2801D002E003E002E008
S113308001E0BBF1010B1BF1010B9BF90000019066
S11330900198582875D0622800F0D580632800F084
S11330A01F81642813D0692811D06E2800F04C8148
S11330B06F2800F0BD80702800F0D080732800F0E5
S11330C01981752800F0D58078285AD043E1286802
S11330D02D1D06900A23012206A909A8FFF7C1FEA7
S11330E0070009A8381806000698002803D52D20E3
S11330F003907F1C0FE05FEA897003D52B200390B7
S11331007F1C08E05FEA497003D5202003907F1CF0
S113311001E000200390002005905FEA097011D5BA
S11331200398002804D0220000A90398FFF780FE2A
S113313001200590230000AA51463800FFF7E6FE5F
S1133140574612E05FEAC9700FD4230000AA514623
S11331503800FFF7EEFE0398002804D0220000A9EF
S11331600398FFF765FE012005900598002807D114
S11331700398002804D0220000A90398FFF758FE02
S113318098E028682D1D02901023002202A909A8A6
S1133190FFF767FE070009A838180600002005900D
S11331A05FEA097016D55FEAC9600BD5220000A951
S11331B03020FFF73DFE220000A97820FFF738FEFB
S11331C001200590230000AA51463800FFF79EFE17
S11331D057461BE05FEAC97018D45FEAC96000D59E
S11331E0BF1C230000AA51463800FFF7A2FE5FEA85
S11331F0C9600BD5220000A93020FFF719FE220078
S113320000A97820FFF714FE012005905FEAC96049
S11332100DD5059800280AD1220000A93020FFF717
S113322007FE220000A97820FFF702FEBF1C41E040
S113323028682D1D02900823002202A909A8FFF77F
S113324010FE07001FE028682D1D029002230022B3
S113325002A909A8FFF705FE070014E028682D1D40
S113326002901023002202A909A8FFF7FAFD070023
S113327009E028682D1D02900A23002202A909A84A
S1133280FFF7EFFD070009A8381806005FEA097088
S113329007D5230000AA51463800FFF737FE5746EA
S11332A008E05FEAC97005D4230000AA514638003B
S11332B0FFF73FFE96F90000002807D0220000A97E
S11332C096F90000FFF7B4FD761EF3E75FEAC970D4
S11332D005D5230000AA51463800FFF72AFE3FE037
S11332E028682D1D40B20790220000A90798FFF717
S11332F09FFD35E028682D1D8046B8F1000F22D0CF
S1133300404600F023FE07005FEAC97005D423009D
S113331000AA51463800FFF70CFE98F90000002877
S113332008D0220000A998F90000FFF781FD18F1E8
S11333300108F2E75FEAC97005D5230000AA5146E7
S11333403800FFF7F6FD0BE028682D1D0890009863
S11333500899086004E0220000A90198FFF768FDBD
S11333601BF1010B01E6009813B0BDE8F08F0EB419
S11333707EB50400012000900648019007A80500CE
S11333802A00210000A8FFF7E7FD060030007EBCFC
S11333905DF810FBD5840000012110F01F0291405C
S11333A0604A40B2430942F823107047012110F0EB
S11333B01F0291405C4A40B2430942F8231070470F
S11333C00FB470B5059859490968594AB1FBF2F12F
S11333D0069A564B1B68564CB3FBF4F35A434FF40E
S11333E07A735A4301FB00200799504A1268504BE4
S11333F0B2FBF3F251434E4A02FB01049DF8105014
S1133400089EEDB2042D03DB32214A48FEF7D6FEB6
S1133410002C03D133214748FEF7D0FE464800680C
S113342050F400004449086000204449086030001A
S1133430002809D04248EDB240F8256002204149F5
S1133440EDB211EB05118860601E3E49EDB22A0110
S113345050503C48EDB210EB0510806850F001006C
S11334603849EDB211EB05118860012070BC5DF89C
S113347014FB0FB410B59DF80840E4B2042C03DB30
S11334805D212C48FEF79AFE14F1440040B2FFF788
S11334908DFF00202B49E4B211EB0411886010BCAD
S11334A05DF814FB0FB410B59DF80840E4B2042C89
S11334B003DB76211F48FEF781FE14F1440040B27D
S11334C0FFF76AFF10BC5DF814FB80B51C48006868
S11334D080471D48006850F001001B49086001BD89
S11334E080B51748406880471848006850F00100CC
S11334F01649086001BD80B51148806880471448AA
S1133500006850F001001249086001BD80B50C4804
S1133510C06880470F48006850F001000D490860FA
S113352001BD000000E100E080E100E0BC84FF1F79
S113353040420F00E88200003C80044000700340D9
S11335409089FF1F007103400C7103401C710340FC
S11335502C7103403C7103400FB43EB59DF81C0030
S11335600F21084204D13521DFF8E808FEF726FED2
S11335700698DFF8E41888420AD100200500DFF835
S1133580DC08006850F08070DFF8D018086021E093
S11335900698DFF8CC1888420AD101200500DFF82C
S11335A0BC08006850F00070DFF8B018086011E043
S11335B00698DFF8B01888420AD102200500DFF827
S11335C0A808006850F08070DFF89C18086001E0DB
S11335D0002052E09DF81C00C0070AD506A984B05B
S11335E068461C22FFF7F8FB0FBC00F0C9F8040082
S11335F02BE09DF81C0080070AD506A984B0684614
S11336001C22FFF7E9FB0FBC00F06CF904001CE07E
S11336109DF81C0040070AD506A984B068461C2200
S1133620FFF7DAFB0FBC00F027FC04000DE09DF867
S11336301C00000709D506A984B068461C22FFF7C0
S1133640CBFB0FBC00F036FC0400E4B2012C12D119
S11336500C9800280FD00C98DFF81018EDB241F840
S113366025009DF82C00012805D10698006850F02B
S11336704000069908602000C0B23EBC5DF814FB0F
S11336802DE9F84305000E0017009846089C42F205
S11336901170874204D3C121DFF8B807FEF78EFD0D
S11336A04246D2B23100C9B2280000F06AF90028BB
S11336B001D100201BE0E4B2242C02D142F21070AC
S11336C0C71BA86800900098401C00FB07F042F25A
S11336D01071B0FBF1F08146E4B2F6B215EBC6000E
S11336E0C460F6B215EBC600C0F810900120BDE826
S11336F0F283F8B504000D00160042F21170864200
S113370004D3F921DFF84C07FEF758FDEDB214EBB2
S1133710C500C068400702D542F21070861BA0683D
S113372000900098401C00FB06F042F21071B0FBC0
S1133730F1F00700EDB214EBC50007610120F2BD02
S1133740406880B2704700214160704770B5040042
S11337500D0016002A00D2B20821200000F011F951
S1133760002801D100200AE03200D2B20921200051
S113377000F007F9002801D1002000E0012070BD0D
S11337800FB42DE9F84FDDF830800D9800909DF8C6
S113379038909DF839A0DDF828B0B8F1000F05D1B4
S11337A040F2A721DFF8AC06FEF708FD5FFA8AFABB
S11337B0BAF1400F05DB4FF42A71DFF89806FEF7E3
S11337C0FDFCDFF8180700680400444501D200201E
S11337D084E0802000FB08F0B4FBF0F005004FF615
S11337E0FF70854279D2072007002E00402000FB9D
S11337F008F0B4FBF0F005004FF6FF70854248D2A4
S1133800062007002E005FEA4810B4FBF0F0050024
S11338104FF6FF7085423CD2052007002E005FEA78
S11338200810B4FBF0F005004FF6FF70854230D26B
S1133830042007002E005FEAC800B4FBF0F0050086
S11338404FF6FF70854224D2032007002E005FEA62
S11338508800B4FBF0F005004FF6FF70854218D2E3
S1133860022007002E005FEA4800B4FBF0F00500D8
S11338704FF6FF7085420CD2012007002E00B4FBE6
S1133880F8F005004FF6FF70854202D200200700D1
S11338902E000020CBF800000020CBF8040000200C
S11338A0CBF84C00CBF808605FFA89F95FEA89101D
S11338B010F0C0005FFA8AFA1AF03F010843CBF80F
S11338C068000098CBF86400FFB217F0070050F0CE
S11338D00800CBF80000012000E00020BDE8F20F52
S11338E05DF814FB0FB4F8B59DF82B500C9E069FA1
S11338F0EDB2082D05DB4FF43F71DFF85805FEF7F4
S11339005DFCC020C7F88400002038600020786087
S11339100020F8640020B8607FF00100C7F8800040
S11339200020B8673868EDB215F0070151F00801BE
S113393008433860386830F02000386030000028D0
S11339401BD0DFF81405874202D1002004000FE0E9
S1133950DFF80C05874202D10120040008E0DFF8FB
S11339600405874202D10220040001E0002005E0A2
S1133970DFF8F804E4B240F824600120F2BC5DF8FA
S113398014FB10B40300DFF8E804834240F00D8117
S1133990C9B200290FD002294BD02BD3042900F03F
S11339A0868065D3062900F0C080C0F09F80072977
S11339B000F0DA80F7E0D2B2032A0AD1DFF820055A
S11339C0006830F4E06050F44070DFF81445206083
S11339D00FE0D2B23D2A0AD1DFF80805006830F4BE
S11339E0E06050F48060DFF8FC44206001E00020D7
S11339F02DE22BE2D2B2042A0AD1DFF8EC040068EB
S1133A0030F4E06050F44070DFF8DC4420600FE0F4
S1133A10D2B23E2A0AD1DFF8D404006830F4E06060
S1133A2050F48060DFF8C444206001E000200EE21E
S1133A300CE2D2B2052A0AD1DFF8B404006830F4EB
S1133A40E06050F44070DFF8A84420600FE0D2B288
S1133A503F2A0AD1DFF89C04006830F4E06050F497
S1133A608060DFF89044206001E00020EFE1EDE1A8
S1133A70D2B2062A0AD1DFF88004006830F4E0608C
S1133A8050F44070DFF8704420600FE0D2B2402A56
S1133A900AD1DFF86804006830F4E06050F4806014
S1133AA0DFF85844206001E00020D0E1CEE1D2B23A
S1133AB0072A0AD1DFF84804006830F4E06050F4C3
S1133AC04070DFF83C4420600FE0D2B2602A0AD193
S1133AD0DFF83004006830F4E06050F48060DFF810
S1133AE02444206001E00020B1E1AFE1D2B2002A19
S1133AF00AD1DFF81404006830F4E06050F4407038
S1133B00DFF8044420600FE0D2B2612A0AD1DFF862
S1133B10FC03006830F4E06050F48060DFF8EC43AC
S1133B20206001E0002092E190E1D2B2012A0AD1A2
S1133B30DFF8DC03006830F4E06050F44070DFF834
S1133B40D04320600FE0D2B2622A0AD1DFF8C40366
S1133B50006830F4E06050F48060DFF8B84320601F
S1133B6001E0002073E171E1D2B2022A0AD1DFF848
S1133B70A803006830F4E06050F44070DFF8984324
S1133B8020600FE0D2B2632A0AD1DFF89003006804
S1133B9030F4E06050F48060DFF88043206001E09E
S1133BA0002054E152E1002051E1DFF8C8028342D1
S1133BB040F0BD80C9B20800002807D0012832D0E7
S1133BC008285DD0092800F08680AEE0D2B2082A29
S1133BD00AD1DFF84C03006830F4E06050F4407020
S1133BE0DFF83C4320601DE0D2B20C2A0AD1DFF892
S1133BF03403006830F4E06050F44070DFF824438C
S1133C0020600FE0D2B2202A0AD1DFF81C0300683A
S1133C1030F4E06050F44070DFF80C43206001E0C1
S1133C20002014E112E1D2B2092A0AD1DFF8FC0221
S1133C30006830F4E06050F44070DFF8F042206037
S1133C401DE0D2B20D2A0AD1DFF8E402006830F494
S1133C50E06050F44070DFF8D84220600FE0D2B248
S1133C60212A0AD1DFF8CC02006830F4E06050F475
S1133C704070DFF8C042206001E00020E7E0E5E0AA
S1133C80D2B2082A0AD1DFF89802006830F4E06062
S1133C9050F4C060DFF8884220601BE0D2B20C2AE6
S1133CA008D1DFF88002006850F4E060DFF8744265
S1133CB020600FE0D2B2202A0AD1DFF86C0200683B
S1133CC030F4E06050F4C060DFF85C42206001E052
S1133CD00020BCE0BAE0D2B2092A0AD1DFF84C02D3
S1133CE0006830F4E06050F4C060DFF840422060C7
S1133CF01BE0D2B20D2A08D1DFF83402006850F478
S1133D00E060DFF82C4220600FE0D2B2212A0AD111
S1133D10DFF82002006830F4E06050F4C060DFF89F
S1133D201442206001E0002091E000208FE04D4823
S1133D30834240F08980C9B20800002806D00128D7
S1133D4023D0082840D009285DD07BE0D2B20A2ACB
S1133D500AD1DFF8E401006830F4E06050F4407008
S1133D60DFF8D44120600FE0D2B2322A0AD1DFF862
S1133D70CC01006830F4E06050F44070DFF8BC41DE
S1133D80206001E0002062E060E0D2B20B2A0AD198
S1133D90DFF8AC01006830F4E06050F44070DFF804
S1133DA0A04120600FE0D2B2332A0AD1DFF8940197
S1133DB0006830F4E06050F44070DFF8884120601F
S1133DC001E0002043E041E0D2B20A2A0AD1DFF840
S1133DD06801006830F4E06050F4C060DFF85841D6
S1133DE020600FE0D2B2322A0AD1DFF85001006815
S1133DF030F4E06050F4C060DFF84041206001E03E
S1133E00002024E022E0D2B20B2A0AD1DFF83001EC
S1133E10006830F4E06050F4C060DFF824412060B2
S1133E200FE0D2B2332A0AD1DFF81801006830F467
S1133E30E06050F4C060DFF80C41206001E0002035
S1133E4005E003E0002002E0002000E0012010BCB7
S1133E5070470000A8820000008003403C800440BA
S1133E600090034000800B40308004405C89FF1FB9
S1133E7000800340009003400FB49DF81210009A94
S1133E80506D50F0010050650020D0640020506057
S1133E904FF6FF709060D2F88000C9B20843C2F8B0
S1133EA08000D2F8800050F00100C2F880000120A8
S1133EB004B070470FB4002004B0704780B52248A6
S1133EC00068804701BD80B51F484068804701BD38
S1133ED080B51D488068804701BD0000BC84FF1F79
S1133EE00C90044004B004401090044008B0044016
S1133EF0149004400CB004401890044010B00440E6
S1133F001C90044010C004400090044014C00440BD
S1133F100490044018C00440089004401CC00440AD
S1133F20209004403090044000A0044024900440B9
S1133F303490044004A004402890044048A0044065
S1133F402C9004404CA004405C89FF1F01000A002F
S1133F500023002A01D1002008E01000421C90F93F
S1133F600000002801D05B1CF7E718007047000030
S1133F7000B587B0DFF8B80901905FF0F8500290FF
S1133F800020039001208DF8100001208DF811000D
S1133F900020059001A984B068461422FEF71CFF96
S1133FA00FBCFDF78FF907B000BD000038B5040061
S1133FB0082501221B21DFF87809FDF706FA002203
S1133FC01821DFF86C09FDF700FA2800451EC0B27D
S1133FD000281DD0200606D501221921DFF850093A
S1133FE0FDF7F3F905E000221921DFF84409FDF794
S1133FF0ECF901221821DFF83809FDF7E6F900BFD2
S113400000221821DFF82809FDF7DFF96400DCE756
S113401031BD000038B50400082500221B21DFF85B
S11340201009FDF7D2F900221821DFF80409FDF781
S1134030CCF92800451EC0B200281DD0200606D5A4
S113404001221921DFF8E808FDF7BFF905E0002295
S11340501921DFF8DC08FDF7B8F901221821DFF88F
S1134060D008FDF7B2F900BF00221821DFF8C0081C
S1134070FDF7ABF96400DCE731BD38B504000D0091
S1134080B5F15000C0B2FFF7C5FFE4B2200950F00B
S11340901000C0B2FFF7BEFF14F00F0050F0010093
S11340A0C0B2FFF7B7FF31BD70B5040000200500B2
S11340B0EDB2082D17DAB5F15000C0B2FFF7AAFF30
S11340C00120FFF7A7FF1020FFF7A4FF0020060040
S11340D0F6B2802E05DA2000C0B2FFF767FF761C27
S11340E0F6E76D1CE4E770BD38B500200400E4B2C7
S11340F0082C16DAB4F15000C0B2FFF78BFF012090
S1134100FFF788FF1020FFF785FF00200500EDB2C0
S1134110802D04DA0020FFF749FF6D1CF7E7641CCB
S1134120E5E731BD80B2002809D04FF47A5211007E
S11341300A00511E92B2002AFAD1401EF2E77047DB
S113414080B5FFF715FF01221821DFF8E407FDF71A
S11341503CF900221C21DFF8D807FDF736F90022CC
S11341601A21DFF8CC07FDF730F93220FFF7DAFF28
S113417001221A21DFF8B807FDF727F9AE20FFF76F
S113418049FF0020FFF746FF1020FFF743FF4020C0
S1134190FFF740FF8120FFF73DFFCF20FFF73AFFF5
S11341A0A120FFF737FFC820FFF734FFA620FFF751
S11341B031FFA820FFF72EFF3F20FFF72BFFD3206E
S11341C0FFF728FF0020FFF725FFD520FFF722FF88
S11341D08020FFF71FFFD920FFF71CFFF120FFF716
S11341E019FFDA20FFF716FF1220FFF713FFDB2079
S11341F0FFF710FF4020FFF70DFF2020FFF70AFF15
S11342000220FFF707FF8D20FFF704FF1420FFF7BC
S113421001FFA420FFF7FEFEA620FFF7FBFEAF2060
S1134220FFF7F8FE0020FFF73FFF00210020FFF713
S113423024FF01BD2DE9F84304008946150000263A
S113424000275FF00008B5F120000600E4B2792CE5
S113425003DB0020040019F101094946C9B220001A
S1134260C0B2FFF70AFF00200700FFB2082F0ADAE6
S1134270DFF8CC06F6B2310151FA87F1085CFFF79A
S113428095FE7F1CF1E719F10101C9B22000C0B20B
S1134290FFF7F3FE00200700FFB2082F0BDADFF868
S11342A0A006F6B2310151FA87F10818007AFFF737
S11342B07DFE7F1CF0E7083418F10108BDE8F183A6
S11342C02DE9F84304000D00160000275FF00008F4
S11342D05FF000095FFA89F919F8060000282BD06D
S11342E05FFA89F919F8060020380700E4B27F2C38
S11342F002DB002004006D1C2900C9B22000C0B2FA
S1134300FFF7BBFE002080465FFA88F8B8F1060F7D
S11343100EDADFF82806FFB2062101FB07005FFA78
S113432088F818F80000FFF741FE18F10108EBE7E0
S1134330A41D19F10109CDE7BDE8F1832DE9F84386
S113434004000D00160000275FF000085FF000096C
S11343505FFA89F919F80600002842D05FFA89F952
S113436019F8060020380700E4B2792C02DB00209B
S113437004006D1C2900C9B22000C0B2FFF77DFE05
S1134380002080465FFA88F8B8F1080F0BDADFF8EE
S1134390B005FFB2390151FA88F1085CFFF706FE57
S11343A018F10108EEE7691CC9B22000C0B2FFF79A
S11343B064FE002080465FFA88F8B8F1080F0CDA32
S11343C0DFF87C05FFB2390151FA88F10818007A48
S11343D0FFF7ECFD18F10108EDE7083419F10109C4
S11343E0B6E7BDE8F1832DE9F84304000D0016009B
S11343F000275FF000085FF001095FFA88F818F8F9
S11344000600002800F08D8000200700012081466E
S1134410DFF83005FFB2385C80281DDBDFF82405A7
S1134420FFB2385C5FFA88F818F80610884211D198
S1134430DFF81005FFB2381840785FFA88F818EBF7
S113444006014978884205D1FFB20E2017FB00F01F
S1134450814601E0BF1CDBE7E4B2772C02DB0020DD
S113446004006D1C2900C9B22000C0B2FFF705FE8C
S11344701FFA89F9B9F1010F2DD02900C9B2200022
S1134480C0B2FFF7FAFD00200700FFB20E2F0BDACF
S1134490DFF8B4041FFA89F919F80000FFF786FD64
S11344A019F101097F1CF0E7691CC9B22000C0B2F0
S11344B0FFF7E3FD00200700FFB20E2F2DDADFF82F
S11344C088041FFA89F919F80000FFF76FFD19F144
S11344D001097F1CF0E718F101082900C9B2200086
S11344E0C0B2FFF7CAFD00200700FFB2102F04DAA4
S11344F00020FFF75BFD7F1CF7E7691CC9B22000B1
S1134500C0B2FFF7BAFD00200700FFB2102F04DA93
S11345100020FFF74BFD7F1CF7E70E3418F102086B
S11345206BE7BDE8F1832DE9F04F89B006000F0079
S113453014001D00A046A946404649460022DFF863
S11345400C3400F00FFA80F00681404649465FF0D3
S1134550FF32DFF8FC3300F01DFA00F2FC80404625
S113456049460022DFF8EC33FDF758FAFDF77AFBF1
S113457080B20A2190FBF1F201FB1200FDF756F91B
S1134580CDE9040140464946FDF76CFB80B20A219F
S113459090FBF1F201FB1200FDF748F9CDE90601A9
S11345A00022DFF8B03340464946FDF755F9FDF7E0
S11345B059FB80B20A2190FBF1F201FB1200FDF7D6
S11345C035F9CDE902010022DFF88C334046494633
S11345D0FDF742F9FDF746FB80B20A2190FBF1F2A8
S11345E001FB1200FDF722F9CDE900010022DFF8FA
S11345F06C3340464946FDF72FF9FDF733FB80B293
S11346000A2190FBF1F201FB1200FDF70FF982463B
S11346108B46DDE90401FDF725FBC0B200280DD06F
S1134620DDE90401FDF71EFB10F13002D2B23900BE
S1134630C9B23000C0B2FFF7FDFD06E04BA239005D
S1134640C9B23000C0B2FFF779FEDDE90601FDF71B
S113465009FB10F13002D2B23900C9B216F10800D8
S1134660C0B2FFF7E7FD2E223900C9B216F11000DF
S1134670C0B2FFF7DFFD50465946FDF7F3FAC0B26A
S113468000280DD1DDE90001FDF7ECFAC0B20028E5
S113469006D1DDE90201FDF7E5FAC0B200280ED02B
S11346A0DDE90201FDF7DEFA10F13002D2B2390081
S11346B0C9B216F11800C0B2FFF7BCFD07E02BA287
S11346C03900C9B216F11800C0B2FFF737FE5046E0
S11346D05946FDF7C7FAC0B2002806D1DDE900014A
S11346E0FDF7C0FAC0B200280ED0DDE90001FDF7E5
S11346F0B9FA10F13002D2B23900C9B216F1200071
S1134700C0B2FFF797FD07E018A23900C9B216F14D
S11347102000C0B2FFF712FE50465946FDF7A2FA38
S1134720C0B200280ED050465946FDF79BFA10F14E
S11347303002D2B23900C9B216F12800C0B2FFF774
S113474079FD0FE009A23900C9B216F12800C0B200
S1134750FFF7F4FD06E0824A3900C9B23000C0B266
S1134760FFF7ECFD09B0BDE8F08F00002000000069
S11347702DE9F84F04000D00160036B2002E0AD5BC
S11347806AA22900C9B22000C0B2FFF7D7FD36B231
S11347907042834607E067A22900C9B22000C0B274
S11347A0FFF7CCFDB3461FFA8BFB42F210709BFB64
S11347B0F0F080B20A2190FBF1F201FB1200814675
S11347C01FFA8BFB4FF47A709BFBF0F080B20A2146
S11347D090FBF1F201FB120082461FFA8BFB64206E
S11347E09BFBF0F080B20A2190FBF1F201FB120076
S11347F007001FFA8BFB0A209BFBF0F080B20A2112
S113480090FBF1F201FB120080461FFA8BFB0A2099
S11348109BFBF0F100FB11B08DF800005FFA89F901
S1134820B9F1000F0AD019F13002D2B22900C9B28D
S113483014F10800C0B2FFF7FDFC07E03EA2290016
S1134840C9B214F10800C0B2FFF778FD5FFA8AFA22
S1134850BAF1000F04D15FFA89F9B9F1000F0AD057
S11348601AF13002D2B22900C9B214F11000C0B258
S1134870FFF7E0FC07E030A22900C9B214F11000F0
S1134880C0B2FFF71DFD5FFA8AFABAF1000F07D133
S11348905FFA89F9B9F1000F02D1FFB2002F0AD0F3
S11348A017F13002D2B22900C9B214F11800C0B213
S11348B0FFF7C0FC07E020A22900C9B214F11800D8
S11348C0C0B2FFF73BFD5FFA8AFABAF1000F0CD1D0
S11348D05FFA89F9B9F1000F07D1FFB2002F04D1B3
S11348E05FFA88F8B8F1000F0AD018F13002D2B29A
S11348F02900C9B214F12000C0B2FFF79BFC07E005
S11349000DA22900C9B214F12000C0B2FFF716FDB0
S11349109DF8000010F13002D2B22900C9B214F19E
S11349202800C0B2FFF786FCBDE8F18F2D0000001F
S113493000F10F402B000000200000008C6A0000F2
S11349404059000058840000E4760000006AF840F2
S1134950FF69F8C0000024400000594000408F4027
S1134960A08500004FF4001C1CEB410F94BF1CEB0E
S1134970430F09E041EA030C50EA4C0C52EA0C0CD8
S113498003D2994208BF9042704714BF8B428242BF
S1134990704700004FF4001C1CEB410F94BF1CEB4C
S11349A0430F09E041EA030C50EA4C0C52EA0C0CA8
S11349B003D28B4208BF8242704714BF994290428F
S11349C07047000038B500240120DFF82019087072
S11349D00120DFF8181948700320DFF81019087156
S11349E000F070FAE4B2002C03D100F0FDFC0400E6
S11349F0F8E7E4B2022C40F0D680DFF8F008007843
S1134A00042840F0BC80DFF8E4084078012807D08F
S1134A10C0F0C980032828D013D304286AD0C2E088
S1134A20DFF8C8080079401EDFF8C0180871DFF805
S1134A30BC080079002803D10120DFF8B018087100
S1134A40B1E0DFF8AC08DFF8A418097910EB4100F5
S1134A50DFF89C18DFF89428127911EB420131F841
S1134A60021C193920F8021C9DE0DFF88008007947
S1134A7003281EDADFF87C08DFF87018097949008A
S1134A8010EB8105DFF86C08DFF86018097949003C
S1134A9010EB810050F8080C00F0A0FDDFF8582856
S1134AA0DFF85838FDF704F9FDF7B6FE45F8080CB1
S1134AB01FE0DFF84008DFF8341809790622514373
S1134AC010EB8105DFF82C08DFF82018097906229D
S1134AD0514310EB810050F82C0C00F07FFDDFF8FF
S1134AE02028DFF82038FDF7E3F8FDF795FE45F8B8
S1134AF02C0C58E0DFF8F407007903281EDADFF8FD
S1134B00F407DFF8E8170979490010EB8105DFF8AD
S1134B10E407DFF8D8170979490010EB810050F851
S1134B20080C00F05BFDDFF8D827DFF8D837FDF775
S1134B30BFF8FDF771FE45F8080C1FE0DFF8B40775
S1134B40DFF8A81709790622514310EB8105DFF835
S1134B50A407DFF8981709790622514310EB810066
S1134B6050F8240C00F03AFDDFF89427DFF894376E
S1134B70FDF79EF8FDF750FE45F8240C13E0DFF82E
S1134B806C070078401EDFF864170870DFF85C07D4
S1134B900078002803D10120DFF8501708700120A5
S1134BA0DFF848174870E4B2032C40F0E780DFF8E0
S1134BB03C070078052800F08481DFF8300700788E
S1134BC0042840F0BC80DFF824074078012807D08F
S1134BD0C0F0D480032828D013D304286AD0CDE0B1
S1134BE0DFF808070079401CDFF800170871DFF8C8
S1134BF0FC060079082803DB0120DFF8F0160871B1
S1134C00BCE0DFF8EC06DFF8E416097910EB4100AC
S1134C10DFF8DC16DFF8D426127911EB420131F803
S1134C20021C193120F8021CA8E0DFF8C006007944
S1134C3003281EDADFF8BC06DFF8B016097949004C
S1134C4010EB8105DFF8AC06DFF8A01609794900FE
S1134C5010EB810050F8080C00F0C0FCDFF8982637
S1134C60DFF8A436FDF724F8FDF7D6FD45F8080C67
S1134C701FE0DFF88006DFF8741609790622514335
S1134C8010EB8105DFF86C06DFF86016097906225F
S1134C90514310EB810050F82C0C00F09FFCDFF81E
S1134CA06026DFF86836FDF703F8FDF7B5FD45F833
S1134CB02C0C63E0DFF83406007903281EDADFF8F1
S1134CC03406DFF828160979490010EB8105DFF86E
S1134CD02406DFF818160979490010EB810050F812
S1134CE0080C00F07BFCDFF81826DFF82036FCF710
S1134CF0DFFFFDF791FD45F8080C1FE0DFF8F40530
S1134D00DFF8E81509790622514310EB8105DFF835
S1134D10E405DFF8D81509790622514310EB810028
S1134D2050F8240C00F05AFCDFF8D425DFF8DC3509
S1134D30FCF7BEFFFDF770FD45F8240C1EE0DFF81C
S1134D40AC050078401CDFF8A4150870DFF89C055A
S1134D500078032805D100F083FC00F067FC00F024
S1134D609FFCDFF888050078062803DB0520DFF8C0
S1134D707C1508700120DFF874154870E4B2012C2A
S1134D8019D1DFF868050078022804D0DFF85C0543
S1134D90007804280FD1DFF854054078401EDFF86E
S1134DA04C154870DFF844054078002803D10120F1
S1134DB0DFF838154870E4B2042C23D1DFF82C0551
S1134DC00078022809D0DFF824050078042804D0EC
S1134DD0DFF818050078052814D1DFF810050078ED
S1134DE005286ED0DFF804054078401CDFF8FC1479
S1134DF04870DFF8F8044078052803DB0420DFF866
S1134E00EC144870E4B2052C58D1DFF8E0040078C3
S1134E1002283ED1DFF8D4044078012806D038D3E4
S1134E20032815D005D3042823D032E0FBF7FAFA7F
S1134E302FE0DFF8DC040078002804D10120DFF83B
S1134E40D014087003E00020DFF8C414087020E0D8
S1134E50DFF8C0040078C01CDFF8B8140870DFF86D
S1134E60B40400780D2803DB0320DFF8A8140870CD
S1134E700FE0DFF87804C078C01CDFF87014C87045
S1134E80DFF86804C078292803DB0A20DFF85C1403
S1134E90C870DFF858040078052812D0DFF84C04F5
S1134EA0007804280AD1DFF844040078401CDFF8B5
S1134EB03C1408700120DFF834144870002004000A
S1134EC08EE531BD80B5FFF70FF9DFF820040078D7
S1134ED0012807D015D303280AD006D305280DD0FE
S1134EE009D30EE000F00EF80BE000F019F808E02A
S1134EF000F08DF805E000F0C1F802E000F0BCF924
S1134F00FFE701BD80B5DFF8102400211420FFF76E
S1134F106AFADFF8082404212820FFF764FA01BDA7
S1134F2080B5DFF8C8034078012806D0DFF8F02305
S1134F3000210020FFF702FA05E0DFF8E423002156
S1134F400F20FFF7FBF9DFF8C8030078002806D12B
S1134F50DFF8D02302210020FFF7F0F905E0DFF8A5
S1134F60C82302210020FFF7E9F9DFF88003407825
S1134F70032806D0DFF8B42304210020FFF7DEF96C
S1134F8005E0DFF8A82304210F20FFF7D7F9DFF8A5
S1134F9084030078032805D136A204215A20FFF7A0
S1134FA0CDF91DE0DFF86C030078062805D132A2A4
S1134FB004215A20FFF7C2F912E0D64800780928E4
S1134FC005D1A8A204215A20FFF7B8F908E0D14876
S1134FD000780C2804D1A4A204215A20FFF7AEF9CA
S1134FE0C2484078042805D0D14A06210020FFF7A2
S1134FF0A5F904E0CE4A06210A20FFF79FF9BB4831
S1135000C27812B206214620FFF7B2FB01BD80B57B
S113501096A200210020FFF791F9C648B0F90A20B2
S113502000212820FFF7A4FB91A202210020FFF712
S113503085F9C148B0F9442002213220FFF798FBDA
S11350408CA204210020FFF779F9BB48B0F946206F
S113505004213220FFF78CFB9FA206210020FFF7DA
S11350606DF9B548B0F9482006213220FFF780FBDE
S113507001BD0000330000003600000080B59B48ED
S11350804078012805D0AD4A00210020FFF756F9E9
S113509004E0AA4A00210F20FFF750F98FA2002153
S11350A03C20FFF74BF99148027912B200214A20C3
S11350B0FFF75EFB8AA202210020FFF73FF9A04818
S11350C00078012840F0A18089488849097910EBCB
S11350D0410030F9022C02212820FFF749FB8348C4
S11350E0007903282ADA7FA204210020FFF726F999
S11350F07DA206210020FFF721F97E487B4909792A
S1135100490010EB810050F8080C00F067FA020027
S11351100B0004212820FFF706FA76487349097921
S1135120490010EB810050F8040C00F057FA02001B
S11351300B0006212820FFF7F6F991E06D486B4932
S113514009790622514310EB810050F8380C00F025
S113515045FA02000B0004210020FFF7E4F965483A
S1135160624909790622514310EB810050F8300C52
S113517000F034FA02000B0004212820FFF7D3F9D1
S11351805C485A4909790622514310EB810050F8D2
S1135190280C00F023FA02000B0004215020FFF732
S11351A0C2F95448514909790622514310EB810050
S11351B050F8340C00F012FA02000B000621002013
S11351C0FFF7B1F94B48494909790622514310EBDD
S11351D0810050F82C0C00F001FA02000B000621AB
S11351E02820FFF7A0F94348404909790622514392
S11351F010EB810050F8240C00F0F0F902000B00D1
S113520006215020FFF78FF92AE03848007900285A
S11352100FD1002202212820FFF7AAFA002204213C
S11352202820FFF7A5FA002206212820FFF7A0FA7C
S113523016E044482D49097910EB410030F9022C5D
S113524002212820FFF794FA0022002304212820B9
S1135250FFF769F90022002306212820FFF763F9EC
S113526001BD00003900000031320000504F5300EE
S11352704D2D4C004D2D520080B533480078072841
S113528013D00B2817D00D2809D00E2819D00F28B9
S11352901CD12E4A00210220FFF750F816E02C4AB8
S11352A000210620FFF74AF810E02A4A00210620D0
S11352B0FFF744F80AE0284A00210620FFF73EF8E9
S11352C004E0264A00210620FFF738F8244A042186
S11352D00620FFF733F801BD522D4C0041493A0036
S11352E041494D004B000000440000006487FF1F4B
S11352F01884FF1F3084FF1F7B14AE47E17A84BFFC
S11353009A9999999999B9BFE17A843F9999B93F42
S11353108D8AFF1F1484FF1FE8840000708500003D
S1135320F88400002885000078850000808500004E
S1135330348500002C86FF1F3886FF1F88850000F7
S11353401184FF1F2884FF1F8F8AFF1F40850000E0
S1135350908500004C8500000885000098850000B9
S11353605885000000B587B08F4801905FF4720043
S1135370029000208DF81000032003900020059077
S113538001A984B068461422FDF726FD0FBCFBF783
S113539099FF854801905FF48730029000208DF8D2
S11353A01000032003900020059001A984B06846F2
S11353B01422FDF711FD0FBCFBF784FF7B4801901D
S11353C06220029000208DF810000320039000203A
S11353D0059001A984B068461422FDF7FDFC0FBCBA
S11353E0FBF770FF07B000BD80B571480068002866
S11353F016D101220A216F48FBF7E7FF0120FBF7D2
S113540061FE6B48006800280AD1694800680028DA
S1135410FBD000220A216748FBF7D7FF012071E087
S113542065480068002816D101220A216148FBF76B
S1135430CCFF0120FBF746FE5F48006800280AD134
S11354405D4800680028FBD000220A215948FBF778
S1135450BCFF022056E059480068002816D10122FA
S11354600A215448FBF7B1FF0120FBF72BFE5348F8
S1135470006800280AD1514800680028FBD00022A7
S11354800A214C48FBF7A1FF03203BE04C4800688D
S1135490002816D101220A214648FBF796FF012075
S11354A0FBF710FE4648006800280AD1444800680B
S11354B00028FBD000220A213E48FBF786FF042087
S11354C020E040480068002816D101220A2139480A
S11354D0FBF77BFF0120FBF7F5FD3A480068002845
S11354E00AD1384800680028FBD000220A2131483C
S11354F0FBF76BFF052005E000220A212D48FBF78E
S113550064FF002002BD80B500202F4908701021DF
S11355102548FBF766FF2C49097808432A49087097
S1135520294800784000284908700B211E48FBF7E1
S113553058FF254909780843234908702248007810
S11355404000214908700A211748FBF74AFF1E4909
S1135550097808431C4908701B48007840001A4920
S1135560087009211048FBF73CFF174909780843E4
S11355701549087010210C48FBF733FF13490870D4
S11355800B210948FBF72DFF114908700A21064831
S1135590FBF727FF0F49887009210348FBF721FF18
S11355A00D49087001BD000040F00F40C0F00F40ED
S11355B0440AFE4300F10F405C0AFE43540AFE43D2
S11355C0580AFE43500AFE438F8AFF1F1284FF1FAE
S11355D0918AFF1F6487FF1F1184FF1F5FF0FF0C78
S11355E01CEAD05114BF614506E0C110400721F008
S11355F0E04101F16051704779B900F000410002C7
S11356000AD0B0FA80FC00FA0CF001F16051A1EB71
S11356100C5101EBD0214005704741020CBF40F40E
S1135620E0016FF0000100207047000080B5002009
S11356301849087000201749C8600120154988607E
S1135640002014494860144812490861114984B083
S113565068461422FDF7C0FB0FBCFDF7B1FE01BD87
S113566080B501200B49087000200A49C860052054
S113567008498860002007494860084805490861CE
S1135680044984B068461422FDF7A6FB0FBCFDF75D
S113569097FE01BD5C8AFF1F837A0000BB65000092
S11356A080B55A202F49087004202E4948600020F4
S11356B02C49886000202B49C860012029490874BE
S11356C0284984B068461422FDF786FB0FBC00F01D
S11356D0A0F82D20234908700420224948600120A5
S11356E02049886000201F49C86001201D490874B2
S11356F01C4984B068461422FDF76EFB0FBC00F011
S113570088F844201749087004201649486002208C
S11357101449886000201349C860012011490874A5
S1135720104984B068461422FDF756FB0FBC00F004
S113573070F845200B49087004200A49486003208A
S11357400849886000200749C86001200549087499
S1135750044984B068461422FDF73EFB0FBC00F0F8
S113576058F801BD488AFF1F10F007026D4B1B68F3
S113577019004FF6FF0319406B4B53EA02231943F8
S1135780684B19607047012110F01F029140674A6D
S113579040B2430942F823107047012110F01F0260
S11357A09140634A40B2430942F82310704710B451
S11357B040B2002808D50A015E4B40B210F00F0435
S11357C0E31803F8042C03E00A015B4B40B2C25413
S11357D010BC704770B4030013F00704D4F107063B
S11357E0052E01D3042001E0D4F10700261D072E65
S11357F001D2002500E0E51E012616FA00F0401E45
S11358000840A8400121A940491E1140084370BC2A
S113581070470FB42DE9F04701249DF92050099EEB
S11358200A9FDDF82C809DF83090072E0BD0062EB1
S113583009D0052E07D0042E05D0032E03D03A211B
S11358403E48FCF7BBFC102F03D33B213B48FCF73D
S1135850B5FCB8F1100F03D33C213848FCF7AEFC7B
S1135860032E33D03DD3052E1AD024D3072E01D0D6
S11358700BD336E00720FFF777FF002F02D1B8F1F2
S1135880100F01D3002004002DE00620FFF76CFF69
S1135890022F02D2B8F1080F01D30020040022E045
S11358A00520FFF761FF042F02D2B8F1040F01D3E2
S11358B00020040017E00420FFF756FF082F02D24F
S11358C0B8F1020F01D3002004000CE00320FFF71D
S11358D04BFF102F02D2B8F1000F01D000200400BA
S11358E001E000201AE0424639003000FFF772FF61
S11358F082465146280040B2FFF759FF5FFA89F902
S1135900B9F1010F04D1280040B2FFF73CFF03E0D6
S1135910280040B2FFF741FF2000C0B2BDE8F00705
S11359205DF814FB0CED00E00000FA0500E100E076
S113593080E100E018ED00E000E400E0DC8100001C
S11359400000000000000000000000000000000053
S1135950000000F8000000000000003330000000E8
S113596000100C06100C06000000000000000000EF
S113597040C07840C0784000043F04043F04040061
S1135980007088FC08300000001820FF211E000071
S1135990F008F000E018000000211C031E211E0086
S11359A000F00888700000001E212324192721100C
S11359B010160E00000000000000000000000000AF
S11359C0000000E018040200000000071820400056
S11359D000020418E0000000004020180700000046
S11359E0404080F0804040000202010F01020200AA
S11359F0000000F0000000000101011F010101008E
S1135A00000000000000000080B0700000000000F2
S1135A10000000000000000000010101010101017B
S1135A200000000000000000003030000000000012
S1135A3000000000806018040060180601000000E7
S1135A4000E010080810E000000F102020100F00E4
S1135A50001010F8000000000020203F202000006B
S1135A6000700808088870000030282422213000C3
S1135A7000300888884830000018202020110E00CB
S1135A800000C02010F8000000070424243F240074
S1135A9000F80888880808000019212020110E0049
S1135AA000E0108888180000000F112020110E005B
S1135AB000380808C83808000000003F0000000053
S1135AC00070880808887000001C222121221C0014
S1135AD000E010080810E0000000312222110F003D
S1135AE0000000C0C00000000000003030000000D2
S1135AF00000008000000000000080600000000042
S1135B00000080402010080000010204081020005A
S1135B1040404040404040000404040404040400A5
S1135B20000810204080000000201008040201003A
S1135B30007048080808F00000000030360100003A
S1135B40C030C828E810E0000718272423140B00ED
S1135B500000C038E0000000203C23020227382067
S1135B6008F8888888700000203F202020110E004B
S1135B70C030080808083800071820202010080042
S1135B8008F808080810E000203F202020100F002B
S1135B9008F88888E8081000203F202023201800F7
S1135BA008F88888E8081000203F2000030000005F
S1135BB0C03008080838000007182020221E020000
S1135BC008F808000008F808203F210101213F20BF
S1135BD0000808F8080800000020203F20200000EA
S1135BE000000808F8080800C08080807F000000DA
S1135BF008F888C028180800203F20012638200013
S1135C0008F8080000000000203F20202020300079
S1135C1008F8F800F8F80800203F003F003F200093
S1135C2008F830C00008F808203F200007183F009B
S1135C30E01008080810E0000F10202020100F00CA
S1135C4008F808080808F000203F210101010000BD
S1135C50E01008080810E0000F18242438504F0002
S1135C6008F8888888887000203F2000030C3020C2
S1135C7000708808080838000038202121221C0000
S1135C80180808F8080818000000203F2000000049
S1135C9008F808000008F808001F202020201F0032
S1135CA00878880000C83808000007380E01000092
S1135CB0F80800F80008F800033C0700073C03005C
S1135CC0081868808068180820302C03032C3020C2
S1135CD00838C800C83808000000203F2000000031
S1135CE010080808C8380800203826212020180089
S1135CF0000000FE020202000000007F404040005D
S1135D00000C30C000000000000000010638C00094
S1135D1000020202FE000000004040407F0000003C
S1135D200000040202020400000000000000000061
S1135D30000000000000000080808080808080805F
S1135D400002020400000000000000000000000047
S1135D5000008080808000000019242222223F203D
S1135D6008F8008080000000003F112020110E0080
S1135D700000008080800000000E1120202011000F
S1135D80000000808088F800000E112020103F20C1
S1135D900000808080800000001F22222222130045
S1135DA0008080F0888888180020203F2020000090
S1135DB00000808080808000006B94949493600045
S1135DC008F8008080800000203F210000203F2050
S1135DD000809898000000000020203F2020000050
S1135DE0000000809898000000C08080807F000040
S1135DF008F8000080808000203F24022D3020001D
S1135E00000808F8000000000020203F20200000C7
S1135E108080808080808000203F20003F20003FE1
S1135E208080008080800000203F210000203F20EF
S1135E300000808080800000001F202020201F00A0
S1135E40808000808000000080FFA12020110E00CF
S1135E500000008080808000000E112020A0FF80C0
S1135E60808080008080800020203F21200001006D
S1135E7000008080808080000033242424241900C2
S1135E80008080E0808000000000001F20200000CF
S1135E908080000000808000001F202020103F2010
S1135EA0808080000080808000010E3008060100A0
S1135EB080800080008080800F300C030C300F0045
S1135EC000808000808080000020312E0E31200070
S1135ED0808080000080808080818E7018060100A0
S1135EE000808080808080000021302C22213000BE
S1135EF000000000807C020200000000003F4040DF
