:10000000D0F7FF1F1927000031270000312700001B
:100010003127000031270000312700003127000080
:100020003127000031270000312700003127000070
:100030003127000031270000312700003127000060
:100040003127000031270000312700003127000050
:100050003127000031270000312700003127000040
:100060003127000031270000312700003127000030
:1000700075150000312700003127000031270000EE
:100080003127000031270000312700003127000010
:1000900031270000312700004526000031270000ED
:1000A00031270000312700003127000031270000F0
:1000B00031270000312700003127000031270000E0
:1004100070B504000D0016003068012802D00228D3
:1004200005D00BE02000C0B27168884706E02000CC
:10043000B1680870B068401CB060FFE72868401CD5
:10044000286070BDFFB584B0002006000498050048
:10045000002028706D1C0698002825D0059800689B
:1004600001900198002803D130202870761C3FE0CD
:10047000019800283CD00198079900F079FA039080
:1004800001980399079A5143401A0700002F03D59A
:10049000F8430700313700E0303703980190380007
:1004A00028706D1C761CE3E70598006800900098A2
:1004B000002803D130202870761C19E0009800280D
:1004C00016D00098079900F056FA02900098029909
:1004D000079A5143401A04000A2C01D2303400E03C
:1004E000373402980090200028706D1C761CE5E7D8
:1004F000300008B0F0BDF8B507000E0015003C0054
:10050000B44206DA009A29003020FFF781FF641C0C
:10051000F6E7F1BDF8B507000E0015003C00B44247
:1005200006DA009A29002020FFF772FF641CF6E724
:10053000F1BDF3B595B014000020009016980500A9
:10054000287802900298002800D1E1E1029825283D
:1005500013D002980A2805D0159A69460298FFF729
:1005600057FF09E0159A69460D20FFF751FF159ACC
:1005700069460A20FFF74CFFC8E100200700002071
:1005800005900598002824D16D1C2878202810D0CB
:10059000232816D02B2808D02D2802D030280CD0A4
:1005A00013E0380001270743EBE738000227074331
:1005B000E7E7380004270743E3E738000827074345
:1005C000DFE7380010270743DBE76D1E01200590A9
:1005D000D7E700200190002005900598002812D14F
:1005E0006D1C2878029002983038092807D80198A5
:1005F0000A2148430299401830380190EDE76D1EFA
:1006000001200590E9E76D1C28782E280ED10020E6
:100610000590059800280AD16D1C287830380928E3
:1006200000D8F6E76D1E01200590F2E76D1E6D1CE7
:1006300028784C2806D0682802D06C2801D002E027
:1006400002E001E000E06D1E6D1C28780290029827
:10065000582872D0622800D1CCE0632800D116E17E
:10066000642813D0692811D06E2800D142E16F2888
:1006700000D1B4E0702800D1C7E0732800D110E1A8
:10068000752800D1CCE0782857D03AE12068241DA5
:1006900009900A23012209A90CA8FFF7D3FE06003E
:1006A0000CA8801908900998002803D52D200490E3
:1006B000761C0DE0B80703D52B200490761C07E0CC
:1006C000780703D520200490761C01E000200490D8
:1006D00000200690380712D50498002804D0159AF7
:1006E00069460498FFF794FE01200690159B6A4620
:1006F00001993000FFF7FFFE0198060011E0F807AE
:100700000FD4159B6A4601993000FFF703FF049848
:10071000002804D0159A69460498FFF779FE012055
:1007200006900698002807D10498002804D0159A4E
:1007300069460498FFF76CFE92E02068241D039040
:100740001023002203A90CA8FFF77CFE06000CA8CA
:100750008019089000200690380716D5F8060BD5AA
:10076000159A69463020FFF753FE159A694678209E
:10077000FFF74EFE01200690159B6A460199300056
:10078000FFF7B9FE0198060018E0F80716D4F8063E
:1007900000D5B61C159B6A4601993000FFF7BAFEDA
:1007A000F8060BD5159A69463020FFF731FE159AE9
:1007B00069467820FFF72CFE01200690F8060DD53B
:1007C000069800280AD1159A69463020FFF720FEC6
:1007D000159A69467820FFF71BFEB61C40E020689A
:1007E000241D03900823002203A90CA8FFF72AFE6A
:1007F00006001FE02068241D03900223002203A9A5
:100800000CA8FFF71FFE060014E02068241D0390CB
:100810001023002203A90CA8FFF714FE060009E02C
:100820002068241D03900A23002203A90CA8FFF7C7
:1008300009FE06000CA880190890380708D5159BFA
:100840006A4601993000FFF756FE0198060007E05E
:10085000F80705D4159B6A4601993000FFF75AFE48
:1008600008980078002809D0159A694608980078F9
:10087000FFF7CEFD0898401E0890F1E7F80705D570
:10088000159B6A4601993000FFF744FE3EE0206860
:10089000241DC0B20A90159A69460A98FFF7B8FD60
:1008A00034E02068241D07900798002821D007987D
:1008B00000F0B8F80600F80705D4159B6A460199C0
:1008C0003000FFF727FE07980078002809D0159A16
:1008D000694607980078FFF79BFD0798401C079032
:1008E000F1E7F80705D5159B6A4601993000FFF737
:1008F00011FE0BE02068241D0B9000980B990860F6
:1009000004E0159A69460298FFF782FD6D1C17E610
:10091000009817B0F0BD0EB47EB505000120009020
:100920000748019007A80600320029006846FFF733
:1009300000FE0400200003B0039970BC04B0084717
:1009400049270000F446002804D4494200F013F877
:10095000404260474042002905D45FD000F00BF8C8
:10096000404249426047494200F005F84942604729
:1009700003460B43E6D40022030A8B420BD2030941
:100980008B4219D243088B422ED2411A00D2014623
:10099000524110467047FF2209023FD012068B4297
:1009A00005D3121209028B4201D312120902030964
:1009B0008B4219D300E0090AC3098B4201D3CB0152
:1009C000C01A524183098B4201D38B01C01A524194
:1009D00043098B4201D34B01C01A524103098B4298
:1009E00001D30B01C01A5241C3088B4201D3CB0083
:1009F000C01A524183088B4201D38B00C01A524166
:100A000043088B4201D34B00C01A5241884200D3A5
:100A1000401A5241CFD201461046704708B5C04631
:100A2000C04608BD00B501000A000023002A01D11C
:100A3000002008E010000200521C0078002801D0BD
:100A40005B1CF7E7180000BD80B500220121632080
:100A500000F01AFA00220121802000F015FA01BDF1
:100A600080B598480078002806D002280AD006D31E
:100A700004280AD00CD30DE000F00DF80AE000F0D5
:100A800092F807E000F024F904E000F089F901E0B1
:100A900000F0EFF801BD00B58B4800880A280CDA99
:100AA0008A4800680121014388480160BB4800680A
:100AB00008218843B949086074E0834800881528F4
:100AC0000CDA824800680121884380490860B348F5
:100AD000006808210143B148016063E07A4800885A
:100AE0001F280CDA7948006801210143774801602A
:100AF000AA48006808218843A849086052E0724863
:100B0000008829280CDA71480068012188436F4960
:100B10000860A248006808210143A048016041E044
:100B20006948008833280CDA6848006801210143CD
:100B30006648016099480068082188439749086021
:100B400030E06148008865280CDA604800680121BF
:100B500088435E49086091480068082101438F4836
:100B600001601FE05848008897280CDA5748006851
:100B700001210143554801608848006808218843E5
:100B8000864908600EE051480068012188434F49BA
:100B90000860824800680821014380480160032002
:100BA0004849087000BD00B54748008805280CDAA0
:100BB00046480068012101434448016077480068C5
:100BC000082188437549086052E03F4800880B2897
:100BD0000CDA3E480068012188433C4908606F48B0
:100BE0000068082101436D48016041E036480088F3
:100BF0000F280CDA354800680121014333480160B1
:100C000066480068082188436449086030E02E483F
:100C1000008815280CDA2D480068012188432B49EB
:100C200008605E480068082101435C4801601FE0DD
:100C30002548008819280CDA24480068012101435E
:100C400022480160554800680821884353490860DC
:100C50000EE01E480068012188431C4908604F4887
:100C60000068082101434D480160032015490870C0
:100C700000BD00B5804800880A280CDA13480068D7
:100C8000012101431148016044480068082188435C
:100C90004249086015E078480088FF21F631884213
:100CA0000CDA0A48006801218843084908603B487B
:100CB0000068082101433948016002E000206E49C4
:100CC000088000BDC0F0FF1FC8F3FF1F00F10F40F8
:100CD00000B56948008832280CDA684800680121AC
:100CE0000143664801602D480068082188432B496C
:100CF000086052E06048008865280CDA5F480068A8
:100D0000012188435D4908602448006808210143A7
:100D10002248016041E05848008896280CDA57487C
:100D2000006801210143554801601C480068082102
:100D300088431A49086030E04F480088C9280CDA17
:100D40004E480068012188434C49086013480068F8
:100D500008210143114801601FE047480088FA2834
:100D60000CDA4648006801210143444801600B4801
:100D7000006808218843094908600EE03F48006880
:100D8000012188433D490860044800680821014367
:100D90000248016003203A49087000BDC0F00F40CE
:100DA00000B53548008803280CDA34480068012172
:100DB00001433248016033480068082188433149C3
:100DC000086052E02C48008807280CDA2B4800689D
:100DD00001218843294908602A4800680821014305
:100DE0002848016041E02448008809280CDA23489B
:100DF0000068012101432148016022480068082160
:100E000088432049086030E01B4800880D280CDA30
:100E10001A48006801218843184908601948006889
:100E200008210143174801601FE01348008811287A
:100E30000CDA124800680121014310480160114892
:100E40000068082188430F4908600EE00B480068DD
:100E500001218843094908600A48006808210143C4
:100E60000848016003200649087000BD0021024ABD
:100E70001180034908707047C8F3FF1F00F10F404D
:100E8000C0F0FF1FC0F00F4070B504000D00160049
:100E90002D48E4B221004911042251434058E4B2E4
:100EA000E106C90E04225143802252004250EDB2A5
:100EB000012D1BD12548E4B22100491104225143E0
:100EC00040582249E4B22200521104235A4389585F
:100ED00049690122E306DB0E9A400A434261310070
:100EE000C9B22000C0B200F017F814E01748E4B20D
:100EF000210049110422514340581449E4B2220010
:100F0000521104235A43895849690122E306DB0E32
:100F10009A409143416170BD30B40C4AC0B20300A5
:100F20005B1104246343D25813680122C406E40E03
:100F3000A2401A43054BC0B20400641104256C435F
:100F40001B591A6030BC7047C4F0FF1FD8F0FF1F58
:100F500038B504000D00E4B2002C03D0022C55D0AB
:100F600039D36EE0884800688021490401438648EF
:100F70000160EDB2002D08D0022D12D00BD3042D4C
:100F80001BD014D3052D1ED023E08021C9004120A1
:100F900000F06AF91EE08021C900422000F064F9E7
:100FA00018E08021C900432000F05EF912E08021A2
:100FB000C900442000F058F90CE0C0218900482005
:100FC00000F052F906E0C0218900492000F04CF9F8
:100FD00000E036E035E06C48006880218904014378
:100FE00069480160EDB2002D02D0012D06D00BE062
:100FF000C02189000C2000F037F906E0C0218900EB
:101000000D2000F031F900E01BE01AE05E480068B6
:101010008021C90401435C480160EDB2002D02D07B
:10102000012D06D00BE0C0218900322000F01CF910
:1010300006E0C0218900332000F016F900E000E04E
:10104000FFE731BDFCB583B006000F003900C9B21F
:101050003000C0B2FFF77CFF4C4800684C49484361
:10106000400801900198000C0399FFF784FC0400EC
:1010700000200500A4B220002841012801DB6D1CDE
:10108000F8E70198E8400399FFF775FC0400F6B211
:10109000002E03D0022E17D00BD320E00498A4B268
:1010A0002100491C48436421FFF765FC694608801C
:1010B00015E00498A4B22100491C48436421FFF7BD
:1010C0005AFC694608800AE00498A4B22100491C31
:1010D00048436421FFF74FFC69460880FFE75C48FE
:1010E000F6B2042171434058FFB2082179434018F9
:1010F0005749F6B2042272438958FFB208227A4354
:101100008918C96804229143C1605148F6B204218C
:1011100071434058FFB20821794340182821C1602B
:101120004C4800684C4901404A4801604948006801
:1011300080214904014347480160EDB26907490F26
:10114000082008434249F6B20422724389580860D5
:10115000A4B23F48F6B204217143405884603C4831
:10116000F6B2042171434058FFB208217943401878
:1011700069460988016100203549F6B204227243AC
:101180008958486005B0F0BD3C800440C0F3FF1FA3
:1011900040420F0070B504000D001600E4B2002CB0
:1011A00003D0022C11D008D316E02C48006880210F
:1011B00049040143294801600EE028480068802165
:1011C000890401432548016006E024480068802125
:1011D000C904014321480160EDB2002D0DD1204822
:1011E000006880214904A14088431D49086080218E
:1011F000C9004C2000F038F80FE0EDB2012D0CD101
:101200001748006880214904A14001431448016047
:101210008021C9004D2000F027F8F6B27007400F7A
:10122000102101430A48E4B204226243805801605D
:101230000C480749E4B204226243895888600020C0
:101240000349E4B2042262438958486070BD00003B
:10125000FCF2FF1F04800440FFFFFFFC3C800440C1
:101260000C800440FFFF000010B40D4A1268802378
:101270009B000400E4B26409A3401343084A1360CE
:10128000084AC0B203005B1104246343D258C0B2C1
:10129000C306DB0E04246343D15010BC704700002A
:1012A00038800440C4F0FF1F80B501220121812055
:1012B000FFF7EAFD012201218220FFF7E5FD01226F
:1012C00001218320FFF7E0FD012201218420FFF7A7
:1012D000DBFD012201218520FFF7D6FD01BD00B510
:1012E0000821874A126808231343854A1360844AF9
:1012F000126804239A43824B1A600A00511ED2B22C
:10130000002A1CD0020606D57D4A12680223134328
:101310007B4A136005E07A4A126802239A43784BAD
:101320001A60774A126804231343754A1360744A9B
:10133000126804239A43724B1A604000DDE700BD37
:1013400000B508216E4A126808239A436C4B1A6054
:101350006B4A126804239A43694B1A600A00511EB3
:10136000D2B2002A1CD0020606D5654A12680223B2
:101370001343634A136005E0614A126802239A43EB
:101380005F4B1A605E4A1268042313435C4A136081
:101390005B4A126804239A43594B1A604000DDE708
:1013A00000BD38B505000C0020005038C0B2FFF772
:1013B000C7FF2900C9B2090910200843C0B2FFF7CE
:1013C000BFFF2907090F01200843C0B2FFF7B8FF8C
:1013D00031BD70B5040000200500EDB2082D17DA0C
:1013E00028005038C0B2FFF7ABFF0120FFF7A8FF7D
:1013F0001020FFF7A5FF00200600F6B2802E05DAC8
:101400002000C0B2FFF76BFF761CF6E76D1CE4E727
:1014100070BD80B5FFF748FF3948006804210143DB
:101420003748016036480068102188433449086015
:1014300033480068202188433149086030480068FB
:10144000202101432E480160AE20FFF779FF0020E4
:10145000FFF776FF1020FFF773FF4020FFF770FFC4
:101460008120FFF76DFFCF20FFF76AFFA120FFF774
:1014700067FFC820FFF764FFA620FFF761FFA820E1
:10148000FFF75EFF3F20FFF75BFFD320FFF758FF1A
:101490000020FFF755FFD520FFF752FF8020FFF710
:1014A0004FFFD920FFF74CFFF120FFF749FFDA206B
:1014B000FFF746FF1220FFF743FFDB20FFF740FF57
:1014C0004020FFF73DFF2020FFF73AFF0220FFF703
:1014D00037FF8D20FFF734FF1420FFF731FFA420E2
:1014E000FFF72EFFA620FFF72BFFAF20FFF728FF07
:1014F0000020FFF76EFF00210020FFF752FF01BD23
:1015000000F10F40F7B51F000024FFB2380008219A
:10151000FFF72EFA002906D1FFB238000821FFF7A5
:1015200027FA060006E0FFB238000821FFF720FA8C
:10153000401C0600684600790600FFB2F6B2B742CA
:1015400017D33100C9B268460078FFF72AFF684612
:10155000007805006846007AEDB2854207D2089807
:10156000A4B2005DFFF7BBFE641C6D1CF2E7761CA5
:10157000E3E7F7BDF8B5002000F016FA9C490871C2
:101580009B480068642800DBF4E09948007998499A
:10159000974A12688918887195480068401C9449D8
:1015A000086093480068292800DA93E09048904941
:1015B0000968401823380078FF2800D08AE08C485A
:1015C0008B490968401822380078552800D081E0FE
:1015D000874887490968401821380078AA2879D1B6
:1015E000834883490968401820380078102871D151
:1015F0000020804908707E480068293805002C00CA
:101600007B480068401E844209DA7A4800787849AD
:1016100009198979401877490870641CF0E7754802
:1016200000787349724A12688918497988424DD105
:1016300000200400092C47DA6D4804216143691831
:101640004018807A80214904484369490422624352
:10165000AA188918C97A8022520251434018644955
:1016600004226243AA188918097B80225200514340
:1016700040185F4904226243AA188918497B401820
:10168000060080200006864203D35B48801B0700CB
:1016900000E03700380000F0F1F9584A08236343AE
:1016A000D21803C2083A554808216143401803C8BC
:1016B0000022534B00F0FAF9504A08236343D21832
:1016C00003C2083A641CB5E700F058F80020484906
:1016D000086052E04648006807284EDB4448444909
:1016E00009684018401E0078FF2846D1404840490C
:1016F0000968405C552840D13D483D49096840187B
:101700004078AA2839D13A48394909684018807880
:10171000772832D100203749087035480068C01F4B
:1017200005002C0032480068401E844209DA314826
:1017300000782F490919897940182E490870641CCE
:10174000F0E72C4800782A49294A12688918497913
:1017500088420BD126482649096840180179244857
:10176000234A12688018C07800F00DF80020204944
:10177000086002E000201E490860F1BD80B501202C
:10178000FFF774FB01BD38B505000C00E4B2200082
:10179000062816D0072815D0082814D0092813D0F9
:1017A0000A2812D00B2811D00C2810D064280FD092
:1017B00065280ED0662810D067280FD068280ED074
:1017C00010E00FE00EE00DE00CE00BE00AE009E0B5
:1017D00008E000200B49087004E003E002E001206B
:1017E000084908700120FFF741FB31BD00000000EF
:1017F00050F3FF1FBBF3FF1FFFFFFF7F08F3FF1F27
:101800000000F040CAF3FF1FF0B583B006000F00E0
:101810007C4C7D48F6B2042171434018001F0068DB
:101820000500F6B2002E64D1784800688021C90016
:10183000014376480160C02189003020FFF714FD84
:10184000C02189003120FFF70FFD71480068802119
:10185000C90401436E4801606D4800688021490257
:1018600001436B480160E078F3210140E170684674
:10187000684909684908818068468188FA208000A3
:10188000484310217943FFF776F869460880684697
:101890002178E0220A40827068468078694609888B
:1018A00089B2090AC906C90E014321706846008839
:1018B00060700F2067490870002067490870002099
:1018C0006649087000206649087000206549087064
:1018D000654800781F210143634801706348007820
:1018E000C021014361480170E0780C210143E1709F
:1018F00059E0F6B23000012802D0022812D023E0CD
:101900004248006880210901014340480160C0212C
:1019100089008120FFF7A8FCC02189008020FFF703
:10192000A3FC11E039480068802149010143374890
:101930000160C02189006420FFF796FCC021890066
:101940006520FFF791FCFFE7E878F3210140E9709B
:101950000020A87046480068FA21890048431021F9
:101960007943FFF708F86946088068462978E0223D
:101970000A408270684680786946098889B2090AF7
:10198000C906C90E014329706846008868700020A6
:10199000A8700020A8711F20287100206871E878C5
:1019A0000C210143E970F7BD00B50100154A164846
:1019B000C9B204234B43C018001F0368C9B20029F1
:1019C00004D110798006FCD5D07903E0187980061F
:1019D000FCD5D87900BD10B50A4A0B4BC0B204241F
:1019E00044431B191B1F1B68C0B2002804D1147983
:1019F0002406FCD5D17103E01C792406FCD5D971ED
:101A000010BD000000A006406427000034800440A0
:101A100004800440BCF3FF1F70B50400154D164848
:101A2000E4B2042161434018001F0668E4B2002CB0
:101A300004D1E87820210143E97003E0F078202107
:101A40000143F170E4B220000C3000F0B0F870BD3A
:101A5000000000000AA0064002A0064006A00640C2
:101A600008A0064009A0064004A0064005A00640C4
:101A7000C4F3FF1F00A0064064270000010007D543
:101A8000F446404200F004F80122D20711436047B7
:101A900042221201D21E004207D002D4521E001868
:101AA000FCD5C10A4005120589187047F0B40E0034
:101AB0005E400125ED072E40B446AE0ADF184C18F3
:101AC000F4423BD2F74241D2640D43D07F0D38D06F
:101AD000E41BC902DB0229432B43CF0ADB0A0600C1
:101AE000B61A9F4104D2641EB6197F41B6185F41F1
:101AF0006812800D24180018844222DAE80C0021B4
:101B0000B6197F41B61A9F4102D2B6185F413F1CF9
:101B100040414941F4D3241C21DD2405B6197F41FD
:101B2000B61A9F4105D33743C60737430026012F16
:101B30007041614166463143F0BC7047FCD1F742C9
:101B400005D20020C14349054908F3E704D000202D
:101B5000C143F1E77F0DFAD000206146ECE7244253
:101B6000FAD1401C61410F03F6D30020E2E730B404
:101B7000012100220368001D002B0BD00468001D0A
:101B80000C4202D04D466D1E64192260241D1B1F9D
:101B9000F0D0FAE730BC7047284800680421884339
:101BA0002649086030BF704725490860704770B506
:101BB0000400212C03DB2348FEF7ADFE15E022488C
:101BC0000568012620002021FEF7D2FE8E402E431C
:101BD0001D4806601D480568012620002021FEF7EB
:101BE000C7FE8E402E431948066070BDF8B5070049
:101BF0000E0000240025212F04DB1548FEF78BFE84
:101C000001200400042E04DB1248FEF784FE0120AC
:101C10000400E4B2012C0ED038000421FEF7A8FE27
:101C200005000D48EDB204216943401800903000D2
:101C3000800100990870F1BD0000000010ED00E087
:101C400008ED00E0DC25000080E200E000E100E0BB
:101C5000A02500006025000000E400E00300000073
:101C60000090044000A0044000B0044000C00440C4
:101C700000D0044000F00F4040F00F4080F00F40D3
:101C8000C0F00F4000F10F40000000000000000015
:101C90000000000000000080C0E06070303838189C
:101CA0001C0C0C0C0C040404040C0C0C081838302C
:101CB0007060C0C080000000000000000000000054
:101CC0000000000000000000000000000000000014
:101CD00000000000C0701C060703010000000000A7
:101CE00000000000000000000000000000000000F4
:101CF00000000000000103070F0E183070E0C080E4
:101D00008080000000000000000000000000008053
:101D1000C0E030180E0301000000000000000000C9
:101D200000000000000000000000000000000000B3
:101D300000000000000000000000000000000000A3
:101D40000001010303030206040C18F0C0F0FCFEBE
:101D50000F03010000000000000000000000000070
:101D60000000000000000000000000008080C0C0F3
:101D7000E0E0E0E0F0F07070783C3C3C1C1E0E1E91
:101D800038F8F8F87E7E9E1626EEFEFEFEFF7FFFF8
:101D90001D71C0800000000000E0F8FC0E0F0E0E68
:101DA0000E0C0C0C0C0E0E0E060676FFFFFF7303D6
:101DB000030301010140C0808080C0806000001EDC
:101DC0001F1F1F0E03070E1E3E7FCF8F0707030145
:101DD000003F000000010103030206FF8300000032
:101DE00000000000000000000000000000000000F3
:101DF00000000000000000000001010000000000E1
:101E00000000000000000000000000000003FEF8D9
:101E100000000000000000000000000000071F7824
:101E2000E080000000000000000000000000000052
:101E300000000000000000000000000000000000A2
:101E400000000000000000000000000080C06038BA
:101E50001F0700000000000000000000000000005C
:101E60000000000103060C18183020606040C0C05C
:101E7000C0808080808080808080808080C0C0C062
:101E8000404060602020301018080C040603010058
:101E900000000000000000000080034000900340AC
:101EA00000A0034010B50400E4B26148006860433C
:101EB000FA218900FEF75FFD0100012000F018F90A
:101EC00010BD80B55B4800688021890401435948F2
:101ED0000160594800688021890401435648016027
:101EE0000220FFF7DFFF54480068802149040143C6
:101EF000514801600220FFF7D5FF4F4800684F4965
:101F000001404D4801600220FFF7CCFF4A480068BD
:101F10004B490140484801600220FFF7C3FF01BD63
:101F200080B544480068802189040143414801602C
:101F300041480068414901403F4801600220FFF7E5
:101F4000B1FF3D4800688021490401433A480160DF
:101F50000220FFF7A7FF3848006880218904014369
:101F6000354801600220FFF79DFF01BD10B53248E2
:101F700000688021490401432F4801600220FFF7D7
:101F800091FF002004002B4800682C49014029489B
:101F900001602C48006801008901C90F002901D0A7
:101FA000012004000220FFF77DFF23480068244938
:101FB0000140214801601F480068802189040143D5
:101FC0001C4801602000C0B210BD38B504000020DC
:101FD0000500EDB2082D28DA164800688021890432
:101FE000014314480160144800681449014020006E
:101FF000C0B2C009C0B2400608430F4908600E488D
:1020000000688021490401430B4801600220FFF76A
:1020100049FF094800680A49014007480160022059
:10202000FFF740FF64006D1CD3E7FFF79FFF31BD52
:10203000C4F3FF1F14F10F4000F10F40FFFFFFFD3D
:10204000FFFFFFFE10F10F4038B505000C00FFF751
:1020500038FF5420FFF7B9FF2800C0B2FFF7B5FFE3
:10206000200080B2000AC0B2FFF7AFFF2000C0B26C
:10207000FFF7ABFFFFF754FF31BD000038B5050097
:102080000C0049480068802109040143464801606A
:10209000002046490860601E4549EDB210226A439F
:1020A00088504348EDB2102169434018C0680121AF
:1020B00001433F48EDB210226A438018C1603C489A
:1020C000EDB21021694340188068012188433849E6
:1020D000EDB210226A438918886003203449EDB2BA
:1020E00010226A43891888601620FFF760FD31BD11
:1020F00010B52D4A126880231B0413432A4A13602B
:102100002A4A126802239A43284B1A60284AC0B20E
:1021100010234343D218926801239A43244BC0B240
:10212000102444431B199A604A1E214BC0B210244C
:1021300044431A511E4AC0B210234343D218D268F6
:10214000012313431A4AC0B2102444431219D36026
:10215000174AC0B210234343D218926801239A430E
:10216000134BC0B2102444431B199A600122104B38
:10217000C0B2102444431B199A600D4AC0B2102308
:102180004343D218D268D207F7D5094AC0B2102308
:102190004343D218D26801231343054AC0B2102426
:1021A00044431219D36010BD3C80044000700340CA
:1021B0000071034080B53C480078202101433A4833
:1021C00001703A480078402101433848017038488E
:1021D0000078C0B20428FAD1FEF736FC3548006812
:1021E00001210143334801603348006808218843D6
:1021F00031490860E12149020020FFF705FB0A236D
:102200002E4A00210020FEF71DFF0A232B4A012140
:102210000020FEF717FF6423284A02210020FEF762
:1022200011FF6423254A03210020FEF70BFF002243
:1022300000210220FEF7AEFFFFF7EBF820480090E8
:102240000723422200210020FFF75CF90022012130
:102250009820FEF719FE002201219920FEF714FEB6
:1022600000F032F800F099F8164801680A2041435E
:102270000020FFF703FF0020FFF7CEFB00210C201A
:10228000FFF7B4FC01211620FFF7B0FC09480068F5
:102290000121884307490860074800680821014375
:1022A0000548016001BD00BF00E0074001E00740B4
:1022B00003E0074000F10F40C0F00F40102700007E
:1022C000ECF0FF1FC4F3FF1F80B5B82149010820BF
:1022D000FFF7BAFEB82149010920FFF7B5FEB82182
:1022E00049010A20FFF7B0FE8021C9000B20FFF74B
:1022F000ABFE00210C20FFF7A7FE00210D20FFF709
:10230000A3FE00210E20FFF79FFE00210F20FFF704
:102310009BFE8021C9001020FFF796FE8021C90096
:102320001120FFF791FE8021C9001220FFF78CFEDB
:102330008021C9001320FFF787FE1C491420FFF7F6
:1023400083FE1A491520FFF77FFE18491620FFF774
:102350007BFE16491720FFF777FE15491920FFF776
:1023600073FE11491A20FFF76FFE12491B20FFF779
:102370006BFE8421C9011E20FFF766FE0E491F2057
:10238000FFF762FE8421C9012020FFF75DFE842152
:1023900089012120FFF758FE01BD80B507491A20A9
:1023A000FFF752FE01BD0000013E000001100000D9
:1023B00001F8000009A20000404A0000011E0000D0
:1023C00000B52C480068F8218901014329480160C3
:1023D0000420294908602948007840210143274802
:1023E0000170274800784007FBD525480078C006D3
:1023F000FBD524480078FD21014022480170224885
:102400000078BF210140204801701E480078022159
:1024100001431C4801701B48007801210143194801
:1024200001700020194908708020C0021849086016
:1024300018480068184901401648016017480068AC
:10244000C02109030143154801600B480068FA21C7
:102450008900484312490860114800680C4909681E
:10246000090C4907490F491CFEF785FA0D49086018
:1024700000BD00BF38800440C0F3FF1F004006408D
:102480000640064001400640054006400840064020
:102490004480044004800440FFFFFEFF00700440BD
:1024A000BCF3FF1FC4F3FF1FF0B583B022482349DC
:1024B00088420DD000200400C02C09D21F480421FE
:1024C000614340581C49042262438850641CF3E76E
:1024D0001948FFF769FB1A4807001A4805001A480F
:1024E00001900198401B04002000441E002804D0E5
:1024F000287838706D1C7F1CF6E7144806001448D5
:1025000000900098801B04002000441E002803D087
:1025100000203070761CF7E70E480F490F4A531A17
:102520001C0023005C1E002B04D00B780370491C98
:10253000401CF6E7F7BD00BF00F0FF1F00000000E1
:10254000C0F0FF1F5C1C0000A41E000008F3FF1F6A
:10255000CBF3FF1FCBF3FF1F6C2700006C2700009D
:102560000A4552522120496E76616C69642070726E
:10257000696F726974792076616C7565207061731A
:1025800073656420746F207072696F72697479204A
:102590006972712066756E6374696F6E210A00003E
:1025A0000A4552522120496E76616C696420495275
:1025B000512076616C756520706173736564207459
:1025C0006F207072696F7269747920697271206608
:1025D000756E6374696F6E210A0000000A455252DD
:1025E0002120496E76616C696420495251207661E0
:1025F0006C75652070617373656420746F20656EFF
:1026000061626C65206972712066756E6374696FB2
:102610006E210A000A2A2A2A2A64656661756C748A
:102620005F69737220656E7465726564206F6E20D9
:10263000766563746F722025642A2A2A2A2A0D0A75
:102640000A00000080B507480068012101430548E1
:10265000016005480088401C03490880C046C04608
:1026600001BD00BF0C710340C8F3FF1F10B507493F
:1026700079441831064C7C44163404E0081D0A687D
:10268000891888470100A142F8D110BD0800000058
:1026900014000000DBF4FFFFC400000008F3FF1F7C
:1026A0000000000080B5002004490860FFF7FCFE30
:1026B000FFF786FE00F004F8FEE700BF008104404B
:1026C00080B572B6FFF776FD0020FEF7CFFB62B64D
:1026D000FEF7C6F9FFF760FAFAE700000120C046EE
:1026E000002801D0FFF7C2FF0020C046C046FFF718
:1026F000E7FF00F000F880B500F002F801BD00002F
:102700000746384600F002F8FBE7000020210903E5
:1027100026311820ABBEF9E700200021002200235B
:10272000002400250026002762B6FFF7BBFFFEE766
:1027300080B5034801680348FEF7EDF801BD0000CD
:1027400004ED00E01426000010B504002100C9B219
:102750000020FFF740F910BDC046C046C046C04645
:0C276000FFF7BCFF00B0064000C00640C0
:040000050000275977
:00000001FF
