:10500000F8FF002011540000CB600000DD8000009C
:10501000CB600000CB600000CB600000CB600000E4
:10502000CB600000CB600000CB600000CB600000D4
:10503000CB600000CB600000EB800000DB80000054
:10504000CB600000CB600000CB600000CB600000B4
:10505000CB600000CB600000CB600000CB600000A4
:10506000CB600000CB600000CB600000CB60000094
:10507000CB600000CB600000CB600000CB60000084
:10508000CB600000CB600000CB600000CB60000074
:10509000CB600000CB600000CB600000CB60000064
:1050A000CB600000CB600000CB600000CB60000054
:1050B000CB600000CB600000CB600000CB60000044
:1050C000CB600000CB600000CB600000CB60000034
:1050D000CB600000CB600000CB600000CB60000024
:1050E000CB600000CB600000CB600000CB60000014
:1050F000CB600000CB600000CB6000004D80000062
:10510000CB600000CB600000CB6000006F8000002F
:10511000CB600000CB600000CB600000CB600000E3
:10512000CB600000CB600000CB600000CB600000D3
:10513000CB600000CB6000003B8100003D8100009F
:10514000CB600000CB600000CB600000CB600000B3
:10515000BD800000C9800000CB600000CB60000073
:10516000CB600000F18A0000CB600000CB60000043
:10517000CB600000CB600000CB600000CB60000083
:10518000CB600000CB600000CB600000CB60000073
:10519000CB600000CB600000CB600000ED80000021
:1051A00013810000CB600000CB600000CB600000EA
:1051B000CB600000CB600000CB600000CB60000043
:1051C000CB600000CB600000CB600000CB60000033
:1051D000CB600000CB600000CB600000CB60000023
:1051E000CB600000CB600000CB600000CB60000013
:10540000FFFFFFFFFFFFFFFFFFFFFFFFFEFFFFFFAD
:1054100062B64FF000004FF000014FF000024FF075
:1054200000034FF000044FF000054FF000064FF06E
:1054300000074FF000084FF000094FF0000A4FF04E
:10544000000B4FF0000C03F07FFBFEE7DFF8681560
:105450000A6842F000720A6000BF0A6822F08062A7
:105460000A6000BF0822521E03060B684CBF43F0BF
:10547000006323F000630B600B6843F080630B60F4
:1054800000BF0B68400023F080630B60002AEAD164
:1054900070470000DFF820150A6822F000720A60E9
:1054A0000A6822F080620A600822521E03060B6816
:1054B0004CBF43F0006323F000630B600B6843F0C4
:1054C00080630B6000BF0B68400023F080630B60BB
:1054D000002AEAD1704710B50446A1F15000C0B2CD
:1054E000FFF7D8FF200940F01000FFF7D3FF04F0CA
:1054F0000F00BDE81040CDE770B504460025A5F1CA
:105500005000C0B2FFF7C6FF0120FFF7C3FF102015
:10551000FFF7C0FF80262046FFF798FF761EFAD1DE
:105520006D1C082DEBD370BD18B1401E80B2002851
:10553000FBD1704710B5002301221A21002000F092
:105540003DFD002301221B21184600F037FD0023FA
:1055500001221821184600F031FD01231A461921B5
:10556000002000F02BFDDFF850444FF07060206009
:10557000206840F080602060206820F0807020600B
:105580003220FFF7D1FF206840F080702060AE200D
:10559000FFF780FF0020FFF77DFF1020FFF77AFF65
:1055A0004020FFF777FF8120FFF774FFCF20FFF740
:1055B00071FFA120FFF76EFFC820FFF76BFFA62049
:1055C000FFF768FFA820FFF765FF3F20FFF762FFA6
:1055D000D320FFF75FFF0020FFF75CFFD520FFF728
:1055E00059FF8020FFF756FFD920FFF753FFF12026
:1055F000FFF750FFDA20FFF74DFF1220FFF74AFFB9
:10560000DB20FFF747FF4020FFF744FF2020FFF794
:1056100041FF0220FFF73EFF8D20FFF73BFF1420E4
:10562000FFF738FFA420FFF735FFA620FFF732FF72
:10563000AF20FFF72FFF0020FFF75EFFBDE810400F
:105640000021084647E72DE9F84307460C469046F7
:1056500000250FF2783944E020380606FFB2792F92
:1056600024BF0027641CE1B23846FFF734FF360D33
:1056700016F80900FFF7EAFE4E447078FFF7E6FEE1
:10568000B078FFF7E3FEF078FFF7E0FE3079FFF740
:10569000DDFE7079FFF7DAFEB079FFF7D7FEF0791B
:1056A000FFF7D4FE611CC9B23846FFF714FF307A09
:1056B000FFF7CCFE707AFFF7C9FEB07AFFF7C6FE9F
:1056C000F07AFFF7C3FE307BFFF7C0FE707BFFF779
:1056D000BDFEB07BFFF7BAFEF07BFFF7B7FE0837E1
:1056E0006D1CEDB215F808000028B5D1BDE8F183B6
:1056F0002DE9F0470D469A46002680469146089CC3
:10570000AA4513D329464046FFF7E5FE4746B9456B
:1057100008D3B6B2305DFFF799FE781C761CC7B28D
:10572000B945F6D26D1CEDB2AA45EBD2BDE8F087C3
:10573000F0B583B00C4600A90025002660C142F2F6
:105740001071B2FBF1F50A21B5FBF1F606EB860705
:10575000A5EB47058DF800504FF47A75B2FBF5F6CE
:10576000B6FBF1F707EB870700ADA6EB47066E70B7
:105770006426B2FBF6F6B6FBF1F707EB8707A6EB5C
:105780004706AE70B2FBF1F6B6FBF1F101EB810713
:10579000A6EB4701E97006EB8601A2EB41012971F6
:1057A0009DF8001000AA30318DF800106978303172
:1057B0006970A9783031A970E9783031E9702979B8
:1057C00030312971594289184A1D0146E000C0B2A2
:1057D000FFF739FF03B0F0BD80B57848072300908C
:1057E0005C2200212420FFF783FF4FF4C87000F0F3
:1057F00031FCBDE8024000207EE67CB500AB002411
:10580000002530C3CB00002A42BF2D218DF80010A7
:1058100052425CBF2B218DF8001012B24FF47A7106
:1058200092FBF1F40A2194FBF1F505EB8506A4EB5C
:10583000460430348DF80140642492FBF4F494FB68
:10584000F1F505EB8506A4EB460430348DF80240F3
:105850002E248DF8034092FBF1F494FBF1F101EB5F
:105860008105A4EB450130318DF8041004EB84016F
:10587000A2EB410130318DF80510014600AAD8B2E3
:10588000FFF7E1FE73BD10B584B001AA0023002428
:1058900018C2002947D1282190FBF1F080B21628C8
:1058A00028BF15204649032301F10802042414707F
:1058B000202482F8204004245470202482F82140BF
:1058C00004249470202482F822400424D4702024DC
:1058D00082F8234004241471202482F824400424F4
:1058E0005471202482F8254004249471202482F8E5
:1058F000264002F207025B1ED8D1002201280ADBF3
:1059000053425B18F4241C77521C2F24D2B283F824
:105910003C408242F4DB009101237F220021602081
:10592000FFF7E6FE26E0012924D1642190FBF1F186
:105930000A2291FBF2F303EB8304A1EB4401303123
:105940008DF8041001A92E234B7090FBF2F393FB0A
:10595000F2F202EB8204A3EB440230328A7003EBD2
:105960008302A0EB42003030C87001AA0021602001
:10597000FFF769FE04B010BD80B512480123009006
:105980001F2200210020FFF7B3FE01BD38B50E4DE8
:1059900000F13F04E4B28021284600F069FB7C203E
:1059A000605560197C214170009503237F220221FC
:1059B0000020FFF79DFE31BD00F00F401C04FF1FCB
:1059C000E406FF1F2407FF1FE405FF1F000000007F
:1059D000000000000000000000000000000000F8CF
:1059E00000000000000000333000000000100C0632
:1059F000100C0600000000000000000040C07840CD
:105A0000C0784000043F04043F040400007088FC98
:105A100008300000001820FF211E0000F008F000F0
:105A2000E018000000211C031E211E0000F0088861
:105A3000700000001E2123241927211010160E00CB
:105A4000000000000000000000000000000000E076
:105A5000180402000000000718204000000204188B
:105A6000E00000000040201807000000404080F0E7
:105A7000804040000202010F01020200000000F01D
:105A8000000000000101011F0101010000000000F1
:105A90000000000080B07000000000000000000066
:105AA00000000000000101010101010100000000EF
:105AB0000000000000303000000000000000000086
:105AC00080601804006018060100000000E0100863
:105AD0000810E000000F102020100F00001010F838
:105AE000000000000020203F202000000070080877
:105AF00008887000003028242221300000300888F7
:105B0000884830000018202020110E000000C0201E
:105B100010F8000000070424243F240000F808883F
:105B2000880808000019212020110E0000E01088CC
:105B300088180000000F112020110E0000380808FE
:105B4000C83808000000003F00000000007088080E
:105B500008887000001C222121221C0000E010088F
:105B60000810E0000000312222110F00000000C0E8
:105B7000C000000000000030300000000000008085
:105B80000000000000008060000000000000804075
:105B9000201008000001020408102000404040408E
:105BA00040404000040404040404040000081020E1
:105BB0004080000000201008040201000070480826
:105BC0000808F0000000003036010000C030C8288E
:105BD000E810E0000718272423140B000000C03849
:105BE000E0000000203C23020227382008F88888C3
:105BF00088700000203F202020110E00C0300808CF
:105C000008083800071820202010080008F80808A5
:105C10000810E000203F202020100F0008F888889E
:105C2000E8081000203F20202320180008F888886A
:105C3000E8081000203F200003000000C0300808E2
:105C40000838000007182020221E020008F808006B
:105C50000008F808203F210101213F20000808F832
:105C6000080800000020203F202000000000080855
:105C7000F8080800C08080807F00000008F888C015
:105C800028180800203F20012638200008F80800C6
:105C900000000000203F20202020300008F8F800FD
:105CA000F8F80800203F003F003F200008F830C00F
:105CB0000008F808203F200007183F00E0100808FF
:105CC0000810E0000F10202020100F0008F808082E
:105CD0000808F000203F210101010000E010080841
:105CE0000810E0000F18242438504F0008F8888866
:105CF00088887000203F2000030C30200070880846
:105D0000080838000038202121221C00180808F853
:105D1000080818000000203F2000000008F80800D4
:105D20000008F808001F202020201F0008788800A5
:105D300000C83808000007380E010000F80800F815
:105D40000008F800033C0700073C030008186880BF
:105D50008068180820302C03032C30200838C80035
:105D6000C83808000000203F200000001008080884
:105D7000C83808002038262120201800000000FE26
:105D8000020202000000007F40404000000C30C0D2
:105D900000000000000000010638C00000020202FE
:105DA000FE000000004040407F00000000000402B0
:105DB00002020400000000000000000000000000DB
:105DC00000000000808080808080808000020204CB
:105DD00000000000000000000000000000008080C3
:105DE000808000000019242222223F2008F8008031
:105DF00080000000003F112020110E0000000080F4
:105E000080800000000E1120202011000000008082
:105E10008088F800000E112020103F2000008080B4
:105E200080800000001F222222221300008080F0C8
:105E3000888888180020203F2020000000008080F3
:105E400080808000006B94949493600008F8008038
:105E500080800000203F210000203F200080989893
:105E6000000000000020203F2020000000000080F3
:105E70009898000000C08080807F000008F8000033
:105E800080808000203F24022D302000000808F888
:105E9000000000000020203F202000008080808043
:105EA00080808000203F20003F20003F80800080D5
:105EB00080800000203F210000203F2000008080E3
:105EC00080800000001F202020201F008080008094
:105ED0008000000080FFA12020110E000000008043
:105EE00080808000000E112020A0FF808080800034
:105EF0008080800020203F21200001000000808061
:105F0000808080000033242424241900008080E055
:105F1000808000000000001F202000008080000022
:105F200000808000001F202020103F208080800003
:105F30000080808000010E30080601008080008013
:105F4000008080800F300C030C300F000080800038
:105F5000808080000020312E0E3120008080800063
:105F60000080808080818E70180601000080808013
:105F7000808080000021302C2221300000000000B1
:105F8000807C020200000000003F40400000000052
:105F9000FF00000000000000FF0000000002027C83
:105FA000800000000040403F0000000000060101AA
:105FB00002020404000000000000000070B4244C41
:105FC0004FF4807604EB80056D69164345F8216037
:105FD000D50703D5032A18BF132A09D154F8200086
:105FE0000123426903FA01F122EA0101416114E04F
:105FF00054F82000012244698A4014434461D44388
:10600000012B02BF01682140114305D00268002323
:10601000224003FA01F11143016070BC70470C4B40
:1060200053F820000123012A03FA01F102680CBF92
:10603000114322EA010101607047054A012352F829
:10604000200003FA01F1026851400160704700002E
:106050007C07FF1F40B1054909680A0002D000BF54
:10606000521EFCD1401EF8D1704700001C0CFF1FCF
:10607000002200F011B850F8041B61B150F8042B55
:10608000D30744BFA9F101039A18002342F8043B47
:10609000091FFAD1EFE7704700B500BF130096461D
:1060A0009446103928BFA0E80C50FAD85FEA417C2A
:1060B00028BF0CC048BF40F8042BC90728BF20F8F0
:1060C000022B48BF00F8012B00BD70472DE9F84FA7
:1060D000DFF82829DFF82859D2E90401DFF824691C
:1060E0000022DFF8243900F0B5FCDFF8102907465C
:1060F0000C46D2E9060100222B4600F0ABFC3A46E2
:10610000234600F0CBFDDFF8F42807460C46D2E921
:10611000080100222B4600F09DFC02460B46384643
:10612000214600F02FFEDFF8D42804460D46D2E9C0
:106130000A010022DFF8D43800F08CFC22462B46FE
:1061400000F0ACFDDFF8B428C6E90001DFF8C05864
:10615000D2E90401002400222B4600F07BFCDFF88A
:106160009C2807468946D2E9060122462B4600F0C4
:1061700071FC02460B463846494600F003FEDFF844
:106180007C2807468946D2E9080122462B4600F0C2
:1061900061FC02460B463846494600F0F3FDDFF845
:1061A0005C2807468946D2E90A0122462B4600F0C0
:1061B00051FC3A464B4600F071FDDFF8402804469A
:1061C0000D46DFF850B80027D2E90401C6E90245C0
:1061D0003A465B4600F03EFC8046DFF820088946E0
:1061E000D0E9062338464FF0804100F08BFE3A4656
:1061F000DFF8243800F02EFC02460B4640464946A4
:1062000000F0C0FD8046DFF8F4078946D0E9082396
:1062100038464FF0804100F075FE3A46DFF8F83717
:1062200000F018FC42464B4600F038FDDFF8CC2762
:1062300080468946D2E90A013A465B4600F00AFCEC
:1062400002460B464046494600F09CFDDFF8AC276D
:1062500080468946D2E906011746C6E90489D7E98E
:10626000082300F08FFD0022134600F01DFF38BF09
:1062700081F00041C6E91201D6E912014FF08043D6
:1062800000F012FF3CBFDFF89407C0E90022C0F025
:1062900094823A46D2E9040194460027DCE90623B9
:1062A00000F002FF04D2DFF854270127D2E90601EB
:1062B000DFF848C7DCE9082300F0F6FE04D2DFF877
:1062C0003C270227D2E90801DFF830C7DCE90A23BE
:1062D00000F0EAFE37D2DFF82407D0E90A23C6E946
:1062E0001023DFF81827D2E90A019446DFF82C774B
:1062F000DCE9082300F046FD0122DFF8243700F036
:10630000EBFE00F2B181DFF8F4C64FF06634DFF83F
:1063100014572046DFF81017DCE9082300F032FD9F
:1063200022462B4600F096FB0122DFF8EC3600F007
:10633000D3FEC6E90E01C7E9000100F23E8200204B
:10634000C7E9000339E2C6E9100137B1022F00F0B6
:10635000E08033D3032FC4D02FE2DFF8A026D2E9A8
:1063600004019446DFF8B476DCE9062300F00AFD68
:106370000122DFF8AC3600F0AFFE00F27581DFF8E5
:106380007C264FF06634D2E90601DFF898562246A3
:10639000DFF8983600F082FC22462B4600F05AFBCC
:1063A0000022DFF88C3600F07FFEC6E90E01C7E957
:1063B000000180F00282C7E90023FEE10020DFF83F
:1063C000601622462B4600F09DFD22462B4600F02B
:1063D00099FD04460D46D6E900230020DFF8541647
:1063E00000F090FD42464B4600F08CFD02460B4605
:1063F0002046294600F0C6FC00F086FE04460D4605
:10640000D6E902ABD6E9008900204FF04041524660
:106410005B4600F077FD02460B462046294600F019
:106420003DFC04460D460020DFF80C1642464B4664
:1064300000F068FD02460B462046294600F00AFBA4
:10644000C6E906010020DFF8D81552465B4600F089
:1064500059FD52465B4600F055FD04460D460020AE
:10646000DFF8D01542464B4600F04CFDD6E9042338
:1064700000F048FD02460B462046294600F082FC0B
:1064800000F042FE04460D46D6E90089D6E9022313
:1064900000204FF0404100F035FD22462B4600F031
:1064A00071FC04460D460020DFF88C1542464B4631
:1064B00000F028FD02460B462046294600F0CAFAA5
:1064C000C6E90801D6E906450020DFF86C1522462A
:1064D0002B4600F017FD42464B4600F013FD0746E1
:1064E0008946D6E9022300204FF0804100F00AFDE2
:1064F0003A464B4600F0D2FB0022002300F0D4FDC8
:10650000C6E90A01DFF8147580F05381C7E9004538
:1065100053E10020DFF8081522462B4600F0F2FC7C
:1065200022462B4600F0EEFC04460D46D6E9002339
:106530000020DFF8001500F0E5FC42464B4600F075
:10654000E1FC02460B462046294600F01BFC00F009
:10655000DBFD04460D46D6E902ABD6E900890020F2
:106560004FF0404152465B4600F0CCFC02460B46E1
:106570002046294600F092FB04460D460020DFF835
:10658000B81442464B4600F0BDFC02460B4620467E
:10659000294600F05FFAC6E906010020DFF8801402
:1065A00052465B4600F0AEFC52465B4600F0AAFC49
:1065B00004460D460020DFF87C1442464B4600F0AE
:1065C000A1FCD6E9042300F09DFC02460B462046C0
:1065D000294600F0D7FB00F097FD04460D46D6E9AA
:1065E0000089D6E9022300204FF0404100F08AFCE8
:1065F00022462B4600F0C6FB04460D460020DFF87D
:10660000381442464B4600F07DFC02460B462046BD
:10661000294600F01FFAC6E90801D6E90645002020
:10662000DFF8141422462B4600F06CFC42464B4621
:1066300000F068FC07468946D6E9022300204FF0A7
:10664000804100F05FFC3A464B4600F027FB0022F9
:10665000002300F029FDC6E90A01DFF8C07380F0CD
:10666000A880C7E90045A8E01946002022462B462D
:1066700000F048FC02460B462046294600F042FC4A
:1066800004460D46D6E900230020EA4900F03AFC12
:1066900002460B464046494600F034FC02460B4693
:1066A0002046294600F06EFB00F02EFD04460D4604
:1066B000D6E9028900204FF0404142464B4600F0A7
:1066C00021FC02460B462046294600F0E7FA044624
:1066D0000D46D6E900010022D74B00F013FC02461C
:1066E0000B462046294600F0B5F9C6E90601002010
:1066F000CB4942464B4600F005FC42464B4600F073
:1067000001FC04460D46D6E900230020C94900F0EB
:10671000F9FBD6E9042300F0F5FB02460B462046C0
:10672000294600F02FFB00F0EFFC04460D46D6E9A9
:10673000020102460B46D6E9008900204FF0404195
:1067400000F0E0FB22462B4600F01CFB04460D4601
:106750000020B94942464B4600F0D4FB02460B46A6
:106760002046294600F076F9C6E90801D6E9062355
:106770000020B14900F0C6FB42464B4600F0C2FB88
:1067800004460D46D6E9022300204FF0804100F078
:10679000B9FB22462B4600F081FA0022002300F0CC
:1067A00083FCC6E90A013CBFD6E90601C7E900013E
:1067B00003D3D6E90801C7E900019048D0E90423D2
:1067C0000446D4E9060100F069FAD4E9082300F090
:1067D00065FAD4E90A2300F061FA0022974B00F031
:1067E00063FCC6E90C018D4F14D2D7E90201944B2A
:1067F00000F05AFC3CBF8E49C7E9002108D30122B2
:10680000904B00F069FC03D883490020C7E90001E0
:10681000012000E00020A064D7E9000101227E4BA6
:1068200000F05AFC9CBF0020C7E9000306D90022F3
:106830007F4B00F039FC38BFC7E90023BDE8F18F7A
:10684000F8B56E4C1E2301220821012000F081FDC5
:10685000208001221E230921104600F07AFD60806D
:1068600001221E230A21104600F073FDA0800122A0
:106870001E230B21104600F06CFDE08001221E2338
:106880000C21104600F065FD208101221E230D2100
:10689000104600F05EFD21884FF4967740F6FF73B6
:1068A000794391FBF3F101EB8105690065881E22B4
:1068B00060817D4395FBF3F505EB85067500B5FB1F
:1068C000F2F56563A5887D4395FBF3F505EB850639
:1068D0007500E6887E4396FBF3F606EB860C4FEADE
:1068E0004C06B4F808C0784307FB0CFC90FBF3F0AF
:1068F0009CFBF3FC0CEB8C0E00EB80034FEA4E0C80
:106900005800B1FBF2F1B5FBF2F5B6FBF2F6BCFBB9
:10691000F2FCB0FBF2F72163A563E663C4F840C064
:106920006764084600F05EFDC4E90401284600F0F3
:1069300059FDC4E90601304600F054FDC4E90801E0
:10694000384600F04FFDC4E90A01BDE8F140FFF709
:10695000BDBB70B53148294ED0E900453A483B49A6
:1069600022462B4600F0CEFA00F04AFDB08100200E
:10697000374922462B4600F0C5FA00F041FDF08170
:106980000323326B00210420FEF7D2FE0323B26BF7
:1069900004210420FEF7CCFE0323F26B092104201E
:1069A000FEF7C6FE0323726C0D210420FEF7C0FE25
:1069B0000323726B00210620FEF7BAFE0323326C1C
:1069C0000D210620FEF7B4FEB6F90C00FEF7DEFF3F
:1069D000B6F90E2005210620FEF70FFFB06C002847
:1069E00014BF04A204A2BDE8704000213520FEF7C8
:1069F0002ABE0000455252004E4F52001808FF1F99
:106A0000007087406808FF1F007097C000709740B3
:106A100000C0624000004E4000002E40B808FF1F3A
:106A20000000104066E6174066966040669660C0BB
:106A300000002EC000002840000018400080514097
:106A4000000014C000001440CDCCCCCCCCCC104005
:106A500000005940F0B540F2FF7581EA030C0CF0DC
:106A6000004C15EA11541DBF15EA1357AC42AF4252
:106A7000E5E0BC41C1F31301C3F31303801A99414C
:106A800043F4801304D2641E4000494180185941E8
:106A9000C90241EA5051B1FBF3F603FB1611A2FB08
:106AA0000675D7EBC020A94102D2761E8018594145
:106AB000C90241EA5051B1FBF3FE03FB1E11A2FBD8
:106AC0000E75D7EBC020A94103D2AEF1010E80189C
:106AD0005941890241EA9051760546EA8E2EB1FB72
:106AE000F3F603FB1611A2FB0675D7EB8020A94134
:106AF00002D2761E80185941C90241EA50514EEA2D
:106B0000060EB1FBF3F603FB1611A2FB0675D7EBDD
:106B1000C020A94102D2761E80185941C90241EA1B
:106B20005051B1FBF3F703FB1711A2FB0735D3EB71
:106B3000C020A94167F100070CBF004247F00107E0
:106B400066F3D5274FEA1E31B80814F5806412DDCC
:106B5000BD0775F1004250EB0E5051EB045111F599
:106B6000801F5CBF41EA0C01F0BD4CF07F6141F039
:106B7000E0410020F0BDBD076D0840EA0E5041F431
:106B80008011D4F10104B4F120060ADAC4F1200620
:106B90000200E04001FA06F3E1401843B240154319
:106BA0000EE0342C13DCC6F1200445EA40056D08E4
:106BB00020FA06F2154321FA06F0A1400D43002108
:106BC00075F1004250F1000051EB0C01F0BD0020C6
:106BD0005FEA0C01F0BDCFB992185B41B3FA83F7BD
:106BE00004BFB2FA82F6BF190B3FB7F120062FBFE0
:106BF00002FA06F3BB40C7F1200622FA06F638BFB8
:106C00003343BA401CB1E419641E33E77F4231F0CC
:106C10000041B1FA81F404BFB0FA80F6A4190B3C2C
:106C2000B4F120062FBF00FA06F1A140C4F12006FE
:106C300020FA06F638BF3143A0403C1B1AE7AC42AD
:106C40001ABF05EA1357AF4212E050EA41061CBFD3
:106C500052EA4306BFE750EA4107304661461CBF8F
:106C600041EA0551F0BD52EA430C08BFC143F0BDF3
:106C700000204FF4001616EB410F98BF16EB430FA0
:106C800008BF16EB410F24BFC14305E016EB430FCD
:106C90000CBF61464CEA0551F0BD000070B44FF0E6
:106CA000004591EA030C44BF6B4000F075B800BF8B
:106CB000841A71EB030603D2001BB1411219734110
:106CC0004FF4001C1CEB410F34BF7CEB430443E04A
:106CD0000C0DA4EB1356352E50DC45EAC323DB0A1A
:106CE00045EAC121C912B6F120050DDD63FA05F6AA
:106CF000EB4086EA0305124218BF45F00105C018B3
:106D000051F100010CD213E062FA06F5F240554051
:106D1000F3415A40B340F3405A408018594107D3D9
:106D200049085FEA30005FEA350528BF45F00105F4
:106D300001F58011420875F1004250F1000041EB6D
:106D4000045170BC4FF4001C1CEB410F38BF70475E
:106D50000020090D090570471CEB410F10D252EAC3
:106D600043060BD0BCEB410F05D80C0DAB43661EA0
:106D7000342EB5DD02E0AB438018594170BC70473A
:106D800070BC704770B44FF0004591EA030F44BFE8
:106D90006B40FFF78DBF00BF841A71EB030604D26E
:106DA0006E40001BB141121973414FF4001C1CEBE3
:106DB000410F34BF7CEB430684E00C0DA4EB13566B
:106DC000362E7DDC012E43DC45EAC32343EA5253D1
:106DD00012BFD20292025B08240545EAC12141EAB2
:106DE0005051D2EBC020994125D407D1B0FA80F69A
:106DF00010FA06F164D00020203608E0B1FA81F6DE
:106E0000B140C6F1200220FA02F21143B0404FEA2D
:106E1000F474B4EB465434F001064FEA74040AD813
:106E2000D6F50016760D04F00044F04061FA06F243
:106E30005040F1404840C00A40EA415021F0004132
:106E400028BF5FEA500550F1000044EBD12137E044
:106E500045EAC323DB0A45EAC121C90AB6F1200588
:106E60000EDD42EA0242120CC5F1200603FA06F6D4
:106E7000EB4042EA06056D42984161F100010DE0E8
:106E800062FA06F5F240554063FA06FC82EA0C020B
:106E9000F3405A406D42904161EB030111F4801FB1
:106EA00005D1641E620502D06D004041494121F4C4
:106EB0008011430875F1004350F1000041EB04518B
:106EC00070BC70471CEB410F15D223F0004352EA0F
:106ED00043060BD04FEA4C0CBCEB410F04D80C0D11
:106EE000661E342EB7DDEBE7801A994150EA410661
:106EF00008BF0021E4E708BF1CEB430F28BF6FF079
:106F00000001DDE7B0B581EA030C0CF0004C40F263
:106F1000FF7515EA11541DBF15EA1357AC42AF4275
:106F200039E0E41923EA455343F48013C90241F0E0
:106F3000004141EA505EC7021100A7FB020200288F
:106F40004FF00000EEFB01204FF00001E3FB0721B2
:106F500018BF42F00102401800214941E3FB0E0135
:106F6000A4F580640F0302D252004041494154F11C
:106F700001046CDD470872F1004250F1000051EB52
:106F80000451A1F580115CBF41EA0C01B0BD4CEA8F
:106F900005510020B0BD05EA1357AC4214BFAF4203
:106FA00041E050EA410E1CBF52EA430E02E0614646
:106FB0000020B0BD24423C441BD15FEA070EF6D04E
:106FC000090302BF01460020AEF1140EB1FA81F7A9
:106FD000AEEB070401FA07FE0C37C7F1200100FAF7
:106FE00007F7C8404EEA000E23EA455343F48013E6
:106FF000A2E733F00043B3FA83F704BFB2FA82FE8C
:1070000077440B3FE41BB7F1200E2FBF02FA0EF3BB
:10701000BB40C7F1200E22FA0EFE38BF43EA0E0332
:10702000BA40641C82E750EA410E14BF52EA430E94
:107030006FF000014FF4001717EB430F8ABF19469A
:1070400017EB410FB5E74CEA05510020B0BDD4F174
:107050000104B4F120070FDAC4F12007520828BF59
:1070600042F0010210FA07F501FA07F7E1BF2A43DF
:10707000E0403843E1400FE0352C98DCC7F12004B4
:1070800052EA400220FA07F218BF42F0010231FA38
:1070900007F0A1400A43002172F1004250F10000C4
:1070A00051EB0C01B0BD00004FF4001C1CEB410F74
:1070B00094BF1CEB430F09E041EA030C50EA4C0C6F
:1070C00052EA0C0C03D2994208BF9042704714BF99
:1070D0008B428242704700004FF4001C1CEB410FB2
:1070E00094BF1CEB430F09E041EA030C50EA4C0C3F
:1070F00052EA0C0C03D28B4208BF8242704714BF85
:10710000994290427047000040F2FF7C0B0D4DD039
:10711000634566D230B421EA035141F4801103F291
:10712000FD3C5FEA5C0C01D300184941890041EA4B
:10713000907180004FF440140023E202D50AB1F5AB
:10714000100107D46D081DD2091B641900184941AC
:10715000491BF7D56D080AD20919641B001849416B
:10716000491BEFD56D08F7D301E0520817D0C018BE
:1071700061419B1AAC4100184941801AA941F4D4DD
:1071800052080AD0C01AA1419B186C41001849410D
:10719000801AA941E9D45208F4D15B1C6C41610802
:1071A0004FEA330001EB0C5130BC704750EA010349
:1071B000FBD030B4B1FA81F311B9B0FA80F41B19E5
:1071C0000B3BB3F120042FBF00FA04F19940C3F147
:1071D000200420FA04F438BF21439840D3F101037E
:1071E0009DE76345E1D011F5801FDED850EA4101EB
:1071F000DBD0D94300F02AB910B101284CD0704738
:107200007548426A42F000624262026822F09002CF
:107210000260002202600A46083A0A2A00F28280CE
:10722000DFE802F05E5E060614142121802E2E0097
:10723000026A4FF400731A430262880000F1804032
:1072400000F59220002140F80C1C7047026A42F4BD
:1072500080620262880000F1804000F594200021E5
:1072600040F8281C7047026A42F4006202628800FB
:1072700000F1804000F59620002140F8381C70474E
:10728000026A42F400520262880000F1804000F578
:107290009A200021C16170474F48826942F0006224
:1072A0008261026822F410420260002202600A1F1A
:1072B0000D2A37D8DFE802F0070707071414212149
:1072C00021212121362E026A42F4005202628800F6
:1072D00000F1804000F59A20002140F8101C704712
:1072E000026A42F480620262880000F1804000F588
:1072F00094202838002181607047026A42F480623D
:107300000262880000F1804000F5942028380021B6
:1073100001617047016A4FF40072114301622F4806
:1073200000210160704710B5044600F029F82C4890
:1073300000F1100151F8241009680906F8D500EB96
:107340008400016908690A6880B222F080020A603C
:1073500010BD2DE9F84304460D4691460027984696
:107360004BB146464A4629462046FFF7DCFF17FA4E
:1073700080F7761EF6D1B7FBF8F080B2BDE8F28355
:10738000174B01F01F0141F040011972910001F00B
:107390000C0141F0500119700421597041F234215F
:1073A00045F2786259809A8003EB800093F800C020
:1073B0000069C0F808C04FF0040CC0F80CC081612F
:1073C000C26199790162D9794162D9680165197AF6
:1073D0000160597A4160704718800440449004402D
:1073E0006407FF1F010000BF09D0B0FA80F1884098
:1073F000C91CC1F58461090501EBD0214005704726
:10740000F446400D40EAC120490006D200F00EF8D3
:10741000004248BF6FF00040604700F007F84FF0AF
:10742000004188428CBF08464042604740F000401F
:10743000490DA1F58061491C05D4D1F11F0154BF4C
:10744000C840C01770474FF0000070471FB500F0EC
:1074500003F8212101601FBD014800F003B80000BE
:10746000280CFF1F7047000010B50C461168012959
:1074700002D0022904D008E0C0B25168884704E075
:10748000916808709068401C90602068401C2060E3
:1074900010BD30B4002400F8014B002A096812D056
:1074A00091B191FBF3F203FB1211002946BFC943CE
:1074B00001F1310501F130051146641C00F8015B52
:1074C0000029EED114E019B93021017001240FE038
:1074D000B1FBF3F203FB12110A2934BF01F13005AD
:1074E00001F137051146641C00F8015B0029EFD15A
:1074F000204630BC70472DE9F04F80468FB0002009
:10750000924600900D4604E0424600A9FFF7ACFF0A
:107510006D1C2878010000F0998125280AD00A28DE
:10752000F2D1424600A90D20FFF79EFF424600A976
:107530000A20EBE7002601E046F0100615F8010FDF
:1075400020280ED02328F7D02B2807D02D2802D0B2
:10755000302809D00BE046F00106EFE746F00206BE
:10756000ECE746F00406E9E746F00806E6E7691EA0
:107570004FF0000905E009EB890200EB4200A0F1A1
:10758000300911F8010F0246303A092AF3D92E28A2
:1075900004D111F8010F30380928FAD94D1E15F819
:1075A000010F4C2818BF682802D06C2818BF6D1E28
:1075B00015F8010F582862D0622800F0C0806328B7
:1075C00000F00C81642818BF692811D06E2800F0E3
:1075D00038816F2800F0AE80702800F0B5807328E5
:1075E00000F00081752800F0B480782847D08BE740
:1075F0005AF8040B0A230390012203A905A8FFF7F8
:1076000048FF044605A8201802900398002848BFA8
:107610002D2706D4B00748BF2B2702D4700702D508
:107620002027641C00E00027300711D5384618B128
:10763000424600A9FFF718FF4C4507DA424600A969
:107640003020FFF711FF641C4C45F7DB4C46A9E0E6
:10765000F0070BD4A3464C4508DA424600A9202087
:10766000FFF702FF0BF1010BCB45F6DB3846002894
:1076700000F09880424600A9FFF7F6FE92E05AF823
:10768000040B10230190002201A905A8FFF701FFB8
:10769000044605A8201802900027300718D5F006E8
:1076A0000AD5424600A93020FFF7DEFE424600A977
:1076B0007820FFF7D9FE01274C4507DA424600A99A
:1076C0003020FFF7D1FE641C4C45F7DB4C4621E02F
:1076D000F0071FD406F010008DF8100000B1A41CB4
:1076E000A346CB4508DA424600A92020FFF7BCFE9E
:1076F0000BF1010BCB45F6DB9DF8100050B1424673
:1077000000A93020FFF7B0FE424600A97820FFF71D
:10771000ABFE0127F00645D5002F43D1424600A914
:107720003020FFF7A1FE424600A97820FFF79CFE1B
:10773000A41C37E05AF8040B082301900DE05AF816
:10774000040B0223019008E05AF8040B1023019067
:1077500003E05AF8040B0A230190002201A905A8AE
:10776000FFF797FE044605A82018029030070CD5B5
:107770004C45BFF66BAF424600A93020FFF774FEC0
:10778000641C4C45F7DB4C460CE0F0070AD4274656
:107790004C4507DA424600A92020FFF765FE7F1C12
:1077A0004F45F7DB0298007848B102A807684246C7
:1077B0007B1E036000A93878FFF756FEF2E7F0075A
:1077C0007FF5A6AE4C45BFF6A3AE424600A92020E9
:1077D000FFF74AFE641C4C45F7DB99E65AF8040BA8
:1077E000C0B291E65AF8047B002F3FF491AE3846C0
:1077F00000F042F80446F0070BD4A3464C4508DAE3
:10780000424600A92020FFF72FFE0BF1010BCB45CC
:10781000F6DB387830B1424600A917F8010BFFF7C4
:1078200023FEF6E7F0077FF573AE4C45BFF670AE6A
:10783000424600A92020FFF717FE641C4C45F7DBE9
:1078400066E65AF8040B0099016061E600980FB0F3
:10785000BDE8F08F0EB400B584B001210091054958
:1078600005AA0191014600A8FFF745FE04B05DF8A6
:1078700010FB0000698B0000002138B1027822B1B2
:1078800010F8012F491C002AFAD108467047000061
:10789000008003400090034000800B40000EFCF08D
:1078A000E0C0800000000000000000001CF8F0E0D4
:1078B0008000000000000000000000000000000048
:1078C00080E0F0F81C00000000000000000080C014
:1078D000E0F0FC0E0000000003FFFFFFFFFEFCF8DD
:1078E000F0E0E0C0C0C0811FFFFFFFFEFCF0E0E061
:1078F000E0E0E0E0E0F0FCFEFFFFFF1F8180C0C0A1
:10790000E0E0F0F8FCFEFFFFFFFF030000000000D6
:107910000000003FFFFFFFFFF3E3E3E7E7C7C7CF48
:10792000CC811FFFFFFFFFFDF1C101C1F1FDFFFF92
:10793000FFFF1F81CCCFC7C7E7E7E3E3F3FFFFFFFC
:10794000FF3F0000000000000000000000071F3F94
:10795000FFFFFCFCBC3839797173F3F0E0E3E7CF4B
:107960009F3F7FFF7F3F9FCFE7E3E0F0F3737179A5
:107970003938BCFCFCFFFF3F1F070000000000007F
:10798000000000000000000FFEF8F3C71F3FFFFCDF
:10799000F8F8F0F0E0E1C7CF9FBFFFFEFCFEFFBFAD
:1079A0009FCFC7E1E0F0F0F8F8FCFF3F9FC7E3F896
:1079B000FE0F0000000000000000000000000000BA
:1079C00000011FFFFFFFFEF8F1C79F3FFFFFFFFF12
:1079D000FFFFFFFFFFFFFFFFFFFFFFFFFFFFFF3F77
:1079E0009FC7F1FCFEFFFFFF1F0100000000000029
:1079F00000000000000000000000000003070F1F4F
:107A00003F7FFFFFFEFCF1E78F3F7FFFFFFFFFFFA0
:107A1000FFFF7F3F8FE7F1FCFEFFFF7F3F1F0F0758
:107A20000300000000000000000000000000000053
:107A30000000000000000000000000000001010341
:107A400007070F1C39070F3F0F07391C0F070703E4
:107A50000101000000000000000000000000000024
:107A6000000000007C7C000000000000000000001E
:107A70000000000000000000000000000000000006
:107A800000000000000000000000000000000000F6
:107A900000000000000000000000000000000000E6
:107AA00000000000000000000000000000000000D6
:107AB00000000000000000000000000000000000C6
:107AC00000000000000000000000000000000000B6
:107AD00000000000000000000000000000000000A6
:107AE00000000000FE8080F080F080F080F080F0E8
:107AF00080F080F080F080F080F080F080F080F006
:107B000080F080F080F080F080F080F080F080F0F5
:107B100080F080F080F080F080F080F080F080F0E5
:107B200080F080FEFE80F080F080F080F080F080B9
:107B3000F080F080F080F080F080F080F080F080C5
:107B4000F080F080F080F080F080F080F080F080B5
:107B5000F080F080F080F080F080F080F080F080A5
:107B6000F08080FE000000F0F000FC040404040437
:107B700004040404040404040404040404040404C5
:107B80000404FC000000000F0F003F2020202020F4
:107B900020202020202020202020202020202020E5
:107BA00020203F0008102040FF82442810000000E1
:107BB00000000000000000000000008000C000E0A5
:107BC00000F00000080402017F20110A04000020D8
:107BD00000300038003C003E003F003F003F003FC7
:107BE000003F000000000000000000000000000056
:107BF0000000000000B0034000B00B4000F00F4058
:107C000040F00F4080F00F40C0F00F4000F10F40F7
:107C10000090044000A0044000B0044000C00440B4
:107C200000D00440110D0F0E1000000000000000F5
:107C3000000000000000F4010B1F0000000900001C
:107C400000A0064000B0064000C0064000D006403C
:107C500000A00E4000B00E40F0B4DFF81C524FF40C
:107C60007A762D68049C75436E08350CB5FBF2F7E7
:107C7000BFB20025012F05DB6D1C47FA05FCBCF1E6
:107C8000010FF9DA4FF47A77BA4238BF6D1CEDB2C2
:107C9000082D28BF0725EE40B6FBF2F292B2561C23
:107CA0007443B4FBF3F320B1022800F07E805DD36F
:107CB00097E0DFF8C8410729E66846F08076E6607D
:107CC00000F2A680DFE801F0040E18222B353F49B0
:107CD000A66846F40066A660DFF8A4414FF480660B
:107CE00026607EE0A66846F40066A660DFF8904154
:107CF0004FF48066666074E0A66846F40066A6608D
:107D0000DFF87C414FF48066A6606AE0A66846F41E
:107D10000066A660DFF868414FF4806660E0A66800
:107D200046F48056A660DFF85C414FF4806626601A
:107D300057E0A66846F48056A660DFF848414FF445
:107D4000806666604DE0A66846F48056A660DFF85F
:107D500034414FF48066A66043E0A66846F480563E
:107D6000A660DFF820414FF4806639E0DFF80C416F
:107D7000E66846F00076E66011B101290BD047E0D5
:107D8000A6684FF400773E43A660DFF8FC404FF44E
:107D90004076266025E0A6684FF400773E43A66053
:107DA000394C4FF4407666601BE0344C266846F050
:107DB0008076266011B101290AD029E0A6684FF427
:107DC00000773E43A660304C4FF44076A66008E052
:107DD000A6684FF400773E43A6602B4C4FF44076E4
:107DE000E6602A4C9BB254F8200000EBC101CC683D
:107DF00024F00404CC602824CC6005F0070444F08F
:107E0000280404600024C4648260C4640B6144607C
:107E1000F0BC704730B41D4B53F82040A568002DCE
:107E2000FCD0681C50434FF47A72B0FBF2F004EBC4
:107E3000C101086130BC704780B540F2DC50009051
:107E400044F6206332220121012009E080B54FF47D
:107E5000FA7000904FF47A7342F210720021002001
:107E6000FFF7FAFE01BD4FF47A71884228BF084639
:107E7000024600210020CDE71C0CFF1F308004408B
:107E800004B0044010C00440209004401004FF1FC0
:107E9000DFF800F0D907FF1F70B5002800F08980D7
:107EA00030281ED0322826D0602827D064284DD014
:107EB0006E2826D0782827D07D2828D0822829D05F
:107EC0008C282AD096282BD0A0282CD0AA282DD0B8
:107ED000B4282ED0C8282FD0E12830D0FA2831D0AD
:107EE00033E018210022554C217000216270A170EE
:107EF00065282ED231E018210122F4E7182118223A
:107F0000F1E718211F22EEE713211822EBE71321D6
:107F10001A22E8E713211C22E5E70E211222E2E7EC
:107F20000E211522DFE70E211822DCE70E211B228D
:107F3000D9E70E211E22D6E70C211C22D3E70B2104
:107F40001E22D0E70A211F22CDE7642018211A2221
:107F5000C9E7C92834BF01210221E170E1781A285C
:107F6000217138BF002023D3332838BF01201FD30D
:107F70004C2838BF02201BD3652838BF032017D3F5
:107F80007E2838BF042013D3972838BF05200FD38D
:107F9000B02838BF06200BD3C92838BF072007D325
:107FA000E22838BF082003D3FB2834BF09200F2064
:107FB0006071224C32216078214E183080B24843E3
:107FC0002178491C89B290FBF1F5002070701D48A2
:107FD000016841F0805101601B48017841F0800147
:107FE000017098203070B079C006FCD4B079C0F32D
:107FF00081000228FAD1207800F01F0030710020A3
:10800000707163792279E178A078FFF741FF607899
:1080100000F01F0040F040007071B0798006FCD580
:10802000B0794006FCD5307800F03F003070B07970
:10803000C0F381000328FAD1E8B270BDB807FF1F72
:10804000004006403480044008C0074010B572B6B6
:10805000012000F037F904460FF22C11012000F046
:108060004AF92146012000F035F962B610BD80B50D
:10807000032000F039F900B3032000F023F93C4954
:10808000FF28087004D101224A700022CA7001E062
:108090004A7822B1CA7853181871521CCA70CA782B
:1080A000FE2808BF072A04D10020487001208870EC
:1080B00001E0082A01D30020C87001BD80B50D2061
:1080C00000F051F92B4803E080B500F0BEF92A48D2
:1080D000016841F00101016001BD704710B50FF268
:1080E000BC042046FFF7B6FBFBE770472348016856
:1080F000C90703D5016841F0010101600168490128
:1081000006D5016841F0806101600D2000F02BB9B7
:10811000704710B51A4C2068C00706D5206840F09B
:10812000010020600D2000F01EF92068400503D5F5
:10813000206840F48060206010BD704738B5114C55
:108140000020656C6064E8070AD5206820F04000D4
:1081500020600D2000F007F90FF26000FFF77AFBB6
:10816000A80703D5A06820F04000A06031BD000042
:10817000D80BFF1F0C7103401C710340A0900440FA
:10818000A0A004400C9003400AC4E3B7A2CBCDB535
:10819000C4CAFDBEDDCEAAA3BA0000000A2A2A2A5C
:1081A0002AD3B2BCFEC9CFB7C3B4EDCEF32121218F
:1081B0002A2A2A2A2A0D0A0A000000000A46544DDB
:1081C00031B7A2CBCDD6D0B6CF0A0000F0B4052887
:1081D00044D8DFE800F0030E19242F394C4A4FF43D
:1081E0004073136153614B4AD36843F48063D36097
:1081F00034E0494A4FF4407313605360454AD368F2
:1082000043F40063D36029E0414A4FF44073536064
:108210001360404AD36843F48053D3601EE03F4A62
:108220004FF44073136053603A4AD36843F40053E9
:10823000D36013E03A4A4FF4407353641364354AF1
:10824000136843F4806308E0354A4FF44073536089
:108250001360304A136843F400631360314B0246E5
:1082600053F82240E57805F0F305E57053F8224015
:108270000025A57000281ABF01282B482B4800684C
:108280004FF47A74604353F822500901B0FBF1F4C3
:108290002F782604360E66F304072F7053F8225009
:1082A00040016C7053F82240B0FBF1F0A17A60F30A
:1082B0000401A17253F82200C17841F00C01C17091
:1082C000F0BC7047174951F8202013799B06FCD564
:1082D000D0797047134A52F8203093F804C05FEA0F
:1082E0000C6CFAD5D97170470E4951F8200000790D
:1082F00000F02000704738B504460D4604E015F83C
:10830000011B2046FFF7E6FF28780028F7D131BD92
:1083100008C00440288004400CB0044028A0044059
:1083200020D00440C007FF1F1C0CFF1F140CFF1FB0
:1083300080B5012301220C210320FDF73FFE01231C
:108340001A460D210320FDF739FE01231A460E219E
:108350000320FDF733FEBDE8005001231A460F212C
:108360000320FDF72BBE01460320FDF766BE00008B
:1083700010B5544C00232078032200F01F0140095F
:10838000FDF71CFE60780023032200F01F01400966
:10839000FDF714FEA0780023032200F01F0140091E
:1083A000FDF70CFEE0780023032200F01F014009D6
:1083B000FDF704FE2079BDE8104000F01F01002306
:1083C00003224009FDF7FABD01B440488178022933
:1083D0001AD042789DF800303D4901F812304278B9
:1083E00001EB42019DF801204A704178491C41701F
:1083F0004178142924BF00214170417802789142CC
:108400000CBF02210121817001B070472F498A7889
:108410000AB9002070470B782D4A12F81330037008
:108420000B7802EB4302527842700878401C0870C7
:108430000878142824BF0020087008784A789042F1
:1084400004BF0020887001207047F8B51D4F00243C
:1084500007F108051C4E397828784A1156F8222071
:1084600001F01F01126922FA01F1C90717D4401C5B
:108470002870C0B202281ED304BF8DF8004000202F
:1084800005D0652817D308D18DF8004002208DF85B
:1084900001000098FFF798FF0DE002200AE0022893
:1084A00007D301208DF800408DF801000098FFF7F8
:1084B0008BFF00202870641C6D1C7F1C052CCADB00
:1084C000F1BD0000A407FF1F7C07FF1F240CFF1F46
:1084D000EC0BFF1F0023412200210220FDF76EBD9F
:1084E00030B14FF42F7100BF491EFCD1401EF8D1AE
:1084F000704710B53C2400210220FDF79EFD3C2072
:10850000FFF7EEFF641EF6D1642400210220FDF780
:1085100094FD3220FFF7E4FF641EF6D164240021AD
:108520000220FDF78AFD1420FFF7DAFF641EF6D162
:108530001EE010B5642400210220FDF77EFD062018
:10854000FFF7CEFF641EF6D1642400210220FDF760
:1085500074FD0C20FFF7C4FF641EF6D164240021D3
:108560000220FDF76AFD0620FFF7BAFF641EF6D170
:10857000BDE81040002200210220FDF750BD10B5DB
:10858000642400210220FDF758FD1420FFF7A8FF06
:10859000641EF6D1642400210220FDF74EFD062062
:1085A000FFF79EFF641EF6D1642400210220FDF730
:1085B00044FD0F20FFF794FF641EF6D1D8E710B5F5
:1085C000642400210220FDF738FD1420FFF788FF06
:1085D000641EF6D1502400210220FDF72EFD1E203E
:1085E000FFF77EFF641EF6D1C2E738B54FF4E174A1
:1085F000254600210220FDF720FD1420FFF770FF23
:108600006D1EF6D1002200210220FDF708FD322068
:10861000FDF720FD254600210220FDF70EFD142068
:10862000FFF75EFF6D1EF6D1002200210220FDF74C
:10863000F6FC3220FDF70EFD00210220FDF7FDFCC7
:108640001420FFF74DFF641EF6D1BDE8384091E7D6
:1086500080B51E23012210210120FEF77AFE3B4A3D
:108660004FF464711080484340F6FF7190FBF1F0C5
:108670005080374801785088BDE80440FDF703B9C1
:1086800038B572B60023012202210220FDF796FCC4
:108690000023012203210220FDF790FCFFF768FE72
:1086A000FFF746FEFFF7C8FBFFF7D0FB08210120CC
:1086B000FEF7A2FD09210120FEF79EFD0A210120FF
:1086C000FEF79AFD0B210120FEF796FD0C210120FB
:1086D000FEF792FD0D210120FEF78EFD10210120F5
:1086E000FEF78AFD1B48C068C17841F02001C170C7
:1086F000332000F038F8FCF71DFF1748006800EB46
:1087000080014900012000F07FF8FFF7E3FEFDF74C
:1087100063F8FDF731F9FFF7ECFE62B60AA40F4DDE
:1087200000F094F8287820B1002028702046FFF748
:1087300091F80C20FFF717FEFEF782F8FEF709F913
:10874000FFF786FFECE700004F4B0000200CFF1FF7
:10875000B407FF1FC007FF1F1C0CFF1FDA0BFF1F12
:1087600018490860704710B504465C2CA4BF0FF28E
:108770006000FFF76FF8201104EBD060401103D0C8
:10878000022815D00AD310BD0121A4EB401001FA34
:1087900000F00D4908600D49086010BD0121A4EBEF
:1087A000401001FA00F0084948600849486010BDCF
:1087B0000121A4EB401001FA00F00349886003494D
:1087C000886010BD08ED00E080E200E000E100E01C
:1087D0000A4552522120496E76616C6964204952E3
:1087E000512076616C7565207061737365642074C7
:1087F0006F20656E61626C65206972712066756EAE
:108800006374696F6E210A000D4A136843F4000314
:1088100013600C4A13689B089B00FFE713600A4B28
:108820000201D150D118CA68443042F00102CA6036
:108830008A6842F003028A60FFF795BF00000000DB
:108840003C800440007003400071034010B582B0CA
:10885000324C08E0B4F902001430608000B2FFF737
:1088600002FBFFF766FE00A8FFF7D0FD002854D0FA
:108870009DF8010028BB9DF800000428F3D8DFE82C
:1088800000F003050F151D00E4E7ECE7B4F9020062
:108890001438608000B2FFF7E6FAFFF770FEE2E7F7
:1088A000002202210220FDF7BAFBDAE701220221B1
:1088B0000220FDF7B4FBFFF762FED4E7FFF77FFE6F
:1088C000D1E70228CFD19DF800000428CBD8DFE8FB
:1088D00000F0040E12151D00C5E7B4F90200401C9B
:1088E000608000B2FFF7BFFAFFF77FFEBBE7B4F985
:1088F0000200401EF4E7FFF778FEB4E72178481E37
:108900008041C00F2070FFF770FEACE7032102200A
:10891000FDF793FBFFF769FEA5E713BDB407FF1F43
:1089200010B51649164C8C4204D04FF482522046A2
:1089300000F038F82046FFF713FF1249124A134897
:10894000521A05D011F8013B521E00F8013BF9D133
:108950000F481049091A05D0491E002200F8012BC2
:108960000029F9D10C490D4A0D48521A05D011F8C9
:10897000013B521E00F8013BF9D110BD0050000030
:108980000000FF1F90780000587C00001004FF1FBB
:108990001808FF1F270CFF1F408A00007C8A000078
:1089A000D807FF1F103A07D330B4B1E83810103A97
:1089B000A0E83810F9D230BC530724BFB1E8081042
:1089C000A0E8081044BF51F8043B40F8043BD2072C
:1089D00024BF31F8022B20F8022B44BF0B78037020
:1089E0007047083A07D3B1E80810083A40F8043B4A
:1089F00040F804CBF7D25307E4E7000038B50E4D3A
:108A00000E4C286840F4785028609620FFF744FA0E
:108A100060604FF47A7111FB00F02060E968C1F3E7
:108A20000361491CB0FBF1F0A060BDE834404FF495
:108A3000E1310320FFF7CABB38800440140CFF1F4C
:108A400070B4090601F0706141EA00701105094C2B
:108A500001F47001084325681904266801F47021A7
:108A6000084346F47F06044926600860256070BC10
:108A7000704700BF00F001404480044080B500F022
:108A800007F808484FF6FE7201881140018001BDC9
:108A900072B605484CF2205101804DF62811018034
:108AA00062B67047002005400E20054010B5084909
:108AB00079441C31074C7C441A34A14206D0081D6D
:108AC0000A68511888470146A142F8D110BD00BF7D
:108AD000080000001C0000009FD5FFFF10040000EC
:108AE0001808FF1F04000000280CFF1F00000000F2
:108AF0000548044900785938C0B251F820000047B1
:108B0000000000006408FF1F04ED00E00120C046E3
:108B1000002801D0FFF7CAFF0020FFF7B1FD00F0E9
:108B200000F800F001B800000746384600F002F8EF
:108B3000FBE7000080B5C046C046024A110018207D
:108B4000ABBEFBE72600020080B5FFF797FFFFF7FB
:108B5000E7FEFFF753FFFFF793FDFEE7C046C04671
:108B6000C046C046FFF7D2FF01460320FFF7B2BB65
:0400000500008B5D0F
:00000001FF
