:10000000D0F9FF1F313F0000493F0000493F000089
:10001000493F0000493F0000493F0000493F0000C0
:10002000493F0000493F0000493F0000493F0000B0
:10003000493F0000493F0000493F0000493F0000A0
:10004000493F0000493F0000493F0000493F000090
:10005000493F0000493F0000493F0000493F000080
:10006000493F0000493F0000493F0000493F000070
:100070002D280000493F0000493F0000493F000093
:10008000493F0000493F0000493F0000493F000050
:10009000493F0000493F0000753E0000493F000015
:1000A000493F0000493F0000493F0000493F000030
:1000B000493F0000493F0000493F0000493F000020
:1004100080B503220021092000F0DCFB094909789E
:10042000401A08494880032200210C2000F0D2FB2A
:1004300004494978401A0349888000F09CFC00F088
:1004400003F801BDB8F4FF1FF8B591480068914961
:1004500040189149086090480068322100F028FD5A
:100460008D4908608C4800688B49C968401A8A49E0
:10047000086087484068894940188749486086482D
:100480004068322100F014FD83494860824840688A
:1004900081490969401A804948607D4880688049DF
:1004A00040187D4988607C488068322100F000FD5A
:1004B000794988607848806877494969401A76495F
:1004C00088607548406874498968401A724988870D
:1004D0007148406870490968401A6F49C8876E487A
:1004E00000686D498968401ACA4908806A483C21F9
:1004F000405E01281ADB68483C21405E00F032FD76
:100500000022C54B00F046FD04000D006248422168
:10051000405E00F027FD02000B002000290000F0E3
:10052000FBFD00F06FFE5C49888719E05A483C21CA
:10053000405E00F017FD0022B84B00F02BFD0400D8
:100540000D0055484821405E00F00CFD02000B00F4
:100550002000290000F0E0FD00F054FE4E4988879D
:100560004D483E21405E01281ADB4B483E21405E4B
:1005700000F0F8FC0022AA4B00F00CFD04000D0076
:1005800045484421405E00F0EDFC02000B002000D5
:10059000290000F0C1FD00F035FE3F49C88719E091
:1005A0003D483E21405E00F0DDFC00229D4B00F006
:1005B000F1FC04000D0038484A21405E00F0D2FCF6
:1005C00002000B002000290000F0A6FD00F01AFE3A
:1005D0003149C88730484021405E01281ADB2E4847
:1005E0004021405E00F0BEFC00228F4B00F0D2FCA8
:1005F00004000D0028484621405E00F0B3FC0200D4
:100600000B002000290000F087FD00F0FBFD814970
:10061000088019E020484021405E00F0A3FC002241
:10062000824B00F0B7FC04000D001B484C21405EDB
:1006300000F098FC02000B002000290000F06CFD87
:1006400000F0E0FD7349088013483C21405E082813
:1006500028DA11483C21405E0621C943884221DB4B
:100660000D483E21405E08281CDA0B483E21405EC2
:100670000621C943884215DBC9480078022803D007
:10068000C748007803280DD10020C649087094E1BE
:100690007CF5FF1F5C46D6FF60F4FF1F245AD7FF8E
:1006A0004053D6FFC0483E21405E06282DDABE48A2
:1006B0004021405E012828DAB9480078002803D09C
:1006C000B7480078022820D10220B54908700A20D6
:1006D000B4490870B4483C21405E00F043FCD3A20A
:1006E0000CCA00F057FCD3A20CCA00F0B2FD00F017
:1006F00089FDCD490880AC485221405E502800DB7E
:100700005BE15020C849088057E1A7483E21405E80
:10071000062800DA8CE0A4484021405E2721C94326
:10072000884200DB84E09E480078002807D09C487F
:100730000078012803D09A480078022878D1002058
:100740009749087014209749087097483C21405EEB
:1007500000F008FCCBA20CCA00F01CFC04000D0049
:1007600091483C21405E00F0FDFB22002B0000F090
:1007700011FC04000D008C483C21405E00F0F2FBAF
:1007800022002B0000F006FC06000F0086483C21EA
:10079000405E00F0E7FBA9A20CCA00F0FBFB0400DE
:1007A0000D0081483C21405E00F0DCFB22002B0064
:1007B00000F0F0FB32003B0000F04BFD04000D00A8
:1007C00079483C21405E00F0CDFB9EA20CCA00F0AF
:1007D000E1FB02000B002000290000F09DFD9BA220
:1007E0000CCA00F036FD00F00DFD8F4908806E4800
:1007F0005221405E512803DB50208B490880DCE009
:1008000069485221405E0A2800DBD6E00A2086496A
:100810000880D2E0A0F4FF1F00206D4000A06FC050
:1008200000206C4000E06CC000606E40007070C042
:100830005D483C21405E07287DDB5B484021405EEF
:100840002821C943884276DB55480078002807D024
:1008500053480078012803D05148007803286AD112
:1008600001204F4908701E204E4908704E483E2115
:10087000405E00F077FB77A20CCA00F08BFB04000F
:100880000D0049483E21405E00F06CFB22002B0029
:1008900000F080FB04000D0043483E21405E00F064
:1008A00061FB22002B0000F075FB06000F003E48A4
:1008B0003E21405E00F056FB68A20CCA00F06AFBC5
:1008C00004000D0038483E21405E00F04BFB220042
:1008D0002B0000F05FFB32003B0000F0BAFC04008C
:1008E0000D0031483E21405E00F03CFB5DA20CCA89
:1008F00000F050FB22002B0000F0ABFC5BA20CCA06
:1009000000F0A7FC00F07EFC4749088026485221F1
:10091000405E0B2803DB0A20434908804DE0224853
:100920005221405E4F21C943884246DA4F20C043DE
:100930003D49088041E01C483C21405E072835DAEB
:1009400019484021405E022830DB15480078012814
:1009500003D013480078032828D1032010490870D9
:1009600028201049087010483E21405E00F0FAFA35
:1009700040A20CCA00F00EFB40A20CCA00F069FCB9
:1009800000F040FC2849088007485221405E4E2173
:10099000C943884211DB4F20C043234908800CE043
:1009A000AEF4FF1FAFF4FF1F60F4FF1F3220384981
:1009B00008703A4800881C490880344800780128AB
:1009C00021D1052000F080FF3C20314908703548D6
:1009D0000078334908702F485421405E2D49522237
:1009E000895E401A15280ADA2A485421405E2949AE
:1009F0005222895E401A1321C943884203DA2748EC
:100A00000088094908800848008824490988401A54
:100A1000214908700448008820490880204800784F
:100A200020490870F1BD00BFB2F4FF1FB5A679C719
:100A3000293AD23F14AE47E17A2C6340F168E3884B
:100A4000B5F8043FBE9F1A2FDD24B63F6891ED7CB8
:100A50003F153F408DEDB5A0F7C6C03EF168E38875
:100A6000B5F8E43EBBB88D06F016B83F77BE9F1AC6
:100A70002FFD41C0D50968226C78D2BFA4703D0A11
:100A8000D74363C08DEDB5A0F7C6B0BEC9F5FF1F53
:100A9000AFF4FF1F60F4FF1FB1F4FF1FB4F4FF1F9A
:100AA000AEF4FF1FB0F4FF1F38B504002500EDB20F
:100AB0006D09EDB2002D10D1744800688021090540
:100AC0000143724801607248006890218843704970
:100AD00008606F4800686E490860E4B22000002892
:100AE00024D0012827D002282AD003282DD004287A
:100AF00030D0052833D0062836D0072839D008282A
:100B00003CD009283FD00B2842D00C2845D00D28D6
:100B100048D00E284BD00F284ED0172851D01A2875
:100B200054D01D2853D01E2852D052E000219420CA
:100B300000F0D8FE4DE00021902000F0D3FE48E008
:100B40000021922000F0CEFE43E00021962000F02C
:100B5000C9FE3EE00021952000F0C4FE39E00021EE
:100B6000912000F0BFFE34E00021932000F0BAFE97
:100B70002FE00021972000F0B5FE2AE00021202080
:100B800000F0B0FE25E00021212000F0ABFE20E0C7
:100B90000021422000F0A6FE1BE00021222000F0F0
:100BA000A1FE16E00021232000F09CFE11E00021B0
:100BB000402000F097FE0CE00021412000F092FE62
:100BC00007E000219E2000F08DFE02E001E000E041
:100BD000FFE731BDF7B5070000243E00F6B2760905
:100BE000684601793800C0B200F029F800200500FD
:100BF0006846007AEDB285421ED22648F6B204213C
:100C00007143405800680006F7D52248F6B2042127
:100C100071434058006924181E48F6B204217143FC
:100C200040580068802188431A49F6B20422724372
:100C3000895808606D1CDBE7200080B2FEBD70B4EF
:100C40000200D2B25209C306DB0EC9B28C000C25D9
:100C5000254050242C430F4DD2B204265643AD59A3
:100C6000AC6004240B4DD2B204265643AD59EC605F
:100C7000DBB2DD06ED0E40242C43064DD2B2042635
:100C80005643AD592C6070BC704700003C80044056
:100C900018800440C0F0FF1F80B5B821490108202A
:100CA00000F0ACFFB8214901092000F0A7FFB821EE
:100CB00049010A2000F0A2FFB82149010B2000F0F1
:100CC0009DFF00210C2000F099FF00210D2000F075
:100CD00095FF00210E2000F091FF00210F2000F071
:100CE0008DFF8021C900102000F088FF8021C900FD
:100CF000112000F083FF8021C900122000F07EFF48
:100D00008021C900132000F079FF5649142000F01B
:100D100075FF5449152000F071FF5249162000F06C
:100D20006DFF5049172000F069FF4F49192000F06E
:100D300065FF4B491A2000F061FF4C491B2000F071
:100D40005DFF8421C9011E2000F058FF48491F2083
:100D500000F054FF8421C901202000F04FFF8421BE
:100D6000C901212000F04AFF01BD80B541491A2088
:100D700000F044FF01BD10B50024002000F057FF33
:100D80000400A4B22005000D00043B490860A4B291
:100D900020000012F021014038480170012000F0CD
:100DA00046FF3549096880B201433348016002209B
:100DB00000F03DFF0400A4B22005000D00042E4900
:100DC0004860A4B220000012F02101402B4841707D
:100DD000032000F02CFF2849496880B201432648CF
:100DE0004160042000F023FF0400A4B22005000DA0
:100DF000000421498860A4B220000012F0210140C3
:100E00001E488170052000F012FF1B49896880B2DE
:100E1000014319488160062000F009FF0400A4B2D4
:100E20002005000D00041449C860A4B2200000127F
:100E3000F02101401148C170072000F0F8FE0E4972
:100E4000C96880B201430C48C16000F001F810BDD0
:100E500080B5182000F0EBFE0949088001BD0000B4
:100E6000013E00000110000001F8000009C200006E
:100E7000404A0000011E00007CF5FF1F8CF5FF1F9B
:100E8000C6F5FF1FF446002804D4494200F013F8C9
:100E9000404260474042002905D45FD000F00BF883
:100EA000404249426047494200F005F849426047E4
:100EB00003460B43E6D40022030A8B420BD20309FC
:100EC0008B4219D243088B422ED2411A00D20146DE
:100ED000524110467047FF2209023FD012068B4252
:100EE00005D3121209028B4201D31212090203091F
:100EF0008B4219D300E0090AC3098B4201D3CB010D
:100F0000C01A524183098B4201D38B01C01A52414E
:100F100043098B4201D34B01C01A524103098B4252
:100F200001D30B01C01A5241C3088B4201D3CB003D
:100F3000C01A524183088B4201D38B00C01A524120
:100F400043088B4201D34B00C01A5241884200D360
:100F5000401A5241CFD201461046704708B5C046EC
:100F6000C04608BD010007D5F446404200F004F831
:100F70000122D2071143604742221201D21E0042D1
:100F800007D002D4521E0018FCD5C10A4005120534
:100F900089187047F0B50E005E400125ED072E4020
:100FA000B446AE0ADF184C18F44208D2F7420ED20B
:100FB000640D01D07F0D12D100206146F0BD05D136
:100FC000F74201D87F0D05D10020C143F0BDFBD110
:100FD000640DF9D00020C143490549088FE0E419A8
:100FE000C902DB0229432B43DB0A460DC002314311
:100FF0008E4630B487B295B27D432E0CADB2140C40
:101000007C43A419260C240425439CB27C43A419D8
:10101000190C7943270CC919A4B20F043C43090CDD
:10102000000C97B247432E0CBE193543ADB2170CD6
:101030004743360CBF19A6B2BF193E043543240CF2
:101040003E0C36199FB24743BF19BCB23E0C8919FA
:101050001F0C47437F183E043443390C704680B25E
:1010600097B247432E0CBE193543ADB2170C474318
:10107000360CBF19A6B2BF193E043543240C3E0CF2
:1010800036199FB24743BF19BCB23E0C89191F0CD9
:1010900047437F183E043443390C77463F0C90B2E7
:1010A00078432E0C80190604ADB22E43050CA0B275
:1010B0002D18120C7A435019020C80B2240CA4187B
:1010C0009AB27A43121914042043120C89181B0C8B
:1010D0007B43C91830BCEF0A394203D1B6194041ED
:1010E0004941641E6F12BF0DE41B0BDBFF19BC42AC
:1010F00011DA240500274208AE4178416141664675
:101100003143F0BD641C05D1401C6141CF0201D3C5
:101110004908F4E750E75DE7F0B40E005E400125B2
:10112000ED072E40B446AE0ADF184C18F4423BD20D
:10113000F74241D2640D43D07F0D38D0E41BC90281
:10114000DB0229432B43CF0ADB0A0600B61A9F4174
:1011500004D2641EB6197F41B6185F416812800D33
:1011600024180018844222DAE80C0021B6197F41C5
:10117000B61A9F4102D2B6185F413F1C4041494117
:10118000F4D3241C21DD2405B6197F41B61A9F41F2
:1011900005D33743C60737430026012F704161410D
:1011A00066463143F0BC7047FCD1F74205D20020BF
:1011B000C14349054908F3E704D00020C143F1E7E2
:1011C0007F0DFAD000206146ECE72442FAD1401CA2
:1011D00061410F03F6D30020E2E730B40121002281
:1011E0000368001D002B0BD00468001D0C4202D0C8
:1011F0004D466D1E64192260241D1B1FF0D0FAE7B6
:1012000030BC7047F4464A1805D200F00DF801D5FD
:1012100080174008604700F007F80121C90788429D
:1012200000D9080040426047400DC902084301212F
:10123000C9070843520D40210901521A521C06D415
:1012400052421F3201D4D0407047C017704700206F
:101250007047F0B40125ED070F005F404FD48B427B
:1012600000D1824205D98446100062468C4619009E
:101270006346DF184C18640D7F0D3AD0661C760566
:1012800037D0E61B352E34DCDB022B43DB0A0C0D9A
:10129000C9022943C912202E0DDB1700203E06D0BB
:1012A0001F00F741F3405F400026012A7741C01834
:1012B00071410DD217E01700F741F2405740F3415A
:1012C0005A40B340F3405A400026801859410AD38F
:1012D000A21C52050FD0C207012F7241170040080F
:1012E000CB0718434908641C24054208AF417041EC
:1012F0006141F0BC7047641C21050020F9E76B4098
:1013000010E06B40ABE7F742F3D1E943F1E7244249
:10131000EFD100200021ECE7F0B40125ED070F002C
:101320005F40EED40C00871A9C4105D2C01BA1413E
:10133000D219634169406B40AE0ADF184C18F44281
:10134000E1D2640D7F0DE2D0E61B362ED1DCDB024C
:101350002B43DB0AA4460C0DC9022943C90A012EFE
:1013600028DC04D1D6075208DF073A435B08EF0AAE
:1013700076429041994114D039423BD1B61940414F
:101380004941761C394204D1761C00184941394242
:10139000FAD0B9436746B74208D9A41B24052143B4
:1013A000A7E70042EAD13642E8D1A2E7E40AE10722
:1013B00000209EE7202E0BDD203E1F00F340F7416A
:1013C0005F40012A002257417E42984191410BE043
:1013D0001700F741F2405740F3415A40B340F34001
:1013E0005A407E42904199410A0303D2641EB619C5
:1013F000404149410027641E24054208AE4178411E
:101400006141F0BC7047000080B5002201216320DB
:1014100000F030FC00220121802000F02BFC01BDF7
:1014200080B59B480078002808D0022809D014D342
:1014300004280FD008D3052809D010E000F010F8D8
:101440000DE000F095F80AE000F028F907E000F060
:101450008DF904E000F0F2F801E000F0F1F901BDCF
:1014600000B58C4800880A280CDA8B4800680121F6
:10147000014389480160BC48006808218843BA4993
:10148000086074E08348008815280CDA82480068F8
:101490000121884380490860B3480068082101435E
:1014A000B148016063E07B4800881F280CDA7A4865
:1014B00000680121014378480160AB4800680821B9
:1014C0008843A949086052E07248008829280CDA4C
:1014D00071480068012188436F490860A24800688C
:1014E00008210143A048016041E06A480088332890
:1014F0000CDA6948006801210143674801609A4895
:101500000068082188439849086030E061480088F5
:1015100065280CDA60480068012188435E4908604C
:1015200091480068082101438F4801601FE0594835
:10153000008897280CDA5848006801210143564872
:1015400001608948006808218843874908600EE0E7
:1015500051480068012188434F490860824800686B
:10156000082101438048016004204949087000BDFA
:1015700000B54848008805280CDA47480068012172
:10158000014345480160784800680821884376494E
:10159000086052E03F4800880B280CDA3E4800689B
:1015A000012188433C4908606F48006808210143D5
:1015B0006D48016041E0374800880F280CDA364852
:1015C0000068012101433448016067480068082130
:1015D00088436549086030E02E48008815280CDAF9
:1015E0002D480068012188432B4908605E48006847
:1015F000082101435C4801601FE026480088192843
:101600000CDA25480068012101432348016056484F
:10161000006808218843544908600EE01E480068AD
:10162000012188431C4908604F4800680821014394
:101630004D48016004201649087000BD00B57E4881
:1016400000880A280CDA1448006801210143124876
:10165000016045480068082188434349086015E057
:1016600075480088FF21F63188420CDA0A48006884
:1016700001218843084908603B480068082101436C
:101680003948016002E000206B49088000BD00007D
:10169000C4F0FF1FC4F5FF1F00F10F4000B56648FE
:1016A000008832280CDA654800680121014363484C
:1016B00001602D480068082188432B49086052E0EA
:1016C0005D48008865280CDA5C4800680121884381
:1016D0005A490860244800680821014322480160F3
:1016E00041E05548008896280CDA544800680121EA
:1016F0000143524801601C480068082188431A4988
:10170000086030E04C480088C9280CDA4B48006873
:1017100001218843494908601348006808210143B2
:10172000114801601FE044480088FA280CDA434859
:10173000006801210143414801600B48006808210D
:101740008843094908600EE03C480068012188434D
:101750003A490860044800680821014302480160D2
:1017600004205C49087000BDC0F00F4000B532484D
:10177000008803280CDA31480068012101432F4812
:10178000016055480068082188435349086052E0C9
:101790002948008807280CDA284800680121884376
:1017A000264908604C480068082101434A48016006
:1017B00041E02148008809280CDA2048006801210E
:1017C00001431E480160444800680821884342499B
:1017D000086030E0184800880D280CDA17480068C7
:1017E00001218843154908603B48006808210143EE
:1017F000394801601FE01048008811280CDA0F48B2
:101800000068012101430D48016033480068082148
:101810008843314908600EE0084800680121884388
:10182000064908602C480068082101432A480160E5
:1018300004202849087000BDC4F5FF1F00F10F40C7
:1018400000B52648008802280CDA254800680121E6
:1018500001432348016020480068082188431E494D
:10186000086030E01D48008805280CDA1C48006834
:10187000012188431A49086017480068082101437C
:10188000154801601FE01548008806280CDA144846
:10189000006801210143124801600F4800680821D7
:1018A00088430D4908600EE00D4800680121884317
:1018B0000B49086008480068082101430648016098
:1018C00004200449087000BD0021044A1180014928
:1018D00008707047C4F0FF1FC0F00F40C4F5FF1F31
:1018E00000F10F4010B40D4A126880239B000400E1
:1018F000E4B26409A3401343084A1360084AC0B223
:1019000003005B1104246343D258C0B2C306DB0E4C
:1019100004246343D15010BC704700003880044059
:10192000C8F0FF1F10B50400AE480068022148430C
:10193000FA218900FFF7BFFA0100012000F038FA10
:1019400010BD80B5A8480068802189040143A648DD
:101950000160A6480068802189040143A348016012
:101960000220FFF7DFFFA1480068802149040143FE
:101970009E4801600220FFF7D5FF9C4800689C4903
:1019800001409A4801600220FFF7CCFF97480068A9
:1019900098490140954801600220FFF7C3FF01BD4F
:1019A00080B5914800688021890401438E48016018
:1019B0008E4800688E4901408C4801600220FFF784
:1019C000B1FF8A48006880214904014387480160CB
:1019D0000220FFF7A7FF85480068802189040143A2
:1019E000824801600220FFF79DFF01BD10B57F48CE
:1019F00000688021490401437C4801600220FFF710
:101A000091FF002004007848006879490140764839
:101A100001607948006801008901C90F002901D0DF
:101A2000012004000220FFF77DFF70480068714923
:101A300001406E4801606C480068802189040143C0
:101A4000694801602000C0B210BD80B566480068DA
:101A50008021890401436448016064480068802152
:101A600089040143614801600220FFF75BFF5F4882
:101A700000688021490401435C4801600220FFF7AF
:101A800051FF5A4800685B490140584801600220F4
:101A9000FFF748FF01BD80B55348006880218904E5
:101AA00001435148016051480068514901404F4885
:101AB00001600220FFF736FF4C480068802149048E
:101AC00001434A4801600220FFF72CFF47480068A5
:101AD000484901404548016001BD38B50400002077
:101AE0000500EDB2082D28DA3F48006880218904FE
:101AF00001433D4801603D4800683D4901402000E8
:101B0000C0B2C009C0B2400608433849086037482F
:101B10000068802149040143344801600220FFF736
:101B200001FF32480068334901403048016002201B
:101B3000FFF7F8FE64006D1CD3E7FFF757FF31BDD8
:101B400038B5082500242800451EC0B2002846D01C
:101B50002548006880218904014323480160234807
:101B60000068802189040143204801600220FFF7BA
:101B7000D9FE1E4800681F4901401C480160022030
:101B8000FFF7D0FE19480068802149040143174837
:101B900001600220FFF7C6FE1348006814490140A7
:101BA0001148016064001448006801008901C90FF0
:101BB000002903D020000124044302E02000FE2479
:101BC00004400A4800680B49014008480160064883
:101BD000006880218904014303480160B3E72000C5
:101BE000C0B232BDC0F5FF1F14F10F4000F10F402D
:101BF000FFFFFFFDFFFFFFFE10F10F4038B50500AE
:101C00000C00FFF79EFE5420FFF767FF2800C0B2CC
:101C1000FFF763FF200080B2000AC0B2FFF75DFF4C
:101C20002000C0B2FFF759FFFFF7BAFE31BD38B54B
:101C300004000025FFF785FE5420FFF74EFF20002B
:101C4000C0B2FFF74AFFFFF77CFE5520FFF745FFC4
:101C5000FFF776FF05002D02FFF71DFFFFF770FF6E
:101C600028430500FFF7F1FEFFF79AFE280080B237
:101C700032BD000070B504000D0016002D48E4B21E
:101C800021004911042251434058E4B2E106C90E33
:101C900004225143802252004250EDB2012D1BD14B
:101CA0002548E4B2210049110422514340582249F9
:101CB000E4B22200521104235A438958496901228F
:101CC000E306DB0E9A400A4342613100C9B22000AC
:101CD000C0B200F017F814E01748E4B2210049112F
:101CE0000422514340581449E4B222005211042303
:101CF0005A43895849690122E306DB0E9A40914311
:101D0000416170BD30B40C4AC0B203005B110424C1
:101D10006343D25813680122C406E40EA2401A435A
:101D2000054BC0B20400641104256C431B591A60B2
:101D300030BC7047C8F0FF1FDCF0FF1F38B505004E
:101D40000C004948006880210904014346480160AD
:101D5000002046490860601E4549EDB210226A43E2
:101D600088504348EDB2102169434018C0680121F2
:101D700001433F48EDB210226A438018C1603C48DD
:101D8000EDB2102169434018806801218843384929
:101D9000EDB210226A438918886003203449EDB2FD
:101DA00010226A4389188860162000F06EF831BD51
:101DB00010B52D4A126880231B0413432A4A13606E
:101DC0002A4A126802239A43284B1A60284AC0B252
:101DD00010234343D218926801239A43244BC0B284
:101DE000102444431B199A604A1E214BC0B2102490
:101DF00044431A511E4AC0B210234343D218D2683A
:101E0000012313431A4AC0B2102444431219D36069
:101E1000174AC0B210234343D218926801239A4351
:101E2000134BC0B2102444431B199A600122104B7B
:101E3000C0B2102444431B199A600D4AC0B210234B
:101E40004343D218D268D207F7D5094AC0B210234B
:101E50004343D218D26801231343054AC0B2102469
:101E600044431219D36010BD3C800440007003400D
:101E7000007103402848006804218843264908600F
:101E800030BF704725490860704770B50400212CA9
:101E900003DB234800F0D3FA15E022480568012649
:101EA00020002021FFF704F88E402E431D480660D5
:101EB0001D480568012620002021FEF7F9FF8E400D
:101EC0002E431948066070BDF8B507000E000024C7
:101ED0000025212F04DB154800F0B1FA0120040091
:101EE000042E04DB124800F0AAFA01200400E4B238
:101EF000012C0ED038000421FEF7DAFF05000D4852
:101F0000EDB204216943401800903000800100992F
:101F10000870F1BD0000000010ED00E008ED00E0E9
:101F20000C3E000080E200E000E100E0D03D000057
:101F3000903D000000E400E070B504000D001600C4
:101F40003068012802D0022805D00BE02000C0B282
:101F50007168884706E02000B1680870B068401CCE
:101F6000B060FFE72868401C286070BDFFB584B0F2
:101F70000020060004980500002028706D1C0698BB
:101F8000002825D00598006801900198002803D109
:101F900030202870761C3FE0019800283CD0019842
:101FA0000799FEF785FF039001980399079A51431B
:101FB000401A0700002F03D5F8430700313700E02F
:101FC000303703980190380028706D1C761CE3E7C9
:101FD0000598006800900098002803D130202870F0
:101FE000761C19E00098002816D000980799FEF793
:101FF00062FF029000980299079A5143401A040028
:102000000A2C01D2303400E03734029800902000CE
:1020100028706D1C761CE5E7300008B0F0BDF8B5FF
:1020200007000E0015003C00B44206DA009A2900B1
:102030003020FFF781FF641CF6E7F1BDF8B507001B
:102040000E0015003C00B44206DA009A2900202058
:10205000FFF772FF641CF6E7F1BDF3B595B014000D
:102060000020009016980500287802900298002819
:1020700000D1E1E10298252813D002980A2805D062
:10208000159A69460298FFF757FF09E0159A6946C5
:102090000D20FFF751FF159A69460A20FFF74CFF04
:1020A000C8E100200700002005900598002824D1F1
:1020B0006D1C2878202810D0232816D02B2808D073
:1020C0002D2802D030280CD013E038000127074318
:1020D000EBE7380002270743E7E738000427074308
:1020E000E3E7380008270743DFE7380010270743F6
:1020F000DBE76D1E01200590D7E70020019000204E
:1021000005900598002812D16D1C2878029002983D
:102110003038092807D801980A2148430299401805
:1021200030380190EDE76D1E01200590E9E76D1C48
:1021300028782E280ED100200590059800280AD175
:102140006D1C28783038092800D8F6E76D1E01206C
:102150000590F2E76D1E6D1C28784C2806D0682883
:1021600002D06C2801D002E002E001E000E06D1E28
:102170006D1C287802900298582872D0622800D1ED
:10218000CCE0632800D116E1642813D0692811D06F
:102190006E2800D142E16F2800D1B4E0702800D150
:1021A000C7E0732800D110E1752800D1CCE0782871
:1021B00057D03AE12068241D09900A23012209A979
:1021C0000CA8FFF7D3FE06000CA880190890099808
:1021D000002803D52D200490761C0DE0B80703D508
:1021E0002B200490761C07E0780703D5202004906C
:1021F000761C01E00020049000200690380712D5DC
:102200000498002804D0159A69460498FFF794FEB4
:1022100001200690159B6A4601993000FFF7FFFEEA
:102220000198060011E0F8070FD4159B6A46019942
:102230003000FFF703FF0498002804D0159A694680
:102240000498FFF779FE012006900698002807D130
:102250000498002804D0159A69460498FFF76CFE8C
:1022600092E02068241D03901023002203A90CA8EB
:10227000FFF77CFE06000CA880190890002006904D
:10228000380716D5F8060BD5159A69463020FFF7A2
:1022900053FE159A69467820FFF74EFE01200690FE
:1022A000159B6A4601993000FFF7B9FE01980600B8
:1022B00018E0F80716D4F80600D5B61C159B6A4638
:1022C00001993000FFF7BAFEF8060BD5159A69465A
:1022D0003020FFF731FE159A69467820FFF72CFE73
:1022E00001200690F8060DD5069800280AD1159A07
:1022F00069463020FFF720FE159A69467820FFF7DF
:102300001BFEB61C40E02068241D03900823002219
:1023100003A90CA8FFF72AFE06001FE02068241D71
:1023200003900223002203A90CA8FFF71FFE06005A
:1023300014E02068241D03901023002203A90CA898
:10234000FFF714FE060009E02068241D03900A230D
:10235000002203A90CA8FFF709FE06000CA88019AB
:102360000890380708D5159B6A4601993000FFF799
:1023700056FE0198060007E0F80705D4159B6A464B
:1023800001993000FFF75AFE08980078002809D01C
:10239000159A694608980078FFF7CEFD0898401E08
:1023A0000890F1E7F80705D5159B6A4601993000BA
:1023B000FFF744FE3EE02068241DC0B20A90159A43
:1023C00069460A98FFF7B8FD34E02068241D07909D
:1023D0000798002821D0079800F048F80600F80771
:1023E00005D4159B6A4601993000FFF727FE079830
:1023F0000078002809D0159A694607980078FFF7F9
:102400009BFD0798401C0790F1E7F80705D5159B41
:102410006A4601993000FFF711FE0BE02068241D89
:102420000B9000980B99086004E0159A6946029891
:10243000FFF782FD6D1C17E6009817B0F0BD0EB4D3
:102440007EB50500012000900748019007A806000E
:10245000320029006846FFF700FE0400200003B0A8
:10246000039970BC04B00847613F000000B501004B
:102470000A000023002A01D1002008E01000020019
:10248000521C0078002801D05B1CF7E7180000BD43
:10249000F6B50500009C002821D0009F002F1ED01B
:1024A000019F002F1BD0019FBF07BF0F3E00019F60
:1024B000BF1BBF083B001F007B1E002F04D02768F6
:1024C0002F60241D2D1DF6E72900220037007E1EF7
:1024D000002F04D017780F70521C491CF6E7F6BD88
:1024E00080B5012201218120FFF7C4FB01220121D7
:1024F0008220FFF7BFFB012201218320FFF7BAFBF7
:10250000012201218420FFF7B5FB01220121852052
:10251000FFF7B0FB01BD000000B50821914A126829
:10252000082313438F4A13608E4A126804239A4388
:102530008C4B1A600A00511ED2B2002A1DD002062E
:1025400006D5884A126802231343864A136005E0C1
:10255000844A126802239A43824B1A60814A1268A5
:10256000042313437F4A136000BF7E4A126804238A
:102570009A437C4B1A604000DCE700BD00B508219F
:10258000784A126808239A43764B1A60754A126893
:1025900004239A43734B1A600A00511ED2B2002AD8
:1025A0001DD0020606D56F4A1268022313436D4AF6
:1025B000136005E06B4A126802239A43694B1A6064
:1025C000684A126804231343664A136000BF654AD1
:1025D000126804239A43634B1A604000DCE700BD95
:1025E00038B505000C0020005038C0B2FFF7C6FF18
:1025F0002900C9B2090910200843C0B2FFF7BEFF85
:102600002907090F01200843C0B2FFF7B7FF31BD0A
:1026100070B5040000200500EDB2082D17DA28007F
:102620005038C0B2FFF7AAFF0120FFF7A7FF102024
:10263000FFF7A4FF00200600F6B2802E05DA200086
:10264000C0B2FFF769FF761CF6E76D1CE4E770BDCA
:1026500000B580B2002809D0FA22920111000A00C8
:10266000511E92B2002AFAD1401EF2E700BD80B599
:10267000FFF736FF3B4800680421014339480160F9
:10268000384800681021884336490860354800689A
:1026900020218843334908603220FFF7D9FF3148B1
:1026A0000068202101432F480160AE20FFF766FF3C
:1026B0000020FFF763FF1020FFF760FF4020FFF7C7
:1026C0005DFF8120FFF75AFFCF20FFF757FFA120C2
:1026D000FFF754FFC820FFF751FFA620FFF74EFF7A
:1026E000A820FFF74BFF3F20FFF748FFD320FFF75D
:1026F00045FF0020FFF742FFD520FFF73FFF802076
:10270000FFF73CFFD920FFF739FFF120FFF736FF35
:10271000DA20FFF733FF1220FFF730FFDB20FFF74F
:102720002DFF4020FFF72AFF2020FFF727FF022080
:10273000FFF724FF8D20FFF721FF1420FFF71EFF76
:10274000A420FFF71BFFA620FFF718FFAF20FFF71D
:1027500015FF0020FFF75CFF00210020FFF740FF7E
:1027600001BD000000F10F40F7B51F000024FFB2CB
:1027700038000821FEF79CFB002906D1FFB2380083
:102780000821FEF795FB060006E0FFB2380008219D
:10279000FEF78EFB401C0600684600790600FFB27B
:1027A000F6B2B74217D33100C9B268460078FFF7D6
:1027B00017FF6846007805006846007AEDB285424A
:1027C00007D20898A4B2005DFFF7A6FE641C6D1C3A
:1027D000F2E7761CE3E7F7BD38B50025FB210020C2
:1027E00000F059FA6D21002000F055FA2521002053
:1027F00000F051FA6D1F6D35253500200400AB48FF
:102800000078E4B284420BD2A748E4B2015D002014
:1028100000F041FAA448E4B2005D2D18641CEEE714
:102820002900C9B2002000F036FA31BDF8B5002009
:1028300000F01AFA9E4908719D480068642800DB80
:10284000F4E09B4800799A49994A1268891888717E
:1028500097480068401C96490860954800682928F8
:1028600000DA93E0924892490968401823380078CA
:10287000FF2800D08AE08E488D4909684018223828
:102880000078552800D081E08948894909684018B6
:1028900021380078AA2879D18548854909684018E7
:1028A00020380078102871D10020824908708048B3
:1028B0000068293805002C007D480068401E8442CD
:1028C00009DA7C4800787A490919897940187949E8
:1028D0000870641CF0E7774800787549744A1268FC
:1028E0008918497988424DD100200400092C47DA23
:1028F0006F480421614369184018807A8021490497
:1029000048436B4904226243AA188918C97A802275
:10291000520251434018664904226243AA1889189A
:10292000097B8022520051434018614904226243CE
:10293000AA188918497B40180600802000068642A4
:1029400003D35D48801B070000E037003800FEF726
:1029500009FB5A4A08236343D21803C2083A57486E
:1029600008216143401803C80022554BFEF7D4FBF1
:10297000524A08236343D21803C2083A641CB5E7DD
:1029800000F058F800204A49086052E048480068C2
:1029900007284EDB4648464909684018401E007823
:1029A000FF2846D1424842490968405C552840D139
:1029B0003F483F49096840184078AA2839D13C4827
:1029C0003B49096840188078772832D1002039497E
:1029D000087037480068C01F05002C0034480068A4
:1029E000401E844209DA334800783149091989794F
:1029F000401830490870641CF0E72E4800782C49D4
:102A00002B4A12688918497988420BD128482849ED
:102A10000968401801792648254A12688018C0784C
:102A200000F00DF800202249086002E00020204953
:102A30000860F1BD80B50220FEF746FF01BD38B544
:102A400005000C00E4B22000062816D0072815D097
:102A5000082814D0092813D00A2812D00B2811D026
:102A60000C2810D064280FD065280ED0662810D00E
:102A700067280FD068280ED010E00FE00EE00DE0C0
:102A80000CE00BE00AE009E008E000200D490870C6
:102A900004E003E002E001200A4908700220FEF78A
:102AA00013FF31BD00000000C0F4FF1FC5F0FF1F81
:102AB00010F5FF1F7BF5FF1FFFFFFF7F18F3FF1FC0
:102AC0000000F040C8F5FF1FF0B583B006000F000E
:102AD0007C4C7D48F6B2042171434018001F006809
:102AE0000500F6B2002E64D1784800688021C90044
:102AF000014376480160C02189006620FEF7F2FE9E
:102B0000C02189006720FEF7EDFE71480068802132
:102B1000C90401436E4801606D4800688021490284
:102B200001436B480160E078F3210140E1706846A1
:102B3000684909684908818068468188FA208000D0
:102B4000484310217943FEF7B6F969460880684684
:102B50002178E0220A4082706846807869460988B8
:102B600089B2090AC906C90E014321706846008866
:102B700060700F20674908700020674908700020C6
:102B80006649087000206649087000206549087091
:102B9000654800781F21014363480170634800784D
:102BA000C021014361480170E0780C210143E170CC
:102BB00059E0F6B23000012802D0022812D023E0FA
:102BC0004248006880210901014340480160C0215A
:102BD00089004320FEF786FEC02189004420FEF7CD
:102BE00081FE11E0394800688021490101433748DE
:102BF0000160C02189006420FEF774FEC0218900B5
:102C00006520FEF76FFEFFE7E878F3210140E970E9
:102C10000020A87046480068FA2189004843102126
:102C20007943FEF748F96946088068462978E0222A
:102C30000A408270684680786946098889B2090A24
:102C4000C906C90E014329706846008868700020D3
:102C5000A8700020A8711F20287100206871E878F2
:102C60000C210143E970F7BD00B50100154A164873
:102C7000C9B204234B43C018001F0368C9B200291E
:102C800004D110798006FCD5D07903E0187980064C
:102C9000FCD5D87900BD10B50A4A0B4BC0B204244C
:102CA00044431B191B1F1B68C0B2002804D11479B0
:102CB0002406FCD5D17103E01C792406FCD5D9711A
:102CC00010BD000000A006407C3F0000348004409E
:102CD00004800440B8F5FF1F70B50400154D164878
:102CE000E4B2042161434018001F0668E4B2002CDE
:102CF00004D1E87820210143E97003E0F078202135
:102D00000143F170E4B220000C30FFF7BEF870BD53
:102D1000000000000AA0064002A0064006A00640EF
:102D200008A0064009A0064004A0064005A00640F1
:102D3000C0F5FF1F00A006407C3F000038B504002E
:102D4000E4B2002C00D1D6E0E4B22000302820D03C
:102D5000322825D050282AD060282FD0642834D09B
:102D60006E2839D078283ED07D2843D0822848D09C
:102D70008C284DD0962852D0A02857D0AA285CD0B5
:102D8000B42861D0C82866D0E1286BD0FA2870D06A
:102D900076E018208449087000208349487073E069
:102DA00018208149087001207F4948706CE0182084
:102DB0007D49087010207C49487065E018207A49E8
:102DC00008701820784948705EE01820764908702D
:102DD0001A207549487057E01820734908701F2061
:102DE0007149487050E013206F49087018206E49EF
:102DF000487049E013206C4908701A206A494870ED
:102E000042E01320684908701C20674948703BE085
:102E10000E206549087012206349487034E00E2086
:102E2000614908701520604948702DE00E205E4908
:102E3000087018205C49487026E00E205A49087036
:102E40001B20594948701FE00E20574908701E206A
:102E50005549487018E00C20534908701C2052490D
:102E6000487011E00B20504908701E204E494870F0
:102E70000AE00A204C4908701F204B49487003E0C3
:102E80006420FFF75BFF8EE0002047498870E4B2C2
:102E90001F2C03DA0020444948712CE0E4B23D2C99
:102EA00003DA01204049487125E0E4B25B2C03DAE3
:102EB00002203D4948711EE0E4B2792C03DA032078
:102EC0003949487117E0E4B2972C03DA04203649F7
:102ED000487110E0E4B2B52C03DA0520324948719C
:102EE00009E0E4B2D32C03DA06202F49487102E04E
:102EF00007202D4948712C484178183189B2322079
:102F0000484329490978491C89B2FDF7D1FF0500DA
:102F10002C2026490870B8202549087025480078DB
:102F20008007FBD523480078C006FBD421480078F1
:102F3000C0B280088007800F0228F7D11A480078B5
:102F4000C006C00E1C49087000201C4908701648B5
:102F500080780007144949790904E022D2020A4026
:102F600002431748026010484078C006C00E402156
:102F70000143124801700F4800788006FBD50D48C8
:102F800000784006FBD50A4800788006800E084984
:102F9000087008480078C0B280088007800F0328B6
:102FA000F7D12800C0B232BDF0F0FF1F014006404B
:102FB00000400640064006400440064005400640EA
:102FC0004480044038B504000D00E4B2002C03D066
:102FD000022C55D039D36EE089480068802149041D
:102FE000014387480160EDB2002D08D0022D12D0B8
:102FF0000BD3042D1BD014D3052D1ED023E080212C
:10300000C9004120FEF76EFC1EE08021C90042206D
:10301000FEF768FC18E08021C9004320FEF762FC3F
:1030200012E08021C9004420FEF75CFC0CE0C021C6
:1030300089004820FEF756FC06E0C021890049209F
:10304000FEF750FC00E036E035E06D480068802176
:10305000890401436A480160EDB2002D02D0012DC0
:1030600006D00BE0C02189000C20FEF73BFC06E0F7
:10307000C02189000D20FEF735FC00E01BE01AE0BE
:103080005F4800688021C90401435D480160EDB2DA
:10309000002D02D0012D06D00BE0C0218900322086
:1030A000FEF720FC06E0C02189003320FEF71AFC61
:1030B00000E000E0FFE731BDFCB583B006000F0083
:1030C0003900C9B23000C0B2FFF77CFF4D4800683C
:1030D0004D494843400801900198000C0399FDF7C1
:1030E000EAFE040000200500A4B2200028410128C7
:1030F00001DB6D1CF8E70198E8400399FDF7DBFE62
:103100000400F6B2002E03D0022E18D00CD321E01A
:103110000498A4B22100491C4843FA218900FDF714
:10312000CAFE6946088015E00498A4B22100491C33
:1031300048436421FDF7BFFE694608800AE0049811
:10314000A4B22100491C48436421FDF7B4FE69463E
:103150000880FFE72D48F6B2042171434058FFB2C2
:103160000821794340182949F6B20422724389584C
:10317000FFB208227A438918C96804229143C160CA
:103180002248F6B2042171434058FFB20821794326
:1031900040182821C1601E4800681E4901401C4893
:1031A00001601B4800688021490401431848016000
:1031B000EDB26907490F082008431449F6B204220A
:1031C000724389580860A4B21048F6B204217143D2
:1031D000405884600D48F6B2042171434058FFB254
:1031E0000821794340186946098801610020074990
:1031F000F6B2042272438958486005B0F0BD000061
:103200003C800440BCF5FF1F40420F0008F3FF1F45
:1032100004800440FFFFFFFC00B0034004500000A6
:103220000090044000A0044000B0044000C00440EE
:1032300000D0044000F00F4040F00F4080F00F40FD
:10324000C0F00F4000F10F400B1F0000000900000C
:1032500000000000000000000000000000000080EE
:10326000C0E06070303838181C0C0C0C0C040404DE
:10327000040C0C0C081838307060C0C080000000CE
:10328000000000000000000000000000000000003E
:10329000000000000000000000000000C0701C06DC
:1032A0000703010000000000000000000000000013
:1032B0000000000000000000000000000001030703
:1032C0000F0E183070E0C080808000000000000009
:1032D0000000000000000080C0E030180E03010074
:1032E00000000000000000000000000000000000DE
:1032F00000000000000000000000000000000000CE
:1033000000000000000000000001010303030206AA
:10331000040C18F0C0F0FCFE0F03010000000000D8
:10332000000000000000000000000000000000009D
:10333000000000008080C0C0E0E0E0E0F0F07070CD
:10334000783C3C3C1C1E0E1E38F8F8F87E7E9E161B
:1033500026EEFEFEFEFF7FFF1D71C0800000000014
:1033600000E0F8FC0E0F0E0E0E0C0C0C0C0E0E0EE8
:10337000060676FFFFFF7303030301010140C080CF
:103380008080C0806000001E1F1F1F0E03070E1EDE
:103390003E7FCF8F07070301003F000000010103BC
:1033A000030206FF83000000000000000000000090
:1033B000000000000000000000000000000000000D
:1033C00000010100000000000000000000000000FB
:1033D000000000000003FEF80000000000000000F4
:1033E0000000000000071F78E080000000000000DF
:1033F00000000000000000000000000000000000CD
:1034000000000000000000000000000000000000BC
:103410000000000080C060381F07000000000000AE
:1034200000000000000000000000000103060C186E
:10343000183020606040C0C0C08080808080808064
:103440008080808080C0C0C04040606020203010FC
:1034500018080C0406030100000000000000000032
:10346000008003400090034000A0034000B55A488C
:103470000078800606D55848007820210143564838
:10348000017014E054480078C00606D55248007810
:10349000102101435048017009E04F480078400670
:1034A00005D54D480078402101434B48017000BDCF
:1034B00000B5002072B64849097880220A4346497F
:1034C0000A70454909780906FBD5434909788906F8
:1034D00009D54149097820220A433F490A70010071
:1034E0000120084322E03C490978C90609D53A4938
:1034F000097810220A4338490A7001000220084363
:1035000014E035490978490609D53349097840223C
:103510000A4331490A7001000820084306E02E4999
:103520000978C90702D501000420084362B6C0B279
:1035300000BD10B50400284800780006FBD509201E
:10354000264908702000000C254908702000000A58
:1035500024490870200024490870FFF7A9FF10BD16
:10356000F4B505000C0000270098002801D11120B7
:1035700030E00098401E8008401C06001648007885
:103580000006FBD5002E23D0FFB2002F20D106204D
:10359000124908702800000C114908702800000A20
:1035A00010490870280010490870E0780F49087029
:1035B000A0780F49087060780E49087020780E498D
:1035C0000870FFF775FF0700761E241D2D1DD9E733
:1035D0003800C0B2F2BD0000000002400700024007
:1035E0000600024005000240040002400B000240B9
:1035F0000A000240090002400800024070B50600BF
:103600000C0015002800451E80B2002806D0ADB27F
:103610002A0031002000FEF73BFFF3E7012070BDD8
:103620000122D20703004B402ED4431A01D2C01A04
:10363000C91830B44B180418240E1B0E22D0FF2CCE
:1036400020D0E31A182B1DDC09021143C40D641E9F
:103650000002104394461925ED1A0A00AA40D940E9
:10366000451801D36D08A41CE405D209280A2D06CB
:103670002A436546AA41604103181B0EFF2B01D364
:10368000C00DC00530BC7047514006E05140CCE74A
:103690000122D20703004B40F8D4431A03D2C01AC8
:1036A000C9185040514030B44B1809021143041856
:1036B000240E1B0E40D0FF2C3AD025009D410BD389
:1036C0001ED8C50D4002401A0BD3ED050100400A7B
:1036D000C90591416841D5E7C50D40024918401A16
:1036E000D0D001214008491C0018FCD58C4204D3DD
:1036F0006D1A000AED054019C4E7E8051040C1E75E
:10370000182DBFDCAC1C0D00E140E5414D40012D02
:103710004941C40D00021043451A01D46D19954367
:10372000641EE405280A2D069541604130BC7047AF
:10373000FF2BA7D1D843A5E72442A3D10020A1E7BE
:1037400080B5FDF761FE354800680121014333482B
:103750000160334800680821884331490860E1214D
:1037600049020020FFF7B0F900232E4A0021002073
:10377000FFF7A2FC00232B4A01210020FFF79CFC4D
:103780000023284A02210020FFF796FC0023254A47
:1037900003210020FFF790FCFEF769FF224800900C
:1037A0000723422200210020FEF7DEFF0920FDF75B
:1037B0007BF90C20FDF778F9012201219820FEF712
:1037C00059FA012201219920FEF754FAFDF764FA13
:1037D000FDF7CBFAFFF74AFE00F02AF8134801681C
:1037E0000A2041430020FEF7A9FA0020FFF774FAEF
:1037F00000210C20FEF768FB01211620FEF764FB78
:1038000006480068012188430449086004480068AC
:10381000082101430248016001BD00BF00F10F40D3
:10382000C0F00F4010270000F8F0FF1FC0F5FF1F89
:1038300080B5012200214720FEF71CFA0122002159
:103840004820FEF717FA012200214920FEF712FA5C
:10385000012200214A20FEF70DFA012200214B200F
:10386000FEF708FAFF20001D23498968C861FF2080
:10387000001D214989680862FF20001D1E498968D2
:103880004862FF20001D1C4989688862FF20001DD6
:1038900019498968C86201BD00B51848006801006F
:1038A0000906C90F002901D1012024E0134800684E
:1038B0000100C905C90F002901D104201BE00F48F0
:1038C000006801008905C90F002901D1032012E019
:1038D0000A48006801004905C90F002901D10220EA
:1038E00009E00648006801000905C90F002901D157
:1038F000052000E0002000BDC8F0FF1F90F00F4041
:10390000F0B583B02248234988420DD0002004003E
:10391000C02C09D21F480421614340581C4904228D
:1039200062438850641CF3E71948FEF7ABFA1A4863
:1039300007001A4805001A4801900198401B04002E
:103940002000441E002804D0287838706D1C7F1C8D
:10395000F6E714480600144800900098801B040005
:103960002000441E002803D000203070761CF7E7AA
:103970000E480F490F4A531A1C0023005C1E002BEF
:1039800004D00B780370491C401CF6E7F7BD00BF5C
:1039900000F0FF1F00000000C0F0FF1F1832000001
:1039A0006C34000018F3FF1FCAF5FF1FCAF5FF1F94
:1039B000843F0000843F000030B405004D400122E8
:1039C000D20715404B180418240E30D01B0E34D0EB
:1039D000FF2C36D0FF2B3CD0E41800020902104324
:1039E0001143000A090A9446C2B24A43000AC3B20C
:1039F0004B43000A4843110A5B18190A12061B0CB4
:103A00001A43120A091801D44918641E080A7F3C97
:103A100023DBFE2C08DAE4050906114363469941CD
:103A20006041284330BC7047FF20C005F9E72800FB
:103A30001B0EFF2BF6D1D043F4E72800FF2CF1D169
:103A4000F9E74002F7D1FF2B01D14902F3D1E0059C
:103A5000E7E7D8054902E4D0EDE743020020641C03
:103A6000DFD15B129B1CDCD9D805DAE780B572B6D2
:103A7000FFF766FE00F04EF894208000144908809D
:103A80008E20800013490880134814490880144888
:103A900014490880144815490880154815490880BC
:103AA00015481649C8601648144908611548134955
:103AB000486115481549486013481549086062B6C1
:103AC000FDF7AEFCFEF788FEFEF7D4F9F8E700BF7D
:103AD000A2F4FF1FA4F4FF1F42020000A6F4FF1F80
:103AE000CDFDFFFFA8F4FF1FBCFDFFFFAAF4FF1FE1
:103AF000C4FDFFFFACF4FF1F7BFCFFFF60F4FF1F62
:103B0000AEFCFFFF93FAFFFF0000E04060F3FF1FF1
:103B1000E4F3FF1F80B5FFF7BFFE022802D100F0DB
:103B200012F801E000F036F801BD80B5C82040026F
:103B3000FFF7FFFC01BD80B514221449C8204002E4
:103B4000FFF75CFD01BD10B50024FFF7EEFF104844
:103B50000168FA20800041430120FEF729F9002086
:103B60000400E4B20A2C07DAE4B20848E4B2042103
:103B700061434450641CF4E728220449C8204002F1
:103B8000FFF7EEFC0020FDF79FFE10BD90F5FF1F34
:103B9000C0F5FF1F80B5FFF7CEFF0120FDF794FEB3
:103BA00001BD000080B51C48C06A1C4900F03EF809
:103BB00002D81B481849C8621A480068174900F023
:103BC00035F802D81648174908601348C06A002122
:103BD00000F040F802D200200F49C8621148006886
:103BE000002100F037F802D200200E4908600A4890
:103BF000C06A00F043F803000B4A00210020FFF7E1
:103C00005BFA0848006800F039F80300064A03210F
:103C10000020FFF751FA01BD60F3FF1F01007A4455
:103C200000007A440CF4FF1F102700000CB401229E
:103C300012060318DA4207D84B18DA4204D80200F9
:103C40000A43921802D281420CBC7047FCD08842D1
:103C50000CBC70470CB4012212060318DA4207D8D4
:103C60004B18DA4204D802000A43921802D2884262
:103C70000CBC7047FCD08142FAE7000000180ED25D
:103C8000010E7F390BD449421F3105D4C0010122F6
:103C9000D2071043C84070470020401E70470020E4
:103CA0007047000080B50F485221405E00F02AF8AE
:103CB0000D494968FFF780FE0C49FFF7B1FC0A493E
:103CC000C86208485221405E00F01CF808490968A3
:103CD000FFF772FE01000548FFF7DAFC05490860AE
:103CE00001BD000060F4FF1F60F3FF1F00002F44C0
:103CF000E4F3FF1F0CF4FF1F80B5FFF7D3FFFFF7BE
:103D000051FF01BD9D21020008D5F446524200F04A
:103D100005F80122D2071043604700000AD002D400
:103D2000491E9218FCD5C905100A1206524100D34B
:103D3000012A48417047000080B510480068F8210A
:103D4000890101430D4801603020FEF7F7FF0C495F
:103D500008600B480068FA21890048430949086057
:103D60000848006808490968090C4907490F491CB7
:103D7000FDF7A1F80549086001BD00BF3880044087
:103D8000BCF5FF1FB8F5FF1F44800440C0F5FF1FBE
:103D90000A4552522120496E76616C696420707226
:103DA000696F726974792076616C756520706173D2
:103DB00073656420746F207072696F726974792002
:103DC0006972712066756E6374696F6E210A0000F6
:103DD0000A4552522120496E76616C69642049522D
:103DE000512076616C756520706173736564207411
:103DF0006F207072696F72697479206972712066C0
:103E0000756E6374696F6E210A0000000A45525294
:103E10002120496E76616C69642049525120766197
:103E20006C75652070617373656420746F20656EB6
:103E300061626C65206972712066756E6374696F6A
:103E40006E210A000A2A2A2A2A64656661756C7442
:103E50005F69737220656E7465726564206F6E2091
:103E6000766563746F722025642A2A2A2A2A0D0A2D
:103E70000A00000080B50848006801210143064897
:103E8000016006480088401C04490880FCF7C0FA1D
:103E9000FFF732FF01BD00BF0C710340C4F5FF1FE7
:103EA00010B5074979441831064C7C44163404E0B7
:103EB000081D0A68891888470100A142F8D110BD81
:103EC000080000001400000013D3FFFFB40200003C
:103ED00018F3FF1F0000000080B5002004490860AF
:103EE000FFF70EFDFFF728FFFFF7C0FDFEE700BF5D
:103EF000008104400120C046002801D0FFF7D0FF18
:103F00000020C046C046FFF7B1FD00F000F880B5C4
:103F100000F002F801BD00000746384600F002F844
:103F2000FBE700002021090326311820ABBEF9E78A
:103F30000020002100220023002400250026002765
:103F400062B6FFF7C9FFFEE780B503480168034882
:103F5000FEF775FA01BD000004ED00E0443E0000EC
:103F600010B504002100C9B20020FEF794FE10BD78
:103F7000C046C046C046C046FFF7BCFF00B0064082
:043F800000C0064037
:0400000500003F7147
:00000001FF
