:1000000030F8FF1F252D00003D2D00003D2D000084
:100010003D2D00003D2D00003D2D00003D2D000038
:100020003D2D00003D2D00003D2D00003D2D000028
:100030003D2D00003D2D00003D2D00003D2D000018
:100040003D2D00003D2D00003D2D00003D2D000008
:100050003D2D00003D2D00003D2D00003D2D0000F8
:100060003D2D00003D2D00003D2D00003D2D0000E8
:10007000A50F00003D2D00003D2D00003D2D00008E
:100080003D2D00003D2D00003D2D00003D2D0000C8
:100090003D2D00003D2D0000512C00003D2D0000A5
:1000A0003D2D00003D2D00003D2D00003D2D0000A8
:1000B0003D2D00003D2D00003D2D00003D2D000098
:1004100070B504000D0016003068012802D00228D3
:1004200005D00BE02000C0B27168884706E02000CC
:10043000B1680870B068401CB060FFE72868401CD5
:10044000286070BDFFB584B0002006000498050048
:10045000002028706D1C0698002825D0059800689B
:1004600001900198002803D130202870761C3FE0CD
:10047000019800283CD00198079900F079FA039080
:1004800001980399079A5143401A0700002F03D59A
:10049000F8430700313700E0303703980190380007
:1004A00028706D1C761CE3E70598006800900098A2
:1004B000002803D130202870761C19E0009800280D
:1004C00016D00098079900F056FA02900098029909
:1004D000079A5143401A04000A2C01D2303400E03C
:1004E000373402980090200028706D1C761CE5E7D8
:1004F000300008B0F0BDF8B507000E0015003C0054
:10050000B44206DA009A29003020FFF781FF641C0C
:10051000F6E7F1BDF8B507000E0015003C00B44247
:1005200006DA009A29002020FFF772FF641CF6E724
:10053000F1BDF3B595B014000020009016980500A9
:10054000287802900298002800D1E1E1029825283D
:1005500013D002980A2805D0159A69460298FFF729
:1005600057FF09E0159A69460D20FFF751FF159ACC
:1005700069460A20FFF74CFFC8E100200700002071
:1005800005900598002824D16D1C2878202810D0CB
:10059000232816D02B2808D02D2802D030280CD0A4
:1005A00013E0380001270743EBE738000227074331
:1005B000E7E7380004270743E3E738000827074345
:1005C000DFE7380010270743DBE76D1E01200590A9
:1005D000D7E700200190002005900598002812D14F
:1005E0006D1C2878029002983038092807D80198A5
:1005F0000A2148430299401830380190EDE76D1EFA
:1006000001200590E9E76D1C28782E280ED10020E6
:100610000590059800280AD16D1C287830380928E3
:1006200000D8F6E76D1E01200590F2E76D1E6D1CE7
:1006300028784C2806D0682802D06C2801D002E027
:1006400002E001E000E06D1E6D1C28780290029827
:10065000582872D0622800D1CCE0632800D116E17E
:10066000642813D0692811D06E2800D142E16F2888
:1006700000D1B4E0702800D1C7E0732800D110E1A8
:10068000752800D1CCE0782857D03AE12068241DA5
:1006900009900A23012209A90CA8FFF7D3FE06003E
:1006A0000CA8801908900998002803D52D200490E3
:1006B000761C0DE0B80703D52B200490761C07E0CC
:1006C000780703D520200490761C01E000200490D8
:1006D00000200690380712D50498002804D0159AF7
:1006E00069460498FFF794FE01200690159B6A4620
:1006F00001993000FFF7FFFE0198060011E0F807AE
:100700000FD4159B6A4601993000FFF703FF049848
:10071000002804D0159A69460498FFF779FE012055
:1007200006900698002807D10498002804D0159A4E
:1007300069460498FFF76CFE92E02068241D039040
:100740001023002203A90CA8FFF77CFE06000CA8CA
:100750008019089000200690380716D5F8060BD5AA
:10076000159A69463020FFF753FE159A694678209E
:10077000FFF74EFE01200690159B6A460199300056
:10078000FFF7B9FE0198060018E0F80716D4F8063E
:1007900000D5B61C159B6A4601993000FFF7BAFEDA
:1007A000F8060BD5159A69463020FFF731FE159AE9
:1007B00069467820FFF72CFE01200690F8060DD53B
:1007C000069800280AD1159A69463020FFF720FEC6
:1007D000159A69467820FFF71BFEB61C40E020689A
:1007E000241D03900823002203A90CA8FFF72AFE6A
:1007F00006001FE02068241D03900223002203A9A5
:100800000CA8FFF71FFE060014E02068241D0390CB
:100810001023002203A90CA8FFF714FE060009E02C
:100820002068241D03900A23002203A90CA8FFF7C7
:1008300009FE06000CA880190890380708D5159BFA
:100840006A4601993000FFF756FE0198060007E05E
:10085000F80705D4159B6A4601993000FFF75AFE48
:1008600008980078002809D0159A694608980078F9
:10087000FFF7CEFD0898401E0890F1E7F80705D570
:10088000159B6A4601993000FFF744FE3EE0206860
:10089000241DC0B20A90159A69460A98FFF7B8FD60
:1008A00034E02068241D07900798002821D007987D
:1008B00000F0B8F80600F80705D4159B6A460199C0
:1008C0003000FFF727FE07980078002809D0159A16
:1008D000694607980078FFF79BFD0798401C079032
:1008E000F1E7F80705D5159B6A4601993000FFF737
:1008F00011FE0BE02068241D0B9000980B990860F6
:1009000004E0159A69460298FFF782FD6D1C17E610
:10091000009817B0F0BD0EB47EB505000120009020
:100920000748019007A80600320029006846FFF733
:1009300000FE0400200003B0039970BC04B0084717
:10094000552D0000F446002804D4494200F013F865
:10095000404260474042002905D45FD000F00BF8C8
:10096000404249426047494200F005F84942604729
:1009700003460B43E6D40022030A8B420BD2030941
:100980008B4219D243088B422ED2411A00D2014623
:10099000524110467047FF2209023FD012068B4297
:1009A00005D3121209028B4201D312120902030964
:1009B0008B4219D300E0090AC3098B4201D3CB0152
:1009C000C01A524183098B4201D38B01C01A524194
:1009D00043098B4201D34B01C01A524103098B4298
:1009E00001D30B01C01A5241C3088B4201D3CB0083
:1009F000C01A524183088B4201D38B00C01A524166
:100A000043088B4201D34B00C01A5241884200D3A5
:100A1000401A5241CFD201461046704708B5C04631
:100A2000C04608BD00B501000A000023002A01D11C
:100A3000002008E010000200521C0078002801D0BD
:100A40005B1CF7E7180000BD80B500220121632080
:100A500000F01AFA00220121802000F015FA01BDF1
:100A600080B598480078002806D002280AD006D31E
:100A700004280AD00CD30DE000F00DF80AE000F0D5
:100A800092F807E000F024F904E000F089F901E0B1
:100A900000F0EFF801BD00B58B4800880A280CDA99
:100AA0008A4800680121014388480160BB4800680A
:100AB00008218843B949086074E0834800881528F4
:100AC0000CDA824800680121884380490860B348F5
:100AD000006808210143B148016063E07A4800885A
:100AE0001F280CDA7948006801210143774801602A
:100AF000AA48006808218843A849086052E0724863
:100B0000008829280CDA71480068012188436F4960
:100B10000860A248006808210143A048016041E044
:100B20006948008833280CDA6848006801210143CD
:100B30006648016099480068082188439749086021
:100B400030E06148008865280CDA604800680121BF
:100B500088435E49086091480068082101438F4836
:100B600001601FE05848008897280CDA5748006851
:100B700001210143554801608848006808218843E5
:100B8000864908600EE051480068012188434F49BA
:100B90000860824800680821014380480160032002
:100BA0004849087000BD00B54748008805280CDAA0
:100BB00046480068012101434448016077480068C5
:100BC000082188437549086052E03F4800880B2897
:100BD0000CDA3E480068012188433C4908606F48B0
:100BE0000068082101436D48016041E036480088F3
:100BF0000F280CDA354800680121014333480160B1
:100C000066480068082188436449086030E02E483F
:100C1000008815280CDA2D480068012188432B49EB
:100C200008605E480068082101435C4801601FE0DD
:100C30002548008819280CDA24480068012101435E
:100C400022480160554800680821884353490860DC
:100C50000EE01E480068012188431C4908604F4887
:100C60000068082101434D480160032015490870C0
:100C700000BD00B5804800880A280CDA13480068D7
:100C8000012101431148016044480068082188435C
:100C90004249086015E078480088FF21F631884213
:100CA0000CDA0A48006801218843084908603B487B
:100CB0000068082101433948016002E000206E49C4
:100CC000088000BDC0F0FF1F2CF4FF1F00F10F4093
:100CD00000B56948008832280CDA684800680121AC
:100CE0000143664801602D480068082188432B496C
:100CF000086052E06048008865280CDA5F480068A8
:100D0000012188435D4908602448006808210143A7
:100D10002248016041E05848008896280CDA57487C
:100D2000006801210143554801601C480068082102
:100D300088431A49086030E04F480088C9280CDA17
:100D40004E480068012188434C49086013480068F8
:100D500008210143114801601FE047480088FA2834
:100D60000CDA4648006801210143444801600B4801
:100D7000006808218843094908600EE03F48006880
:100D8000012188433D490860044800680821014367
:100D90000248016003203A49087000BDC0F00F40CE
:100DA00000B53548008803280CDA34480068012172
:100DB00001433248016033480068082188433149C3
:100DC000086052E02C48008807280CDA2B4800689D
:100DD00001218843294908602A4800680821014305
:100DE0002848016041E02448008809280CDA23489B
:100DF0000068012101432148016022480068082160
:100E000088432049086030E01B4800880D280CDA30
:100E10001A48006801218843184908601948006889
:100E200008210143174801601FE01348008811287A
:100E30000CDA124800680121014310480160114892
:100E40000068082188430F4908600EE00B480068DD
:100E500001218843094908600A48006808210143C4
:100E60000848016003200649087000BD0021024ABD
:100E700011800349087070472CF4FF1F00F10F40E8
:100E8000C0F0FF1FC0F00F4070B504000D00160049
:100E90002D48E4B221004911042251434058E4B2E4
:100EA000E106C90E04225143802252004250EDB2A5
:100EB000012D1BD12548E4B22100491104225143E0
:100EC00040582249E4B22200521104235A4389585F
:100ED00049690122E306DB0E9A400A434261310070
:100EE000C9B22000C0B200F017F814E01748E4B20D
:100EF000210049110422514340581449E4B2220010
:100F0000521104235A43895849690122E306DB0E32
:100F10009A409143416170BD30B40C4AC0B20300A5
:100F20005B1104246343D25813680122C406E40E03
:100F3000A2401A43054BC0B20400641104256C435F
:100F40001B591A6030BC7047C4F0FF1FD8F0FF1F58
:100F500038B50025FB21002000F059FA6D21002052
:100F600000F055FA2521002000F051FA6D1F6D3573
:100F7000253500200400AB480078E4B284420BD24F
:100F8000A748E4B2015D002000F041FAA448E4B2B1
:100F9000005D2D18641CEEE72900C9B2002000F0A6
:100FA00036FA31BDF8B5002000F01AFA9E490871F2
:100FB0009D480068642800DBF4E09B4800799A496A
:100FC000994A12688918887197480068401C9649A8
:100FD000086095480068292800DA93E09248924911
:100FE0000968401823380078FF2800D08AE08E482E
:100FF0008D490968401822380078552800D081E0D2
:10100000894889490968401821380078AA2879D187
:10101000854885490968401820380078102871D122
:1010200000208249087080480068293805002C009B
:101030007D480068401E844209DA7C4800787A497D
:1010400009198979401879490870641CF0E77748D4
:1010500000787549744A12688918497988424DD1D7
:1010600000200400092C47DA6F4804216143691805
:101070004018807A8021490448436B490422624326
:10108000AA188918C97A8022520251434018664929
:1010900004226243AA188918097B80225200514316
:1010A0004018614904226243AA188918497B4018F4
:1010B000060080200006864203D35D48801B07009F
:1010C00000E03700380000F0F5F95A4A082363437E
:1010D000D21803C2083A574808216143401803C890
:1010E0000022554B00F0FEF9524A08236343D21800
:1010F00003C2083A641CB5E700F058F800204A49DA
:10110000086052E04848006807284EDB46484649D8
:1011100009684018401E0078FF2846D142484249DD
:101120000968405C552840D13F483F49096840184C
:101130004078AA2839D13C483B4909684018807852
:10114000772832D100203949087037480068C01F1D
:1011500005002C0034480068401E844209DA3348F8
:101160000078314909198979401830490870641CA0
:10117000F0E72E4800782C492B4A126889184979E3
:1011800088420BD128482849096840180179264827
:10119000254A12688018C07800F00DF80020224916
:1011A000086002E0002020490860F1BD80B5012000
:1011B000FFF75CFE01BD38B505000C00E4B220006D
:1011C000062816D0072815D0082814D0092813D0CF
:1011D0000A2812D00B2811D00C2810D064280FD068
:1011E00065280ED0662810D067280FD068280ED04A
:1011F00010E00FE00EE00DE00CE00BE00AE009E08B
:1012000008E000200D49087004E003E002E001203E
:101210000A4908700120FFF729FE31BD00000000D7
:1012200064F3FF1FC1F0FF1FB4F3FF1F1FF4FF1F84
:10123000FFFFFF7F10F3FF1F0000F0402EF4FF1FA1
:10124000F0B583B006000F007C4C7D48F6B2042157
:1012500071434018001F00680500F6B2002E64D1EB
:10126000784800688021C900014376480160C021A8
:101270008900662000F0ACF9C0218900672000F0E9
:10128000A7F9714800688021C90401436E480160D4
:101290006D4800688021490201436B480160E07895
:1012A000F3210140E1706846684909684908818076
:1012B00068468188FA208000484310217943FFF76F
:1012C0005AFB6946088068462178E0220A4082700D
:1012D000684680786946098889B2090AC906C90E34
:1012E000014321706846008860700F2067490870CC
:1012F0000020674908700020664908700020664990
:101300000870002065490870654800781F21014376
:101310006348017063480078C0210143614801704F
:10132000E0780C210143E17059E0F6B23000012869
:1013300002D0022812D023E042480068802109012F
:10134000014340480160C0218900432000F040F97A
:10135000C0218900442000F03BF911E039480068C1
:1013600080214901014337480160C0218900642080
:1013700000F02EF9C0218900652000F029F9FFE76F
:10138000E878F3210140E9700020A8704648006821
:10139000FA218900484310217943FFF7ECFA6946A6
:1013A000088068462978E0220A4082706846807882
:1013B0006946098889B2090AC906C90E014329701C
:1013C0006846008868700020A8700020A8711F205F
:1013D000287100206871E8780C210143E970F7BD9D
:1013E00000B50100154A1648C9B204234B43C01882
:1013F000001F0368C9B2002904D110798006FCD50A
:10140000D07903E018798006FCD5D87900BD10B5F5
:101410000A4A0B4BC0B2042444431B191B1F1B6810
:10142000C0B2002804D114792406FCD5D17103E0A0
:101430001C792406FCD5D97110BD000000A006401F
:10144000702D0000348004400480044020F4FF1F0D
:1014500070B50400154D1648E4B2042161434018EC
:10146000001F0668E4B2002C04D1E8782021014373
:10147000E97003E0F07820210143F170E4B220002C
:101480000C3000F0D0F870BD000000000AA006404B
:1014900002A0064006A0064008A0064009A006409B
:1014A00004A0064005A0064028F4FF1F00A0064047
:1014B000702D0000010007D5F446404200F004F80A
:1014C0000122D2071143604742221201D21E00427C
:1014D00007D002D4521E0018FCD5C10A40051205DF
:1014E00089187047F0B40E005E400125ED072E40CC
:1014F000B446AE0ADF184C18F4423BD2F74241D250
:10150000640D43D07F0D38D0E41BC902DB022943B0
:101510002B43CF0ADB0A0600B61A9F4104D2641E91
:10152000B6197F41B6185F416812800D2418001863
:10153000844222DAE80C0021B6197F41B61A9F4195
:1015400002D2B6185F413F1C40414941F4D3241CEC
:1015500021DD2405B6197F41B61A9F4105D33743D3
:10156000C60737430026012F70416141664631436B
:10157000F0BC7047FCD1F74205D20020C1434905B9
:101580004908F3E704D00020C143F1E77F0DFAD00A
:1015900000206146ECE72442FAD1401C61410F0370
:1015A000F6D30020E2E730B4012100220368001DD9
:1015B000002B0BD00468001D0C4202D04D466D1E5E
:1015C00064192260241D1B1FF0D0FAE730BC70475D
:1015D00010B40D4A126880239B000400E4B2640931
:1015E000A3401343084A1360084AC0B203005B11CA
:1015F00004246343D258C0B2C306DB0E0424634301
:10160000D15010BC7047000038800440C4F0FF1F68
:1016100028480068042188432649086030BF704785
:1016200025490860704770B50400212C03DB23486E
:10163000FFF771F915E022480568012620002021F6
:10164000FFF796F98E402E431D4806601D48056839
:10165000012620002021FFF78BF98E402E431948E8
:10166000066070BDF8B507000E0000240025212F8C
:1016700004DB1548FFF74FF901200400042E04DBBA
:101680001248FFF748F901200400E4B2012C0ED003
:1016900038000421FFF76CF905000D48EDB2042174
:1016A0006943401800903000800100990870F1BD36
:1016B0000000000010ED00E008ED00E0E82B000065
:1016C00080E200E000E100E0AC2B00006C2B0000A9
:1016D00000E400E080B5012201218120FFF7D4FB66
:1016E000012201218220FFF7CFFB0122012183206B
:1016F000FFF7CAFB012201218420FFF7C5FB01226D
:1017000001218520FFF7C0FB01BD000000B50821C5
:101710008E4A1268082313438C4A13608B4A12685E
:1017200004239A43894B1A600A00511ED2B2002A40
:101730001DD0020606D5854A126802231343834A48
:10174000136005E0814A126802239A437F4B1A60B6
:101750007E4A1268042313437C4A136000BF7B4A0D
:10176000126804239A43794B1A604000DCE700BDFD
:1017700000B50821754A126808239A43734B1A6012
:10178000724A126804239A43704B1A600A00511E71
:10179000D2B2002A1DD0020606D56C4A1268022376
:1017A00013436A4A136005E0684A126802239A43A9
:1017B000664B1A60654A126804231343634A136038
:1017C00000BF624A126804239A43604B1A604000CB
:1017D000DCE700BD38B505000C0020005038C0B271
:1017E000FFF7C6FF2900C9B2090910200843C0B29B
:1017F000FFF7BEFF2907090F01200843C0B2FFF71A
:10180000B7FF31BD70B5040000200500EDB2082D12
:1018100017DA28005038C0B2FFF7AAFF0120FFF7FF
:10182000A7FF1020FFF7A4FF00200600F6B2802ECD
:1018300005DA2000C0B2FFF769FF761CF6E76D1CE1
:10184000E4E770BD10B50400A4B2414801686143EB
:10185000012000F0F1F810BD80B5FFF73BFF3B48D9
:1018600000680421014339480160384800681021AC
:101870008843364908603548006820218843334949
:1018800008603220FFF7DEFF304800682021014366
:101890002E480160AE20FFF76BFF0020FFF768FFC6
:1018A0001020FFF765FF4020FFF762FF8120FFF760
:1018B0005FFFCF20FFF75CFFA120FFF759FFC82093
:1018C000FFF756FFA620FFF753FFA820FFF750FFB2
:1018D0003F20FFF74DFFD320FFF74AFF0020FFF71F
:1018E00047FFD520FFF744FF8020FFF741FFD920B5
:1018F000FFF73EFFF120FFF73BFFDA20FFF738FF4D
:101900001220FFF735FFDB20FFF732FF4020FFF703
:101910002FFF2020FFF72CFF0220FFF729FF8D204B
:10192000FFF726FF1420FFF723FFA420FFF720FF77
:10193000A620FFF71DFFAF20FFF71AFF0020FFF7DB
:1019400061FF00210020FFF745FF01BD00F10F40BE
:1019500028F4FF1FF7B51F000024FFB2380008214C
:10196000FFF706F8002906D1FFB238000821FEF77C
:10197000FFFF060006E0FFB238000821FEF7F8FF7F
:10198000401C0600684600790600FFB2F6B2B74276
:1019900017D33100C9B268460078FFF71BFF6846CD
:1019A000007805006846007AEDB2854207D20898B3
:1019B000A4B2005DFFF7AAFE641C6D1CF2E7761C62
:1019C000E3E7F7BD38B505000C0049480068802101
:1019D0000904014346480160002046490860601E32
:1019E0004549EDB210226A4388504348EDB21021B8
:1019F00069434018C068012101433F48EDB21022FD
:101A00006A438018C1603C48EDB210216943401818
:101A10008068012188433849EDB210226A43891851
:101A2000886003203449EDB210226A438918886027
:101A30001620FFF7F8FD31BD10B52D4A126880233E
:101A40001B0413432A4A13602A4A126802239A434A
:101A5000284B1A60284AC0B210234343D218926818
:101A600001239A43244BC0B2102444431B199A60AB
:101A70004A1E214BC0B2102444431A511E4AC0B220
:101A800010234343D218D268012313431A4AC0B229
:101A9000102444431219D360174AC0B210234343A1
:101AA000D218926801239A43134BC0B210244443C6
:101AB0001B199A600122104BC0B2102444431B1919
:101AC0009A600D4AC0B210234343D218D268D2079D
:101AD000F7D5094AC0B210234343D218D268012374
:101AE0001343054AC0B2102444431219D36010BDF9
:101AF0003C800440007003400071034080B500F05A
:101B000062F9A3480068802189040143A04801606C
:101B10009F4800688021490401439D4801600220DC
:101B200000F042F99A4800689A49014098480160DB
:101B3000022000F039F996480068802149040143E9
:101B400093480160022000F02FF991480068914904
:101B500001408F480160022000F026F98C4800689F
:101B60008021490401438A480160022000F01CF9E9
:101B7000874800688749014085480160022000F0DD
:101B800013F98348006880214904014380480160BB
:101B9000022000F009F97E4800687E4901407C4837
:101BA0000160022000F000F97948006880214904B2
:101BB000014377480160022000F0F6F8744800689D
:101BC0007449014072480160022000F0EDF870484D
:101BD00000688021490401436D480160022000F043
:101BE000E3F86B4800686B490140694801600220D6
:101BF00000F0DAF86648006880214904014364482F
:101C00000160022000F0D0F861480068614901409D
:101C10005F480160022000F0C7F85D48006880213D
:101C2000490401435A480160022000F0BDF85848B9
:101C300000685849014056480160022000F0B4F89D
:101C40005348006880214904014351480160022043
:101C500000F0AAF84E4800684E4901404C48016027
:101C6000022000F0A1F800F0AEF800F0DBF801BDB2
:101C700080B500F013FA022802D100F06EF801E0FE
:101C800000F08EF801BD38B504000D0000F09BF89F
:101C9000A02000F03EF900F0EBF82000C0B200F008
:101CA00038F900F0E5F82800C0B200F032F900F091
:101CB000DFF800F0B7F83848E4B205553748016856
:101CC000642041430120FFF7B7FE31BD38B5040061
:101CD00000F079F8A02000F01CF900F0C9F820000D
:101CE000C0B200F016F900F0C3F800F06CF8A120C3
:101CF00000F00FF900F0BCF800F03EF9050000F02C
:101D0000E6F800F08FF8254801686420414301207F
:101D1000FFF792FE2800C0B232BD10B500240020AB
:101D20000400E4B20A2C06DA00212000C0B2FFF75A
:101D3000AAFF641CF5E710BD10B5002400200400C4
:101D4000E4B20A2C08DA2000C0B2FFF7BFFF124944
:101D5000E4B20855641CF3E710BD80B5FFF7DDFF62
:101D60000E480168FA20800041430120FFF764FE1D
:101D7000EE210020FFF787FFEE210120FFF783FF10
:101D8000EE210220FFF77FFF0020FFF76FF801BD73
:101D900000F10F40FFFFFFFE58F3FF1F28F4FF1F65
:101DA00080B5FFF7C9FF01BD10B504009B4800686E
:101DB0000A214843FA218900FEF7DDFD01000120D8
:101DC000FFF73AFE10BD80B5954800688021890470
:101DD00001439348016093480068802189040143CE
:101DE000904801600220FFF7DFFF8E4800688021E5
:101DF000490401438B4801600220FFF7D5FF894861
:101E0000006889490140874801600220FFF7CCFF44
:101E10008448006885490140824801600220FFF73C
:101E2000C3FF01BD80B57E4800688021890401435D
:101E30007B4801607B4800687B490140794801602C
:101E40000220FFF7B1FF7748006880214904014371
:101E5000744801600220FFF7A7FF724800688021E4
:101E6000890401436F4801600220FFF79DFF01BD17
:101E700010B56C480068802149040143694801603D
:101E80000220FFF791FF00200400654800686649C2
:101E90000140634801606648006801008901C90F7C
:101EA000002901D0012004000220FFF77DFF5D48DA
:101EB00000685E4901405B48016059480068802124
:101EC00089040143564801602000C0B210BD80B5AE
:101ED00053480068802189040143514801605148FA
:101EE0000068514901404F4801600220FFF75CFF44
:101EF0004C4800688021490401434A48016002209F
:101F0000FFF752FF474800684849014045480160D3
:101F100001BD38B5040000200500EDB2082D28DA17
:101F20003F4800688021890401433D4801603D48E5
:101F300000683D4901402000C0B2C009C0B240065F
:101F40000843384908603748006880214904014344
:101F5000344801600220FFF727FF32480068334908
:101F60000140304801600220FFF71EFF64006D1C35
:101F7000D3E7FFF77DFF31BD38B5082500242800E1
:101F8000451EC0B2002846D025480068802189043B
:101F900001432348016023480068802189040143EC
:101FA000204801600220FFF7FFFE1E4800681F491D
:101FB00001401C4801600220FFF7F6FE1948006846
:101FC000802149040143174801600220FFF7ECFE1D
:101FD0001348006814490140114801606400144826
:101FE000006801008901C90F002903D020000124E5
:101FF000044302E02000FE2404400A4800680B4924
:1020000001400848016006480068802189040143B6
:1020100003480160B3E72000C0B232BD28F4FF1FBF
:1020200014F10F4000F10F40FFFFFFFDFFFFFFFE27
:1020300010F10F4080B5012200214720FEF724FF58
:10204000012200214820FEF71FFF01220021492024
:10205000FEF71AFF012200214A20FEF715FF012298
:1020600000214B20FEF710FFFF20001D2349896847
:10207000C861FF20001D214989680862FF20001DFA
:102080001E4989684862FF20001D1C4989688862D2
:10209000FF20001D19498968C86201BD00B51848B4
:1020A000006801000906C90F002901D1012024E0C0
:1020B000134800680100C905C90F002901D1042097
:1020C0001BE00F48006801008905C90F002901D1F4
:1020D000032012E00A48006801004905C90F0029E1
:1020E00001D1022009E00648006801000905C90F76
:1020F000002901D1052000E0002000BDC4F0FF1F31
:1021000090F00F4038B50400E4B2002C00D1D6E0C6
:10211000E4B22000302820D0322825D050282AD000
:1021200060282FD0642834D06E2839D078283ED04B
:102130007D2843D0822848D08C284DD0962852D074
:10214000A02857D0AA285CD0B42861D0C82866D06F
:10215000E1286BD0FA2870D076E018208449087006
:1021600000208349487073E01820814908700120DD
:102170007F4948706CE018207D49087010207C4928
:10218000487065E018207A4908701820784948702E
:102190005EE01820764908701A207549487057E0AB
:1021A0001820734908701F207149487050E01320AF
:1021B0006F49087018206E49487049E013206C4937
:1021C00008701A206A49487042E013206849087074
:1021D0001C20674948703BE00E20654908701220BA
:1021E0006349487034E00E20614908701520604949
:1021F00048702DE00E205E49087018205C49487038
:1022000026E00E205A4908701B20594948701FE0EB
:102210000E20574908701E205549487018E00C20C0
:10222000534908701C205249487011E00B20504956
:1022300008701E204E4948700AE00A204C49087078
:102240001F204B49487003E06420FFF75BFF8EE0DE
:10225000002047498870E4B21F2C03DA002044496B
:1022600048712CE0E4B23D2C03DA0120404948716A
:1022700025E0E4B25B2C03DA02203D4948711EE000
:10228000E4B2792C03DA03203949487117E0E4B24B
:10229000972C03DA04203649487110E0E4B2B52CDB
:1022A00003DA05203249487109E0E4B2D32C03DA9D
:1022B00006202F49487102E007202D4948712C481B
:1022C0004178183189B23220484329490978491C9C
:1022D00089B2FEF74DFB05002C2026490870B82076
:1022E00025490870254800788007FBD523480078E9
:1022F000C006FBD421480078C0B280088007800F58
:102300000228F7D11A480078C006C00E1C49087090
:1023100000201C4908701648807800071449497944
:102320000904E022D2020A40024317480260104822
:102330004078C006C00E40210143124801700F488A
:1023400000788006FBD50D4800784006FBD50A488A
:1023500000788006800E0849087008480078C0B2EE
:1023600080088007800F0328F7D12800C0B232BD53
:10237000ECF0FF1F014006400040064006400640CA
:1023800004400640054006404480044038B504003F
:102390000D00E4B2002C03D0022C55D039D36EE0EE
:1023A0008848006880214904014386480160EDB2F5
:1023B000002D08D0022D12D00BD3042D1BD014D326
:1023C000052D1ED023E08021C9004120FFF700F930
:1023D0001EE08021C9004220FFF7FAF818E08021B2
:1023E000C9004320FFF7F4F812E08021C90044201F
:1023F000FFF7EEF80CE0C02189009F20FFF7E8F816
:1024000006E0C02189009A20FFF7E2F800E036E0FC
:1024100035E06C4800688021890401436948016007
:10242000EDB2002D02D0012D06D00BE0C0218900B5
:102430000C20FFF7CDF806E0C02189000D20FFF742
:10244000C7F800E01BE01AE05E4800688021C9047C
:1024500001435C480160EDB2002D02D0012D06D091
:102460000BE0C02189003220FFF7B2F806E0C0215E
:1024700089003320FFF7ACF800E000E0FFE731BD52
:10248000FCB583B006000F003900C9B23000C0B2FD
:10249000FFF77CFF4C4800684C49484340080190D6
:1024A0000198000C0399FEF766FA0400002005006D
:1024B000A4B220002841012801DB6D1CF8E7019837
:1024C000E8400399FEF757FA0400F6B2002E03D055
:1024D000022E17D00BD320E00498A4B22100491C8F
:1024E00048436421FEF747FA6946088015E00498DE
:1024F000A4B22100491C48436421FEF73CFA694616
:1025000008800AE00498A4B22100491C48436421D1
:10251000FEF731FA69460880FFE72D48F6B204213C
:1025200071434058FFB20821794340182849F6B258
:10253000042272438958FFB208227A438918C96875
:1025400004229143C1602248F6B2042171434058ED
:10255000FFB20821794340182821C1601D48006856
:102560001D4901401B4801601A4800688021490448
:10257000014318480160EDB26907490F082008437C
:102580001349F6B20422724389580860A4B2104875
:10259000F6B204217143405884600D48F6B204211C
:1025A00071434058FFB208217943401869460988B1
:1025B000016100200649F6B204227243895848603E
:1025C00005B0F0BD3C80044024F4FF1F40420F00E2
:1025D00004F3FF1F04800440FFFFFFFC03500000D2
:1025E0000090044000A0044000B0044000C004403B
:1025F00000D0044000F00F4040F00F4080F00F404A
:10260000C0F00F4000F10F400B1F00000009000058
:10261000000000000000000000000000000000803A
:10262000C0E06070303838181C0C0C0C0C0404042A
:10263000040C0C0C081838307060C0C0800000001A
:10264000000000000000000000000000000000008A
:10265000000000000000000000000000C0701C0628
:10266000070301000000000000000000000000005F
:10267000000000000000000000000000000103074F
:102680000F0E183070E0C080808000000000000055
:102690000000000000000080C0E030180E030100C0
:1026A000000000000000000000000000000000002A
:1026B000000000000000000000000000000000001A
:1026C00000000000000000000001010303030206F7
:1026D000040C18F0C0F0FCFE0F0301000000000025
:1026E00000000000000000000000000000000000EA
:1026F000000000008080C0C0E0E0E0E0F0F070701A
:10270000783C3C3C1C1E0E1E38F8F8F87E7E9E1667
:1027100026EEFEFEFEFF7FFF1D71C0800000000060
:1027200000E0F8FC0E0F0E0E0E0C0C0C0C0E0E0E34
:10273000060676FFFFFF7303030301010140C0801B
:102740008080C0806000001E1F1F1F0E03070E1E2A
:102750003E7FCF8F07070301003F00000001010308
:10276000030206FF830000000000000000000000DC
:102770000000000000000000000000000000000059
:102780000001010000000000000000000000000047
:10279000000000000003FEF8000000000000000040
:1027A0000000000000071F78E0800000000000002B
:1027B0000000000000000000000000000000000019
:1027C0000000000000000000000000000000000009
:1027D0000000000080C060381F07000000000000FB
:1027E00000000000000000000000000103060C18BB
:1027F000183020606040C0C0C080808080808080B1
:102800008080808080C0C0C0404060602020301048
:1028100018080C040603010000000000000000007E
:10282000008003400090034000A00340000000002F
:1028300038B504002500EDB26D09EDB2002D10D1C0
:102840004648006880210905014344480160444826
:102850000068902188434249086041480068404927
:102860000860E4B22000002824D0012827D00228E4
:102870002AD003282DD0042830D0052833D00628AC
:1028800036D0072839D008283CD009283FD00B285B
:1028900042D00C2845D00D2848D00E284BD00F2808
:1028A0004ED0172851D01A2854D01D2853D01E2896
:1028B00052D052E000219420FEF78AFE4DE0002124
:1028C0009020FEF785FE48E000219220FEF780FE72
:1028D00043E000219620FEF77BFE3EE0002195209C
:1028E000FEF776FE39E000219120FEF771FE34E01C
:1028F00000219320FEF76CFE2FE000219720FEF7C9
:1029000067FE2AE000212020FEF762FE25E000217C
:102910002120FEF75DFE20E000214220FEF758FE58
:102920001BE000212220FEF753FE16E000212320A9
:10293000FEF74EFE11E000214020FEF749FE0CE0BC
:1029400000214120FEF744FE07E000219E20FEF713
:102950003FFE02E001E000E0FFE731BD3C800440C3
:102960001880044080B5FEF76FF8374800680121F1
:1029700001433548016035480068082188433349E0
:102980000860E12149020020FEF75AFC6423304A26
:1029900000210020FFF774FD00232D4A01210020B3
:1029A000FFF76EFD00232A4A02210020FFF768FD91
:1029B0006423274A03210020FFF762FDFEF74CFF46
:1029C000244800900723422200210020FEF7C2FF86
:1029D0000920FFF72DFF0C20FFF72AFF012201211C
:1029E0009820FEF751FA012201219920FEF74CFAB6
:1029F000FFF784F8FFF71EFB174801686420414386
:102A00000120FFF719F8FFF733F9134801680A208E
:102A100041430020FEF7D6FF0020FEF719FD0021FC
:102A20000C20FEF71FFE01211620FEF71BFE0648B4
:102A300000680121884304490860044800680821AF
:102A400001430248016001BD00F10F40C0F00F409A
:102A500010270000F4F0FF1F28F4FF1FF0B583B02B
:102A60002248234988420DD000200400C02C09D2FE
:102A70001F480421614340581C4904226243885086
:102A8000641CF3E71948FEF7CBFD1A4807001A4803
:102A900005001A4801900198401B04002000441EC4
:102AA000002804D0287838706D1C7F1CF6E7144885
:102AB0000600144800900098801B04002000441E6B
:102AC000002803D000203070761CF7E70E480F492D
:102AD0000F4A531A1C0023005C1E002B04D00B78F5
:102AE0000370491C401CF6E7F7BD00BF00F0FF1F54
:102AF00000000000C0F0FF1FDC25000030280000AF
:102B000010F3FF1F2FF4FF1F2FF4FF1F782D00007D
:102B1000782D000080B510480068F8218901014334
:102B20000D4801603020FFF7EDFA0C4908600B48B2
:102B30000068FA218900484309490860084800688C
:102B400008490968090C4907490F491CFDF713FF9B
:102B50000549086001BD00BF3880044024F4FF1F10
:102B600020F4FF1F4480044028F4FF1F0A455252FE
:102B70002120496E76616C6964207072696F726998
:102B800074792076616C756520706173736564205B
:102B9000746F207072696F72697479206972712024
:102BA00066756E6374696F6E210A00000A455252A1
:102BB0002120496E76616C6964204952512076610A
:102BC0006C75652070617373656420746F2070721A
:102BD000696F72697479206972712066756E6374A9
:102BE000696F6E210A0000000A4552522120496E89
:102BF00076616C6964204952512076616C7565205C
:102C000070617373656420746F20656E61626C65BA
:102C1000206972712066756E6374696F6E210A0097
:102C20000A2A2A2A2A64656661756C745F69737260
:102C300020656E7465726564206F6E2076656374BE
:102C40006F722025642A2A2A2A2A0D0A0A00000007
:102C500080B5084800680121014306480160064824
:102C60000088401C04490880C046C046C046C04693
:102C700001BD00BF0C7103402CF4FF1F10B50749C4
:102C800079441831064C7C44163404E0081D0A6867
:102C9000891888470100A142F8D110BD0800000042
:102CA0001400000003E9FFFF2001000010F3FF1FE4
:102CB0000000000080B5002004490860FFF7CEFE48
:102CC000FFF728FF00F004F8FEE700BF0081044092
:102CD00080B572B6FFF746FE62B6FDF7C1FEFEF79D
:102CE00037F9FEF795FCF8E70120C046002801D02F
:102CF000FFF7C4FF0020C046C046FFF7E9FF00F021
:102D000000F880B500F002F801BD00000746384623
:102D100000F002F8FBE7000020210903263118200B
:102D2000ABBEF9E70020002100220023002400258B
:102D30000026002762B6FFF7BDFFFEE780B5034817
:102D400001680348FDF7E7FD01BD000004ED00E068
:102D5000202C000010B504002100C9B20020FEF7AD
:102D600056FB10BDC046C046C046C046FFF7BCFF7C
:082D700000B0064000C006405F
:0400000500002D6565
:00000001FF
