:1000000078F8FF1F513100006931000069310000AC
:100010006931000069310000693100006931000078
:100020006931000069310000693100006931000068
:100030006931000069310000693100006931000058
:100040006931000069310000693100006931000048
:100050006931000069310000693100006931000038
:100060006931000069310000693100006931000028
:10007000FD1800006931000069310000693100009D
:100080006931000069310000693100006931000008
:1000900069310000693100007930000069310000E9
:1000A00069310000693100006931000069310000E8
:1000B00069310000693100006931000069310000D8
:1004100070B504000D0016003068012802D00228D3
:1004200005D00BE02000C0B27168884706E02000CC
:10043000B1680870B068401CB060FFE72868401CD5
:10044000286070BDFFB584B0002006000498050048
:10045000002028706D1C0698002825D0059800689B
:1004600001900198002803D130202870761C3FE0CD
:10047000019800283CD00198079900F079FA039080
:1004800001980399079A5143401A0700002F03D59A
:10049000F8430700313700E0303703980190380007
:1004A00028706D1C761CE3E70598006800900098A2
:1004B000002803D130202870761C19E0009800280D
:1004C00016D00098079900F056FA02900098029909
:1004D000079A5143401A04000A2C01D2303400E03C
:1004E000373402980090200028706D1C761CE5E7D8
:1004F000300008B0F0BDF8B507000E0015003C0054
:10050000B44206DA009A29003020FFF781FF641C0C
:10051000F6E7F1BDF8B507000E0015003C00B44247
:1005200006DA009A29002020FFF772FF641CF6E724
:10053000F1BDF3B595B014000020009016980500A9
:10054000287802900298002800D1E1E1029825283D
:1005500013D002980A2805D0159A69460298FFF729
:1005600057FF09E0159A69460D20FFF751FF159ACC
:1005700069460A20FFF74CFFC8E100200700002071
:1005800005900598002824D16D1C2878202810D0CB
:10059000232816D02B2808D02D2802D030280CD0A4
:1005A00013E0380001270743EBE738000227074331
:1005B000E7E7380004270743E3E738000827074345
:1005C000DFE7380010270743DBE76D1E01200590A9
:1005D000D7E700200190002005900598002812D14F
:1005E0006D1C2878029002983038092807D80198A5
:1005F0000A2148430299401830380190EDE76D1EFA
:1006000001200590E9E76D1C28782E280ED10020E6
:100610000590059800280AD16D1C287830380928E3
:1006200000D8F6E76D1E01200590F2E76D1E6D1CE7
:1006300028784C2806D0682802D06C2801D002E027
:1006400002E001E000E06D1E6D1C28780290029827
:10065000582872D0622800D1CCE0632800D116E17E
:10066000642813D0692811D06E2800D142E16F2888
:1006700000D1B4E0702800D1C7E0732800D110E1A8
:10068000752800D1CCE0782857D03AE12068241DA5
:1006900009900A23012209A90CA8FFF7D3FE06003E
:1006A0000CA8801908900998002803D52D200490E3
:1006B000761C0DE0B80703D52B200490761C07E0CC
:1006C000780703D520200490761C01E000200490D8
:1006D00000200690380712D50498002804D0159AF7
:1006E00069460498FFF794FE01200690159B6A4620
:1006F00001993000FFF7FFFE0198060011E0F807AE
:100700000FD4159B6A4601993000FFF703FF049848
:10071000002804D0159A69460498FFF779FE012055
:1007200006900698002807D10498002804D0159A4E
:1007300069460498FFF76CFE92E02068241D039040
:100740001023002203A90CA8FFF77CFE06000CA8CA
:100750008019089000200690380716D5F8060BD5AA
:10076000159A69463020FFF753FE159A694678209E
:10077000FFF74EFE01200690159B6A460199300056
:10078000FFF7B9FE0198060018E0F80716D4F8063E
:1007900000D5B61C159B6A4601993000FFF7BAFEDA
:1007A000F8060BD5159A69463020FFF731FE159AE9
:1007B00069467820FFF72CFE01200690F8060DD53B
:1007C000069800280AD1159A69463020FFF720FEC6
:1007D000159A69467820FFF71BFEB61C40E020689A
:1007E000241D03900823002203A90CA8FFF72AFE6A
:1007F00006001FE02068241D03900223002203A9A5
:100800000CA8FFF71FFE060014E02068241D0390CB
:100810001023002203A90CA8FFF714FE060009E02C
:100820002068241D03900A23002203A90CA8FFF7C7
:1008300009FE06000CA880190890380708D5159BFA
:100840006A4601993000FFF756FE0198060007E05E
:10085000F80705D4159B6A4601993000FFF75AFE48
:1008600008980078002809D0159A694608980078F9
:10087000FFF7CEFD0898401E0890F1E7F80705D570
:10088000159B6A4601993000FFF744FE3EE0206860
:10089000241DC0B20A90159A69460A98FFF7B8FD60
:1008A00034E02068241D07900798002821D007987D
:1008B00000F0B8F80600F80705D4159B6A460199C0
:1008C0003000FFF727FE07980078002809D0159A16
:1008D000694607980078FFF79BFD0798401C079032
:1008E000F1E7F80705D5159B6A4601993000FFF737
:1008F00011FE0BE02068241D0B9000980B990860F6
:1009000004E0159A69460298FFF782FD6D1C17E610
:10091000009817B0F0BD0EB47EB505000120009020
:100920000748019007A80600320029006846FFF733
:1009300000FE0400200003B0039970BC04B0084717
:1009400081310000F446002804D4494200F013F835
:10095000404260474042002905D45FD000F00BF8C8
:10096000404249426047494200F005F84942604729
:1009700003460B43E6D40022030A8B420BD2030941
:100980008B4219D243088B422ED2411A00D2014623
:10099000524110467047FF2209023FD012068B4297
:1009A00005D3121209028B4201D312120902030964
:1009B0008B4219D300E0090AC3098B4201D3CB0152
:1009C000C01A524183098B4201D38B01C01A524194
:1009D00043098B4201D34B01C01A524103098B4298
:1009E00001D30B01C01A5241C3088B4201D3CB0083
:1009F000C01A524183088B4201D38B00C01A524166
:100A000043088B4201D34B00C01A5241884200D3A5
:100A1000401A5241CFD201461046704708B5C04631
:100A2000C04608BD00B501000A000023002A01D11C
:100A3000002008E010000200521C0078002801D0BD
:100A40005B1CF7E7180000BDF6B50500009C002808
:100A500021D0009F002F1ED0019F002F1BD0019F8F
:100A6000BF07BF0F3E00019FBF1BBF083B001F0019
:100A70007B1E002F04D027682F60241D2D1DF6E754
:100A80002900220037007E1E002F04D017780F7037
:100A9000521C491CF6E7F6BD80B5002201216320F7
:100AA00000F068FA00220121802000F063FA01BD05
:100AB00080B59B480078002808D0022809D014D3BC
:100AC00004280FD008D3052809D010E000F010F852
:100AD0000DE000F095F80AE000F028F907E000F0DA
:100AE0008DF904E000F0F2F801E000F0F1F901BD49
:100AF00000B58C4800880A280CDA8B480068012170
:100B0000014389480160BC48006808218843BA490C
:100B1000086074E08348008815280CDA8248006871
:100B20000121884380490860B348006808210143D7
:100B3000B148016063E07B4800881F280CDA7A48DE
:100B400000680121014378480160AB480068082132
:100B50008843A949086052E07248008829280CDAC5
:100B600071480068012188436F490860A248006805
:100B700008210143A048016041E06A480088332809
:100B80000CDA6948006801210143674801609A480E
:100B90000068082188439849086030E0614800886F
:100BA00065280CDA60480068012188435E490860C6
:100BB00091480068082101438F4801601FE05948AF
:100BC000008897280CDA58480068012101435648EC
:100BD00001608948006808218843874908600EE061
:100BE00051480068012188434F49086082480068E5
:100BF000082101438048016004204949087000BD74
:100C000000B54848008805280CDA474800680121EB
:100C100001434548016078480068082188437649C7
:100C2000086052E03F4800880B280CDA3E48006814
:100C3000012188433C4908606F480068082101434E
:100C40006D48016041E0374800880F280CDA3648CB
:100C500000680121014334480160674800680821A9
:100C600088436549086030E02E48008815280CDA72
:100C70002D480068012188432B4908605E480068C0
:100C8000082101435C4801601FE0264800881928BC
:100C90000CDA2548006801210143234801605648C9
:100CA000006808218843544908600EE01E48006827
:100CB000012188431C4908604F480068082101430E
:100CC0004D48016004201649087000BD00B57E48FB
:100CD00000880A280CDA14480068012101431248F0
:100CE000016045480068082188434349086015E0D1
:100CF00075480088FF21F63188420CDA0A480068FE
:100D000001218843084908603B48006808210143E5
:100D10003948016002E000206B49088000BD0000F6
:100D2000C4F0FF1F6CF4FF1F00F10F4000B56648D0
:100D3000008832280CDA65480068012101436348C5
:100D400001602D480068082188432B49086052E063
:100D50005D48008865280CDA5C48006801218843FA
:100D60005A4908602448006808210143224801606C
:100D700041E05548008896280CDA54480068012163
:100D80000143524801601C480068082188431A4901
:100D9000086030E04C480088C9280CDA4B480068ED
:100DA000012188434949086013480068082101432C
:100DB000114801601FE044480088FA280CDA4348D3
:100DC000006801210143414801600B480068082187
:100DD0008843094908600EE03C48006801218843C7
:100DE0003A4908600448006808210143024801604C
:100DF00004205C49087000BDC0F00F4000B53248C7
:100E0000008803280CDA31480068012101432F488B
:100E1000016055480068082188435349086052E042
:100E20002948008807280CDA2848006801218843EF
:100E3000264908604C480068082101434A4801607F
:100E400041E02148008809280CDA20480068012187
:100E500001431E4801604448006808218843424914
:100E6000086030E0184800880D280CDA1748006840
:100E700001218843154908603B4800680821014367
:100E8000394801601FE01048008811280CDA0F482B
:100E90000068012101430D480160334800680821C2
:100EA0008843314908600EE0084800680121884302
:100EB000064908602C480068082101432A4801605F
:100EC00004202849087000BD6CF4FF1F00F10F409A
:100ED00000B52648008802280CDA25480068012160
:100EE00001432348016020480068082188431E49C7
:100EF000086030E01D48008805280CDA1C480068AE
:100F0000012188431A4908601748006808210143F5
:100F1000154801601FE01548008806280CDA1448BF
:100F2000006801210143124801600F480068082150
:100F300088430D4908600EE00D4800680121884390
:100F40000B49086008480068082101430648016011
:100F500004200449087000BD0021044A11800149A1
:100F600008707047C4F0FF1FC0F00F406CF4FF1F03
:100F700000F10F4070B504000D0016002D48E4B2DA
:100F800021004911042251434058E4B2E106C90E40
:100F900004225143802252004250EDB2012D1BD158
:100FA0002548E4B221004911042251434058224906
:100FB000E4B22200521104235A438958496901229C
:100FC000E306DB0E9A400A4342613100C9B22000B9
:100FD000C0B200F017F814E01748E4B2210049113C
:100FE0000422514340581449E4B222005211042310
:100FF0005A43895849690122E306DB0E9A4091431E
:10100000416170BD30B40C4AC0B203005B110424CE
:101010006343D25813680122C406E40EA2401A4367
:10102000054BC0B20400641104256C431B591A60BF
:1010300030BC7047C8F0FF1FDCF0FF1F10B5040084
:10104000AE48006802214843FA218900FFF793FC6B
:101050000100012000F0E8F910BD80B5A848006843
:10106000802189040143A6480160A64800688021C8
:1010700089040143A34801600220FFF7DFFFA14874
:1010800000688021490401439E4801600220FFF767
:10109000D5FF9C4800689C4901409A4801600220A5
:1010A000FFF7CCFF974800689849014095480160D8
:1010B0000220FFF7C3FF01BD80B591480068802181
:1010C000890401438E4801608E4800688E490140C2
:1010D0008C4801600220FFF7B1FF8A480068802138
:1010E00049040143874801600220FFF7A7FF8548B4
:1010F0000068802189040143824801600220FFF7D3
:101100009DFF01BD10B57F4800688021490401435F
:101110007C4801600220FFF791FF0020040078481E
:10112000006879490140764801607948006801000B
:101130008901C90F002901D0012004000220FFF716
:101140007DFF70480068714901406E4801606C483D
:101150000068802189040143694801602000C0B211
:1011600010BD80B566480068802189040143644849
:10117000016064480068802189040143614801607E
:101180000220FFF75BFF5F480068802149040143AC
:101190005C4801600220FFF751FF5A4800685B4934
:1011A0000140584801600220FFF748FF01BD80B5AB
:1011B0005348006880218904014351480160514827
:1011C0000068514901404F4801600220FFF736FF97
:1011D0004C4800688021490401434A4801600220CC
:1011E000FFF72CFF47480068484901404548016027
:1011F00001BD38B5040000200500EDB2082D28DA45
:101200003F4800688021890401433D4801603D4812
:1012100000683D4901402000C0B2C009C0B240068C
:101220000843384908603748006880214904014371
:10123000344801600220FFF701FF3248006833495B
:101240000140304801600220FFF7F8FE64006D1C89
:10125000D3E7FFF757FF31BD38B508250024280034
:10126000451EC0B2002846D0254800688021890468
:101270000143234801602348006880218904014319
:10128000204801600220FFF7D9FE1E4800681F4970
:1012900001401C4801600220FFF7D0FE1948006899
:1012A000802149040143174801600220FFF7C6FE70
:1012B0001348006814490140114801606400144853
:1012C000006801008901C90F002903D02000012412
:1012D000044302E02000FE2404400A4800680B4951
:1012E00001400848016006480068802189040143E4
:1012F00003480160B3E72000C0B232BD68F4FF1FAD
:1013000014F10F4000F10F40FFFFFFFDFFFFFFFE54
:1013100010F10F4038B505000C00FFF79EFE542079
:10132000FFF767FF2800C0B2FFF763FF200080B21D
:10133000000AC0B2FFF75DFF2000C0B2FFF759FFFF
:10134000FFF7BAFE31BD38B504000025FFF785FE72
:101350005420FFF74EFF2000C0B2FFF74AFFFFF70F
:101360007CFE5520FFF745FFFFF776FF05002D02B5
:10137000FFF71DFFFFF770FF28430500FFF7F1FEA1
:10138000FFF79AFE280080B232BD30B4012100225E
:101390000368001D002B0BD00468001D0C4202D016
:1013A0004D466D1E64192260241D1B1FF0D0FAE704
:1013B00030BC704738B505000C00494800688021F2
:1013C0000904014346480160002046490860601E48
:1013D0004549EDB210226A4388504348EDB21021CE
:1013E00069434018C068012101433F48EDB2102213
:1013F0006A438018C1603C48EDB21021694340182F
:101400008068012188433849EDB210226A43891867
:10141000886003203449EDB210226A43891888603D
:10142000162000F06EF831BD10B52D4A12688023E9
:101430001B0413432A4A13602A4A126802239A4360
:10144000284B1A60284AC0B210234343D21892682E
:1014500001239A43244BC0B2102444431B199A60C1
:101460004A1E214BC0B2102444431A511E4AC0B236
:1014700010234343D218D268012313431A4AC0B23F
:10148000102444431219D360174AC0B210234343B7
:10149000D218926801239A43134BC0B210244443DC
:1014A0001B199A600122104BC0B2102444431B192F
:1014B0009A600D4AC0B210234343D218D268D207B3
:1014C000F7D5094AC0B210234343D218D26801238A
:1014D0001343054AC0B2102444431219D36010BD0F
:1014E0003C800440007003400071034028480068BD
:1014F000042188432649086030BF704725490860A9
:10150000704770B50400212C03DB2348FFF703FA72
:1015100015E022480568012620002021FFF728FA5F
:101520008E402E431D4806601D4805680126200098
:101530002021FFF71DFA8E402E431948066070BD2A
:10154000F8B507000E0000240025212F04DB154804
:10155000FFF7E1F901200400042E04DB1248FFF735
:10156000DAF901200400E4B2012C0ED03800042185
:10157000FFF7FEF905000D48EDB20421694340185C
:1015800000903000800100990870F1BD000000005B
:1015900010ED00E008ED00E0DC2F000080E200E04C
:1015A00000E100E0A02F0000602F000000E400E058
:1015B00080B5012201218120FFF7DCFC01220121FD
:1015C0008220FFF7D7FC012201218320FFF7D2FC04
:1015D000012201218420FFF7CDFC01220121852079
:1015E000FFF7C8FC01BD000000B50821914A126850
:1015F000082313438F4A13608E4A126804239A43C8
:101600008C4B1A600A00511ED2B2002A1DD002066D
:1016100006D5884A126802231343864A136005E000
:10162000844A126802239A43824B1A60814A1268E4
:10163000042313437F4A136000BF7E4A12680423C9
:101640009A437C4B1A604000DCE700BD00B50821DE
:10165000784A126808239A43764B1A60754A1268D2
:1016600004239A43734B1A600A00511ED2B2002A17
:101670001DD0020606D56F4A1268022313436D4A35
:10168000136005E06B4A126802239A43694B1A60A3
:10169000684A126804231343664A136000BF654A10
:1016A000126804239A43634B1A604000DCE700BDD4
:1016B00038B505000C0020005038C0B2FFF7C6FF57
:1016C0002900C9B2090910200843C0B2FFF7BEFFC4
:1016D0002907090F01200843C0B2FFF7B7FF31BD4A
:1016E00070B5040000200500EDB2082D17DA2800BF
:1016F0005038C0B2FFF7AAFF0120FFF7A7FF102064
:10170000FFF7A4FF00200600F6B2802E05DA2000C5
:10171000C0B2FFF769FF761CF6E76D1CE4E770BD09
:1017200000B580B2002809D0FA22920111000A0007
:10173000511E92B2002AFAD1401EF2E700BD80B5D8
:10174000FFF736FF3B480068042101433948016038
:1017500038480068102188433649086035480068D9
:1017600020218843334908603220FFF7D9FF3148F0
:101770000068202101432F480160AE20FFF766FF7B
:101780000020FFF763FF1020FFF760FF4020FFF706
:101790005DFF8120FFF75AFFCF20FFF757FFA12001
:1017A000FFF754FFC820FFF751FFA620FFF74EFFB9
:1017B000A820FFF74BFF3F20FFF748FFD320FFF79C
:1017C00045FF0020FFF742FFD520FFF73FFF8020B5
:1017D000FFF73CFFD920FFF739FFF120FFF736FF75
:1017E000DA20FFF733FF1220FFF730FFDB20FFF78F
:1017F0002DFF4020FFF72AFF2020FFF727FF0220C0
:10180000FFF724FF8D20FFF721FF1420FFF71EFFB5
:10181000A420FFF71BFFA620FFF718FFAF20FFF75C
:1018200015FF0020FFF75CFF00210020FFF740FFBD
:1018300001BD000000F10F40F7B51F000024FFB20A
:1018400038000821FFF794F8002906D1FFB23800CC
:101850000821FFF78DF8060006E0FFB238000821E6
:10186000FFF786F8401C0600684600790600FFB2C4
:10187000F6B2B74217D33100C9B268460078FFF715
:1018800017FF6846007805006846007AEDB2854289
:1018900007D20898A4B2005DFFF7A6FE641C6D1C79
:1018A000F2E7761CE3E7F7BD38B50025FB21002001
:1018B00000F059FA6D21002000F055FA2521002092
:1018C00000F051FA6D1F6D35253500200400AB483E
:1018D0000078E4B284420BD2A748E4B2015D002054
:1018E00000F041FAA448E4B2005D2D18641CEEE754
:1018F0002900C9B2002000F036FA31BDF8B5002049
:1019000000F01AFA9E4908719D480068642800DBBF
:10191000F4E09B4800799A49994A126889188871BD
:1019200097480068401C9649086095480068292837
:1019300000DA93E092489249096840182338007809
:10194000FF2800D08AE08E488D4909684018223867
:101950000078552800D081E08948894909684018F5
:1019600021380078AA2879D1854885490968401826
:1019700020380078102871D10020824908708048F2
:101980000068293805002C007D480068401E84420C
:1019900009DA7C4800787A49091989794018794927
:1019A0000870641CF0E7774800787549744A12683B
:1019B0008918497988424DD100200400092C47DA62
:1019C0006F480421614369184018807A80214904D6
:1019D00048436B4904226243AA188918C97A8022B5
:1019E000520251434018664904226243AA188918DA
:1019F000097B80225200514340186149042262430E
:101A0000AA188918497B40180600802000068642E3
:101A100003D35D48801B070000E03700380000F06A
:101A2000F5F95A4A08236343D21803C2083A5748C3
:101A300008216143401803C80022554B00F0FEF90D
:101A4000524A08236343D21803C2083A641CB5E71C
:101A500000F058F800204A49086052E04848006801
:101A600007284EDB4648464909684018401E007862
:101A7000FF2846D1424842490968405C552840D178
:101A80003F483F49096840184078AA2839D13C4866
:101A90003B49096840188078772832D100203949BD
:101AA000087037480068C01F05002C0034480068E3
:101AB000401E844209DA334800783149091989798E
:101AC000401830490870641CF0E72E4800782C4913
:101AD0002B4A12688918497988420BD1284828492D
:101AE0000968401801792648254A12688018C0788C
:101AF00000F00DF800202249086002E00020204993
:101B00000860F1BD80B50220FFF726FA01BD38B5A7
:101B100005000C00E4B22000062816D0072815D0D6
:101B2000082814D0092813D00A2812D00B2811D065
:101B30000C2810D064280FD065280ED0662810D04D
:101B400067280FD068280ED010E00FE00EE00DE0FF
:101B50000CE00BE00AE009E008E000200D49087005
:101B600004E003E002E001200A4908700220FFF7C8
:101B7000F3F931BD0000000068F3FF1FC5F0FF1F3F
:101B8000B8F3FF1F23F4FF1FFFFFFF7F18F3FF1FB2
:101B90000000F04070F4FF1FF0B583B006000F00A6
:101BA0007C4C7D48F6B2042171434018001F006848
:101BB0000500F6B2002E64D1784800688021C90083
:101BC000014376480160C0218900662000F098F941
:101BD000C0218900672000F093F9714800688021D6
:101BE000C90401436E4801606D48006880214902C4
:101BF00001436B480160E078F3210140E1706846E1
:101C0000684909684908818068468188FA2080000F
:101C1000484310217943FEF7AEFE694608806846C6
:101C20002178E0220A4082706846807869460988F7
:101C300089B2090AC906C90E0143217068460088A5
:101C400060700F2067490870002067490870002005
:101C500066490870002066490870002065490870D0
:101C6000654800781F21014363480170634800788C
:101C7000C021014361480170E0780C210143E1700B
:101C800059E0F6B23000012802D0022812D023E039
:101C90004248006880210901014340480160C02199
:101CA0008900432000F02CF9C0218900442000F075
:101CB00027F911E03948006880214901014337487C
:101CC0000160C0218900642000F01AF9C021890058
:101CD000652000F015F9FFE7E878F3210140E9708D
:101CE0000020A87046480068FA2189004843102166
:101CF0007943FEF740FE6946088068462978E0226D
:101D00000A408270684680786946098889B2090A63
:101D1000C906C90E01432970684600886870002012
:101D2000A8700020A8711F20287100206871E87831
:101D30000C210143E970F7BD00B50100154A1648B2
:101D4000C9B204234B43C018001F0368C9B200295D
:101D500004D110798006FCD5D07903E0187980068B
:101D6000FCD5D87900BD10B50A4A0B4BC0B204248B
:101D700044431B191B1F1B68C0B2002804D11479EF
:101D80002406FCD5D17103E01C792406FCD5D97159
:101D900010BD000000A006409C31000034800440CB
:101DA0000480044060F4FF1F70B50400154D164810
:101DB000E4B2042161434018001F0668E4B2002C1D
:101DC00004D1E87820210143E97003E0F078202174
:101DD0000143F170E4B220000C30FFF792FB70BDBC
:101DE000000000000AA0064002A0064006A006402F
:101DF00008A0064009A0064004A0064005A0064031
:101E000068F4FF1F00A006409C310000010007D5C8
:101E1000F446404200F004F80122D2071143604723
:101E200042221201D21E004207D002D4521E0018D4
:101E3000FCD5C10A4005120589187047F0B40E00A0
:101E40005E400125ED072E40B446AE0ADF184C185F
:101E5000F4423BD2F74241D2640D43D07F0D38D0DB
:101E6000E41BC902DB0229432B43CF0ADB0A06002D
:101E7000B61A9F4104D2641EB6197F41B6185F415D
:101E80006812800D24180018844222DAE80C002120
:101E9000B6197F41B61A9F4102D2B6185F413F1C66
:101EA00040414941F4D3241C21DD2405B6197F416A
:101EB000B61A9F4105D33743C60737430026012F83
:101EC0007041614166463143F0BC7047FCD1F74236
:101ED00005D20020C14349054908F3E704D000209A
:101EE000C143F1E77F0DFAD000206146ECE72442C0
:101EF000FAD1401C61410F03F6D30020E2E7000055
:101F000010B40D4A126880239B000400E4B26409F7
:101F1000A3401343084A1360084AC0B203005B1190
:101F200004246343D258C0B2C306DB0E04246343C7
:101F3000D15010BC7047000038800440C8F0FF1F2B
:101F400038B50400E4B2002C00D1D6E0E4B22000A1
:101F5000302820D0322825D050282AD060282FD0F1
:101F6000642834D06E2839D078283ED07D2843D0DC
:101F7000822848D08C284DD0962852D0A02857D0FF
:101F8000AA285CD0B42861D0C82866D0E1286BD0DC
:101F9000FA2870D076E01820844908700020834920
:101FA000487073E018208149087001207F4948700B
:101FB0006CE018207D49087010207C49487065E06D
:101FC00018207A4908701820784948705EE0182077
:101FD000764908701A207549487057E018207349EF
:101FE00008701F207149487050E013206F49087035
:101FF00018206E49487049E013206C4908701A2077
:102000006A49487042E01320684908701C206749FB
:1020100048703BE00E206549087012206349487003
:1020200034E00E20614908701520604948702DE0A9
:102030000E205E49087018205C49487026E00E208A
:102040005A4908701B20594948701FE00E20574913
:1020500008701E205549487018E00C20534908703C
:102060001C205249487011E00B20504908701E2076
:102070004E4948700AE00A204C4908701F204B491D
:10208000487003E06420FFF75BFF8EE000204749C3
:102090008870E4B21F2C03DA0020444948712CE018
:1020A000E4B23D2C03DA01204049487125E0E4B256
:1020B0005B2C03DA02203D4948711EE0E4B2792C22
:1020C00003DA03203949487117E0E4B2972C03DAA8
:1020D00004203649487110E0E4B2B52C03DA05203B
:1020E0003249487109E0E4B2D32C03DA06202F49C3
:1020F000487102E007202D4948712C484178183179
:1021000089B23220484329490978491C89B2FEF72F
:102110002FFC05002C2026490870B820254908709E
:10212000254800788007FBD523480078C006FBD4FB
:1021300021480078C0B280088007800F0228F7D1BC
:102140001A480078C006C00E1C49087000201C49BF
:102150000870164880780007144949790904E0227C
:10216000D2020A4002431748026010484078C00675
:10217000C00E40210143124801700F4800788006CC
:10218000FBD50D4800784006FBD50A48007880064C
:10219000800E0849087008480078C0B2800880079F
:1021A000800F0328F7D12800C0B232BDF0F0FF1F26
:1021B00001400640004006400640064004400640FC
:1021C000054006404480044038B504000D00E4B2E8
:1021D000002C03D0022C55D039D36EE0894800681A
:1021E00080214904014387480160EDB2002D08D0E9
:1021F000022D12D00BD3042D1BD014D3052D1ED0CD
:1022000023E08021C9004120FFF77AFE1EE08021F3
:10221000C9004220FFF774FE18E08021C900432066
:10222000FFF76EFE12E08021C9004420FFF768FE30
:102230000CE0C02189004820FFF762FE06E0C021C3
:1022400089004920FFF75CFE00E036E035E06D488C
:1022500000688021890401436A480160EDB2002DC5
:1022600002D0012D06D00BE0C02189000C20FFF721
:1022700047FE06E0C02189000D20FFF741FE00E087
:102280001BE01AE05F4800688021C90401435D48F3
:102290000160EDB2002D02D0012D06D00BE0C0216F
:1022A00089003220FFF72CFE06E0C0218900332090
:1022B000FFF726FE00E000E0FFE731BDFCB583B08C
:1022C00006000F003900C9B23000C0B2FFF77CFF32
:1022D0004D4800684D494843400801900198000C62
:1022E0000399FEF748FB040000200500A4B220007B
:1022F0002841012801DB6D1CF8E70198E8400399AB
:10230000FEF739FB0400F6B2002E03D0022E18D0DF
:102310000CD321E00498A4B22100491C4843FA21BF
:102320008900FEF728FB6946088015E00498A4B2EE
:102330002100491C48436421FEF71DFB69460880C3
:102340000AE00498A4B22100491C48436421FEF726
:1023500012FB69460880FFE72D48F6B2042171435D
:102360004058FFB20821794340182949F6B20422A7
:1023700072438958FFB208227A438918C968042237
:102380009143C1602248F6B2042171434058FFB224
:102390000821794340182821C1601E4800681E4961
:1023A00001401C4801601B4800688021490401432A
:1023B00018480160EDB26907490F08200843144925
:1023C000F6B20422724389580860A4B21048F6B2EB
:1023D00004217143405884600D48F6B204217143D2
:1023E0004058FFB2082179434018694609880161C5
:1023F00000200749F6B2042272438958486005B0AC
:10240000F0BD00003C80044064F4FF1F40420F0018
:1024100008F3FF1F04800440FFFFFFFC00B00340EF
:10242000045000000090044000A0044000B00440AC
:1024300000C0044000D0044000F00F4040F00F40C6
:1024400080F00F40C0F00F4000F10F400B1F000064
:102450000009000000000000000000000000000073
:1024600000000080C0E06070303838181C0C0C0C84
:102470000C040404040C0C0C081838307060C0C044
:1024800080000000000000000000000000000000CC
:10249000000000000000000000000000000000003C
:1024A000C0701C06070301000000000000000000CF
:1024B000000000000000000000000000000000001C
:1024C000000103070F0E183070E0C080808000000C
:1024D000000000000000000000000080C0E0301894
:1024E0000E030100000000000000000000000000DA
:1024F00000000000000000000000000000000000DC
:1025000000000000000000000000000000010103C6
:1025100003030206040C18F0C0F0FCFE0F030100D8
:1025200000000000000000000000000000000000AB
:1025300000000000000000008080C0C0E0E0E0E09B
:10254000F0F07070783C3C3C1C1E0E1E38F8F8F819
:102550007E7E9E1626EEFEFEFEFF7FFF1D71C08072
:102560000000000000E0F8FC0E0F0E0E0E0C0C0C2C
:102570000C0E0E0E060676FFFFFF73030303010128
:102580000140C0808080C0806000001E1F1F1F0EA1
:1025900003070E1E3E7FCF8F07070301003F000099
:1025A00000010103030206FF830000000000000099
:1025B000000000000000000000000000000000001B
:1025C0000000000000010100000000000000000009
:1025D00000000000000000000003FEF80000000002
:1025E000000000000000000000071F78E0800000ED
:1025F00000000000000000000000000000000000DB
:1026000000000000000000000000000000000000CA
:10261000000000000000000080C060381F070000BC
:1026200000000000000000000000000000000001A9
:1026300003060C18183020606040C0C0C080808045
:10264000808080808080808080C0C0C0404060608A
:102650002020301018080C040603010000000000C0
:1026600000000000008003400090034000A00340F1
:1026700038B504002500EDB26D09EDB2002D10D182
:10268000744800688021090501437248016072485E
:10269000006890218843704908606F4800686E495F
:1026A0000860E4B22000002824D0012827D00228A6
:1026B0002AD003282DD0042830D0052833D006286E
:1026C00036D0072839D008283CD009283FD00B281D
:1026D00042D00C2845D00D2848D00E284BD00F28CA
:1026E0004ED0172851D01A2854D01D2853D01E2858
:1026F00052D052E000219420FFF702FC4DE000216F
:102700009020FFF7FDFB48E000219220FFF7F8FB47
:1027100043E000219620FFF7F3FB3EE000219520E7
:10272000FFF7EEFB39E000219120FFF7E9FB34E0F1
:1027300000219320FFF7E4FB2FE000219720FFF713
:10274000DFFB2AE000212020FFF7DAFB25E0002153
:102750002120FFF7D5FB20E000214220FFF7D0FB2E
:102760001BE000212220FFF7CBFB16E000212320F5
:10277000FFF7C6FB11E000214020FFF7C1FB0CE092
:1027800000214120FFF7BCFB07E000219E20FFF75E
:10279000B7FB02E001E000E0FFE731BDF7B507005D
:1027A00000243E00F6B27609684601793800C0B2CE
:1027B00000F029F8002005006846007AEDB2854255
:1027C0001ED22648F6B20421714340580068000624
:1027D000F7D52248F6B20421714340580069241805
:1027E0001E48F6B204217143405800688021884396
:1027F0001A49F6B204227243895808606D1CDBE75F
:10280000200080B2FEBD70B40200D2B25209C306ED
:10281000DB0EC9B28C000C25254050242C430F4DF3
:10282000D2B204265643AD59AC6004240B4DD2B24B
:1028300004265643AD59EC60DBB2DD06ED0E4024B4
:102840002C43064DD2B204265643AD592C6070BCC1
:10285000704700003C80044018800440C0F0FF1F17
:1028600080B5B82149010820FEF754FDB82149017F
:102870000920FEF74FFDB82149010A20FEF74AFD65
:10288000B82149010B20FEF745FD00210C20FEF781
:1028900041FD00210D20FEF73DFD00210E20FEF739
:1028A00039FD00210F20FEF735FD8021C9001020E1
:1028B000FEF730FD8021C9001120FEF72BFD80219D
:1028C000C9001220FEF726FD8021C9001320FEF763
:1028D00021FD56491420FEF71DFD54491520FEF731
:1028E00019FD52491620FEF715FD50491720FEF735
:1028F00011FD4F491920FEF70DFD4B491A20FEF737
:1029000009FD4C491B20FEF705FD8421C9011E204D
:10291000FEF700FD48491F20FEF7FCFC8421C90199
:102920002020FEF7F7FC8421C9012120FEF7F2FCEC
:1029300001BD80B541491A20FEF7ECFC01BD10B580
:1029400000240020FEF7FFFC0400A4B22005000DC7
:1029500000043B490860A4B220000012F0210140AD
:10296000384801700120FEF7EEFC3549096880B255
:102970000143334801600220FEF7E5FC0400A4B2E5
:102980002005000D00042E494860A4B2200000126A
:10299000F02101402B4841700320FEF7D4FC284968
:1029A000496880B20143264841600420FEF7CBFC11
:1029B0000400A4B22005000D000421498860A4B2DF
:1029C00020000012F02101401E4881700520FEF712
:1029D000BAFC1B49896880B201431948816006200E
:1029E000FEF7B1FC0400A4B22005000D0004144958
:1029F000C860A4B220000012F02101401148C1704B
:102A00000720FEF7A0FC0E49C96880B201430C48BC
:102A1000C16000F001F810BD80B51820FEF793FCEE
:102A20000949088001BD0000013E000001100000BE
:102A300001F8000009C20000404A0000011E000029
:102A400024F4FF1F34F4FF1F6EF4FF1F00B55A4833
:102A50000078800606D55848007820210143564862
:102A6000017014E054480078C00606D5524800783A
:102A7000102101435048017009E04F48007840069A
:102A800005D54D480078402101434B48017000BDF9
:102A900000B5002072B64849097880220A434649A9
:102AA0000A70454909780906FBD543490978890622
:102AB00009D54149097820220A433F490A7001009B
:102AC0000120084322E03C490978C90609D53A4962
:102AD000097810220A4338490A700100022008438D
:102AE00014E035490978490609D533490978402267
:102AF0000A4331490A7001000820084306E02E49C4
:102B00000978C90702D501000420084362B6C0B2A3
:102B100000BD10B50400284800780006FBD5092048
:102B2000264908702000000C254908702000000A82
:102B300024490870200024490870FFF7A9FF10BD40
:102B4000F4B505000C0000270098002801D11120E1
:102B500030E00098401E8008401C060016480078AF
:102B60000006FBD5002E23D0FFB2002F20D1062077
:102B7000124908702800000C114908702800000A4A
:102B800010490870280010490870E0780F49087053
:102B9000A0780F49087060780E49087020780E49B7
:102BA0000870FFF775FF0700761E241D2D1DD9E75D
:102BB0003800C0B2F2BD0000000002400700024031
:102BC0000600024005000240040002400B000240E3
:102BD0000A000240090002400800024070B50600E9
:102BE0000C0015002800451E80B2002806D0ADB2AA
:102BF0002A0031002000FDF727FFF3E7012070BD18
:102C000080B5FDF749FF354800680121014333488D
:102C10000160334800680821884331490860E12198
:102C200049020020FEF7B8FF00232E4A00210020B1
:102C3000FFF744FB00232B4A01210020FFF73EFB56
:102C40000023284A02210020FFF738FB0023254AF1
:102C500003210020FFF732FBFEF771FD22480090B0
:102C60000723422200210020FEF7E6FD0920FFF79E
:102C7000FFFC0C20FFF7FCFC012201219820FEF74D
:102C800079F9012201219920FEF774F9FFF7E8FD97
:102C9000FFF74FFEFFF7DAFE00F02AF8134801684D
:102CA0000A2041430020FEF785FB0020FFF77CF857
:102CB00000210C20FEF744FC01211620FEF740FC09
:102CC00006480068012188430449086004480068F8
:102CD000082101430248016001BD00BF00F10F401F
:102CE000C0F00F4010270000F8F0FF1F68F4FF1F2E
:102CF00080B5012200214720FEF73CF90122002186
:102D00004820FEF737F9012200214920FEF732F969
:102D1000012200214A20FEF72DF9012200214B203B
:102D2000FEF728F9FF20001D23498968C861FF20AC
:102D3000001D214989680862FF20001D1E4989681D
:102D40004862FF20001D1C4989688862FF20001D21
:102D500019498968C86201BD00B5184800680100BA
:102D60000906C90F002901D1012024E01348006899
:102D70000100C905C90F002901D104201BE00F483B
:102D8000006801008905C90F002901D1032012E064
:102D90000A48006801004905C90F002901D1022035
:102DA00009E00648006801000905C90F002901D1A2
:102DB000052000E0002000BDC8F0FF1F90F00F408C
:102DC000F0B583B02248234988420DD0002004008A
:102DD000C02C09D21F480421614340581C490422D9
:102DE00062438850641CF3E71948FEF787FB1A48D2
:102DF00007001A4805001A4801900198401B04007A
:102E00002000441E002804D0287838706D1C7F1CD8
:102E1000F6E714480600144800900098801B040050
:102E20002000441E002803D000203070761CF7E7F5
:102E30000E480F490F4A531A1C0023005C1E002B3A
:102E400004D00B780370491C401CF6E7F7BD00BFA7
:102E500000F0FF1F00000000C0F0FF1F1C24000056
:102E60007026000018F3FF1F71F4FF1F71F4FF1F9D
:102E7000A4310000A431000080B5FFF76DFF0228E7
:102E800002D100F012F801E000F036F801BD80B583
:102E9000C8204002FFF73DFE01BD80B51422144951
:102EA000C8204002FFF79AFE01BD10B50024FFF7CD
:102EB000EEFF10480168FA20800041430120FEF730
:102EC000B3FA00200400E4B20A2C07DAE4B208489E
:102ED000E4B2042161434450641CF4E7282204490D
:102EE000C8204002FFF72CFE0020FEF735F810BD89
:102EF00038F4FF1F68F4FF1F80B5FFF7CEFF0120F5
:102F0000FEF72AF801BD000080B510480068F821DE
:102F1000890101430D4801603020FFF711F80C4989
:102F200008600B480068FA21890048430949086095
:102F30000848006808490968090C4907490F491CF5
:102F4000FDF719FD0549086001BD00BF3880044048
:102F500064F4FF1F60F4FF1F4480044068F4FF1F07
:102F60000A4552522120496E76616C696420707264
:102F7000696F726974792076616C75652070617310
:102F800073656420746F207072696F726974792040
:102F90006972712066756E6374696F6E210A000034
:102FA0000A4552522120496E76616C69642049526B
:102FB000512076616C75652070617373656420744F
:102FC0006F207072696F72697479206972712066FE
:102FD000756E6374696F6E210A0000000A455252D3
:102FE0002120496E76616C696420495251207661D6
:102FF0006C75652070617373656420746F20656EF5
:1030000061626C65206972712066756E6374696FA8
:103010006E210A0080B5032200210920FFF7BEFBC4
:1030200008490978401A07494880032200210C20EA
:10303000FFF7B4FB03494978401A02498880FFF73B
:103040007EFC01BD60F3FF1F0A2A2A2A2A646566F6
:1030500061756C745F69737220656E746572656406
:10306000206F6E20766563746F722025642A2A2A89
:103070002A2A0D0A0A00000080B5084800680121CC
:1030800001430648016006480088401C0449088046
:10309000FFF7C0FFC046C04601BD00BF0C71034032
:1030A0006CF4FF1F10B5074979441831064C7C4475
:1030B000163404E0081D0A68891888470100A142F7
:1030C000F8D110BD0800000014000000BFE2FFFFAF
:1030D0005C01000018F3FF1F0000000080B572B60D
:1030E000FFF78EFDFFF7C8FE62B6FDF7E1FCFEF7C5
:1030F000DBFBFEF7FBF9F8E780B500200449086028
:10310000FFF75EFEFFF700FFFFF7E8FFFEE700BFF7
:10311000008104400120C046002801D0FFF7C2FF13
:103120000020C046C046FFF7D9FF00F000F880B588
:1031300000F002F801BD00000746384600F002F832
:10314000FBE700002021090326311820ABBEF9E778
:103150000020002100220023002400250026002753
:1031600062B6FFF7C9FFFEE780B503480168034870
:10317000FDF7D1FB01BD000004ED00E04830000088
:1031800010B504002100C9B20020FEF7ECFD10BD0F
:10319000C046C046C046C046FFF7BCFF00B0064070
:0431A00000C0064025
:040000050000319135
:00000001FF
