:1000000070F9FF1F69380000813800008138000056
:1000100081380000813800008138000081380000FC
:1000200081380000813800008138000081380000EC
:1000300081380000813800008138000081380000DC
:1000400081380000813800008138000081380000CC
:1000500081380000813800008138000081380000BC
:1000600081380000813800008138000081380000AC
:10007000912500008138000081380000813800009F
:10008000813800008138000081380000813800008C
:100090008138000081380000A1370000813800005D
:1000A000813800008138000081380000813800006C
:1000B000813800008138000081380000813800005C
:1004100080B5012000F02BFD13494864012000F055
:100420001EFD022000F023FD10490860022000F0AC
:1004300016FD01BD80B503220021092000F0C2FD98
:100440000B490978401A0A494880032200210C20F0
:1004500000F0B8FD06494978401A0549888000F047
:1004600082FE00F007F801BD68F3FF1F34F4FF1FA0
:10047000D0F4FF1FF8B591480068914940189149A0
:10048000086090480068322100F00AFF8D4908603A
:100490008C4800688B49C968401A8A4908608748B7
:1004A0004068894940188749486086484068322139
:1004B00000F0F6FE83494860824840688149096936
:1004C000401A804948607D488068804940187D49CD
:1004D00088607C488068322100F0E2FE79498860BB
:1004E0007848806877494969401A76498860754834
:1004F000406874498968401A724988877148406821
:1005000070490968401A6F49C8876E4800686D498C
:100510008968401ACA4908806A483C21405E01281F
:100520001ADB68483C21405E00F014FF0022C54BF6
:1005300000F028FF04000D0062484221405E00F0F8
:1005400009FF02000B002000290000F0DDFF01F090
:1005500051F85C49888719E05A483C21405E00F018
:10056000F9FE0022B84B00F00DFF04000D005548C5
:100570004821405E00F0EEFE02000B002000290042
:1005800000F0C2FF01F036F84E4988874D483E2101
:10059000405E01281ADB4B483E21405E00F0DAFE47
:1005A0000022AA4B00F0EEFE04000D004548442155
:1005B000405E00F0CFFE02000B002000290000F09A
:1005C000A3FF01F017F83F49C88719E03D483E21D5
:1005D000405E00F0BFFE00229D4B00F0D3FE040001
:1005E0000D0038484A21405E00F0B4FE02000B00C6
:1005F0002000290000F088FF00F0FCFF3149C88787
:1006000030484021405E01281ADB2E484021405EE0
:1006100000F0A0FE00228F4B00F0B4FE04000D009D
:1006200028484621405E00F095FE02000B002000A5
:10063000290000F069FF00F0DDFF8149088019E022
:1006400020484021405E00F085FE0022824B00F0F1
:1006500099FE04000D001B484C21405E00F07AFE1C
:1006600002000B002000290000F04EFF00F0C2FF46
:100670007349088013483C21405E082828DA114855
:100680003C21405E0621C943884221DB0D483E21C2
:10069000405E08281CDA0B483E21405E0621C94313
:1006A000884215DBC9480078022803D0C748007883
:1006B00003280DD10020C649087094E144F5FF1FBE
:1006C0005C46D6FF78F4FF1F245AD7FF4053D6FF6D
:1006D000C0483E21405E06282DDABE484021405EDB
:1006E000012828DAB9480078002803D0B7480078F4
:1006F000022820D10220B54908700A20B4490870A8
:10070000B4483C21405E00F025FED3A20CCA00F0A4
:1007100039FED3A20CCA00F094FF00F06BFFCD4964
:100720000880AC485221405E502800DB5BE150203D
:10073000C849088057E1A7483E21405E062800DAF4
:100740008CE0A4484021405E2721C943884200DB59
:1007500084E09E480078002807D09C480078012853
:1007600003D09A480078022878D100209749087071
:1007700014209749087097483C21405E00F0EAFD3C
:10078000CBA20CCA00F0FEFD04000D0091483C21F4
:10079000405E00F0DFFD22002B0000F0F3FD0400BE
:1007A0000D008C483C21405E00F0D4FD22002B005F
:1007B00000F0E8FD06000F0086483C21405E00F096
:1007C000C9FDA9A20CCA00F0DDFD04000D0081489E
:1007D0003C21405E00F0BEFD22002B0000F0D2FD67
:1007E00032003B0000F02DFF04000D0079483C2151
:1007F000405E00F0AFFD9EA20CCA00F0C3FD0200F7
:100800000B002000290000F07FFF9BA20CCA00F023
:1008100018FF00F0EFFE8F4908806E485221405EBD
:10082000512803DB50208B490880DCE069485221C5
:10083000405E0A2800DBD6E00A2086490880D2E024
:10084000B8F4FF1F00206D4000A06FC000206C4076
:1008500000E06CC000606E40007070C05D483C21DC
:10086000405E07287DDB5B484021405E2821C9436C
:10087000884276DB55480078002807D05348007836
:10088000012803D05148007803286AD101204F493C
:1008900008701E204E4908704E483E21405E00F010
:1008A00059FD77A20CCA00F06DFD04000D00494807
:1008B0003E21405E00F04EFD22002B0000F062FD64
:1008C00004000D0043483E21405E00F043FD22003D
:1008D0002B0000F057FD06000F003E483E21405E11
:1008E00000F038FD68A20CCA00F04CFD04000D00B9
:1008F00038483E21405E00F02DFD22002B0000F024
:1009000041FD32003B0000F09CFE04000D00314828
:100910003E21405E00F01EFD5DA20CCA00F032FDDB
:1009200022002B0000F08DFE5BA20CCA00F089FEB5
:1009300000F060FE4749088026485221405E0B289F
:1009400003DB0A20434908804DE022485221405EE3
:100950004F21C943884246DA4F20C0433D490880B1
:1009600041E01C483C21405E072835DA1948402107
:10097000405E022830DB15480078012803D0134878
:100980000078032828D10320104908702820104936
:10099000087010483E21405E00F0DCFC40A20CCA0A
:1009A00000F0F0FC40A20CCA00F04BFE00F022FE6A
:1009B0002849088007485221405E4E21C943884299
:1009C00011DB4F20C043234908800CE0C6F4FF1F11
:1009D000C7F4FF1F78F4FF1F3220384908703A48E7
:1009E00000881C49088034480078012821D105205E
:1009F00000F00EFF3C20314908703548007833493B
:100A000008702F485421405E2D495222895E401AB9
:100A100015280ADA2A485421405E29495222895E63
:100A2000401A1321C943884203DA2748008809493C
:100A300008800848008824490988401A214908701C
:100A40000448008820490880204800782049087020
:100A5000F1BD00BFCAF4FF1FB5A679C7293AD23F3E
:100A600014AE47E17A2C6340F168E388B5F8043F9F
:100A7000BE9F1A2FDD24B63F6891ED7C3F153F40A5
:100A80008DEDB5A0F7C6C03EF168E388B5F8E43E49
:100A9000BBB88D06F016B83F77BE9F1A2FFD41C038
:100AA000D50968226C78D2BFA4703D0AD74363C0D1
:100AB0008DEDB5A0F7C6B0BE69F5FF1FC7F4FF1FE7
:100AC00078F4FF1FC9F4FF1FCCF4FF1FC6F4FF1F0B
:100AD000C8F4FF1F38B504000D00E4B2002C03D0A9
:100AE000022C55D039D36EE0AB4800688021490410
:100AF0000143A9480160EDB2002D08D0022D12D0AB
:100B00000BD3042D1BD014D3052D1ED023E0802140
:100B1000C900412000F086FE1EE08021C90042206D
:100B200000F080FE18E08021C900432000F07AFE2A
:100B300012E08021C900442000F074FE0CE0C021C6
:100B40008900482000F06EFE06E0C021890049209F
:100B500000F068FE00E036E035E08F480068802154
:100B6000890401438C480160EDB2002D02D0012DB3
:100B700006D00BE0C02189000C2000F053FE06E0F7
:100B8000C02189000D2000F04DFE00E01BE01AE0BE
:100B9000814800688021C90401437F480160EDB2AB
:100BA000002D02D0012D06D00BE0C021890032209B
:100BB00000F038FE06E0C0218900332000F032FE4C
:100BC00000E000E0FFE731BDFCB583B006000F0098
:100BD0003900C9B23000C0B2FFF77CFF6F4800682F
:100BE0006F494843400801900198000C039900F0B8
:100BF0005AFB040000200500A4B22000284101286F
:100C000001DB6D1CF8E70198E840039900F04BFB0D
:100C10000400F6B2002E03D0022E18D00CD321E02F
:100C20000498A4B22100491C4843FA21890000F02D
:100C30003AFB6946088015E00498A4B22100491CDB
:100C40004843642100F02FFB694608800AE00498BD
:100C5000A4B22100491C4843642100F024FB6946EA
:100C60000880FFE78648F6B2042171434058FFB27E
:100C70000821794340188249F6B204227243895808
:100C8000FFB208227A438918C96804229143C160DF
:100C90007B48F6B2042171434058FFB208217943E2
:100CA00040182821C160774800687749014075489D
:100CB0000160744800688021490401437148016063
:100CC000EDB26907490F082008436D49F6B20422C6
:100CD000724389580860A4B26948F6B2042171438E
:100CE000405884606648F6B2042171434058FFB210
:100CF000082179434018694609880161002060494C
:100D0000F6B2042272438958486005B0F0BDF8B5C8
:100D100004000D0016000027E4B2002C03D0022CC2
:100D200003D001D302E001E000E0FFE75448E4B261
:100D300004216143405880680700002FF6D0E4B2D8
:100D4000002C03D0022C12D009D318E03800401C2C
:100D50007043FA21890000F0A6FA00900FE03800F5
:100D6000401C7043642100F09EFA009007E03800B8
:100D7000401C7043642100F096FA0090FFE7404861
:100D8000E4B2042161434058EDB2082169434018A0
:100D900000990161F1BD00003C8004405CF5FF1F3B
:100DA00040420F0070B504000D001600E4B2002CA4
:100DB00003D0022C11D008D316E0344800688021FB
:100DC00049040143314801600EE030480068802149
:100DD000890401432D48016006E02C480068802109
:100DE000C904014329480160EDB2002D0DD1284806
:100DF000006880214904A14088432549086080217A
:100E0000C9004C2000F00EFD0FE0EDB2012D0CD119
:100E10001F48006880214904A14001431C4801602B
:100E20008021C9004D2000F0FDFCF6B27007400F94
:100E3000102101431248E4B2042262438058016049
:100E400014480F49E4B204226243895888600020A4
:100E50000B49E4B2042262438958486070BD002106
:100E6000074AC0B204234343D25851607047044933
:100E7000C0B2042250430858406880B27047000056
:100E800010F3FF1F04800440FFFFFFFC3C80044080
:100E90000C800440FFFF000038B504002500EDB2CF
:100EA0006D09EDB2002D10D174480068802109054C
:100EB000014372480160724800689021884370497C
:100EC00008606F4800686E490860E4B2200000289E
:100ED00024D0012827D002282AD003282DD0042886
:100EE00030D0052833D0062836D0072839D0082836
:100EF0003CD009283FD00B2842D00C2845D00D28E3
:100F000048D00E284BD00F284ED0172851D01A2881
:100F100054D01D2853D01E2852D052E000219420D6
:100F200000F080FC4DE00021902000F07BFC48E0C8
:100F30000021922000F076FC43E00021962000F092
:100F400071FC3EE00021952000F06CFC39E00021AE
:100F5000912000F067FC34E00021932000F062FC57
:100F60002FE00021972000F05DFC2AE000212020E6
:100F700000F058FC25E00021212000F053FC20E087
:100F80000021422000F04EFC1BE00021222000F056
:100F900049FC16E00021232000F044FC11E0002170
:100FA000402000F03FFC0CE00021412000F03AFC22
:100FB00007E000219E2000F035FC02E001E000E0A7
:100FC000FFE731BDF7B5070000243E00F6B2760911
:100FD000684601793800C0B200F029F80020050009
:100FE0006846007AEDB285421ED22648F6B2042148
:100FF0007143405800680006F7D52248F6B2042134
:1010000071434058006924181E48F6B20421714308
:1010100040580068802188431A49F6B2042272437E
:10102000895808606D1CDBE7200080B2FEBD70B4FB
:101030000200D2B25209C306DB0EC9B28C000C25E5
:10104000254050242C430F4DD2B204265643AD59AF
:10105000AC6004240B4DD2B204265643AD59EC606B
:10106000DBB2DD06ED0E40242C43064DD2B2042641
:101070005643AD592C6070BC704700003C80044062
:1010800018800440C0F0FF1F80B5B8214901082036
:1010900000F054FDB8214901092000F04FFDB821AE
:1010A00049010A2000F04AFDB82149010B2000F057
:1010B00045FD00210C2000F041FD00210D2000F035
:1010C0003DFD00210E2000F039FD00210F2000F031
:1010D00035FD8021C900102000F030FD8021C900BD
:1010E000112000F02BFD8021C900122000F026FD08
:1010F0008021C900132000F021FD5649142000F082
:101100001DFD5449152000F019FD5249162000F02C
:1011100015FD5049172000F011FD4F49192000F02E
:101120000DFD4B491A2000F009FD4C491B2000F031
:1011300005FD8421C9011E2000F000FD48491F2043
:1011400000F0FCFC8421C901202000F0F7FC842180
:10115000C901212000F0F2FC01BD80B541491A20EF
:1011600000F0ECFC01BD10B50024002000F0FFFCF5
:101170000400A4B22005000D00043B490860A4B29D
:1011800020000012F021014038480170012000F0D9
:10119000EEFC3549096880B2014333480160022002
:1011A00000F0E5FC0400A4B22005000D00042E4967
:1011B0004860A4B220000012F02101402B48417089
:1011C000032000F0D4FC2849496880B20143264836
:1011D0004160042000F0CBFC0400A4B22005000D07
:1011E000000421498860A4B220000012F0210140CF
:1011F0001E488170052000F0BAFC1B49896880B246
:10120000014319488160062000F0B1FC0400A4B23B
:101210002005000D00041449C860A4B2200000128B
:10122000F02101401148C170072000F0A0FC0E49D8
:10123000C96880B201430C48C16000F001F810BDDC
:1012400080B5182000F093FC0949088001BD00001A
:10125000013E00000110000001F8000009C200007A
:10126000404A0000011E000044F5FF1F54F5FF1F17
:1012700066F5FF1FF446002804D4494200F013F835
:10128000404260474042002905D45FD000F00BF88F
:10129000404249426047494200F005F849426047F0
:1012A00003460B43E6D40022030A8B420BD2030908
:1012B0008B4219D243088B422ED2411A00D20146EA
:1012C000524110467047FF2209023FD012068B425E
:1012D00005D3121209028B4201D31212090203092B
:1012E0008B4219D300E0090AC3098B4201D3CB0119
:1012F000C01A524183098B4201D38B01C01A52415B
:1013000043098B4201D34B01C01A524103098B425E
:1013100001D30B01C01A5241C3088B4201D3CB0049
:10132000C01A524183088B4201D38B00C01A52412C
:1013300043088B4201D34B00C01A5241884200D36C
:10134000401A5241CFD201461046704708B5C046F8
:10135000C04608BD010007D5F446404200F004F83D
:101360000122D2071143604742221201D21E0042DD
:1013700007D002D4521E0018FCD5C10A4005120540
:1013800089187047F0B50E005E400125ED072E402C
:10139000B446AE0ADF184C18F44208D2F7420ED217
:1013A000640D01D07F0D12D100206146F0BD05D142
:1013B000F74201D87F0D05D10020C143F0BDFBD11C
:1013C000640DF9D00020C143490549088FE0E419B4
:1013D000C902DB0229432B43DB0A460DC00231431D
:1013E0008E4630B487B295B27D432E0CADB2140C4C
:1013F0007C43A419260C240425439CB27C43A419E5
:10140000190C7943270CC919A4B20F043C43090CE9
:10141000000C97B247432E0CBE193543ADB2170CE2
:101420004743360CBF19A6B2BF193E043543240CFE
:101430003E0C36199FB24743BF19BCB23E0C891906
:101440001F0C47437F183E043443390C704680B26A
:1014500097B247432E0CBE193543ADB2170C474324
:10146000360CBF19A6B2BF193E043543240C3E0CFE
:1014700036199FB24743BF19BCB23E0C89191F0CE5
:1014800047437F183E043443390C77463F0C90B2F3
:1014900078432E0C80190604ADB22E43050CA0B281
:1014A0002D18120C7A435019020C80B2240CA41887
:1014B0009AB27A43121914042043120C89181B0C97
:1014C0007B43C91830BCEF0A394203D1B6194041F9
:1014D0004941641E6F12BF0DE41B0BDBFF19BC42B8
:1014E00011DA240500274208AE4178416141664681
:1014F0003143F0BD641C05D1401C6141CF0201D3D2
:101500004908F4E750E75DE7F0B40E005E400125BE
:10151000ED072E40B446AE0ADF184C18F4423BD219
:10152000F74241D2640D43D07F0D38D0E41BC9028D
:10153000DB0229432B43CF0ADB0A0600B61A9F4180
:1015400004D2641EB6197F41B6185F416812800D3F
:1015500024180018844222DAE80C0021B6197F41D1
:10156000B61A9F4102D2B6185F413F1C4041494123
:10157000F4D3241C21DD2405B6197F41B61A9F41FE
:1015800005D33743C60737430026012F7041614119
:1015900066463143F0BC7047FCD1F74205D20020CB
:1015A000C14349054908F3E704D00020C143F1E7EE
:1015B0007F0DFAD000206146ECE72442FAD1401CAE
:1015C00061410F03F6D30020E2E730B4012100228D
:1015D0000368001D002B0BD00468001D0C4202D0D4
:1015E0004D466D1E64192260241D1B1FF0D0FAE7C2
:1015F00030BC7047F4464A1805D200F00DF801D50A
:1016000080174008604700F007F80121C9078842A9
:1016100000D9080040426047400DC902084301213B
:10162000C9070843520D40210901521A521C06D421
:1016300052421F3201D4D0407047C017704700207B
:101640007047F0B40125ED070F005F404FD48B4287
:1016500000D1824205D98446100062468C461900AA
:101660006346DF184C18640D7F0D3AD0661C760572
:1016700037D0E61B352E34DCDB022B43DB0A0C0DA6
:10168000C9022943C912202E0DDB1700203E06D0C7
:101690001F00F741F3405F400026012A7741C01840
:1016A00071410DD217E01700F741F2405740F34166
:1016B0005A40B340F3405A400026801859410AD39B
:1016C000A21C52050FD0C207012F7241170040081B
:1016D000CB0718434908641C24054208AF417041F8
:1016E0006141F0BC7047641C21050020F9E76B40A4
:1016F00010E06B40ABE7F742F3D1E943F1E7244256
:10170000EFD100200021ECE7F0B40125ED070F0038
:101710005F40EED40C00871A9C4105D2C01BA1414A
:10172000D219634169406B40AE0ADF184C18F4428D
:10173000E1D2640D7F0DE2D0E61B362ED1DCDB0258
:101740002B43DB0AA4460C0DC9022943C90A012E0A
:1017500028DC04D1D6075208DF073A435B08EF0ABA
:1017600076429041994114D039423BD1B61940415B
:101770004941761C394204D1761C0018494139424E
:10178000FAD0B9436746B74208D9A41B24052143C0
:10179000A7E70042EAD13642E8D1A2E7E40AE1072E
:1017A00000209EE7202E0BDD203E1F00F340F74176
:1017B0005F40012A002257417E42984191410BE04F
:1017C0001700F741F2405740F3415A40B340F3400D
:1017D0005A407E42904199410A0303D2641EB619D1
:1017E000404149410027641E24054208AE4178412A
:1017F0006141F0BC7047000080B5002201216320E8
:1018000000F0D8F900220121802000F0D3F901BDB9
:101810000021034A1180014908707047C4F0FF1F7E
:1018200064F5FF1F10B40D4A126880239B0004006A
:10183000E4B26409A3401343084A1360084AC0B2E3
:1018400003005B1104246343D258C0B2C306DB0E0D
:1018500004246343D15010BC70470000388004401A
:10186000D0F0FF1F10B50400AE48006802214843C5
:10187000FA218900FFF717FD0100012000F0FEF9B1
:1018800010BD80B5A8480068802189040143A6489E
:101890000160A6480068802189040143A3480160D3
:1018A0000220FFF7DFFFA1480068802149040143BF
:1018B0009E4801600220FFF7D5FF9C4800689C49C4
:1018C00001409A4801600220FFF7CCFF974800686A
:1018D00098490140954801600220FFF7C3FF01BD10
:1018E00080B5914800688021890401438E480160D9
:1018F0008E4800688E4901408C4801600220FFF745
:10190000B1FF8A480068802149040143874801608B
:101910000220FFF7A7FF8548006880218904014362
:10192000824801600220FFF79DFF01BD10B57F488E
:1019300000688021490401437C4801600220FFF7D0
:1019400091FF0020040078480068794901407648FA
:1019500001607948006801008901C90F002901D0A0
:10196000012004000220FFF77DFF704800687149E4
:1019700001406E4801606C48006880218904014381
:10198000694801602000C0B210BD80B5664800689B
:101990008021890401436448016064480068802113
:1019A00089040143614801600220FFF75BFF5F4843
:1019B00000688021490401435C4801600220FFF770
:1019C00051FF5A4800685B490140584801600220B5
:1019D000FFF748FF01BD80B55348006880218904A6
:1019E00001435148016051480068514901404F4846
:1019F00001600220FFF736FF4C480068802149044F
:101A000001434A4801600220FFF72CFF4748006865
:101A1000484901404548016001BD38B50400002037
:101A20000500EDB2082D28DA3F48006880218904BE
:101A300001433D4801603D4800683D4901402000A8
:101A4000C0B2C009C0B240060843384908603748F0
:101A50000068802149040143344801600220FFF7F7
:101A600001FF3248006833490140304801600220DC
:101A7000FFF7F8FE64006D1CD3E7FFF757FF31BD99
:101A800038B5082500242800451EC0B2002846D0DD
:101A900025480068802189040143234801602348C8
:101AA0000068802189040143204801600220FFF77B
:101AB000D9FE1E4800681F4901401C4801600220F1
:101AC000FFF7D0FE194800688021490401431748F8
:101AD00001600220FFF7C6FE134800681449014068
:101AE0001148016064001448006801008901C90FB1
:101AF000002903D020000124044302E02000FE243A
:101B000004400A4800680B49014008480160064843
:101B1000006880218904014303480160B3E7200085
:101B2000C0B232BD60F5FF1F14F10F4000F10F404D
:101B3000FFFFFFFDFFFFFFFE10F10F4038B505006E
:101B40000C00FFF79EFE5420FFF767FF2800C0B28D
:101B5000FFF763FF200080B2000AC0B2FFF75DFF0D
:101B60002000C0B2FFF759FFFFF7BAFE31BD38B50C
:101B700004000025FFF785FE5420FFF74EFF2000EC
:101B8000C0B2FFF74AFFFFF77CFE5520FFF745FF85
:101B9000FFF776FF05002D02FFF71DFFFFF770FF2F
:101BA00028430500FFF7F1FEFFF79AFE280080B2F8
:101BB00032BD000070B504000D0016002D48E4B2DF
:101BC00021004911042251434058E4B2E106C90EF4
:101BD00004225143802252004250EDB2012D1BD10C
:101BE0002548E4B2210049110422514340582249BA
:101BF000E4B22200521104235A4389584969012250
:101C0000E306DB0E9A400A4342613100C9B220006C
:101C1000C0B200F017F814E01748E4B221004911EF
:101C20000422514340581449E4B2220052110423C3
:101C30005A43895849690122E306DB0E9A409143D1
:101C4000416170BD30B40C4AC0B203005B11042482
:101C50006343D25813680122C406E40EA2401A431B
:101C6000054BC0B20400641104256C431B591A6073
:101C700030BC7047D0F0FF1FE4F0FF1F10B52D4AB5
:101C8000126880231B0413432A4A13602A4A1268ED
:101C900002239A43284B1A60284AC0B210234343B8
:101CA000D218926801239A43244BC0B210244443B3
:101CB0001B199A604A1E214BC0B2102444431A518A
:101CC0001E4AC0B210234343D218D26801231343E3
:101CD0001A4AC0B2102444431219D360174AC0B242
:101CE00010234343D218926801239A43134BC0B286
:101CF000102444431B199A600122104BC0B21024D7
:101D000044431B199A600D4AC0B210234343D218B2
:101D1000D268D207F7D5094AC0B210234343D2187C
:101D2000D26801231343054AC0B210244443121958
:101D3000D36010BD3C80044000700340007103403C
:101D400070B504000D0016003068012802D002288A
:101D500005D00BE02000C0B27168884706E0200083
:101D6000B1680870B068401CB060FFE72868401C8C
:101D7000286070BDFFB584B00020060004980500FF
:101D8000002028706D1C0698002825D00598006852
:101D900001900198002803D130202870761C3FE084
:101DA000019800283CD001980799FFF779FA039031
:101DB00001980399079A5143401A0700002F03D551
:101DC000F8430700313700E03037039801903800BE
:101DD00028706D1C761CE3E7059800680090009859
:101DE000002803D130202870761C19E000980028C4
:101DF00016D000980799FFF756FA029000980299BA
:101E0000079A5143401A04000A2C01D2303400E0F2
:101E1000373402980090200028706D1C761CE5E78E
:101E2000300008B0F0BDF8B507000E0015003C000A
:101E3000B44206DA009A29003020FFF781FF641CC3
:101E4000F6E7F1BDF8B507000E0015003C00B442FE
:101E500006DA009A29002020FFF772FF641CF6E7DB
:101E6000F1BDF3B595B01400002000901698050060
:101E7000287802900298002800D1E1E102982528F4
:101E800013D002980A2805D0159A69460298FFF7E0
:101E900057FF09E0159A69460D20FFF751FF159A83
:101EA00069460A20FFF74CFFC8E100200700002028
:101EB00005900598002824D16D1C2878202810D082
:101EC000232816D02B2808D02D2802D030280CD05B
:101ED00013E0380001270743EBE7380002270743E8
:101EE000E7E7380004270743E3E7380008270743FC
:101EF000DFE7380010270743DBE76D1E0120059060
:101F0000D7E700200190002005900598002812D105
:101F10006D1C2878029002983038092807D801985B
:101F20000A2148430299401830380190EDE76D1EB0
:101F300001200590E9E76D1C28782E280ED100209D
:101F40000590059800280AD16D1C2878303809289A
:101F500000D8F6E76D1E01200590F2E76D1E6D1C9E
:101F600028784C2806D0682802D06C2801D002E0DE
:101F700002E001E000E06D1E6D1C287802900298DE
:101F8000582872D0622800D1CCE0632800D116E135
:101F9000642813D0692811D06E2800D142E16F283F
:101FA00000D1B4E0702800D1C7E0732800D110E15F
:101FB000752800D1CCE0782857D03AE12068241D5C
:101FC00009900A23012209A90CA8FFF7D3FE0600F5
:101FD0000CA8801908900998002803D52D2004909A
:101FE000761C0DE0B80703D52B200490761C07E083
:101FF000780703D520200490761C01E0002004908F
:1020000000200690380712D50498002804D0159AAD
:1020100069460498FFF794FE01200690159B6A46D6
:1020200001993000FFF7FFFE0198060011E0F80764
:102030000FD4159B6A4601993000FFF703FF0498FF
:10204000002804D0159A69460498FFF779FE01200C
:1020500006900698002807D10498002804D0159A05
:1020600069460498FFF76CFE92E02068241D0390F7
:102070001023002203A90CA8FFF77CFE06000CA881
:102080008019089000200690380716D5F8060BD561
:10209000159A69463020FFF753FE159A6946782055
:1020A000FFF74EFE01200690159B6A46019930000D
:1020B000FFF7B9FE0198060018E0F80716D4F806F5
:1020C00000D5B61C159B6A4601993000FFF7BAFE91
:1020D000F8060BD5159A69463020FFF731FE159AA0
:1020E00069467820FFF72CFE01200690F8060DD5F2
:1020F000069800280AD1159A69463020FFF720FE7D
:10210000159A69467820FFF71BFEB61C40E0206850
:10211000241D03900823002203A90CA8FFF72AFE20
:1021200006001FE02068241D03900223002203A95B
:102130000CA8FFF71FFE060014E02068241D039082
:102140001023002203A90CA8FFF714FE060009E0E3
:102150002068241D03900A23002203A90CA8FFF77E
:1021600009FE06000CA880190890380708D5159BB1
:102170006A4601993000FFF756FE0198060007E015
:10218000F80705D4159B6A4601993000FFF75AFEFF
:1021900008980078002809D0159A694608980078B0
:1021A000FFF7CEFD0898401E0890F1E7F80705D527
:1021B000159B6A4601993000FFF744FE3EE0206817
:1021C000241DC0B20A90159A69460A98FFF7B8FD17
:1021D00034E02068241D07900798002821D0079834
:1021E00000F048F80600F80705D4159B6A460199E7
:1021F0003000FFF727FE07980078002809D0159ACD
:10220000694607980078FFF79BFD0798401C0790E8
:10221000F1E7F80705D5159B6A4601993000FFF7ED
:1022200011FE0BE02068241D0B9000980B990860AC
:1022300004E0159A69460298FFF782FD6D1C17E6C7
:10224000009817B0F0BD0EB47EB5050001200090D7
:102250000748019007A80600320029006846FFF7EA
:1022600000FE0400200003B0039970BC04B00847CE
:102270009938000000B501000A000023002A01D1AE
:10228000002008E010000200521C0078002801D055
:102290005B1CF7E7180000BD80B5012201218120F9
:1022A000FFF788FC012201218220FFF783FC012235
:1022B00001218320FFF77EFC012201218420FFF70A
:1022C00079FC012201218520FFF774FC01BD00008B
:1022D00000B50821914A1268082313438F4A1360FE
:1022E0008E4A126804239A438C4B1A600A00511ECE
:1022F000D2B2002A1DD0020606D5884A12680223EF
:102300001343864A136005E0844A126802239A4305
:10231000824B1A60814A1268042313437F4A136078
:1023200000BF7E4A126804239A437C4B1A60400027
:10233000DCE700BD00B50821784A126808239A43FB
:10234000764B1A60754A126804239A43734B1A60DD
:102350000A00511ED2B2002A1DD0020606D56F4ACD
:102360001268022313436D4A136005E06B4A12683A
:1023700002239A43694B1A60684A12680423134384
:10238000664A136000BF654A126804239A43634B90
:102390001A604000DCE700BD38B505000C002000E5
:1023A0005038C0B2FFF7C6FF2900C9B20909102092
:1023B0000843C0B2FFF7BEFF2907090F01200843F9
:1023C000C0B2FFF7B7FF31BD70B5040000200500B3
:1023D000EDB2082D17DA28005038C0B2FFF7AAFF77
:1023E0000120FFF7A7FF1020FFF7A4FF0020060041
:1023F000F6B2802E05DA2000C0B2FFF769FF761C26
:10240000F6E76D1CE4E770BD00B580B2002809D086
:10241000FA22920111000A00511E92B2002AFAD14A
:10242000401EF2E700BD80B5FFF736FF3B4800686D
:10243000042101433948016038480068102188436D
:1024400036490860354800682021884333490860D0
:102450003220FFF7D9FF31480068202101432F487F
:102460000160AE20FFF766FF0020FFF763FF10203A
:10247000FFF760FF4020FFF75DFF8120FFF75AFF65
:10248000CF20FFF757FFA120FFF754FFC820FFF729
:1024900051FFA620FFF74EFFA820FFF74BFF3F207C
:1024A000FFF748FFD320FFF745FF0020FFF742FF6B
:1024B000D520FFF73FFF8020FFF73CFFD920FFF733
:1024C00039FFF120FFF736FFDA20FFF733FF122044
:1024D000FFF730FFDB20FFF72DFF4020FFF72AFF3B
:1024E0002020FFF727FF0220FFF724FF8D20FFF7B2
:1024F00021FF1420FFF71EFFA420FFF71BFFA620DB
:10250000FFF718FFAF20FFF715FF0020FFF75CFF74
:1025100000210020FFF740FF01BD000000F10F4047
:10252000F7B51F000024FFB238000821FEF7B8FEFF
:10253000002906D1FFB238000821FEF7B1FE0600DF
:1025400006E0FFB238000821FEF7AAFE401C060094
:10255000684600790600FFB2F6B2B74217D33100E1
:10256000C9B268460078FFF717FF68460078050093
:102570006846007AEDB2854207D20898A4B2005DA1
:10258000FFF7A6FE641C6D1CF2E7761CE3E7F7BDBF
:10259000F8B5002000F016FA9C4908719B480068C5
:1025A000642800DBF4E0994800799849974A12685A
:1025B0008918887195480068401C944908609348C0
:1025C0000068292800DA93E090489049096840188B
:1025D00023380078FF2800D08AE08C488B490968AE
:1025E000401822380078552800D081E08748874974
:1025F0000968401821380078AA2879D1834883498E
:102600000968401820380078102871D100208049CE
:1026100008707E480068293805002C007B48006857
:10262000401E844209DA7A48007878490919897984
:10263000401877490870641CF0E7754800787349C2
:10264000724A12688918497988424DD100200400E5
:10265000092C47DA6D480421614369184018807AD3
:10266000802149044843694904226243AA18891811
:10267000C97A8022520251434018644904226243BD
:10268000AA188918097B80225200514340185F49DB
:1026900004226243AA188918497B4018060080204A
:1026A0000006864203D35B48801B070000E037002A
:1026B0003800FEF74FFE584A08236343D21803C27E
:1026C000083A554808216143401803C80022534B7B
:1026D000FEF71AFF504A08236343D21803C2083A90
:1026E000641CB5E700F058F800204849086052E043
:1026F0004648006807284EDB4448444909684018AA
:10270000401E0078FF2846D1404840490968405C97
:10271000552840D13D483D49096840184078AA28CD
:1027200039D13A483949096840188078772832D138
:1027300000203749087035480068C01F05002C008C
:1027400032480068401E844209DA314800782F4937
:102750000919897940182E490870641CF0E72C4843
:1027600000782A49294A12688918497988420BD188
:10277000264826490968401801792448234A1268E6
:102780008018C07800F00DF800202049086002E0B1
:1027900000201E490860F1BD80B50220FFF738F81F
:1027A00001BD38B505000C00E4B22000062816D0A3
:1027B000072815D0082814D0092813D00A2812D0C9
:1027C0000B2811D00C2810D064280FD065280ED00B
:1027D000662810D067280FD068280ED010E00FE0D0
:1027E0000EE00DE00CE00BE00AE009E008E000205C
:1027F0000B49087004E003E002E00120084908707A
:102800000220FFF705F831BD00000000D8F4FF1FDB
:1028100043F5FF1FFFFFFF7F20F3FF1F0000F04085
:1028200068F5FF1FF0B583B006000F007C4C7D48B3
:10283000F6B2042171434018001F00680500F6B28B
:10284000002E64D1784800688021C9000143764891
:102850000160C02189006620FEF7E4FFC0218900E5
:102860006720FEF7DFFF714800688021C90401433B
:102870006E4801606D4800688021490201436B4841
:102880000160E078F3210140E17068466849096819
:102890004908818068468188FA20800048431021D9
:1028A0007943FEF700FD6946088068462178E022FA
:1028B0000A408270684680786946098889B2090AA8
:1028C000C906C90E014321706846008860700F2058
:1028D0006749087000206749087000206649087041
:1028E0000020664908700020654908706548007836
:1028F0001F2101436348017063480078C0210143F0
:1029000061480170E0780C210143E17059E0F6B2B2
:102910003000012802D0022812D023E0424800688B
:1029200080210901014340480160C0218900432002
:10293000FEF778FFC02189004420FEF773FF11E005
:102940003948006880214901014337480160C021AE
:1029500089006420FEF766FFC02189006520FEF72C
:1029600061FFFFE7E878F3210140E9700020A870DB
:1029700046480068FA218900484310217943FEF750
:1029800092FC6946088068462978E0220A408270F5
:10299000684680786946098889B2090AC906C90E5D
:1029A000014329706846008868700020A8700020E4
:1029B000A8711F20287100206871E8780C2101435C
:1029C000E970F7BD00B50100154A1648C9B20423E5
:1029D0004B43C018001F0368C9B2002904D1107905
:1029E0008006FCD5D07903E018798006FCD5D8792B
:1029F00000BD10B50A4A0B4BC0B2042444431B1956
:102A00001B1F1B68C0B2002804D114792406FCD512
:102A1000D17103E01C792406FCD5D97110BD0000EA
:102A200000A00640B4380000348004400480044014
:102A300058F5FF1F70B50400154D1648E4B2042187
:102A400061434018001F0668E4B2002C04D1E87806
:102A500020210143E97003E0F07820210143F17067
:102A6000E4B220000C3000F01AF870BD0000000045
:102A70000AA0064002A0064006A0064008A00640A4
:102A800009A0064004A0064005A0064060F5FF1F0F
:102A900000A00640B438000010490860704770B5C7
:102AA0000400212C03DB0E48FFF7CDFB15E00D4899
:102AB0000568012620002021FEF7F2FB8E402E4300
:102AC0000848066008480568012620002021FEF716
:102AD000E7FB8E402E430448066070BD08ED00E021
:102AE0003837000080E200E000E100E038B5040083
:102AF000E4B2002C00D1D6E0E4B22000302820D08F
:102B0000322825D050282AD060282FD0642834D0ED
:102B10006E2839D078283ED07D2843D0822848D0EE
:102B20008C284DD0962852D0A02857D0AA285CD007
:102B3000B42861D0C82866D0E1286BD0FA2870D0BC
:102B400076E018208449087000208349487073E0BB
:102B500018208149087001207F4948706CE01820D6
:102B60007D49087010207C49487065E018207A493A
:102B700008701820784948705EE01820764908707F
:102B80001A207549487057E01820734908701F20B3
:102B90007149487050E013206F49087018206E4941
:102BA000487049E013206C4908701A206A4948703F
:102BB00042E01320684908701C20674948703BE0D8
:102BC0000E206549087012206349487034E00E20D9
:102BD000614908701520604948702DE00E205E495B
:102BE000087018205C49487026E00E205A49087089
:102BF0001B20594948701FE00E20574908701E20BD
:102C00005549487018E00C20534908701C2052495F
:102C1000487011E00B20504908701E204E49487042
:102C20000AE00A204C4908701F204B49487003E015
:102C30006420FFF75BFF8EE0002047498870E4B214
:102C40001F2C03DA0020444948712CE0E4B23D2CEB
:102C500003DA01204049487125E0E4B25B2C03DA35
:102C600002203D4948711EE0E4B2792C03DA0320CA
:102C70003949487117E0E4B2972C03DA0420364949
:102C8000487110E0E4B2B52C03DA052032494871EE
:102C900009E0E4B2D32C03DA06202F49487102E0A0
:102CA00007202D4948712C484178183189B23220CB
:102CB000484329490978491C89B2FEF7F1FA050011
:102CC0002C2026490870B82025490870254800782E
:102CD0008007FBD523480078C006FBD42148007844
:102CE000C0B280088007800F0228F7D11A48007808
:102CF000C006C00E1C49087000201C490870164808
:102D000080780007144949790904E022D2020A4078
:102D100002431748026010484078C006C00E4021A8
:102D20000143124801700F4800788006FBD50D481A
:102D300000784006FBD50A4800788006800E0849D6
:102D4000087008480078C0B280088007800F032808
:102D5000F7D12800C0B232BDF8F0FF1F0140064095
:102D6000004006400640064004400640054006403C
:102D70004480044000B00340040000009A999999EF
:102D80009999A93F0090044000A0044000B004407D
:102D900000C0044000D0044000F00F4040F00F405D
:102DA00080F00F40C0F00F4000F10F400B1F0000FB
:102DB000000900000000000000000000000000000A
:102DC00000000080C0E06070303838181C0C0C0C1B
:102DD0000C040404040C0C0C081838307060C0C0DB
:102DE0008000000000000000000000000000000063
:102DF00000000000000000000000000000000000D3
:102E0000C0701C0607030100000000000000000065
:102E100000000000000000000000000000000000B2
:102E2000000103070F0E183070E0C08080800000A2
:102E3000000000000000000000000080C0E030182A
:102E40000E03010000000000000000000000000070
:102E50000000000000000000000000000000000072
:102E6000000000000000000000000000000101035D
:102E700003030206040C18F0C0F0FCFE0F0301006F
:102E80000000000000000000000000000000000042
:102E900000000000000000008080C0C0E0E0E0E032
:102EA000F0F07070783C3C3C1C1E0E1E38F8F8F8B0
:102EB0007E7E9E1626EEFEFEFEFF7FFF1D71C08009
:102EC0000000000000E0F8FC0E0F0E0E0E0C0C0CC3
:102ED0000C0E0E0E060676FFFFFF730303030101BF
:102EE0000140C0808080C0806000001E1F1F1F0E38
:102EF00003070E1E3E7FCF8F07070301003F000030
:102F000000010103030206FF83000000000000002F
:102F100000000000000000000000000000000000B1
:102F2000000000000001010000000000000000009F
:102F300000000000000000000003FEF80000000098
:102F4000000000000000000000071F78E080000083
:102F50000000000000000000000000000000000071
:102F60000000000000000000000000000000000061
:102F7000000000000000000080C060381F07000053
:102F80000000000000000000000000000000000140
:102F900003060C18183020606040C0C0C0808080DC
:102FA000808080808080808080C0C0C04040606021
:102FB0002020301018080C04060301000000000057
:102FC00000000000008003400090034000A0034088
:102FD0000000000080B54B48006B4B4900F0A8F89A
:102FE00002D84A484749086349480068464900F002
:102FF0009FF802D84548464908604248006B0021C6
:1030000000F0AAF802D200203E4908634048006858
:10301000002100F0A1F802D200203D4908603948A3
:10302000006B00F0ADF8020000210020FDF76FFEFC
:103030003748006800F0A4F8020003210020FDF7E3
:1030400066FE01BD80B5FDF7E3F92E484821405EDC
:103050002C49496C401A00F0A7F82A49886729488A
:10306000D021405E2C490968401A00F09DF82B4998
:1030700008602448806F2349C96F00F0E6F82149B1
:10308000C96C00F03AF91F4908671E48016D1D48D8
:10309000806F00F032F91B49096F00F09EF8194962
:1030A00008671E4800681E49096800F0CEF81D49EF
:1030B000096800F022F91C4908601C48016817489B
:1030C000006800F01AF91849096800F086F81649F6
:1030D00008600C48806F0B49C867104800681049A9
:1030E00008600848416F0748006F00F076F805490E
:1030F0004867084801680C48006800F06EF8054908
:10310000086001BD68F3FF1F01007A4400007A44A3
:1031100020F4FF1F64F4FF1F34F4FF1F68F4FF1F47
:103120006CF4FF1F3CF4FF1F60F4FF1F40F4FF1F0F
:103130000CB4012212060318DA4207D84B18DA42FF
:1031400004D802000A43921802D281420CBC704794
:10315000FCD088420CBC70470CB401221206031844
:10316000DA4207D84B18DA4204D802000A43921810
:1031700002D288420CBC7047FCD08142FAE70000C2
:1031800000180ED2010E7F390BD449421F3105D4ED
:10319000C0010122D2071043C84070470020401EE2
:1031A00070470020704700009D21020008D5F446BA
:1031B000524200F005F80122D20710436047000098
:1031C0000AD002D4491E9218FCD5C905100A12066D
:1031D000524100D3012A484170470122D20703001F
:1031E0004B402ED4431A01D2C01AC91830B44B1820
:1031F0000418240E1B0E22D0FF2C20D0E31A182B0B
:103200001DDC09021143C40D641E000210439446E4
:103210001925ED1A0A00AA40D940451801D36D08B6
:10322000A41CE405D209280A2D062A436546AA41B2
:10323000604103181B0EFF2B01D3C00DC00530BC2D
:103240007047514006E05140CCE70122D20703000D
:103250004B40F8D4431A03D2C01AC9185040514009
:1032600030B44B18090211430418240E1B0E40D031
:10327000FF2C3AD025009D410BD31ED8C50D40022E
:10328000401A0BD3ED050100400AC9059141684180
:10329000D5E7C50D40024918401AD0D00121400899
:1032A000491C0018FCD58C4204D36D1A000AED05A8
:1032B0004019C4E7E8051040C1E7182DBFDCAC1C7D
:1032C0000D00E140E5414D40012D4941C40D000292
:1032D0001043451A01D46D199543641EE405280A6C
:1032E0002D069541604130BC7047FF2BA7D1D843D4
:1032F000A5E72442A3D10020A1E730B405004D404A
:103300000122D20715404B180418240E30D01B0E92
:1033100034D0FF2C36D0FF2B3CD0E4180002090239
:1033200010431143000A090A9446C2B24A43000AF4
:10333000C3B24B43000A4843110A5B18190A12062C
:103340001B0C1A43120A091801D44918641E080AF2
:103350007F3C23DBFE2C08DAE405090611436346B3
:1033600099416041284330BC7047FF20C005F9E710
:1033700028001B0EFF2BF6D1D043F4E72800FF2CCA
:10338000F1D1F9E74002F7D1FF2B01D14902F3D186
:10339000E005E7E7D8054902E4D0EDE74302002065
:1033A000641CDFD15B129B1CDCD9D805DAE7000076
:1033B00080B5FEF721FA3448006801210143324804
:1033C0000160324800680821884330490860E121E3
:1033D00049020020FFF726FAFA235B002C4A00215D
:1033E0000020FDF7F1FBFA235B00294A01210020B0
:1033F000FDF7EAFBFA235B00254A02210020FDF7D6
:10340000E3FBFA235B00224A03210020FDF7DCFBEB
:10341000002200210120FDF7C5FC0022012102202D
:10342000FDF7C0FCFEF7FFFF1A4800900723422279
:1034300000210020FFF774F80920FDF72DFD0C2076
:10344000FDF72AFD012201219820FEF7B3FB01229E
:1034500001219920FEF7AEFBFDF716FEFDF77DFE7C
:1034600000F01AF800F03CF80020FFF7E3FA0648F5
:103470000068012188430449086004480068082165
:1034800001430248016001BD00F10F40C0F00F4050
:103490001027000000F1FF1F00B5104800788006DB
:1034A00006D50E480078202101430C48017014E035
:1034B0000A480078C00606D5084800781021014364
:1034C0000648017009E005480078400605D5034824
:1034D0000078402101430148017000BD0000024016
:1034E00080B5012200214720FEF764FB0122002164
:1034F0004820FEF75FFB012200214920FEF75AFB1E
:10350000012200214A20FEF755FB012200214B2019
:10351000FEF750FBFF20001D0B498968C861FF20A2
:10352000001D094989680862FF20001D0649896855
:103530004862FF20001D044989688862FF20001D41
:1035400001498968C86201BDD0F0FF1F80B52C48D1
:103550005221405EFDF7FEFE2B4A0CCAFDF712FF1A
:1035600002000B0000202949FEF7CEF8FEF742F8D2
:103570002749088022485221405EFDF7EBFE224A8F
:103580000CCAFDF7FFFE0022204BFEF75AF8FEF7AB
:1035900031F82049088001BD80B5FFF7D7FFFFF75C
:1035A00051FD1848406F1C49FFF7C2FD02D81B4867
:1035B000144948671348406F0021FFF7CDFD02D240
:1035C000002010494867164800681349FFF7B0FD0E
:1035D00002D8124812490860114800680021FFF71C
:1035E000BBFD02D200200E4908600648406F054925
:1035F00008630B4800680B490860FFF7EBFC01BD4E
:1036000078F4FF1F68F3FF1FC8F0FF1F000034406D
:10361000B0F3FF1F38F4FF1F01007A4400007A4422
:1036200064F4FF1F20F4FF1FF0B583B02248234944
:1036300088420DD000200400C02C09D21F4804216C
:10364000614340581C49042262438850641CF3E7DC
:103650001948FFF721FA1A4807001A4805001A48C6
:1036600001900198401B04002000441E002804D053
:10367000287838706D1C7F1CF6E714480600144843
:1036800000900098801B04002000441E002803D0F6
:1036900000203070761CF7E70E480F490F4A531A86
:1036A0001C0023005C1E002B04D00B780370491C07
:1036B000401CF6E7F7BD00BF00F0FF1F0000000050
:1036C000C0F0FF1F742D0000D42F000020F3FF1F57
:1036D0006AF5FF1F6AF5FF1FBC380000BC38000008
:1036E00080B510480068F821890101430D48016048
:1036F0003020FFF7FBF90C4908600B480068FA21FD
:103700008900484309490860084800680849096871
:10371000090C4907490F491CFDF7C5FD054908601B
:1037200001BD00BF388004405CF5FF1F58F5FF1F46
:103730004480044060F5FF1F0A4552522120496E23
:1037400076616C6964204952512076616C75652000
:1037500070617373656420746F20656E61626C655F
:10376000206972712066756E6374696F6E210A003C
:103770000A2A2A2A2A64656661756C745F69737205
:1037800020656E7465726564206F6E207665637463
:103790006F722025642A2A2A2A2A0D0A0A000000AC
:1037A00080B50848006801210143064801600648C9
:1037B0000088401C04490880FCF73CFEFFF7ECFE43
:1037C00001BD00BF0C71034064F5FF1F10B5074930
:1037D00079441831064C7C44163404E0081D0A680C
:1037E000891888470100A142F8D110BD08000000E7
:1037F00014000000D7DDFFFF4C02000020F3FF1F84
:103800000000000080B5002004490860FFF70CFFAD
:10381000FFF766FF00F004F8FEE700BF00810440F8
:1038200080B572B6FFF7C4FDFEE700000120C04678
:10383000002801D0FFF7CAFF0020C046C046FFF7AE
:10384000EFFF00F000F880B500F002F801BD0000C5
:103850000746384600F002F8FBE700002021090384
:1038600026311820ABBEF9E70020002100220023FA
:10387000002400250026002762B6FFF7C3FFFEE7FD
:1038800080B5034801680348FEF7DDFC01BD000078
:1038900004ED00E07037000010B504002100C9B24B
:1038A0000020FFF7A6F810BDC046C046C046C0467F
:0C38B000FFF7BCFF00B0064000C006405F
:04000005000038A916
:00000001FF
