:1000000078F9FF1F89350000A1350000A1350000F7
:10001000A1350000A1350000A1350000A135000088
:10002000A1350000A1350000A1350000A135000078
:10003000A1350000A1350000A1350000A135000068
:10004000A1350000A1350000A1350000A135000058
:10005000A1350000A1350000A1350000A135000048
:10006000A1350000A1350000A1350000A135000038
:10007000A1350000A1350000C1260000A135000017
:10008000A1350000A1350000A1350000A135000018
:10009000A1350000A1350000AD340000A1350000FD
:1000A000A1350000A1350000A1350000A1350000F8
:1000B000A1350000A1350000A1350000A1350000E8
:1004100070B504000D0016003068012802D00228D3
:1004200005D00BE02000C0B27168884706E02000CC
:10043000B1680870B068401CB060FFE72868401CD5
:10044000286070BDFFB584B0002006000498050048
:10045000002028706D1C0698002825D0059800689B
:1004600001900198002803D130202870761C3FE0CD
:10047000019800283CD00198079900F079FA039080
:1004800001980399079A5143401A0700002F03D59A
:10049000F8430700313700E0303703980190380007
:1004A00028706D1C761CE3E70598006800900098A2
:1004B000002803D130202870761C19E0009800280D
:1004C00016D00098079900F056FA02900098029909
:1004D000079A5143401A04000A2C01D2303400E03C
:1004E000373402980090200028706D1C761CE5E7D8
:1004F000300008B0F0BDF8B507000E0015003C0054
:10050000B44206DA009A29003020FFF781FF641C0C
:10051000F6E7F1BDF8B507000E0015003C00B44247
:1005200006DA009A29002020FFF772FF641CF6E724
:10053000F1BDF3B595B014000020009016980500A9
:10054000287802900298002800D1E1E1029825283D
:1005500013D002980A2805D0159A69460298FFF729
:1005600057FF09E0159A69460D20FFF751FF159ACC
:1005700069460A20FFF74CFFC8E100200700002071
:1005800005900598002824D16D1C2878202810D0CB
:10059000232816D02B2808D02D2802D030280CD0A4
:1005A00013E0380001270743EBE738000227074331
:1005B000E7E7380004270743E3E738000827074345
:1005C000DFE7380010270743DBE76D1E01200590A9
:1005D000D7E700200190002005900598002812D14F
:1005E0006D1C2878029002983038092807D80198A5
:1005F0000A2148430299401830380190EDE76D1EFA
:1006000001200590E9E76D1C28782E280ED10020E6
:100610000590059800280AD16D1C287830380928E3
:1006200000D8F6E76D1E01200590F2E76D1E6D1CE7
:1006300028784C2806D0682802D06C2801D002E027
:1006400002E001E000E06D1E6D1C28780290029827
:10065000582872D0622800D1CCE0632800D116E17E
:10066000642813D0692811D06E2800D142E16F2888
:1006700000D1B4E0702800D1C7E0732800D110E1A8
:10068000752800D1CCE0782857D03AE12068241DA5
:1006900009900A23012209A90CA8FFF7D3FE06003E
:1006A0000CA8801908900998002803D52D200490E3
:1006B000761C0DE0B80703D52B200490761C07E0CC
:1006C000780703D520200490761C01E000200490D8
:1006D00000200690380712D50498002804D0159AF7
:1006E00069460498FFF794FE01200690159B6A4620
:1006F00001993000FFF7FFFE0198060011E0F807AE
:100700000FD4159B6A4601993000FFF703FF049848
:10071000002804D0159A69460498FFF779FE012055
:1007200006900698002807D10498002804D0159A4E
:1007300069460498FFF76CFE92E02068241D039040
:100740001023002203A90CA8FFF77CFE06000CA8CA
:100750008019089000200690380716D5F8060BD5AA
:10076000159A69463020FFF753FE159A694678209E
:10077000FFF74EFE01200690159B6A460199300056
:10078000FFF7B9FE0198060018E0F80716D4F8063E
:1007900000D5B61C159B6A4601993000FFF7BAFEDA
:1007A000F8060BD5159A69463020FFF731FE159AE9
:1007B00069467820FFF72CFE01200690F8060DD53B
:1007C000069800280AD1159A69463020FFF720FEC6
:1007D000159A69467820FFF71BFEB61C40E020689A
:1007E000241D03900823002203A90CA8FFF72AFE6A
:1007F00006001FE02068241D03900223002203A9A5
:100800000CA8FFF71FFE060014E02068241D0390CB
:100810001023002203A90CA8FFF714FE060009E02C
:100820002068241D03900A23002203A90CA8FFF7C7
:1008300009FE06000CA880190890380708D5159BFA
:100840006A4601993000FFF756FE0198060007E05E
:10085000F80705D4159B6A4601993000FFF75AFE48
:1008600008980078002809D0159A694608980078F9
:10087000FFF7CEFD0898401E0890F1E7F80705D570
:10088000159B6A4601993000FFF744FE3EE0206860
:10089000241DC0B20A90159A69460A98FFF7B8FD60
:1008A00034E02068241D07900798002821D007987D
:1008B00000F0B8F80600F80705D4159B6A460199C0
:1008C0003000FFF727FE07980078002809D0159A16
:1008D000694607980078FFF79BFD0798401C079032
:1008E000F1E7F80705D5159B6A4601993000FFF737
:1008F00011FE0BE02068241D0B9000980B990860F6
:1009000004E0159A69460298FFF782FD6D1C17E610
:10091000009817B0F0BD0EB47EB505000120009020
:100920000748019007A80600320029006846FFF733
:1009300000FE0400200003B0039970BC04B0084717
:10094000B9350000F446002804D4494200F013F8F9
:10095000404260474042002905D45FD000F00BF8C8
:10096000404249426047494200F005F84942604729
:1009700003460B43E6D40022030A8B420BD2030941
:100980008B4219D243088B422ED2411A00D2014623
:10099000524110467047FF2209023FD012068B4297
:1009A00005D3121209028B4201D312120902030964
:1009B0008B4219D300E0090AC3098B4201D3CB0152
:1009C000C01A524183098B4201D38B01C01A524194
:1009D00043098B4201D34B01C01A524103098B4298
:1009E00001D30B01C01A5241C3088B4201D3CB0083
:1009F000C01A524183088B4201D38B00C01A524166
:100A000043088B4201D34B00C01A5241884200D3A5
:100A1000401A5241CFD201461046704708B5C04631
:100A2000C04608BD00B501000A000023002A01D11C
:100A3000002008E010000200521C0078002801D0BD
:100A40005B1CF7E7180000BD80B500220121632080
:100A500000F088FA00220121802000F083FA01BD15
:100A600080B59A480078002808D0022809D014D30D
:100A700004280FD008D3052809D010E000F010F8A2
:100A80000DE000F095F80AE000F026F907E000F02C
:100A90008BF904E000F0F2F801E000F0EFF901BD9D
:100AA00000B58B48008805280CDA8A4800680121C7
:100AB000014388480160BB48006808218843B94960
:100AC000086074E0824800880B280CDA81480068CE
:100AD000012188437F490860B2480068082101432A
:100AE000B048016063E07A48008810280CDA794841
:100AF00000680121014377480160AA480068082185
:100B00008843A849086052E07148008815280CDA2B
:100B100070480068012188436E490860A148006858
:100B2000082101439F48016041E0694800881A2874
:100B30000CDA684800680121014366480160994861
:100B40000068082188439749086030E060480088C1
:100B500033280CDA5F480068012188435D4908604A
:100B600090480068082101438E4801601FE0584802
:100B700000884C280CDA5748006801210143554889
:100B800001608848006808218843864908600EE0B3
:100B900050480068012188434E4908608148006838
:100BA000082101437F48016004204849087000BDC6
:100BB00000B54748008802280CDA46480068012141
:100BC000014344480160774800680821884375491B
:100BD000086052E03E48008806280CDA3D4800686C
:100BE000012188433B4908606E48006808210143A1
:100BF0006C48016041E03648008807280CDA354827
:100C000000680121014333480160664800680821FB
:100C100088436449086030E02D4800880B280CDACE
:100C20002C480068012188432A4908605D48006813
:100C3000082101435B4801601FE0254800880C281B
:100C40000CDA24480068012101432248016055481C
:100C5000006808218843534908600EE01D48006879
:100C6000012188431B4908604E4800680821014360
:100C70004C48016004201549087000BD00B57D484E
:100C8000008805280CDA1348006801210143114847
:100C9000016044480068082188434249086013E025
:100CA00074480088FB280CDA0A4800680121884350
:100CB000084908603B480068082101433948016041
:100CC00002E000206B49088000BD0000C0F0FF1F5B
:100CD00074F5FF1F00F10F4000B566480088192821
:100CE0000CDA6548006801210143634801602D4822
:100CF0000068082188432B49086052E05D4800885D
:100D000033280CDA5C480068012188435A4908609E
:100D100024480068082101432248016041E0554809
:100D200000884B280CDA54480068012101435248DE
:100D300001601C480068082188431A49086030E0B7
:100D40004C48008865280CDA4B480068012188432C
:100D500049490860134800680821014311480160AF
:100D60001FE0444800887D280CDA434800680121D0
:100D70000143414801600B48006808218843094944
:100D800008600EE03C480068012188433A49086049
:100D900004480068082101430248016004206D49AD
:100DA000087000BDC0F00F4000B532480088002830
:100DB0000CD131480068012101432F480160664889
:100DC0000068082188436449086052E02948008887
:100DD00004280CDA28480068012188432649086065
:100DE0005D480068082101435B48016041E02148FB
:100DF000008804280CDA20480068012101431E48BD
:100E0000016055480068082188435349086030E074
:100E10001848008807280CDA174800680121884321
:100E2000154908604C480068082101434A480160A0
:100E30001FE01048008808280CDA0F4800680121DC
:100E400001430D4801604448006808218843424935
:100E500008600EE0084800680121884306490860E0
:100E60003D480068082101433B480160042039499E
:100E7000087000BD74F5FF1F00F10F4000B5374842
:100E8000008805280CDA36480068012101433448FF
:100E9000016031480068082188432F49086052E00A
:100EA0002E4800880B280CDA2D4800680121884361
:100EB0002B49086028480068082101432648016042
:100EC00041E0264800880F280CDA254800680121F7
:100ED00001432348016020480068082188431E49D7
:100EE000086030E01D48008815280CDA1C480068AE
:100EF000012188431A490860174800680821014306
:100F0000154801601FE01548008819280CDA1448BC
:100F1000006801210143124801600F480068082160
:100F200088430D4908600EE00D48006801218843A0
:100F30000B49086008480068082101430648016021
:100F400004200449087000BD0021044A11800149B1
:100F500008707047C0F0FF1FC0F00F4074F5FF1F0E
:100F600000F10F4070B504000D0016002D48E4B2EA
:100F700021004911042251434058E4B2E106C90E50
:100F800004225143802252004250EDB2012D1BD168
:100F90002548E4B221004911042251434058224916
:100FA000E4B22200521104235A43895849690122AC
:100FB000E306DB0E9A400A4342613100C9B22000C9
:100FC000C0B200F017F814E01748E4B2210049114C
:100FD0000422514340581449E4B222005211042320
:100FE0005A43895849690122E306DB0E9A4091432E
:100FF000416170BD30B40C4AC0B203005B110424DF
:101000006343D25813680122C406E40EA2401A4377
:10101000054BC0B20400641104256C431B591A60CF
:1010200030BC7047C4F0FF1FD8F0FF1F38B5040074
:101030000D00E4B2002C03D0022C55D039D36EE061
:10104000AB480068802149040143A9480160EDB222
:10105000002D08D0022D12D00BD3042D1BD014D399
:10106000052D1ED023E08021C900412000F0C0F9E9
:101070001EE08021C900422000F0BAF918E080216A
:10108000C900432000F0B4F912E08021C9004420D7
:1010900000F0AEF90CE0C0218900482000F0A8F96A
:1010A00006E0C0218900492000F0A2F900E036E006
:1010B00035E08F4800688021890401438C48016035
:1010C000EDB2002D02D0012D06D00BE0C021890029
:1010D0000C2000F08DF906E0C02189000D2000F001
:1010E00087F900E01BE01AE0814800688021C9040C
:1010F00001437F480160EDB2002D02D0012D06D0E2
:101100000BE0C0218900322000F072F906E0C02116
:101110008900332000F06CF900E000E0FFE731BD0A
:10112000FCB583B006000F003900C9B23000C0B270
:10113000FFF77CFF6F4800686F4948434008019003
:101140000198000C0399FFF716FC0400002005002D
:10115000A4B220002841012801DB6D1CF8E70198AA
:10116000E8400399FFF707FC0400F6B2002E03D015
:10117000022E18D00CD321E00498A4B22100491CFF
:101180004843FA218900FFF7F6FB6946088015E01D
:101190000498A4B22100491C48436421FFF7EBFBEB
:1011A000694608800AE00498A4B22100491C48431B
:1011B0006421FFF7E0FB69460880FFE78648F6B246
:1011C000042171434058FFB20821794340188249F5
:1011D000F6B2042272438958FFB208227A43891872
:1011E000C96804229143C1607B48F6B2042171436F
:1011F0004058FFB20821794340182821C160774840
:101200000068774901407548016074480068C02152
:101210008904014371480160EDB26907490F082054
:1012200008436D49F6B20422724389580860A4B29B
:101230006948F6B204217143405884606648F6B2AA
:10124000042171434058FFB2082179434018694690
:101250000988016100206049F6B20422724389586E
:10126000486005B0F0BDF8B504000D001600002779
:10127000E4B2002C03D0022C03D001D302E001E041
:1012800000E0FFE75448E4B204216143405880681D
:101290000700002FF6D0E4B2002C03D0022C12D0AD
:1012A00009D318E03800401C7043FA218900FFF789
:1012B00062FB00900FE03800401C70436421FFF790
:1012C0005AFB009007E03800401C70436421FFF790
:1012D00052FB0090FFE74048E4B2042161434058CC
:1012E000EDB208216943401800990161F1BD000089
:1012F0003C8004406CF5FF1F40420F0070B50400B5
:101300000D001600E4B2002C03D0022C11D008D33B
:1013100016E03448006880214904014331480160E7
:101320000EE0304800688021890401432D480160A7
:1013300006E02C4800688021C90401432948016067
:10134000EDB2002D0DD12848006880214904A1404C
:101350008843254908608021C9004C2000F048F8E6
:101360000FE0EDB2012D0CD11F4800688021490427
:10137000A14001431C4801608021C9004D2000F0BC
:1013800037F8F6B27007400F102101431248E4B25B
:10139000042262438058016014480F49E4B20422D9
:1013A00062438958886000200B49E4B204226243FA
:1013B0008958486070BD0021074AC0B204234343E6
:1013C000D258516070470449C0B2042250430858B3
:1013D000406880B270470000FCF2FF1F04800440A8
:1013E000FFFFFFFC3C8004400C800440FFFF000036
:1013F00010B40D4A126880239B000400E4B2640913
:10140000A3401343084A1360084AC0B203005B11AB
:1014100004246343D258C0B2C306DB0E04246343E2
:10142000D15010BC7047000038800440C4F0FF1F4A
:1014300080B5012201218120FFF794FD01220121C5
:101440008220FFF78FFD012201218320FFF78AFD13
:10145000012201218420FFF785FD01220121852041
:10146000FFF780FD01BD000000B50821A04A126809
:10147000082313439E4A13609D4A126804239A432B
:101480009B4B1A600A00511ED2B2002A1DD00206E0
:1014900006D5974A126802231343954A136005E064
:1014A000934A126802239A43914B1A60904A126839
:1014B000042313438E4A136000BF8D4A126804232D
:1014C0009A438B4B1A604000DCE700BD00B5082151
:1014D000874A126808239A43854B1A60844A126827
:1014E00004239A43824B1A600A00511ED2B2002A8A
:1014F0001DD0020606D57E4A1268022313437C4A99
:10150000136005E07A4A126802239A43784B1A6006
:10151000774A126804231343754A136000BF744A64
:10152000126804239A43724B1A604000DCE700BD46
:1015300038B505000C0020005038C0B2FFF7C6FFD8
:101540002900C9B2090910200843C0B2FFF7BEFF45
:101550002907090F01200843C0B2FFF7B7FF31BDCB
:1015600070B5040000200500EDB2082D17DA280040
:101570005038C0B2FFF7AAFF0120FFF7A7FF1020E5
:10158000FFF7A4FF00200600F6B2802E05DA200047
:10159000C0B2FFF769FF761CF6E76D1CE4E770BD8B
:1015A00038B500200400E4B2082C16DA20005038C8
:1015B000C0B2FFF78BFF0120FFF788FF1020FFF775
:1015C00085FF00200500EDB2802D04DA0020FFF732
:1015D0004BFF6D1CF7E7641CE5E731BD00B580B239
:1015E000002809D0FA22920111000A00511E92B27D
:1015F000002AFAD1401EF2E700BD80B5FFF718FFC0
:101600003B480068042101433948016038480068BC
:1016100010218843364908603548006820218843F6
:10162000334908603220FFF7D9FF31480068202194
:1016300001432F480160AE20FFF748FF0020FFF76D
:1016400045FF1020FFF742FF4020FFF73FFF8120BA
:10165000FFF73CFFCF20FFF739FFA120FFF736FF50
:10166000C820FFF733FFA620FFF730FFA820FFF7C1
:101670002DFF3F20FFF72AFFD320FFF727FF002091
:10168000FFF724FFD520FFF721FF8020FFF71EFF83
:10169000D920FFF71BFFF120FFF718FFDA20FFF733
:1016A00015FF1220FFF712FFDB20FFF70FFF40208E
:1016B000FFF70CFF2020FFF709FF0220FFF706FFCE
:1016C0008D20FFF703FF1420FFF700FFA420FFF792
:1016D000FDFEA620FFF7FAFEAF20FFF7F7FE002081
:1016E000FFF73EFF00210020FFF722FF01BD0000B1
:1016F00000F10F40F7B51F000024FFB238000821A9
:10170000FFF736F9002906D1FFB238000821FFF7AC
:101710002FF9060006E0FFB238000821FFF728F98C
:10172000401C0600684600790600FFB2F6B2B742D8
:1017300017D33100C9B268460078FFF7F9FE684652
:10174000007805006846007AEDB2854207D2089815
:10175000A4B2005DFFF788FE641C6D1CF2E7761CE6
:10176000E3E7F7BD80B5A8480068802189040143FC
:10177000A5480160A5480068802189040143A34869
:1017800001600220C046C046A0480068802149048C
:1017900001439E4801600220C046C0469B48006845
:1017A0009B490140994801600220C046C0469748C5
:1017B000006898490140954801600220C046C04633
:1017C00001BD80B5904800688021890401438E489E
:1017D00001608E4800688E4901408C4801600220FB
:1017E000C046C046894800688021490401438748B3
:1017F00001600220C046C0468448006880218904F8
:101800000143824801600220C046C04601BD10B5B8
:101810007E4800688021490401437C480160022021
:10182000C046C0460020040077480068784901405F
:10183000754801607848006801008901C90F0029D6
:1018400001D0012004000220C046C0466F48006855
:10185000704901406D4801606B480068802189042F
:101860000143694801602000C0B210BD80B56648E0
:10187000006880218904014363480160634800686F
:10188000802189040143614801600220C046C046AE
:101890005E4800688021490401435C4801600220E1
:1018A000C046C046594800685A490140574801603F
:1018B0000220C046C04601BD80B553480068802163
:1018C0008904014350480160504800685049014074
:1018D0004E4801600220C046C0464C480068802146
:1018E00049040143494801600220C046C0464748B8
:1018F0000068484901404548016001BD38B5040011
:1019000000200500EDB2082D28DA3F48006880214C
:10191000890401433C4801603C4800683C4901405F
:101920002000C0B2C009C0B2400608433749086071
:101930003648006880214904014334480160022090
:10194000C046C04631480068324901402F48016016
:101950000220C046C04664006D1CD3E7FFF757FF66
:1019600031BD38B5082500242800451EC0B2002826
:1019700046D025480068802189040143224801603F
:101980002248006880218904014320480160022028
:10199000C046C0461D4800681E4901401B48016002
:1019A0000220C046C046194800688021490401430E
:1019B000164801600220C046C0461348006814491A
:1019C000014011480160640013480068010089016A
:1019D000C90F002903D020000124044302E02000A5
:1019E000FE240440094800680A4901400748016094
:1019F0000548006880218904014303480160B3E77A
:101A00002000C0B232BD000014F10F4000F10F40C1
:101A1000FFFFFFFDFFFFFFFE10F10F4038B505008F
:101A20000C00FFF79FFE5420FFF768FF2800C0B2AC
:101A3000FFF764FF200080B2000AC0B2FFF75EFF2C
:101A40002000C0B2FFF75AFFFFF7BBFE31BD38B52B
:101A500004000025FFF786FE5420FFF74FFF20000B
:101A6000C0B2FFF74BFFFFF77DFE5520FFF746FFA3
:101A7000FFF777FF05002D02FFF71EFFFFF771FF4D
:101A800028430500FFF7F2FEFFF79BFE280080B217
:101A900032BD30B4012100220368001D002B0BD0A1
:101AA0000468001D0C4202D04D466D1E6419226070
:101AB000241D1B1FF0D0FAE730BC70475748584927
:101AC00008807C487C4908807C487D4908807D48A6
:101AD0007D4908807D487E4908807E487E4908808F
:101AE0007E488149C8607E487F4908617D487E49BB
:101AF000486100207E497D4A03C2083A00207C49A3
:101B00007C4A03C2083A7DA003C87B4A03C2083A54
:101B10007AA003C87B4A03C2083A7BA003C87C4A68
:101B200003C2083A002000217A4A03C2083A7AA088
:101B300003C87B4A03C2083A55208749088070478A
:101B400080B56948C06D00F00DF9764A03C2083AC5
:101B50006F480CC80838734803C800F01BF9734A73
:101B600003C2083A6F4803C86F4A0CCA00F037FA3C
:101B70006B4A0CCA00F00EF96C4A0CCA00F0CCF9A2
:101B80006A4A03C2083A674803C8674A03C2083A68
:101B9000664803C86B4A03C2083A6A4803C8002271
:101BA000634B00F093FA04D800206149654A03C2F0
:101BB000083A644803C85FA20CCA00F0A0FA04D235
:101BC00000205E495F4A03C2083A5E4803C800220B
:101BD000002300F07BFA0CD25948D421405E00F07B
:101BE000C1F8584A0CCA00F0FAF900F0A1FA5449B9
:101BF0008880544803C80022002300F080FA0CD2E9
:101C00004F48D421405E00F0ADF84E4A0CCA00F0B7
:101C100083F900F08DFA5149088001BD2B020000C4
:101C2000D0F4FF1F80B5FFF78BFF00F0F2FA444AB3
:101C3000106C516C0122454B00F048FA04D800208A
:101C40004249414A03C2083A3D4A106C516C002295
:101C5000002300F054FA04D2002000213A4A03C2C3
:101C6000083A3B4803C80122384B00F02FFA04D849
:101C700000203649364A03C2083A354803C80022D4
:101C8000002300F03CFA04D200200021304A03C2B5
:101C9000083A1548C06D2F49884204DA1248C06DD1
:101CA0002F49884202DA0320FFF74EF900F06AFA62
:101CB00001BD000029020000D2F4FF1F3F02000016
:101CC000D4F4FF1F17FEFFFFD6F4FF1FE0FDFFFF58
:101CD000D8F4FF1FCBFDFFFFDAF4FF1F958C220025
:101CE000F25F23008CCF220088F4FF1F10F3FF1F48
:101CF0000000F23F78F3FF1F18F3FF1F3333333335
:101D00003333DB3F80F3FF1F9A9999999999B93F33
:101D1000E0F3FF1FE8F3FF1FFCA9F1D24D62403F43
:101D2000F0F3FF1F20F4FF1F28F4FF1F10F4FF1F24
:101D300000805140FFFFFFFFFF7F51C0008051C076
:101D400008F3FF1F18F4FF1F48F3FF1F00408F40E8
:101D5000B0F3FF1FDC050000DCF3FF1F74F3FF1F6F
:101D600025FAFFFF010007D5F446404200F004F8D1
:101D70000122D2071143604742221201D21E0042C3
:101D800007D002D4521E0018FCD5C10A4005120526
:101D900089187047F0B50E005E400125ED072E4012
:101DA000B446AE0ADF184C18F44208D2F7420ED2FD
:101DB000640D01D07F0D12D100206146F0BD05D128
:101DC000F74201D87F0D05D10020C143F0BDFBD102
:101DD000640DF9D00020C143490549088FE0E4199A
:101DE000C902DB0229432B43DB0A460DC002314303
:101DF0008E4630B487B295B27D432E0CADB2140C32
:101E00007C43A419260C240425439CB27C43A419CA
:101E1000190C7943270CC919A4B20F043C43090CCF
:101E2000000C97B247432E0CBE193543ADB2170CC8
:101E30004743360CBF19A6B2BF193E043543240CE4
:101E40003E0C36199FB24743BF19BCB23E0C8919EC
:101E50001F0C47437F183E043443390C704680B250
:101E600097B247432E0CBE193543ADB2170C47430A
:101E7000360CBF19A6B2BF193E043543240C3E0CE4
:101E800036199FB24743BF19BCB23E0C89191F0CCB
:101E900047437F183E043443390C77463F0C90B2D9
:101EA00078432E0C80190604ADB22E43050CA0B267
:101EB0002D18120C7A435019020C80B2240CA4186D
:101EC0009AB27A43121914042043120C89181B0C7D
:101ED0007B43C91830BCEF0A394203D1B6194041DF
:101EE0004941641E6F12BF0DE41B0BDBFF19BC429E
:101EF00011DA240500274208AE4178416141664667
:101F00003143F0BD641C05D1401C6141CF0201D3B7
:101F10004908F4E750E75DE7F0B40125ED070F004D
:101F20005F404FD48B4200D1824205D984461000D5
:101F300062468C4619006346DF184C18640D7F0D0D
:101F40003AD0661C760537D0E61B352E34DCDB0232
:101F50002B43DB0A0C0DC9022943C912202E0DDBCD
:101F60001700203E06D01F00F741F3405F400026D7
:101F7000012A7741C01871410DD217E01700F741CF
:101F8000F2405740F3415A40B340F3405A400026D4
:101F9000801859410AD3A21C52050FD0C207012F45
:101FA000724117004008CB0718434908641C2405F8
:101FB0004208AF4170416141F0BC7047641C21058B
:101FC0000020F9E76B4010E06B40ABE7F742F3D13C
:101FD000E943F1E72442EFD100200021ECE7F0B41F
:101FE0000125ED070F005F40EED40C00871A9C41DD
:101FF00005D2C01BA141D219634169406B40AE0AB2
:10200000DF184C18F442E1D2640D7F0DE2D0E61BDC
:10201000362ED1DCDB022B43DB0AA4460C0DC902B1
:102020002943C90A012E28DC04D1D6075208DF074C
:102030003A435B08EF0A76429041994114D0394205
:102040003BD1B61940414941761C394204D1761C36
:10205000001849413942FAD0B9436746B74208D916
:10206000A41B24052143A7E70042EAD13642E8D168
:10207000A2E7E40AE10700209EE7202E0BDD203EC8
:102080001F00F340F7415F40012A002257417E4282
:10209000984191410BE01700F741F2405740F3415E
:1020A0005A40B340F3405A407E42904199410A035E
:1020B00003D2641EB619404149410027641E24051D
:1020C0004208AE4178416141F0BC704730B4012410
:1020D00064054D00EC420BD85D00EC4208D80C00C2
:1020E0001C4364000443144304D28B4200D1824257
:1020F00030BC7047FCD09942FAD19042F8E730B436
:10210000012464054D00EC420BD85D00EC4208D878
:102110000C001C4364000443144304D2994200D1D0
:10212000904230BC7047FCD08B42FAD18242F8E733
:10213000F4464A1805D200F00FF801D58017400880
:10214000604700F009F80121C907884200D908005A
:10215000404260474A1812D2400DC902084301218B
:10216000C9070843520D40210901521A521C06D4D6
:1021700052421F3201D4D0407047C0177047002030
:102180007047000080B55C4A106C516C01225B4BBB
:10219000FFF79CFF04D800205849594A03C2083A67
:1021A000584803C80122554BFFF790FF04D8002080
:1021B0005249544A03C2083A4F4A106C516C0022EB
:1021C0000023FFF79CFF04D2002000214C4A03C2E9
:1021D000083A4C4803C800220023FFF790FF04D2BE
:1021E00000200021474A03C2083A434A106C516C50
:1021F000FFF7B0FF020000210020FFF734F841484C
:1022000003C8FFF7A7FF020003210020FFF72BF808
:1022100001BD10B500F088F837480421405E36490A
:102220000968401AFFF79EFD374A03C2083A324850
:102230006C21405E3049896E401AFFF793FD334AA6
:1022400003C2083A2C4A906CD16C2B4C226D636D02
:10225000FFF7C5FE2E4A0CCAFFF79CFD2D4A03C2AC
:10226000083A2D480CC80838234CA06CE16CFFF7E5
:1022700091FD284A0CCAFFF74FFE264A03C2083ACE
:10228000224803C8254A0CCAFFF7A9FE1A4C226F40
:10229000636FFFF77FFD224A03C2083A1648826F38
:1022A000C36F1A4803C8FFF775FD1D4A0CCAFFF734
:1022B00033FE1B4A03C2083A0F4A906CD16C194A8C
:1022C00003C2083A114803C8144A03C2083A0A482C
:1022D000026C436C0F4803C8FFF71EFE084A03C296
:1022E000083A08480CC808380D4803C8FFF714FE20
:1022F000044A03C2083A10BD08F3FF1F00408F4094
:1023000048F3FF1FB0F3FF1F50F3FF1FB8F3FF1F89
:1023100010F3FF1F40F3FF1F18F3FF1FC0F3FF1F51
:10232000A8F3FF1F58F3FF1F80B50120FFF74BF8FC
:10233000824908600120FFF73EF80220FFF743F8CA
:102340007E4988660220FFF736F801BD80B500F0AF
:102350005AF900F001F801BDF8B56E4800687849F7
:102360000860774800687649C968401A744908606F
:1023700073480068C821FEF7FBFA71490860654898
:1023800040686F4948606E4840686D490969401A65
:102390006B4948606A484068C821FEF7E9FA684915
:1023A00048605C4880686649886065488068644920
:1023B0004969401A6249886061488068C821FEF70F
:1023C000D7FA5F4988605E4880685D490968401AAD
:1023D0005B49C8635A48006859498968401A584996
:1023E000086457484068142805DB554880685449FC
:1023F0000968884202DA012049490870504840685B
:10240000142805DB4E4800684D498968884202DA85
:102410000120424908704A484068142805DB002022
:102420003F49087000203D49087045484068FA2837
:102430000BDB43480068652807DB41488068652856
:1024400003DB01203449087002E0002032490870A3
:102450003248007800285BD131480078002857D1F5
:102460002D480078002853D12E48007800284FD1FD
:102470002D48007800284BD13148C06BFFF772FC23
:102480002AA20CCAFFF786FC04000D002C48C06B82
:10249000FFF768FC22002B00FFF77CFC04000D0016
:1024A0002748C06BFFF75EFC22002B00FFF772FC91
:1024B00006000F002248C06BFFF754FC1DA20CCA97
:1024C000FFF768FC04000D001D48C06BFFF74AFCD5
:1024D00022002B00FFF75EFC02000B0030003900E9
:1024E000FFF77DFD04000D001548C06BFFF73AFCB7
:1024F00014A20CCAFFF74EFC22002B00FFF70CFDC4
:1025000012A20CCAFFF708FDFFF712FE0C49C865BE
:10251000F1BD000054F5FF1FDEF4FF1FDDF4FF1FC7
:10252000DCF4FF1FDFF4FF1FE0F4FF1FF168E38816
:10253000B5F8E43E2D431CEBE2361A3F08F3FF1FCB
:1025400088F4FF1F6744696FF085FA3FB4C876BE10
:102550009F9A34C080B5B82149010820FFF75EFA80
:10256000B82149010920FFF759FAB82149010A2089
:10257000FFF754FA00210C20FFF750FA00210D203C
:10258000FFF74CFA00210E20FFF748FA8021C9001E
:102590001020FFF743FA802109011120FFF73EFACE
:1025A000802109011220FFF739FA3F491420FFF773
:1025B00035FA3D491520FFF731FA3B491620FFF760
:1025C0002DFA3A491920FFF729FA39491A20FFF75D
:1025D00025FA38491B20FFF721FAC62189011E2060
:1025E000FFF71CFAC72189011F20FFF717FAA52161
:1025F00089012020FFF712FA01BD80B52C491A206D
:10260000FFF70CFA01BD10B500240020FFF71FFAF8
:102610000400A4B22005000D000427490860A4B2FC
:1026200020000012F0210140244801700120FFF732
:102630000EFA2149096880B201431F480160022057
:10264000FFF705FA0400A4B22005000D00041A49A2
:102650004860A4B220000012F021014017484170E8
:102660000320FFF7F4F91449496880B20143124886
:1026700041600420FFF7EBF90400A4B22005000D2F
:1026800000040D498860A4B220000012F02101402E
:102690000A4881700520FFF7DAF90749896880B296
:1026A00001430548816010BD0110000001F80000E1
:1026B000011E00000CA2000054F5FF1F64F5FF1F6F
:1026C000F8B572B6022000F045F99C4908719B48A4
:1026D0000068642800DBF4E0984800799749974A3D
:1026E00012688918887195480068401C93490860F1
:1026F00092480068292800DA93E090488F490968D9
:10270000401823380078FF2800D08AE08B488B4996
:102710000968401822380078552800D081E08748A1
:1027200086490968401821380078AA2879D1834859
:1027300082490968401820380078102871D100209B
:102740007F4908707D480068293805002C007B48C7
:102750000068401E844209DA7948007877490919EF
:102760008979401876490870641CF0E7744800784D
:102770007249724A12688918497988424DD10020FD
:102780000400092C47DA6D48042161436918401898
:10279000807A802149044843684904226243AA1888
:1027A0008918C97A80225202514340186349042291
:1027B0006243AA188918097B8022520051434018AD
:1027C0005E4904226243AA188918497B4018060012
:1027D00080200006864203D35A48801B070000E091
:1027E00037003800FFF7BEFA574A08236343D21870
:1027F00003C2083A544808216143401803C8002224
:10280000524B00F0D9F8504A08236343D21803C250
:10281000083A641CB5E700F059F800204749086001
:1028200052E04648006807284EDB4448434909689F
:102830004018401E0078FF2846D140483F490968AB
:10284000405C552840D13D483C49096840184078D3
:10285000AA2839D139483949096840188078772839
:1028600032D100203649087034480068C01F050086
:102870002C0032480068401E844209DA3048007853
:102880002E490919897940182D490870641CF0E710
:102890002B4800782949294A1268891849798842C1
:1028A0000BD1264825490968401801792348234A55
:1028B00012688018C07800F00EF800201F490860E8
:1028C00002E000201D49086062B6F1BD80B502201B
:1028D000FEF73AFB01BD38B505000C00E4B220005C
:1028E000062816D0072815D0082814D0092813D098
:1028F0000A2812D00B2811D00C2810D064280FD031
:1029000065280ED0662810D067280FD068280ED012
:1029100010E00FE00EE00DE00CE00BE00AE009E053
:1029200008E000200A49087004E003E002E001200A
:10293000074908700220FEF707FB31BDE8F4FF1FCE
:1029400053F5FF1FFFFFFF7F40F4FF1F0000F04023
:1029500076F5FF1F00B50100154A1648C9B20423D9
:102960004B43C018001F0368C9B2002904D1107975
:102970008006FCD5D07903E018798006FCD5D8799B
:1029800000BD10B50A4A0B4BC0B2042444431B19C6
:102990001B1F1B68C0B2002804D114792406FCD583
:1029A000D17103E01C792406FCD5D97110BD00005B
:1029B00000A00640D4350000F0B40E005E400125B2
:1029C000ED072E40B446AE0ADF184C18F4423BD255
:1029D000F74241D2640D43D07F0D38D0E41BC902C9
:1029E000DB0229432B43CF0ADB0A0600B61A9F41BC
:1029F00004D2641EB6197F41B6185F416812800D7B
:102A000024180018844222DAE80C0021B6197F410C
:102A1000B61A9F4102D2B6185F413F1C404149415E
:102A2000F4D3241C21DD2405B6197F41B61A9F4139
:102A300005D33743C60737430026012F7041614154
:102A400066463143F0BC7047FCD1F74205D2002006
:102A5000C14349054908F3E704D00020C143F1E729
:102A60007F0DFAD000206146ECE72442FAD1401CE9
:102A700061410F03F6D30020E2E7000004000000EC
:102A80000090044000A0044000B0044000C0044096
:102A900000D0044000F00F4040F00F4080F00F40A5
:102AA000C0F00F4000F10F400000000000000000E7
:102AB0000000000000000080C0E06070303838186E
:102AC0001C0C0C0C0C040404040C0C0C08183830FE
:102AD0007060C0C080000000000000000000000026
:102AE00000000000000000000000000000000000E6
:102AF00000000000C0701C06070301000000000079
:102B000000000000000000000000000000000000C5
:102B100000000000000103070F0E183070E0C080B5
:102B20008080000000000000000000000000008025
:102B3000C0E030180E03010000000000000000009B
:102B40000000000000000000000000000000000085
:102B50000000000000000000000000000000000075
:102B60000001010303030206040C18F0C0F0FCFE90
:102B70000F03010000000000000000000000000042
:102B80000000000000000000000000008080C0C0C5
:102B9000E0E0E0E0F0F07070783C3C3C1C1E0E1E63
:102BA00038F8F8F87E7E9E1626EEFEFEFEFF7FFFCA
:102BB0001D71C0800000000000E0F8FC0E0F0E0E3A
:102BC0000E0C0C0C0C0E0E0E060676FFFFFF7303A8
:102BD000030301010140C0808080C0806000001EAE
:102BE0001F1F1F0E03070E1E3E7FCF8F0707030117
:102BF000003F000000010103030206FF8300000004
:102C000000000000000000000000000000000000C4
:102C100000000000000000000001010000000000B2
:102C20000000000000000000000000000003FEF8AB
:102C300000000000000000000000000000071F78F6
:102C4000E080000000000000000000000000000024
:102C50000000000000000000000000000000000074
:102C600000000000000000000000000080C060388C
:102C70001F0700000000000000000000000000002E
:102C80000000000103060C18183020606040C0C02E
:102C9000C0808080808080808080808080C0C0C034
:102CA000404060602020301018080C04060301002A
:102CB000000000000000000000800340009003407E
:102CC00000A0034080B5012200214720FEF74AF909
:102CD000012200214820FEF745F901220021492068
:102CE000FEF740F9012200214A20FEF73BF90122BC
:102CF00000214B20FEF736F9FF20001D714989683D
:102D0000C861FF20001D6F4989680862FF20001D0F
:102D10006C4989684862FF20001D6A498968886299
:102D2000FF20001D67498968C86201BD80B56648FB
:102D3000006801000906C90F002920D16348006816
:102D4000012101436148016061480068082188430E
:102D50005F4908605F48016832204143012000F06C
:102D6000F5F85A48006801218843584908605848D6
:102D7000006808210143564801600120A0E0524844
:102D800000680100C905C90F002920D14F4800681B
:102D9000012101434D4801604D48006808218843E6
:102DA0004B4908604B48016832204143012000F044
:102DB000CDF84648006801218843444908604448EA
:102DC00000680821014342480160042078E03E4841
:102DD000006801008905C90F002920D13B4800681F
:102DE00001210143394801603948006808218843BE
:102DF000374908603748016832204143012000F01C
:102E0000A5F83248006801218843304908603048FD
:102E10000068082101432E480160032050E02A4841
:102E2000006801004905C90F002920D12748006822
:102E30000121014325480160254800680821884395
:102E4000234908602348016832204143012000F0F3
:102E50007DF81E480068012188431C4908601C4811
:102E60000068082101431A480160022028E0164842
:102E7000006801000905C90F002920D11348006826
:102E8000012101431148016011480068082188436D
:102E90000F4908600F48016832204143012000F0CB
:102EA00055F80A4800680121884308490860084825
:102EB00000680821014306480160052000E0002069
:102EC00002BD0000C4F0FF1F90F00F4000F10F4062
:102ED000C0F00F4070F5FF1F38B505000C004948E1
:102EE00000688021090401434648016000204649EA
:102EF0000860601E4549EDB210226A43885043487D
:102F0000EDB2102169434018C068012101433F48D8
:102F1000EDB210226A438018C1603C48EDB2102126
:102F2000694340188068012188433849EDB2102276
:102F30006A438918886003203449EDB210226A433D
:102F400089188860162000F06EF831BD10B52D4A42
:102F5000126880231B0413432A4A13602A4A12680A
:102F600002239A43284B1A60284AC0B210234343D5
:102F7000D218926801239A43244BC0B210244443D0
:102F80001B199A604A1E214BC0B2102444431A51A7
:102F90001E4AC0B210234343D218D2680123134300
:102FA0001A4AC0B2102444431219D360174AC0B25F
:102FB00010234343D218926801239A43134BC0B2A3
:102FC000102444431B199A600122104BC0B21024F4
:102FD00044431B199A600D4AC0B210234343D218D0
:102FE000D268D207F7D5094AC0B210234343D2189A
:102FF000D26801231343054AC0B210244443121976
:10300000D36010BD3C800440007003400071034059
:1030100028480068042188432649086030BF70476B
:1030200025490860704770B50400212C03DB234854
:10303000FDF771FC15E022480568012620002021DB
:10304000FDF796FC8E402E431D4806601D4805681E
:10305000012620002021FDF78BFC8E402E431948CD
:10306000066070BDF8B507000E0000240025212F72
:1030700004DB1548FDF74FFC01200400042E04DB9F
:103080001248FDF748FC01200400E4B2012C0ED0E8
:1030900038000421FDF76CFC05000D48EDB2042159
:1030A0006943401800903000800100990870F1BD1C
:1030B0000000000010ED00E008ED00E044340000E6
:1030C00080E200E000E100E0083400008833000006
:1030D00000E400E080B539480078202101433748FA
:1030E0000170374800784021014335480170354868
:1030F0000078C0B20428FAD1FDF7A6FC3248006877
:1031000001210143304801603048006808218843AC
:103110002E49086000232E4A00210020FEF700F807
:1031200000232B4A01210020FDF7FAFF0023284A43
:1031300002210020FDF7F4FF0023254A032100208F
:10314000FDF7EEFF002200210120FEF7D7F8002254
:1031500001210220FEF7D2F8FEF74FFA1D48009039
:103160000723422200210020FEF7C4FA0122012198
:103170009820FDF7F7FE012201219920FDF7F2FECC
:10318000FFF7E8F9FFF739FAFFF79CFD0121162058
:10319000FFF768FF10480168142041430020FFF743
:1031A0009BFE0948006801218843074908600748D9
:1031B0000068082101430548016001BD00E00740A7
:1031C00001E0074003E0074000F10F40C0F00F406E
:1031D00088130000ECF0FF1F70F5FF1F00B52F48AB
:1031E0000068F821890101432C4801602C480078CF
:1031F000402101432A4801702A4800784007FBD546
:1032000028480078C006FBD527480078FD210140FA
:103210002548017025480078BF21014023480170EE
:1032200021480078022101431F4801701E480078A0
:10323000012101431C480170194800780221014313
:103240001748017000201A490870C02080021949EF
:10325000086019480068194901401748016018487A
:103260000068C02109030143154801600420154985
:10327000086014480068FA21890048431249086030
:10328000114800680B490968090C4907490F491C96
:10329000FDF771FB0D49086000BD00BF3880044098
:1032A00000400640064006400140064005400640FA
:1032B000084006404480044004800440FFFFFEFFB5
:1032C000007004406CF5FF1F68F5FF1F70F5FF1FCD
:1032D000F0B583B02248234988420DD00020040075
:1032E000C02C09D21F480421614340581C490422C4
:1032F00062438850641CF3E71948FFF791FE1A48AF
:1033000007001A4805001A4801900198401B040064
:103310002000441E002804D0287838706D1C7F1CC3
:10332000F6E714480600144800900098801B04003B
:103330002000441E002803D000203070761CF7E7E0
:103340000E480F490F4A531A1C0023005C1E002B25
:1033500004D00B780370491C401CF6E7F7BD00BF92
:1033600000F0FF1F00000000C0F0FF1F7C2A0000DB
:10337000C42C000008F3FF1F77F5FF1F77F5FF1F30
:10338000DC350000DC3500000A4552522120496E30
:1033900076616C6964207072696F726974792076E5
:1033A000616C75652070617373656420746F207043
:1033B00072696F72697479206972712066756E63C3
:1033C00074696F6E210A000080B5FFF7AFFC022818
:1033D00002D100F004F801E000F010F801BD80B562
:1033E00005480168FA20800041430120FFF7AEFD47
:1033F0000020FDF7A9FD01BD70F5FF1F80B501207C
:10340000FDF7A2FD01BD00000A4552522120496E80
:1034100076616C6964204952512076616C75652033
:1034200070617373656420746F207072696F726964
:103430007479206972712066756E6374696F6E218C
:103440000A0000000A4552522120496E76616C69DB
:1034500064204952512076616C75652070617373E8
:10346000656420746F20656E61626C65206972719D
:103470002066756E6374696F6E210A000A2A2A2A13
:103480002A64656661756C745F69737220656E7419
:1034900065726564206F6E20766563746F72202597
:1034A000642A2A2A2A2A0D0A0A00000080B5084840
:1034B0000068012101430648016006480088401C5D
:1034C00004490880FEF742FFFEF7ACFB01BD00BFD8
:1034D0000C71034074F5FF1F10B50749794418318A
:1034E000064C7C44163404E0081D0A688918884795
:1034F0000100A142F8D110BD080000001400000036
:1035000093E5FFFF7002000008F3FF1F00000000BA
:1035100080B572B6FFF7DEFDFFF756FFFEF7CEFA75
:10352000FEF73EF862B6FDF79BFAFFF771FDFAE78A
:1035300080B5002004490860FFF7CAFEFFF74EFE81
:10354000FFF7E6FFFEE700BF008104400120C04610
:10355000002801D0FFF7C0FF0020C046C046FFF79B
:10356000D7FF00F000F880B500F002F801BD0000C0
:103570000746384600F002F8FBE700002021090367
:1035800026311820ABBEF9E70020002100220023DD
:10359000002400250026002762B6FFF7C9FFFEE7DA
:1035A00080B5034801680348FDF7B5F901BD000087
:1035B00004ED00E07C34000010B504002100C9B225
:1035C0000020FFF7DEF910BDC046C046C046C04629
:0C35D000FFF7BCFF00B0064000C0064042
:04000005000035C9F9
:00000001FF
