S02200004E58505F28676F6C64656E5F63797072696E6F6964295F4B36302E73726563A3
S1130000D81AFF1F1104000021040000E17B000046
S1130010210400002104000021040000000000006D
S113002000000000000000000000000021040000A7
S1130030210400000000000021040000DD2E000067
S1130040917E0000A77E0000BD7E0000D37E0000EC
S1130050E97E0000FF7E0000157F00002B7F00007A
S1130060417F0000577F00006D7F0000837F000008
S1130070997F0000AF7F0000C57F0000DB7F000098
S113008021040000210400002104000021040000D8
S113009021040000210400002104000021040000C8
S11300A06D840000C7840000AD7400005775000023
S11300B001760000317A0000397A0000417A0000AC
S11300C0517A00005B7A0000657A0000677A0000CC
S11300D0697A00006B7A0000737A00007B7A000072
S11300E08B7A0000957A0000BD7A0000BF7A000088
S11300F0C17A000055270000210400008527000074
S113010021040000B527000021040000E5270000B9
S113011021040000152800002104000045280000E7
S1130120210400005D8A0000678A000021040000A9
S11301302104000021040000E93F0000F33F000017
S1130140FD3F000021040000A18600000000000023
S1130150F73500000D360000233600003936000064
S1130160B5850000018B000021040000818500009A
S11301705B850000358500009785000021040000A0
S113018021040000FD800000678100003586000026
S1130190210400005911000021040000B1140000E2
S11301A0C3140000D5140000E7140000F914000083
S11301B021040000210400002104000021040000A7
S11301C02104000021040000210400002104000097
S11301D02104000021040000210400002104000087
S11301E0EB7B0000EB7B0000EB7B0000EB7B000073
S11304100148804701480047C57A0000DD8200009A
S113042007F0E3BB10B500240020DFF8441CA1F85A
S11304304C000020DFF8381CA1F84E000020DFF843
S1130440301CA1F850000020DFF8241CA1F8520051
S11304500020DFF81C1CA1F854000020DFF8101C59
S1130460A1F8560000200400A4B2962C80F2038167
S1130470052000F051FE00F0FDFEDFF8F80B0068E7
S1130480DFF8F41B0818DFF8E81B4863DFF8E00B1B
S1130490406B232190FBF1F0DFF8D41B4863DFF8B5
S11304A0D00B406BDFF8C81B0968401ADFF8C01B8B
S11304B04863DFF8C00B4068DFF8C01B0818DFF89A
S11304C0B01B8863DFF8A80B806B232190FBF1F04D
S11304D0DFF89C1B8863DFF8980B806BDFF8901BB8
S11304E04968401ADFF8881B8863DFF8880B806846
S11304F0DFF88C1B0818DFF8781BC863DFF8700B73
S1130500C06B232190FBF1F0DFF8641BC863DFF8B4
S1130510600BC06BDFF8581B8968401ADFF8501B6A
S1130520C863DFF84C0B806BDFF8441BC96B401ABF
S1130530DFF83C1B8862DFF8380B806BDFF8301B78
S1130540496B401ADFF8281BC862DFF8240B406BA4
S1130550DFF81C1BC96B401ADFF8141B0863DFF8B3
S1130560100BB0F94C00DFF8081B896A88420DDAD9
S1130570DFF8FC0A806AB0F5617F07DADFF8F00A79
S1130580806ADFF8EC1AA1F84C0016E0DFF8E00A04
S1130590806ADFF8DC1AB1F9521088420DDADFF80C
S11305A0D00A806ADFF8DC1A884206DBDFF8C00A6A
S11305B0806ADFF8BC1AA1F85200DFF8B40AB0F977
S11305C04E00DFF8AC1AC96A88420DDADFF8A00AD7
S11305D0C06AB0F5617F07DADFF8940AC06ADFF811
S11305E0901AA1F84E0016E0DFF8840AC06ADFF81A
S11305F0801AB1F9541088420DDADFF8740AC06A1F
S1130600DFF8801A884206DBDFF8640AC06ADFF884
S1130610601AA1F85400DFF8580AB0F95000DFF866
S1130620501A096B88420DDADFF8440A006BB0F502
S1130630617F07DADFF8380A006BDFF8341AA1F8B3
S1130640500016E0DFF8280A006BDFF8241AB1F92D
S1130650561088420DDADFF8180A006BDFF8241A06
S1130660884206DBDFF8080A006BDFF8041AA1F8F9
S11306705600641CF8E601220A21DFF80C0A00F097
S113068005FF00220B21DFF8000A00F0FFFE3220F4
S113069000F042FD00220A21DFF8EC0900F0F6FE2A
S11306A001220B21DFF8E00900F0F0FE642000F0E5
S11306B033FD01220A21DFF8D00900F0E7FE002211
S11306C00B21DFF8C40900F0E1FE322000F024FD24
S11306D000220A21DFF8B00900F0D8FE01220B2124
S11306E0DFF8A40900F0D2FE642000F015FD012219
S11306F00A21DFF8940900F0C9FE00220B21DFF87B
S1130700880900F0C3FE322000F006FD00220A2111
S1130710DFF8740900F0BAFE01220B21DFF8680942
S113072000F0B4FE10BD10B500F0A4FD052000F0EB
S1130730F3FCDFF840090068DFF83419C861DFF81A
S113074034094068DFF828190862DFF8280980684E
S1130750DFF81C19486200200400E4B20F2C3FDAD1
S113076000F088FD052000F0D7FCDFF80409C0691B
S1130770DFF8001909680818DFF8F418C861DFF811
S1130780F008006ADFF8EC1849680818DFF8E01888
S11307900862DFF8DC08406ADFF8D81889680818AE
S11307A0DFF8CC184862DFF8C808C069022190FB62
S11307B0F1F0DFF8BC18C861DFF8B408006A022160
S11307C090FBF1F0DFF8A8180862DFF8A408406A8B
S11307D0022190FBF1F0DFF898184862641CBCE732
S11307E0DFF88C08C069DFF890180818DFF8801863
S11307F00860DFF87C080068232190FBF1F0DFF843
S113080070180860DFF86808006ADFF870180818C4
S1130810DFF85C184860DFF858084068232190FB33
S1130820F1F0DFF84C184860DFF84408406ADFF85C
S113083050180818DFF838188860DFF83408806822
S1130840232190FBF1F0DFF82818886010BD2DE912
S1130850F843002004000020050005200600F6B23D
S1130860002E0FD0DFF80808F6B210EB4600B0F8FF
S11308705600DFF8FC17F6B211EB4601A1F8580058
S1130880761EECE7DFF8E807C06BDFF8E417496B86
S1130890401A01280FDBDFF8D807006CDFF8D01707
S11308A0C96B0818DFF8C817496B401ADFF8C0177E
S11308B0A1F84A000EE0DFF8B807006CDFF8B017C3
S11308C0496B0818DFF8A817C96B401ADFF8A0179E
S11308D0A1F84A00DFF89807B0F84A00DFF890174B
S11308E0A1F85800DFF88807B0F94C00DFF880174A
S11308F0B1F94E100818022190FBF1F0032110FB0E
S113090001F00700BFB2DFF86807F6B210EB46004B
S1130910B0F95800874237DADFF85407F6B210EB23
S11309204600B0F9580041F2883188422CDA0020A0
S11309300600F6B2062E4BDABFB2B7F16400DFF858
S11309403017F6B211EB4601B1F95810884219DAA2
S1130950DFF81C07006C00F0FFFD02000B0090465E
S11309609946DFF80C07B0F94C0000F0F5FD0022C1
S1130970DFF8183700F006FE42464B4600F0E4FE6E
S113098000D2641C761CD4E7DFF8E406F6B210EB60
S11309904600B0F95800DFF8D816B1F94C105031C0
S11309A0884215DA00200600F6B2062E10DADFF8C7
S11309B0C006F6B210EB4600B0F95800DFF8B016E6
S11309C0B1F94C10B431884200DA6D1C761CEBE7A7
S11309D0E4B2062C1CDB0120DFF8B41608700122F7
S11309E00A21DFF8A40600F051FDDFF8A80600781C
S11309F0022804D10320DFF89C16087008E0DFF811
S1130A0094060078002803D10120DFF888160870C6
S1130A10DFF87C060078012828D1EDB2062D25DB0D
S1130A20DFF870060078032817D10020DFF860167D
S1130A30087000220A21DFF8500600F027FD00208C
S1130A40DFF8501608700020DFF84C16C1F8B80023
S1130A500020DFF84816087008E0DFF83806007850
S1130A60012803D10220DFF82C160870BDE8F183B9
S1130A70F8B5DFF8FC05806BDFF8F415C96B401A94
S1130A80DFF8EC15A1F84400DFF8E405806BDFF82B
S1130A90E015496B401ADFF8D815A1F84600DFF8D5
S1130AA0D005406BDFF8C815C96B401ADFF8C015D4
S1130AB0A1F84800DFF8B805B0F9440001281FDBAD
S1130AC0DFF8AC05B0F9440000F046FD0022DFF881
S1130AD0D03500F057FD04000D00DFF89405B0F99F
S1130AE04C0000F039FD02000B002000290000F04A
S1130AF043FE00F065FFDFF87815A1F844001EE01E
S1130B00DFF86C05B0F9440000F026FD0022DFF8A0
S1130B10943500F037FD04000D00DFF85405B0F9FA
S1130B20520000F019FD02000B002000290000F023
S1130B3023FE00F045FFDFF83815A1F84400DFF884
S1130B403005B0F9460001281FDBDFF82405B0F9B1
S1130B50460000F001FD0022DFF84C3500F012FDE4
S1130B6004000D00DFF80805B0F94E0000F0F4FCB5
S1130B7002000B002000290000F0FEFD00F020FF21
S1130B80DFF8EC14A1F846001EE0DFF8E404B0F945
S1130B90460000F0E1FC0022DFF8103500F0F2FC22
S1130BA004000D00DFF8C804B0F9540000F0D4FCD0
S1130BB002000B002000290000F0DEFD00F000FF21
S1130BC0DFF8AC14A1F84600DFF8A404B0F948003B
S1130BD001281FDBDFF89804B0F9480000F0BCFCE2
S1130BE00022DFF8CC3400F0CDFC04000D00DFF867
S1130BF08004B0F9500000F0AFFC02000B002000AC
S1130C00290000F0B9FD00F0DBFEDFF86414A1F860
S1130C1048001EE0DFF85804B0F9480000F09CFCDE
S1130C200022DFF8903400F0ADFC04000D00DFF882
S1130C304004B0F9560000F08FFC02000B002000C5
S1130C40290000F099FD00F0BBFEDFF82414A1F8A0
S1130C504800DFF81C04B0F8441089B2002000F00A
S1130C60D5FEDFF80C04B0F8461089B2012000F07C
S1130C70CDFEDFF8FC03B0F8481089B2022000F082
S1130C80C5FEDFF8EC03B0F944000A2824DADFF8E3
S1130C90E003B0F9440010F1090F1DDBDFF8D003C5
S1130CA0B0F946000A2817DADFF8C403B0F94600A1
S1130CB010F1090F10DBDFF8000490F9000002289E
S1130CC005D0DFF8F40390F90000032804D10020D4
S1130CD0DFF8E41388708BE1DFF89403B0F9460081
S1130CE007283DDADFF88803B0F9480010F1050F52
S1130CF036DADFF8C40390F90000002805D0DFF8E5
S1130D00B80390F9000002282AD10220DFF8A813C2
S1130D1008700A20DFF8A0138870DFF85403B0F9D4
S1130D20440000F019FCDFF89423DFF8943300F05A
S1130D3029FCDFF89023DFF8903301F051F800F03C
S1130D403FFEDFF874134881DFF86C03B0F90A0042
S1130D50692880F24D816920DFF85C13488147E1FE
S1130D60C348B0F946000728C0F28280C048B0F9F1
S1130D70480000287CD5DFF8400390F900000028E3
S1130D800BD0DFF8340390F90000012805D0DFF818
S1130D90280390F9000002286AD10020C64908708F
S1130DA01420C5498870B248B0F9440000F0D4FB5F
S1130DB0C64AC74B00F0E6FB04000D00AC48B0F98E
S1130DC0440000F0C9FB22002B0000F0DBFB040010
S1130DD00D00A748B0F9440000F0BEFB22002B0030
S1130DE000F0D0FB04000D00A148B0F9440000F06D
S1130DF0B3FBB84AB84B00F0C5FB06000F009C4893
S1130E00B0F9440000F0A8FB32003B0000F0BAFB4C
S1130E1022002B0000F0E4FF04000D009448B0F918
S1130E20440000F099FBAD4AAD4B00F0ABFB02006F
S1130E300B002000290001F047F8AA4AAA4B00F051
S1130E40CFFF00F0BDFD9C4948819B48B0F90A00E2
S1130E506A2803DB692098494881C9E09648B0F9BB
S1130E600A00002840F1C480002093494881BFE073
S1130E707F48B0F9440007287DDB7D48B0F948007D
S1130E80002878D48C4890F90000002809D08A48BA
S1130E9090F90000012804D0874890F90000032845
S1130EA069D10120844908701E20834988707048E4
S1130EB0B0F9460000F050FB8C4A8D4B00F062FB09
S1130EC004000D006A48B0F9460000F045FB22001A
S1130ED02B0000F057FB04000D006548B0F94600F4
S1130EE000F03AFB22002B0000F04CFB04000D0044
S1130EF05F48B0F9460000F02FFB764A7D4B00F0C6
S1130F0041FB06000F005A48B0F9460000F024FBEC
S1130F1032003B0000F036FB22002B0000F060FFA3
S1130F2004000D005248B0F9460000F015FB724A67
S1130F30724B00F027FB22002B0000F051FF704A97
S1130F40704B00F04DFF00F03BFD5B4948815A486F
S1130F50B0F90A00012803DB00205749488147E023
S1130F605548B0F90A0010F1690F41DA7FF06800C2
S1130F70514948813CE03E48B0F94400072830DA42
S1130F803B48B0F9480002282BDB4B4890F900009D
S1130F90012804D0484890F90000032821D10320F7
S1130FA0454908702820444988703148B0F9460002
S1130FB000F0D2FA544A554B00F0E4FA414A544B3B
S1130FC000F00EFF00F0FCFC3B4948813A48B0F9C0
S1130FD00A0010F1680F0BDB7FF068003649488186
S1130FE006E0322034498870334800893249488108
S1130FF04848007801281DD13C202F4988702E488C
S113100040782D4908702C48B0F908002A49B1F9F4
S11310100A10401A152809DA2748B0F908002649A9
S1131020B1F90A10401A10F1140F03DA22480089AA
S113103021494881204840891F4908811E48007879
S11310401D4948701C4890F9021089B2082000F02C
S1131050DDFC194890F9001089B2092000F0D6FC93
S11310601548C18889B20A2000F0D0FCF1BD000007
S11310707806FF1F740AFF1FCCBFE7FFA432E8FF06
S11310803C09E8FF7DFCFFFF00F10F400000F83F42
S1131090CA0AFF1FCE0AFF1F9005FF1F1204FF1F7D
S11310A000207040001071C000A06F4000E070C0CC
S11310B000806F4000A071C06C06FF1FF46C567D69
S11310C0AEB6D63FB81E85EB51186A405F19654726
S11310D0F47CA7BEF168E388B5F8F43E87A757CA45
S11310E032C4C13F17D9CEF7531349408DEDB5A093
S11310F0F7C6B03EB5F8043F16FBCBEEC9C3C23FFA
S11311008FC2F5285C9F4DC098DD9387855AD7BF61
S113111051186AC0CB0AFF1F80B200281BD01449A3
S1131120096851F00101124A116080B21349086044
S11311300521114A11600F49096851F001010D4A56
S113114011600C4909680906FBD50A490968490870
S11311504900084A1160704780B50648006850F09D
S113116080000449086006480068804701BD00000B
S11311703880044000000440040004400800044097
S1131180C409FF1F80B540F65431082001F074F8FB
S113119040F65431092001F06FF840F654310A202A
S11311A001F06AF84FF480610B2001F065F800212A
S11311B00C2001F061F800210D2001F05DF8002100
S11311C00E2001F059F800210F2001F055F84FF4DA
S11311D08061102001F050F84FF48061112001F07B
S11311E04BF84FF48061122001F046F84FF480610F
S11311F0132001F041F841F20101142001F03CF800
S113120041F20101152001F037F841F201011620E5
S113121001F032F841F20101172001F02DF84FF6E8
S11312200101192001F028F843F601611A2001F0A8
S113123023F84AF209211B2001F01EF84FF446510D
S11312401E2001F019F84FF467511F2001F014F823
S11312504FF44651202001F00FF84FF408412120AB
S113126001F00AF801BD80B541F601611A2001F0D0
S113127003F801BD10B50024002001F015F80400A6
S1131280A4B22005000D000421490860A4B2201274
S113129010F0F0001F490870012001F005F81C4906
S11312A0096880B208431A490860022000F0FCFF74
S11312B00400A4B22005000D000415494860A4B23E
S11312C0201210F0F00013494870032000F0ECFFE6
S11312D00F49496880B208430D494860042000F072
S11312E0E3FF0400A4B22005000D0004084988604F
S11312F0A4B2201210F0F00006498870052000F016
S1131300D3FF0349896880B208430149886010BD4E
S1131310740AFF1F840AFF1F012110F01F0291406D
S11313207A4A40B2430942F8231070470FB42DE9BA
S1131330F84F0C9850F480760A9FDDF82C809DF8C5
S113134034909DF835A0DDF838B07148874203D356
S11313503521704800F0CAFF5FFA89F9B9F1020F2C
S113136003DB36216B4800F0C1FF5FFA8AFABAF159
S1131370020F03DB3721674800F0B8FF6648874255
S113138004D1664805000020040021E06448874237
S113139004D1644805000120040019E06248874232
S11313A004D1624805000220040011E0604887422D
S11313B004D1604805000320040009E05E48874228
S11313C004D15E4805000420040001E000202CE064
S11313D05FFA89F9B9F1010F0ED1786958EA000072
S11313E078615FFA8AFABAF1010F02D1C7F8048072
S11313F006E0C7F8088003E0786930EA08007861FD
S11314000020C0B2202808DA4146C140C90702D5ED
S1131410C0B245F82060401CF3E75846002803D0CA
S11314204748E4B240F824B00120BDE8F20F5DF86B
S113143014FB0FB438B5049D3548854203D38A2183
S1131440344800F053FF3448854202D100200400A0
S113145013E03348854202D1012004000DE03248F4
S1131460854202D10220040007E03148854202D1BE
S11314700320040001E00420040014F1570040B2EA
S1131480FFF74AFF012032BC5DF814FB10B4036877
S113149001248C40A343D2B212FA01F42343036023
S11314A010BC704700690200CA4012F00100704786
S11314B080B52348006880475FF0FF302149086009
S11314C001BD80B51E48406880475FF0FF301E496B
S11314D0086001BD80B51A48806880475FF0FF301E
S11314E01A49086001BD80B51548C06880475FF09F
S11314F0FF301749086001BD80B511480069804775
S11315005FF0FF301349086001BD000000E100E016
S113151001F10F405C88000000F00F40009004408F
S113152040F00F4000A0044080F00F4000B00440A1
S1131530C0F00F4000C0044000F10F4000D0044050
S1131540A809FF1FA0900440A0A00440A0B004403C
S1131550A0C00440A0D00440010040F10780F4463C
S1131560404200F003F851F00041604709D0B0FA5E
S113157080F18840C91CC1F58461090501EBD021C3
S113158040057047B0B581EA030C0CF0004C40F202
S1131590FF7515EA11541DBF15EA1357AC42AF424B
S11315A039E0E41923EA455343F48013C90241F0B6
S11315B0004141EA505EC7021100A7FB0202002865
S11315C04FF00000EEFB01204FF00001E3FB072188
S11315D018BF42F00102401800214941E3FB0E010B
S11315E0A4F580640F0302D252004041494154F1F2
S11315F001046CDD470872F1004250F1000051EB28
S11316000451A1F580115CBF41EA0C01B0BD4CEA64
S113161005510020B0BD05EA1357AC4214BFAF42D8
S113162041E050EA410E1CBF52EA430E02E061461B
S11316300020B0BD24423C441BD15FEA070EF6D023
S1131640090302BF01460020AEF1140EB1FA81F77E
S1131650AEEB070401FA07FE0C37C7F1200100FACC
S113166007F7C8404EEA000E23EA455343F48013BB
S1131670A2E733F00043B3FA83F704BFB2FA82FE61
S113168077440B3FE41BB7F1200E2FBF02FA0EF391
S1131690BB40C7F1200E22FA0EFE38BF43EA0E0308
S11316A0BA40641C82E750EA410E14BF52EA430E6A
S11316B06FF000014FF4001717EB430F8ABF194670
S11316C017EB410FB5E74CEA05510020B0BDD4F14A
S11316D00104B4F120070FDAC4F12007520828BF2F
S11316E042F0010210FA07F501FA07F7E1BF2A43B5
S11316F0E0403843E1400FE0352C98DCC7F120048A
S113170052EA400220FA07F218BF42F0010231FA0D
S113171007F0A1400A43002172F1004250F1000099
S113172051EB0C01B0BD50F8041B61B150F8042B0F
S1131730D30744BFA9F101039A180023091F42F8F3
S1131740043BFAD1EFE770474FF4001C1CEB410F48
S113175094BF1CEB430F09E041EA030C50EA4C0C24
S113176052EA0C0C03D2994208BF9042704714BF4E
S11317708B42824270470000F0B540F2FF7581EA67
S1131780030C0CF0004C15EA11541DBF15EA135755
S1131790AC42AF42E5E0BC41C1F31301C3F3130310
S11317A0801A994143F4801304D2641E40004941D5
S11317B080185941C90241EA5051B1FBF3F603FBC9
S11317C01611A2FB0675D7EBC020A94102D2761EE2
S11317D080185941C90241EA5051B1FBF3FE03FBA1
S11317E01E11A2FB0E75D7EBC020A94103D2AEF1A6
S11317F0010E80185941890241EA9051760546EA62
S11318008E2EB1FBF3F603FB1611A2FB0675D7EB84
S11318108020A94102D2761E80185941C90241EAAA
S113182050514EEA060EB1FBF3F603FB1611A2FB70
S11318300675D7EBC020A94102D2761E8018594103
S1131840C90241EA5051B1FBF3F703FB1711A2FBA4
S11318500735D3EBC020A94167F100070CBF004254
S113186047F0010766F3D5274FEA1E31B80814F58F
S1131870806412DDBD0775F1004250EB0E5051EB50
S1131880045111F5801F5CBF41EA0C01F0BD4CF01E
S11318907F6141F0E0410020F0BDBD076D0840EAE2
S11318A00E5041F48011D4F10104B4F120060ADA97
S11318B0C4F120060200E04001FA06F3E1401843B7
S11318C0B24015430EE0342C13DCC6F1200445EA83
S11318D040056D0820FA06F2154321FA06F0A140EE
S11318E00D43002175F1004250F1000051EB0C0151
S11318F0F0BD00205FEA0C01F0BDCFB992185B4146
S1131900B3FA83F704BFB2FA82F6BF190B3FB7F1FB
S113191020062FBF02FA06F3BB40C7F1200622FAC5
S113192006F638BF3343BA401CB1E419641E33E7EA
S11319307F4231F00041B1FA81F404BFB0FA80F67D
S1131940A4190B3CB4F120062FBF00FA06F1A14004
S1131950C4F1200620FA06F638BF3143A0403C1BF0
S11319601AE7AC421ABF05EA1357AF4212E050EA35
S113197041061CBF52EA4306BFE750EA410730461E
S113198061461CBF41EA0551F0BD52EA430C08BF51
S1131990C143F0BD00204FF4001616EB410F98BF71
S11319A016EB430F08BF16EB410F24BFC14305E0FC
S11319B016EB430F0CBF61464CEA0551F0BD000025
S11319C0F446400D40EAC120490006D200F00EF86A
S11319D0004248BF6FF00040604700F007F84FF046
S11319E0004188428CBF08464042604740F00040B6
S11319F0490DA1F58061491C05D4D1F11F0154BFE3
S1131A00C840C01770474FF00000704789B24FF4C8
S1131A10807291FBF2F2DFF8A833C0B203F8102011
S1131A2089B24FF4807291FBF2F303FB1213DFF8D7
S1131A309023C0B212EB40025370704738B50025B2
S1131A407FF00401DFF87C0300F04BFE6D21DFF82A
S1131A50740300F046FE2521DFF8680300F041FE20
S1131A606D1F6D35253500200400DFF85C03007818
S1131A70E4B284420FD2DFF84803E4B2215649B2FB
S1131A80DFF8400300F02DFEDFF83403E4B2205CFD
S1131A904519641CE9E7290049B2DFF8280300F07E
S1131AA020FE31BDF8B5DFF81C0300F013FEDFF8AB
S1131AB01C130871DFF814030068642880F2FB80AB
S1131AC0DFF808030079DFF80413DFF80023126855
S1131AD051188871BD480068401CBC490860BB4867
S1131AE000682928C0F29380B848B84909680818E2
S1131AF010F8230CFF2840F08A80B448B3490968E1
S1131B00081810F8220C552840F08180AF48AF49DE
S1131B100968081810F8210CAA2878D1AB48AB49F9
S1131B200968081810F8200C102870D10020A74963
S1131B3081F86B00A5480068293805002C00A348EB
S1131B400068401E84420BDAA04890F86B009F495D
S1131B506118897908189D4981F86B00641CEEE7C7
S1131B609A4890F86B009949984A12685118497933
S1131B70884248D100200400092C42DA934815EB2E
S1131B8084010818807A5FF08071904A15EB840311
S1131B909A18D27A5FF480335A4301FB00208B49B0
S1131BA015EB84025118097B4FF4807202FB01008B
S1131BB0864915EB84025118497B50FA81F00700DD
S1131BC0B7F1004F04D37FF00040C01B060000E0D3
S1131BD03E003000FFF7C0FC7D4A12EBC402C2E9AC
S1131BE000017B4810EBC402D2E900010022794BCA
S1131BF0FFF7C2FD764A12EBC402C2E90001641C7D
S1131C00BAE700F05CF800207049086056E06F48BD
S1131C100068072852DB6D486C490968081810F8F9
S1131C20010CFF284AD1694868490968085C5528AD
S1131C3044D166486549096808184078AA283DD106
S1131C4062486249096808188078772836D10020EC
S1131C505E4981F86B005D480068C01F05002C00D8
S1131C605A480068401E84420BDA584890F86B00CA
S1131C705649611889790818544981F86B00641C25
S1131C80EEE7524890F86B005049504A12685118D8
S1131C90497988420BD14D484C49096808180179A3
S1131CA04A484A4A12681018C07800F04DF80020DB
S1131CB04649086002E0002044490860F1BD80B54F
S1131CC0434AD2E90001FFF77BFE4349A1F86800CB
S1131CD03F4AD2E9020100F035FE3F4948613C4ADF
S1131CE0D2E9040100F02EFE3B494862384AD2E9A9
S1131CF0060100F027FE38498861354AD2E9080117
S1131D0000F020FE34498862314AD2E90A0100F029
S1131D1019FE3149C8612E4AD2E90C0100F012FEC5
S1131D202D49C8622A4AD2E90E0100F00BFE2A4965
S1131D300862274AD2E9100100F004FE264908632C
S1131D40012001F047F801BD38B504000D00EDB2E3
S1131D502800062816D0072815D0082814D00928EA
S1131D6013D00A2812D00B2811D00C2810D06428C4
S1131D7016D0652815D0662817D0672818D068288B
S1131D8017D019E018E017E016E015E014E013E0AE
S1131D90FFF7F8F9FFF767FA0A20FFF7BDF90BE040
S1131DA00AE000200D49087006E001F02DF803E078
S1131DB002E0012009490870012001F00BF831BD4F
S1131DC0DC06FF1F00B00E401604FF1F0007FF1FB4
S1131DD04805FF1F0000F0409005FF1F1504FF1F7A
S1131DE070B44FF0004591EA030C44BF6B4000F01F
S1131DF075B800BF841A71EB030603D2001BB1410E
S1131E00121973414FF4001C1CEB410F34BF7CEBDF
S1131E10430443E00C0DA4EB1356352E50DC45EA85
S1131E20C323DB0A45EAC121C912B6F120050DDD41
S1131E3063FA05F6EB4086EA0305124218BF45F043
S1131E400105C01851F100010CD213E062FA06F545
S1131E50F2405540F3415A40B340F3405A40801891
S1131E60594107D349085FEA30005FEA350528BFC6
S1131E7045F0010501F58011420875F1004250F169
S1131E80000041EB045170BC4FF4001C1CEB410FEB
S1131E9038BF70470020090D090570471CEB410F3E
S1131EA010D252EA43060BD0BCEB410F05D80C0DFF
S1131EB0AB43661E342EB5DD02E0AB4380185941B6
S1131EC070BC704770BC704770B44FF0004591EA25
S1131ED0030F44BF6B40FFF78DBF00BF841A71EB43
S1131EE0030604D26E40001BB141121973414FF432
S1131EF0001C1CEB410F34BF7CEB430684E00C0D4B
S1131F00A4EB1356362E7DDC012E43DC45EAC323B5
S1131F1043EA525312BFD20292025B08240545EAF7
S1131F20C12141EA5051D2EBC020994125D407D1B7
S1131F30B0FA80F610FA06F164D00020203608E0EA
S1131F40B1FA81F6B140C6F1200220FA02F211433F
S1131F50B0404FEAF474B4EB465434F001064FEA4F
S1131F6074040AD8D6F50016760D04F00044F04047
S1131F7061FA06F25040F1404840C00A40EA41503C
S1131F8021F0004128BF5FEA500550F1000044EB06
S1131F90D12137E045EAC323DB0A45EAC121C90A56
S1131FA0B6F120050EDD42EA0242120CC5F120060C
S1131FB003FA06F6EB4042EA06056D42984161F1E8
S1131FC000010DE062FA06F5F240554063FA06FCA2
S1131FD082EA0C02F3405A406D42904161EB0301E6
S1131FE011F4801F05D1641E620502D06D004041CA
S1131FF0494121F48011430875F1004350F1000078
S113200041EB045170BC70471CEB410F15D223F017
S1132010004352EA43060BD04FEA4C0CBCEB410F91
S113202004D80C0D661E342EB7DDEBE7801A9941F7
S113203050EA410608BF0021E4E708BF1CEB430F48
S113204028BF6FF00001DDE710B50400E4B2200002
S113205000F01CFF10BD00B587B0824801904FF41A
S11320608060029001208DF8100001208DF811008D
S11320700020039001A984B06846142200F042FFB6
S11320800FBCFFF753F907B000BD00B587B0754822
S113209001904FF40060029000208DF810000120A0
S11320A08DF811000020039001A984B06846142221
S11320B000F028FF0FBCFFF739F907B000BD80B569
S11320C00120694908600120684908600220FFF77F
S11320D0BBFF0120664908600220FFF7B5FF00201E
S11320E0624908600220FFF7AFFF002060490860E2
S11320F00220FFF7A9FF01BD80B501205A490860FD
S113210000205A4908600220FFF79EFF0120584929
S113211008600220FFF798FF01205449086002205C
S1132120FFF792FF01BD10B501205149086002205C
S1132130FFF78AFF0020040000204B4908604D4847
S11321400068012801D1012004000220FFF77CFF70
S11321500020474908600120434908602000C0B2BC
S113216010BD80B501204049086001203F49086046
S11321700220FFF769FF01203D4908600220FFF7B4
S113218063FF00203A4908600220FFF75DFF01BDAC
S113219080B50120344908600020344908600220D9
S11321A0FFF752FF0120324908600220FFF74CFF7D
S11321B000202F49086001BD38B504000020050047
S11321C0EDB2082D16DA012027490860E4B2E009CF
S11321D0C0B2264908600120254908600220FFF7A3
S11321E033FF0020224908600220FFF72DFF64001E
S11321F06D1CE5E7FFF797FF31BD38B508250024CE
S11322002800451EC0B2002828D0012016490860C5
S11322100120164908600220FFF716FF0020144928
S113222008600220FFF710FF012011490860022016
S1132230FFF70AFF00200C49086064000D4800689D
S1132240012802D154F0010401E014F0FE0400203E
S113225007490860012004490860D1E72000C0B2A2
S113226032BD000080F00F40AC12FE432C10FE4340
S11322702810FE432C12FE4338B504000D00FFF76E
S11322801EFF5420FFF798FF2000C0B2FFF794FF11
S1132290ADB2280AC0B2FFF78FFF2800C0B2FFF723
S11322A08BFFFFF729FF31BD38B504000025FFF788
S11322B006FF5420FFF780FF2000C0B2FFF77CFF29
S11322C0FFF7FDFE5520FFF777FFFFF796FF0500A8
S11322D02D02FFF75DFFFFF790FF28430500FFF78E
S11322E040FFFFF709FF280080B232BD38B5040073
S11322F00D002A002100024801F0CFF8FEE700BFDC
S113230010890000012110F01F029140DFF86825B8
S113231040B2430942F8231070470FB42DE9F04747
S1132320089D099E9DF828709DF829C0DDF82CE0D1
S1132330DDF83080002E02D14FF416594E46DFF8F6
S11323403C954D454AD15FF000094C46DFF8309585
S1132350D9F800904A46DFF82C95D9F8009059F442
S11323608069DFF820A5CAF80090FFB2022F06D1D9
S11323704FF40079DFF810A5CAF800900FE0FFB21F
S11323800E2F06D14FF44079DFF800A5CAF800906B
S113239005E04FF44079DFF8F8A4CAF800905FFA3A
S11323A08CFCBCF1010F06D14FF40079DFF8E4A4F2
S11323B0CAF800901EE15FFA8CFCBCF10F0F06D145
S11323C04FF44079DFF8D0A4CAF8009012E14FF43A
S11323D04079DFF8C8A4CAF800900BE1DFF8C09494
S11323E04D4534D15FF001094C46DFF89494D9F897
S11323F000904A46DFF88C94D9F8009059F40069AB
S1132400DFF880A4CAF80090FFB27C2F06D14FF405
S11324104079DFF890A4CAF8009005E04FF44079C1
S1132420DFF884A4CAF800905FFA8CFCBCF17D0F3D
S113243006D14FF44079DFF874A4CAF80090D9E0CB
S11324404FF44079DFF868A4CAF80090D2E0DFF8CE
S11324506494D9F800904A46DFF85C944D4519D14C
S11324605FF002094C46DFF81C94D9F8009059F447
S11324708059DFF810A4CAF800904FF44079DFF8CF
S11324803CA4CAF800904FF44079DFF834A4CAF8A9
S11324900090AFE0DFF82C944D4545D15FF003097F
S11324A04C46DFF8E093D9F8009059F40059DFF86E
S11324B0D4A3CAF80090FFB2802F06D14FF440791C
S11324C0DFF804A4CAF800900FE0FFB22B2F06D166
S11324D04FF44079DFF8F4A3CAF8009005E04FF414
S11324E04079DFF8ECA3CAF800905FFA8CFCBCF1E9
S11324F0810F06D14FF44079DFF8D8A3CAF80090D1
S113250078E05FFA8CFCBCF12A0F06D14FF44079D5
S1132510DFF8C4A3CAF800906CE04FF44079DFF808
S1132520BCA3CAF8009065E0DFF8B4934D452FD101
S11325305FF004094C46DFF8AC93D9F8009059F4E5
S11325408069DFF8A0A3CAF80090FFB2942F06D1E7
S11325504FF44079DFF890A3CAF8009005E04FF4F7
S11325604079DFF888A3CAF800905FFA8CFCBCF1CC
S1132570950F06D14FF44079DFF874A3CAF80090A0
S113258038E04FF44079DFF86CA3CAF8009031E0EA
S11325905FF005094C46DFF860934D46DFF844933D
S11325A0D9F8009059F40069DFF838A3CAF800900C
S11325B0FFB2652F06D14FF44079DFF840A3CAF883
S11325C0009005E04FF44079DFF834A3CAF8009096
S11325D05FFA8CFCBCF1640F06D14FF44079DFF84C
S11325E024A3CAF8009005E04FF44079DFF818A35B
S11325F0CAF8009095F8039019F0F30985F8039050
S11326005FF0000985F802905FEA0619B2FBF9F958
S1132610484695F8009019F0E0094B46C0F30429A8
S113262059EA030985F8009068705FEA42195FEA85
S1132630061AB9FBFAF980B2B9EB4019494695F884
S11326400A9019F0E0094B4611F01F0959EA0309F1
S113265085F80A909DF82A90B9F1010F0FD1F1463F
S1132660B9F1000F0BD095F8039059F0200985F8C3
S11326700390DFF89892E4B249F824E005E095F875
S1132680039019F0DF0985F803909DF82B90B9F1B8
S1132690010F0FD1C146B9F1000F0BD095F803908B
S11326A059F0800985F80390DFF86492E4B249F8A0
S11326B0248005E095F8039019F07F0985F80390CC
S11326C095F8039059F00C0985F80390BDE8F007DC
S11326D05DF814FB01798906FCD590F9070040B236
S11326E0704702791206FCD5C17170470FB480B5EA
S11326F002986249884203D12D20FFF703FE26E0A9
S113270002986749884203D12F20FFF7FBFD1EE0A2
S113271002986949884203D13120FFF7F3FD16E09E
S113272002986849884203D13320FFF7EBFD0EE09D
S113273002986B49884203D13520FFF7E3FD06E098
S113274002986D49884202D13720FFF7DBFD01BCB6
S11327505DF814FB80B56F480078800606D56E4896
S11327600078800602D56948006880476948007887
S1132770000606D568480078000602D5644800685B
S1132780804701BD80B565480078800606D5644859
S11327900078800602D55D48406880475F4800782D
S11327A0000606D55E480078000602D55848406801
S11327B0804701BD80B55B480078800606D55A483D
S11327C00078800602D551488068804755480078D3
S11327D0000606D554480078000602D54C488068A7
S11327E0804701BD80B551480078800606D5504821
S11327F00078800602D54548C06880474B48007879
S1132800000606D54A480078000602D54048C0684C
S1132810804701BD80B547480078800606D5464804
S11328200078800602D5394800698047414800781D
S1132830000606D540480078000602D534480069F1
S1132840804701BD80B53D480078800606D53C48E8
S11328500078800602D52D484069804737480078C3
S1132860000606D536480078000602D52848406997
S1132870804701BD0000000000E100E000A0064028
S1132880E004FF1F34800440089004403890044062
S113289044A00440049004403C90044040A0044000
S11328A000B0064000D0044010B0044004D00440FE
S11328B00CB00440E404FF1F00C006400CC00440F8
S11328C008C0044000D0064010D004402CA00440AE
S11328D044B0044014D0044028A0044040B0044054
S11328E000A00E402880044060D004403CB0044066
S11328F064D0044038B0044000B00E4024C004400A
S113290020D0044020C0044024D00440400AFF1FCB
S1132910580AFF1F04A0064003A0064004B0064066
S113292003B0064004C0064003C0064004D006407D
S113293003D0064004A00E4003A00E4004B00E4095
S113294003B00E404FEAF17CBCF1E04C2CBFBCF567
S1132950001F11E05FEA4C0C34BFBCF17F5F2EE036
S11329605FEA9C0C4FEA0C1C4FEA3C0CC10071F16D
S113297000414CEB50707047C90241EA5051C0020B
S113298018BF41F0010141F000414FEA6C50C0F121
S11329900900212810D240EACC7CCCF1200C11FA99
S11329A00CF070F10040CCF1200C21FA0CF00CF08A
S11329B0004C40EB0C0070474FEACC707047490064
S11329C011F5001F04D84FEACC10FF30C005704742
S11329D0C817704700B587B0DFF8040401904FF4BE
S11329E08060029001208DF8100001208DF8110004
S11329F0202003900020059001A984B06846142289
S1132A0000F080FA0FBCFEF791FC07B000BD00B5E2
S1132A1087B0DFF8CC0301904FF4006002900120EE
S1132A208DF8100001208DF8110000200390002083
S1132A30059001A984B06846142200F063FA0FBC23
S1132A40FEF774FC07B000BD80B5DFF8980300788A
S1132A50002806D002280AD006D304280AD00CD3B2
S1132A600DE000F00DF80AE000F09EF807E000F039
S1132A70F6F804E000F054F901E000F0EFF801BDCD
S1132A8080B5DFF86403008864280CDA01220A2187
S1132A90DFF84C03FEF7FAFC00220B21DFF84003B9
S1132AA0FEF7F4FC7FE0DFF840030088C9280CDA65
S1132AB000220A21DFF82803FEF7E8FC01220B219B
S1132AC0DFF81C03FEF7E2FC6DE0DFF81C0300886E
S1132AD0B0F5967F0CDC01220A21DFF80403FEF72F
S1132AE0D5FC00220B21DFF8F802FEF7CFFC5AE0F8
S1132AF0DFF8F4020088B0F5C87F0CDC00220A215C
S1132B00DFF8DC02FEF7C2FC01220B21DFF8D00261
S1132B10FEF7BCFC47E0DFF8D0020088B0F5FA7F8E
S1132B200CDC01220A21DFF8B802FEF7AFFC002218
S1132B300B21DFF8AC02FEF7A9FC34E0DFF8A802B1
S1132B400088B0F57A7F0CDC00220A21DFF89002BD
S1132B50FEF79CFC01220B21DFF88402FEF796FCB1
S1132B6021E0DFF88402008840F2DD5188420CDA6B
S1132B7001220A21DFF86802FEF788FC00220B21FB
S1132B80DFF85C02FEF782FC0DE000220A21DFF888
S1132B905002FEF77BFC01220B219148FEF776FCE4
S1132BA003209049087001BD80B58F480088322801
S1132BB00ADA01220A218A48FEF768FC00220B2166
S1132BC08748FEF763FC48E08748008865280ADAEE
S1132BD000220A218248FEF759FC01220B21804879
S1132BE0FEF754FC39E08048008896280ADA01226E
S1132BF00A217B48FEF74AFC00220B217848FEF7A5
S1132C0045FC2AE078480088C9280ADA00220A210B
S1132C107348FEF73BFC01220B217148FEF736FC9A
S1132C201BE071480088FA280ADA01220A216C485C
S1132C30FEF72CFC00220B216948FEF727FC0CE070
S1132C4000220A216648FEF721FC01220B21644878
S1132C50FEF71CFC03206349087001BD704780B572
S1132C6061480088B0F5FA7F0ADA01220A215C483B
S1132C70FEF70CFC00220B215948FEF707FC4EE03E
S1132C8059480088B0F57A7F0ADC00220A215448AA
S1132C90FEF7FCFB01220B215148FEF7F7FB3EE057
S1132CA05148008840F2DC5188420ADA01220A21A4
S1132CB04B48FEF7EBFB00220B214948FEF7E6FBED
S1132CC02DE049480088B0F5FA6F0ADC00220A2199
S1132CD04348FEF7DBFB01220B214148FEF7D6FBFC
S1132CE01DE04148008840F6C41188420ADA0122F6
S1132CF00A213B48FEF7CAFB00220B213848FEF7A5
S1132D00C5FB0CE000220A213548FEF7BFFB012277
S1132D100B213348FEF7BAFB03203249087001BD8A
S1132D2080B5314800881E280ADA01220A212C487D
S1132D30FEF7ACFB00220B212948FEF7A7FB48E075
S1132D40294800883D280ADA00220A212448FEF78F
S1132D509DFB01220B212248FEF798FB39E0224813
S1132D6000885A280ADA01220A211D48FEF78EFB40
S1132D7000220B211A48FEF789FB2AE01A48008832
S1132D8079280ADA00220A211548FEF77FFB01227E
S1132D900B211348FEF77AFB1BE013480088AA288E
S1132DA00ADA01220A210E48FEF770FB00220B21E9
S1132DB00B48FEF76BFB0CE000220A210848FEF7E3
S1132DC065FB01220B210648FEF760FB0320054941
S1132DD0087001BD0021044A11800249087070473F
S1132DE000F10F401004FF1FC40AFF1F80B501202B
S1132DF021490870214984B06846142200F082F801
S1132E000FBC00F0CCFB01BD80B503201B4908704A
S1132E101B4800781949C8600020184988600020C0
S1132E2016494860174815490861144984B0684632
S1132E30142200F067F80FBC00F058FB0F4984B06F
S1132E406846142200F05EF80FBC00F0C1FB0020BD
S1132E500949087001BD80B507480078012809D1E7
S1132E6000220021084800F0DAFC00220121064873
S1132E7000F0D5FC01BD00001504FF1F5806FF1F1C
S1132E801404FF1FED2D000000800340184A194B65
S1132E901A60154A1268154BB2FBF3F202FB00F2FA
S1132EA0521E1100B1F1807F17D2144A1160002222
S1132EB0134B1A600F4A126852F001020D4B1A604C
S1132EC00C4A1268110011F00112012AF8D0084AC4
S1132ED0084B1A6000220A4B1A60704780B50648F6
S1132EE00068804701BD0000E004FF1F40420F005E
S1132EF00400010010E000E0340AFF1F14E000E0C9
S1132F0018E000E0103A07D330B4B1E83810103AB2
S1132F10A0E83810F9D230BC530724BFB1E8081038
S1132F20A0E8081044BF51F8043B40F8043BD20722
S1132F3024BF31F8022B20F8022B44BF0B78037016
S1132F407047083A07D3B1E80810083A40F8043B40
S1132F5040F804CBF7D25307E4E7000070B504004F
S1132F600D0016003068012802D0022805D00AE0BE
S1132F70200040B27168884705E0B0680470B0680A
S1132F80401CB060FFE72868401C286070BD2DE934
S1132F90F04704005FF0000A5046A1465FF0000AC3
S1132FA089F800A019F10109002A1FD0D1F800A066
S1132FB05546002D05D15FF0300A89F800A0401C69
S1132FC038E0002D36D095FBF3FA564603FB165A2B
S1132FD05746002F02D5FF43313700E03037350024
S1132FE089F8007019F10109401CEAE7D1F800A042
S1132FF0D446BCF1000F05D15FF0300A89F800A077
S1133000401C17E0BCF1000F14D0BCFBF3FAD64609
S113301003FB1ECAD046B8F10A0F02D218F13008D9
S113302001E018F13708F44689F8008019F1010924
S1133030401CE7E7BDE8F0872DE9F04104000D00EE
S113304016001F00A046A84507DA3A0031003020D8
S1133050FFF784FF18F10108F5E7BDE8F0812DE9D9
S1133060F04104000D0016001F00A046A84507DA31
S11330703A0031002020FFF771FF18F10108F5E74D
S1133080BDE8F0812DE9F24F92B004001500002054
S11330900090129883469BF9000001900198002843
S11330A000F0F7810198252813D001980A2805D04B
S11330B0220000A90198FFF751FF09E0220000A9AE
S11330C00D20FFF74BFF220000A90A20FFF746FF5F
S11330D0DCE100208146002004900498002822D1DD
S11330E01BF1010B9BF9000020280ED0232812D0DD
S11330F02B2807D02D2802D0302809D00EE059F013
S11331000109EAE759F00209E7E759F00409E4E79D
S113311059F00809E1E759F01009DEE7BBF1010BAA
S113312001200490D9E700208246002004900498EE
S1133130002814D11BF1010B9BF9000001900198A8
S11331403038092806D80A20019900FB0A10B0F18A
S1133150300AECE7BBF1010B01200490E7E71BF117
S1133160010B9BF900002E2811D100200490049833
S113317000280ED11BF1010B9BF9000030380928FF
S113318000D8F4E7BBF1010B01200490EFE7BBF199
S1133190010B1BF1010B9BF900004C2806D0682899
S11331A002D06C2801D002E003E002E001E0BBF1B0
S11331B0010B1BF1010B9BF90000019001985828A9
S11331C075D0622800F0D580632800F01F81642840
S11331D013D0692811D06E2800F04C816F2800F0BC
S11331E0BD80702800F0D080732800F01981752804
S11331F000F0D58078285AD043E128682D1D069028
S11332000A23012206A909A8FFF7C1FE070009A89D
S1133210381806000698002803D52D2003907F1C3B
S11332200FE05FEA897003D52B2003907F1C08E030
S11332305FEA497003D5202003907F1C01E0002041
S11332400390002005905FEA097011D503980028C7
S113325004D0220000A90398FFF780FE0120059006
S1133260230000AA51463800FFF7E6FE574612E055
S11332705FEAC9700FD4230000AA51463800FFF753
S1133280EEFE0398002804D0220000A90398FFF75B
S113329065FE012005900598002807D103980028B1
S11332A004D0220000A90398FFF758FE98E028688C
S11332B02D1D02901023002202A909A8FFF767FE22
S11332C0070009A838180600002005905FEA097075
S11332D016D55FEAC9600BD5220000A93020FFF79C
S11332E03DFE220000A97820FFF738FE012005905A
S11332F0230000AA51463800FFF79EFE57461BE004
S11333005FEAC97018D45FEAC96000D5BF1C230006
S113331000AA51463800FFF7A2FE5FEAC9600BD548
S1133320220000A93020FFF719FE220000A978200E
S1133330FFF714FE012005905FEAC9600DD50598DA
S113334000280AD1220000A93020FFF707FE22003E
S113335000A97820FFF702FEBF1C41E028682D1D5C
S113336002900823002202A909A8FFF710FE070013
S11333701FE028682D1D02900223002202A909A83B
S1133380FFF705FE070014E028682D1D02901023A6
S1133390002202A909A8FFF7FAFD070009E028683E
S11333A02D1D02900A23002202A909A8FFF7EFFDB0
S11333B0070009A8381806005FEA097007D523003A
S11333C000AA51463800FFF737FE574608E05FEA87
S11333D0C97005D4230000AA51463800FFF73FFE08
S11333E096F90000002807D0220000A996F90000F1
S11333F0FFF7B4FD761EF3E75FEAC97005D5230035
S113340000AA51463800FFF72AFE3FE028682D1D28
S113341040B20790220000A90798FFF79FFD35E00E
S113342028682D1D8046B8F1000F22D0404600F0D8
S113343023FE07005FEAC97005D4230000AA5146A1
S11334403800FFF70CFE98F90000002808D022008D
S113345000A998F90000FFF781FD18F10108F2E7CF
S11334605FEAC97005D5230000AA51463800FFF76A
S1133470F6FD0BE028682D1D089000980899086057
S113348004E0220000A90198FFF768FD1BF1010B7D
S113349001E6009813B0BDE8F08F0EB47EB50400C9
S11334A0012000900648019007A805002A00210089
S11334B000A8FFF7E7FD060030007EBC5DF810FBB6
S11334C0BD8A0000012110F01F029140604A40B201
S11334D0430942F823107047012110F01F02914064
S11334E05C4A40B2430942F8231070470FB470B5E8
S11334F0059859490968594AB1FBF2F1069A564BA5
S11335001B68564CB3FBF4F35A434FF47A735A4393
S113351001FB00200799504A1268504BB2FBF3F2AA
S113352051434E4A02FB01049DF81050089EEDB22F
S1133530042D03DB32214A48FEF7D8FE002C03D1C8
S113354033214748FEF7D2FE4648006850F4000095
S1133550444908600020444908603000002809D02C
S11335604248EDB240F8256002204149EDB211EB2A
S113357005118860601E3E49EDB22A0150503C4856
S1133580EDB210EB0510806850F001003849EDB23F
S113359011EB05118860012070BC5DF814FB0FB4B9
S11335A010B59DF80840E4B2042C03DB5D212C48DF
S11335B0FEF79CFE14F1440040B2FFF78DFF00209B
S11335C02B49E4B211EB0411886010BC5DF814FBC4
S11335D00FB410B59DF80840E4B2042C03DB762147
S11335E01F48FEF783FE14F1440040B2FFF76AFF60
S11335F010BC5DF814FB80B51C48006880471D486A
S1133600006850F001001B49086001BD80B51748EF
S1133610406880471848006850F001001649086067
S113362001BD80B51148806880471448006850F097
S113363001001249086001BD80B50C48C06880478C
S11336400F48006850F001000D49086001BD0000FA
S113365000E100E080E100E0E404FF1F40420F00CD
S1133660D48800003C80044000700340D009FF1F50
S1133670007103400C7103401C7103402C71034022
S11336803C7103400FB43EB59DF81C000F21084265
S113369004D13521DFF8E808FEF728FE0698DFF8A4
S11336A0E41888420AD100200500DFF8DC0800682D
S11336B050F08070DFF8D018086021E00698DFF839
S11336C0CC1888420AD101200500DFF8BC08006844
S11336D050F00070DFF8B018086011E00698DFF8C9
S11336E0B01888420AD102200500DFF8A808006853
S11336F050F08070DFF89C18086001E0002052E070
S11337009DF81C00C0070AD506A984B068461C228F
S1133710FFF7F8FB0FBC00F0C9F804002BE09DF89C
S11337201C0080070AD506A984B068461C22FFF74E
S1133730E9FB0FBC00F06CF904001CE09DF81C00D0
S113374040070AD506A984B068461C22FFF7DAFBB5
S11337500FBC00F027FC04000DE09DF81C000007DE
S113376009D506A984B068461C22FFF7CBFB0FBC21
S113377000F036FC0400E4B2012C12D10C980028AD
S11337800FD00C98DFF81018EDB241F825009DF821
S11337902C00012805D10698006850F040000699D5
S11337A008602000C0B23EBC5DF814FB2DE9F8436C
S11337B005000E0017009846089C42F211708742DB
S11337C004D3C121DFF8B807FEF790FD4246D2B218
S11337D03100C9B2280000F06AF9002801D10020A4
S11337E01BE0E4B2242C02D142F21070C71BA8687B
S11337F000900098401C00FB07F042F21071B0FBEF
S1133800F1F08146E4B2F6B215EBC600C460F6B23C
S113381015EBC600C0F810900120BDE8F283F8B59E
S113382004000D00160042F21170864204D3F921FF
S1133830DFF84C07FEF75AFDEDB214EBC500C06883
S1133840400702D542F21070861BA06800900098D1
S1133850401C00FB06F042F21071B0FBF1F00700CF
S1133860EDB214EBC50007610120F2BD406880B2DF
S1133870704700214160704770B504000D001600C8
S11338802A00D2B20821200000F011F9002801D149
S113389000200AE03200D2B20921200000F007F92A
S11338A0002801D1002000E0012070BD0FB42DE9F3
S11338B0F84FDDF830800D9800909DF838909DF811
S11338C039A0DDF828B0B8F1000F05D140F2A721E6
S11338D0DFF8AC06FEF70AFD5FFA8AFABAF1400F88
S11338E005DB4FF42A71DFF89806FEF7FFFCDFF8DA
S11338F0180700680400444501D2002084E08020B9
S113390000FB08F0B4FBF0F005004FF6FF708542B1
S113391079D2072007002E00402000FB08F0B4FBFA
S1133920F0F005004FF6FF70854248D206200700EC
S11339302E005FEA4810B4FBF0F005004FF6FF706C
S113394085423CD2052007002E005FEA0810B4FB34
S1133950F0F005004FF6FF70854230D204200700D6
S11339602E005FEAC800B4FBF0F005004FF6FF70CC
S1133970854224D2032007002E005FEA8800B4FBAE
S1133980F0F005004FF6FF70854218D202200700C0
S11339902E005FEA4800B4FBF0F005004FF6FF701C
S11339A085420CD2012007002E00B4FBF8F005007C
S11339B04FF6FF70854202D2002007002E0000203F
S11339C0CBF800000020CBF804000020CBF84C001A
S11339D0CBF808605FFA89F95FEA891010F0C0003B
S11339E05FFA8AFA1AF03F010843CBF8680000989E
S11339F0CBF86400FFB217F0070050F00800CBF8D2
S1133A000000012000E00020BDE8F20F5DF814FB87
S1133A100FB4F8B59DF82B500C9E069FEDB2082DFF
S1133A2005DB4FF43F71DFF85805FEF75FFCC0205B
S1133A30C7F8840000203860002078600020F86413
S1133A400020B8607FF00100C7F880000020B8674C
S1133A503868EDB215F0070151F0080108433860E9
S1133A60386830F020003860300000281BD0DFF8C0
S1133A701405874202D1002004000FE0DFF80C0592
S1133A80874202D10120040008E0DFF804058742E0
S1133A9002D10220040001E0002005E0DFF8F80470
S1133AA0E4B240F824600120F2BC5DF814FB10B4C9
S1133AB00300DFF8E804834240F00D81C9B2002915
S1133AC00FD002294BD02BD3042900F0868065D374
S1133AD0062900F0C080C0F09F80072900F0DA803A
S1133AE0F7E0D2B2032A0AD1DFF82005006830F4E7
S1133AF0E06050F44070DFF8144520600FE0D2B26B
S1133B003D2A0AD1DFF80805006830F4E06050F47B
S1133B108060DFF8FC44206001E000202DE22BE20D
S1133B20D2B2042A0AD1DFF8EC04006830F4E06071
S1133B3050F44070DFF8DC4420600FE0D2B23E2A3B
S1133B400AD1DFF8D404006830F4E06050F48060F7
S1133B50DFF8C444206001E000200EE20CE2D2B29F
S1133B60052A0AD1DFF8B404006830F4E06050F4A8
S1133B704070DFF8A84420600FE0D2B23F2A0AD197
S1133B80DFF89C04006830F4E06050F48060DFF8F3
S1133B909044206001E00020EFE1EDE1D2B2062A7A
S1133BA00AD1DFF88004006830F4E06050F440701B
S1133BB0DFF8704420600FE0D2B2402A0AD1DFF867
S1133BC06804006830F4E06050F48060DFF8584422
S1133BD0206001E00020D0E1CEE1D2B2072A0AD170
S1133BE0DFF84804006830F4E06050F44070DFF817
S1133BF03C4420600FE0D2B2602A0AD1DFF83004DE
S1133C00006830F4E06050F48060DFF82444206001
S1133C1001E00020B1E1AFE1D2B2002A0AD1DFF81D
S1133C201404006830F4E06050F44070DFF8044499
S1133C3020600FE0D2B2612A0AD1DFF8FC030068E9
S1133C4030F4E06050F48060DFF8EC43206001E081
S1133C50002092E190E1D2B2012A0AD1DFF8DC031C
S1133C60006830F4E06050F44070DFF8D043206026
S1133C700FE0D2B2622A0AD1DFF8C403006830F43C
S1133C80E06050F48060DFF8B843206001E0002079
S1133C9073E171E1D2B2022A0AD1DFF8A803006805
S1133CA030F4E06050F44070DFF8984320600FE097
S1133CB0D2B2632A0AD1DFF89003006830F4E060DE
S1133CC050F48060DFF88043206001E0002054E17C
S1133CD052E1002051E1DFF8C802834240F0BD8088
S1133CE0C9B20800002807D0012832D008285DD0C6
S1133CF0092800F08680AEE0D2B2082A0AD1DFF8A3
S1133D004C03006830F4E06050F44070DFF83C434A
S1133D1020601DE0D2B20C2A0AD1DFF83403006817
S1133D2030F4E06050F44070DFF8244320600FE08A
S1133D30D2B2202A0AD1DFF81C03006830F4E06014
S1133D4050F44070DFF80C43206001E0002014E1DF
S1133D5012E1D2B2092A0AD1DFF8FC02006830F479
S1133D60E06050F44070DFF8F04220601DE0D2B211
S1133D700D2A0AD1DFF8E402006830F4E06050F460
S1133D804070DFF8D84220600FE0D2B2212A0AD175
S1133D90DFF8CC02006830F4E06050F44070DFF8E3
S1133DA0C042206001E00020E7E0E5E0D2B2082A4A
S1133DB00AD1DFF89802006830F4E06050F4C06083
S1133DC0DFF8884220601BE0D2B20C2A08D1DFF869
S1133DD08002006850F4E060DFF8744220600FE075
S1133DE0D2B2202A0AD1DFF86C02006830F4E06015
S1133DF050F4C060DFF85C42206001E00020BCE0C9
S1133E00BAE0D2B2092A0AD1DFF84C02006830F4D1
S1133E10E06050F4C060DFF8404220601BE0D2B2A2
S1133E200D2A08D1DFF83402006850F4E060DFF8AE
S1133E302C4220600FE0D2B2212A0AD1DFF82002FE
S1133E40006830F4E06050F4C060DFF81442206091
S1133E5001E0002091E000208FE04D48834240F0D3
S1133E608980C9B20800002806D0012823D0082878
S1133E7040D009285DD07BE0D2B20A2A0AD1DFF80B
S1133E80E401006830F4E06050F44070DFF8D4419D
S1133E9020600FE0D2B2322A0AD1DFF8CC010068E8
S1133EA030F4E06050F44070DFF8BC41206001E081
S1133EB0002062E060E0D2B20B2A0AD1DFF8AC0144
S1133EC0006830F4E06050F44070DFF8A0412060F6
S1133ED00FE0D2B2332A0AD1DFF89401006830F43B
S1133EE0E06050F44070DFF88841206001E0002079
S1133EF043E041E0D2B20A2A0AD1DFF8680100683F
S1133F0030F4E06050F4C060DFF8584120600FE006
S1133F10D2B2322A0AD1DFF85001006830F4E060EE
S1133F2050F4C060DFF84041206001E0002024E04C
S1133F3022E0D2B20B2A0AD1DFF83001006830F453
S1133F40E06050F4C060DFF8244120600FE0D2B29A
S1133F50332A0AD1DFF81801006830F4E06050F425
S1133F60C060DFF80C41206001E0002005E003E0C0
S1133F70002002E0002000E0012010BC7047000097
S1133F8020880000008003403C80044000900340EF
S1133F9000800B40308004409C09FF1F00800340D8
S1133FA0009003400FB49DF81210009A506D50F029
S1133FB0010050650020D064002050604FF6FF706F
S1133FC09060D2F88000C9B20843C2F88000D2F8E9
S1133FD0800050F00100C2F88000012004B0704756
S1133FE00FB4002004B0704780B5224800688047B1
S1133FF001BD80B51F484068804701BD80B51D489C
S11340008068804701BD0000E404FF1F0C90044059
S113401004B004401090044008B0044014900440DC
S11340200CB004401890044010B004401C900440AC
S113403010C004400090044014C0044004900440A4
S113404018C00440089004401CC004402090044060
S11340503090044000A00440249004403490044074
S113406004A004402890044048A004402C9004403C
S11340704CA004409C09FF1F01000A000023002AF1
S113408001D1002008E01000421C90F90000002833
S113409001D05B1CF7E718007047000038B5002416
S11340A00120DFF8F41908700120DFF8EC194870DA
S11340B00320DFF8E419887100F09FFAE4B2002CC1
S11340C003D100F07FFD0400F8E7E4B2022C40F0D5
S11340D0F580DFF8C4090078022819D1DFF8B8099F
S11340E04078042814D1DFF8B0098088C01EDFF8B6
S11340F0A8198880DFF8A00980880D2803DA0D202C
S1134100DFF8941988800120DFF890190870D5E051
S1134110DFF884090078042840F0BC80DFF87809CF
S11341204078012807D0C0F0C980032828D013D3D1
S113413004286AD0C2E0DFF860098079401EDFF805
S113414058198871DFF850098079002803D10120BB
S1134150DFF844198871B1E0DFF84409DFF8381951
S1134160897910EB4100DFF83819DFF82C299279AE
S113417011EB420131F8021C193920F8021C9DE0B0
S1134180DFF81409807903281EDADFF81809DFF84C
S113419008198979490010EB8105DFF80809DFF86F
S11341A0F8188979490010EB810050F8080C00F0E8
S11341B007FEDFF8F428DFF8F438FDF711FEFEF708
S11341C0C1FB45F8080C1FE0DFF8D808DFF8C81871
S11341D089790622514310EB8105DFF8C808DFF81E
S11341E0B81889790622514310EB810050F82C0C41
S11341F000F0E6FDDFF8B828DFF8B838FDF7F0FD89
S1134200FEF7A0FB45F82C0C58E0DFF88C08807909
S113421003281EDADFF88C08DFF87C188979490056
S113422010EB8105DFF87C08DFF86C188979490008
S113423010EB810050F8080C00F0C2FDDFF8702884
S1134240DFF87038FDF7CCFDFEF77CFB45F8080C71
S11342501FE0DFF85008DFF840188979062251433F
S113426010EB8105DFF83C08DFF82C188979062269
S1134270514310EB810050F8240C00F0A1FDDFF84D
S11342803028DFF83038FDF7ABFDFEF75BFB45F86F
S1134290240C13E0DFF800080078401EDFF8F8175C
S11342A00870DFF8F4070078002803D10120DFF854
S11342B0E81708700120DFF8E0174870E4B2032C17
S11342C040F00681DFF8D0070078022819D1DFF822
S11342D0C8074078042814D1DFF8BC078088C01CC4
S11342E0DFF8B4178880DFF8B00780882A2803DB5A
S11342F02920DFF8A41788800120DFF8A0170870B0
S1134300E6E0DFF894070078052800F07581DFF80F
S113431088070078042840F0BC80DFF87C074078E8
S1134320012807D0C0F0D480032828D013D3042850
S11343306AD0CDE0DFF860078079401CDFF85817B9
S11343408871DFF854078079082803DB0120DFF83F
S113435048178871BCE0DFF84807DFF83C17897913
S113436010EB4100DFF83817DFF82C27927911EBB6
S1134370420131F8021C193120F8021CA8E0DFF8D0
S11343801807807903281EDADFF81807DFF8081702
S11343908979490010EB8105DFF80807DFF8F81682
S11343A08979490010EB810050F8080C00F008FDF1
S11343B0DFF8F426DFF80037FDF712FDFEF7C2FA46
S11343C045F8080C1FE0DFF8DC06DFF8CC16897925
S11343D00622514310EB8105DFF8C806DFF8B81652
S11343E089790622514310EB810050F82C0C00F01F
S11343F0E7FCDFF8BC26DFF8C436FDF7F1FCFEF776
S1134400A1FA45F82C0C63E0DFF88C0680790328C8
S11344101EDADFF89006DFF880168979490010EB80
S11344208105DFF88006DFF870168979490010EB02
S1134430810050F8080C00F0C3FCDFF87426DFF8A4
S11344407C36FDF7CDFCFEF77DFA45F8080C1FE03D
S1134450DFF85006DFF8401689790622514310EB45
S11344608105DFF84006DFF83016897906225143CA
S113447010EB810050F8240C00F0A2FCDFF8302689
S1134480DFF83836FDF7ACFCFEF75CFA45F8240C8F
S11344901EE0DFF804060078401CDFF8FC15087005
S11344A0DFF8F4050078032805D100F0CBFC00F018
S11344B0AFFC00F0E7FCDFF8E0050078062803DB3A
S11344C00520DFF8D41508700120DFF8CC154870FA
S11344D0E4B2012C19D1DFF8C0050078022804D019
S11344E0DFF8B405007804280FD1DFF8AC05407874
S11344F0401EDFF8A4154870DFF89C0540780028BA
S113450003D10120DFF890154870E4B2042C23D1C4
S1134510DFF884050078022809D0DFF87C050078EC
S1134520042804D0DFF870050078052814D1DFF8DA
S11345306805007805285FD0DFF85C054078401CEA
S1134540DFF854154870DFF850054078052803DB80
S11345500420DFF844154870E4B2052C49D1DFF893
S11345603805007802282FD1DFF82C05407801287F
S113457004D029D3032817D007D325E0FBF752FF33
S11345800120DFF8181508701EE0DFF83405007804
S1134590002804D10120DFF82815087003E000206A
S11345A0DFF81C1508700FE0DFF818050078C01C50
S11345B0DFF810150870DFF80C0500780D2803DB10
S11345C00320DFF800150870DFF8CC040078052814
S11345D012D0DFF8C404007804280AD1DFF8B80444
S11345E00078401CDFF8B01408700120DFF8A8142C
S11345F04870002004005FE531BD80B500F062FD25
S1134600DFF894040078012807D015D303280AD0D2
S113461006D305280DD009D30EE000F00EF80BE008
S113462000F019F808E000F093F805E000F0C8F88D
S113463002E000F0BFF9FFE701BD80B5DFF8882490
S11346400021142000F0BDFEDFF88024042128207E
S113465000F0B7FE01BD80B5DFF83C0440780128C6
S113466006D0DFF86C240021002000F055FE05E0A0
S1134670DFF85C2400210F2000F04EFEDFF8400438
S11346800078002806D1DFF84C240221002000F035
S113469043FE05E0DFF840240221002000F03CFE48
S11346A0DFF8F4034078032806D0DFF8302404212F
S11346B0002000F031FE05E0DFF8202404210F2063
S11346C000F02AFEDFF8FC030078032805D13AA2A3
S11346D004215A2000F020FE1FE0DFF8E8030078F0
S11346E0062805D135A204215A2000F015FE14E055
S11346F0DFF8D0030078092805D1ABA204215A20A1
S113470000F00AFE09E0DFF8BC0300780C2804D1AD
S1134710A6A204215A2000F0FFFDDFF87C034078B4
S1134720042806D0DFF8B8230621002000F0F4FDA9
S113473005E0DFF8AC2306210A2000F0EDFDD648A1
S1134740B0F9042012B20621462000F0FFFF01BD9B
S113475080B597A20021002000F0DEFDDFF884037D
S1134760B0F90A200021282000F0F0FFA9A20221BC
S1134770002000F0D1FDDFF87003B0F944200221DD
S1134780322000F0E3FFA4A20421002000F0C4FDC5
S1134790D548B0F946200421322000F0D7FF9FA26B
S11347A00621002000F0B8FDCF48B0F948200621CA
S11347B0322000F0CBFF01BD3300000036000000C2
S11347C080B5B5484078012805D0C84A00210020AA
S11347D000F0A2FD04E0C54A00210F2000F09CFD7A
S11347E08FA200213C2000F097FDAB48827912B2E1
S11347F000214A2000F0AAFF8AA20221002000F032
S11348008BFDBB480078012840F0A180A448A24950
S1134810897910EB410030F9022C0221282000F0A4
S113482095FF9D48807903282ADA99A20421002063
S113483000F072FD97A20621002000F06DFD99485A
S113484095498979490010EB810050F8080C00F073
S1134850B7FA02000B000421282000F052FE914810
S11348608D498979490010EB810050F8040C00F05F
S1134870A7FA02000B000621282000F042FE91E076
S11348808848854989790622514310EB810050F804
S1134890380C00F095FA02000B000421002000F00F
S11348A030FE80487C4989790622514310EB81000F
S11348B050F8300C00F084FA02000B000421282088
S11348C000F01FFE7748744989790622514310EBA2
S11348D0810050F8280C00F073FA02000B00042148
S11348E0502000F00EFE6F486B498979062251432F
S11348F010EB810050F8340C00F062FA02000B0057
S11349000621002000F0FDFD6648634989790622EE
S1134910514310EB810050F82C0C00F051FA0200C6
S11349200B000621282000F0ECFD5E485A498979E5
S11349300622514310EB810050F8240C00F040FA99
S113494002000B000621502000F0DBFD2AE0524853
S1134950807900280FD100220221282000F0F6FEE1
S113496000220421282000F0F1FE00220621282044
S113497000F0ECFE16E05F484749897910EB4100EE
S113498030F9022C0221282000F0E0FE002200234E
S11349900421282000F0B5FD002200230621282050
S11349A000F0AFFD01BD000039000000313200000D
S11349B0504F530080B550480078072813D00B2877
S11349C017D00D2809D00E2819D00F281CD14B4A16
S11349D00021022000F0A0FC16E0494A0021062034
S11349E000F09AFC10E0474A0021062000F094FCF5
S11349F00AE0454A0021062000F08EFC04E0434A08
S1134A000021062000F088FC414A0421062000F021
S1134A1083FC01BD4D2D4C004D2D5200522D4C00F8
S1134A2041493A0041494D0010B5002400F088FF87
S1134A303220FCF771FB5FF4FF20B0F900000400A2
S1134A4024B214F1010F22D05FF4FF200088124930
S1134A508880304800882449A1F84C002E480088FA
S1134A602149A1F84E002D4800881F49A1F85000A3
S1134A702B4800881C49A1F852002A4800881A498A
S1134A80A1F85400284800881749A1F8560010BD21
S1134A904B00000044000000A407FF1FCF0AFF1FC3
S1134AA01804FF1F3004FF1F7B14AE47E17A84BF54
S1134AB09A9999999999B9BFE17A843F9999B93F9B
S1134AC0CD0AFF1F1404FF1FD08A0000588B00007A
S1134AD0E08A0000108B0000608B0000688B0000EF
S1134AE01C8B00006C06FF1F7806FF1F708B0000F4
S1134AF01104FF1F2804FF1FD00AFF1F288B00008A
S1134B00788B0000348B0000F08A0000808B00005A
S1134B10408B000014F8070028F807003CF8070051
S1134B2050F8070064F8070078F8070000B587B06C
S1134B30944801905FF47200029000208DF81000F8
S1134B40032003900020059001A984B06846142234
S1134B50FEF7D8F90FBCFCF7E9FB8A4801905FF433
S1134B608730029000208DF810000320039000206D
S1134B70059001A984B068461422FEF7C3F90FBC5E
S1134B80FCF7D4FB8048019048F2620002900020B8
S1134B908DF810007D4803907D48059001A984B0EC
S1134BA068461422FEF7AEF90FBCFCF7BFFB01A95F
S1134BB084B068461422FEF7A5F90FBCFCF739FC53
S1134BC007B000BD80B573480068002816D10122E3
S1134BD00A217148FCF75AFC0120FCF79DFA6D4844
S1134BE0006800280AD16B4800680028FBD0002226
S1134BF00A216948FCF74AFC012071E06748006813
S1134C00002816D101220A216348FCF73FFC012049
S1134C10FCF782FA6148006800280AD15F480068FE
S1134C200028FBD000220A215B48FCF72FFC02205D
S1134C3056E05B480068002816D101220A21564834
S1134C40FCF724FC0120FCF767FA554800680028AB
S1134C500AD1534800680028FBD000220A214E489C
S1134C60FCF714FC03203BE04E480068002816D1F2
S1134C7001220A214848FCF709FC0120FCF74CFA00
S1134C804848006800280AD1464800680028FBD03C
S1134C9000220A214048FCF7F9FB042020E04248A6
S1134CA00068002816D101220A213B48FCF7EEFBDC
S1134CB00120FCF731FA3C48006800280AD13A4840
S1134CC000680028FBD000220A213348FCF7DEFBF1
S1134CD0052005E000220A212F48FCF7D7FB00201D
S1134CE002BD80B500203149087010212548FCF729
S1134CF0D9FB2E49097808432C4908702B480078C1
S1134D0040002A4908700B211E48FCF7CBFB2749B9
S1134D10097808432549087024480078400023494D
S1134D2008700A211748FCF7BDFB2049097808439D
S1134D301E4908701D48007840001C49087009216C
S1134D401048FCF7AFFB1949097808431749087064
S1134D5010210C48FCF7A6FB154908700B210948E3
S1134D60FCF7A0FB134908700A210648FCF79AFBDC
S1134D701149887009210348FCF794FB0F49087016
S1134D8001BD000040F00F40C0F00F4003000A00D6
S1134D90C9710000440AFE4300F10F405C0AFE435F
S1134DA0540AFE43580AFE43500AFE43D00AFF1F2A
S1134DB01204FF1FD20AFF1FA407FF1F1104FF1FC5
S1134DC05FF0FF0C1CEAD05114BF614506E0C1102E
S1134DD0400721F0E04101F16051704779B900F0DA
S1134DE0004100020AD0B0FA80FC00FA0CF001F194
S1134DF06051A1EB0C5101EBD021400570474102F9
S1134E000CBF40F4E0016FF0000100207047000087
S1134E1080B500201849087000201749C860012097
S1134E2015498860002014494860144812490861F3
S1134E30114984B068461422FEF764F80FBCFEF7EB
S1134E4055FB01BD80B501200B49087000200A49BB
S1134E50C860052008498860002007494860084860
S1134E6005490861044984B068461422FEF74AF8EB
S1134E700FBCFEF73BFB01BD9C0AFF1F4D830000E6
S1134E80016D000080B55A202F49087004202E4976
S1134E90486000202C49886000202B49C86001200C
S1134EA029490874284984B068461422FEF72AF870
S1134EB00FBC00F08AFE37202349087004202249E1
S1134EC0486001202049886000201F49C8600120F3
S1134ED01D4908741C4984B068461422FEF712F870
S1134EE00FBC00F072FE44201749087004201649D4
S1134EF0486002201449886000201349C8600120DA
S1134F0011490874104984B068461422FDF7FAFF69
S1134F100FBC00F05AFE45200B49087004200A49D2
S1134F20486003200849886000200749C8600120C0
S1134F3005490874044984B068461422FDF7E2FF69
S1134F400FBC00F042FE01BD880AFF1F00B587B008
S1134F50DFF8B80901905FF0F85002900020039048
S1134F6001208DF8100001208DF81100002005901B
S1134F7001A984B068461422FDF7C4FF0FBCFCF7F6
S1134F80D5F907B000BD000038B50400082501229A
S1134F901B21DFF87809FCF779FA00221821DFF8E1
S1134FA06C09FCF773FA2800451EC0B200281DD016
S1134FB0200606D501221921DFF85009FCF766FA0C
S1134FC005E000221921DFF84409FCF75FFA012209
S1134FD01821DFF83809FCF759FA00BF002218211C
S1134FE0DFF82809FCF752FA6400DCE731BD000061
S1134FF038B50400082500221B21DFF81009FCF74E
S113500045FA00221821DFF80409FCF73FFA2800CA
S1135010451EC0B200281DD0200606D50122192144
S1135020DFF8E808FCF732FA05E000221921DFF87E
S1135030DC08FCF72BFA01221821DFF8D008FCF772
S113504025FA00BF00221821DFF8C008FCF71EFA79
S11350506400DCE731BD38B504000D00B5F1500043
S1135060C0B2FFF7C5FFE4B2200950F01000C0B28F
S1135070FFF7BEFF14F00F0050F00100C0B2FFF7BD
S1135080B7FF31BD70B5040000200500EDB2082D56
S113509017DAB5F15000C0B2FFF7AAFF0120FFF7FD
S11350A0A7FF1020FFF7A4FF00200600F6B2802E11
S11350B005DA2000C0B2FFF767FF761CF6E76D1C27
S11350C0E4E770BD38B500200400E4B2082C16DA19
S11350D0B4F15000C0B2FFF78BFF0120FFF788FF47
S11350E01020FFF785FF00200500EDB2802D04DAC3
S11350F00020FFF749FF6D1CF7E7641CE5E731BDAD
S113510080B2002809D04FF47A5211000A00511ECF
S113511092B2002AFAD1401EF2E7704780B5FFF739
S113512015FF01221821DFF8E407FCF7AFF900228C
S11351301C21DFF8D807FCF7A9F900221A21DFF8AF
S1135140CC07FCF7A3F93220FFF7DAFF01221A217A
S1135150DFF8B807FCF79AF9AE20FFF749FF002003
S1135160FFF746FF1020FFF743FF4020FFF740FF03
S11351708120FFF73DFFCF20FFF73AFFA120FFF783
S113518037FFC820FFF734FFA620FFF731FFA82020
S1135190FFF72EFF3F20FFF72BFFD320FFF728FF59
S11351A00020FFF725FFD520FFF722FF8020FFF71F
S11351B01FFFD920FFF71CFFF120FFF719FFDA20AA
S11351C0FFF716FF1220FFF713FFDB20FFF710FF96
S11351D04020FFF70DFF2020FFF70AFF0220FFF712
S11351E007FF8D20FFF704FF1420FFF701FFA42021
S11351F0FFF7FEFEA620FFF7FBFEAF20FFF7F8FE49
S11352000020FFF73FFF00210020FFF724FF01BD2E
S11352102DE9F843040089461500002600275FF0B5
S11352200008B5F120000600E4B2792C03DB00206D
S1135230040019F101094946C9B22000C0B2FFF7C0
S11352400AFF00200700FFB2082F0ADADFF8CC06B5
S1135250F6B2310151FA87F1085CFFF795FE7F1C25
S1135260F1E719F10101C9B22000C0B2FFF7F3FE62
S113527000200700FFB2082F0BDADFF8A006F6B211
S1135280310151FA87F10818007AFFF77DFE7F1C7F
S1135290F0E7083418F10108BDE8F1832DE9F8437B
S11352A004000D00160000275FF000085FF00009FD
S11352B05FFA89F919F8060000282BD05FFA89F9FA
S11352C019F8060020380700E4B27F2C02DB002026
S11352D004006D1C2900C9B22000C0B2FFF7BBFE58
S11352E0002080465FFA88F8B8F1060F0EDADFF87E
S11352F02806FFB2062101FB07005FFA88F818F8B8
S11353000000FFF741FE18F10108EBE7A41D19F1B5
S11353100109CDE7BDE8F1832DE9F84304000D0050
S1135320160000275FF000085FF000095FFA89F9B2
S113533019F80600002842D05FFA89F919F8060026
S113534020380700E4B2792C02DB002004006D1C35
S11353502900C9B22000C0B2FFF77DFE00208046BC
S11353605FFA88F8B8F1080F0BDADFF8B005FFB27E
S1135370390151FA88F1085CFFF706FE18F10108BB
S1135380EEE7691CC9B22000C0B2FFF764FE00203A
S113539080465FFA88F8B8F1080F0CDADFF87C056C
S11353A0FFB2390151FA88F10818007AFFF7ECFDD1
S11353B018F10108EDE7083419F10109B6E7BDE871
S11353C0F1832DE9F84304000D00160000275FF077
S11353D000085FF001095FFA88F818F80600002851
S11353E000F08D800020070001208146DFF83005A1
S11353F0FFB2385C80281DDBDFF82405FFB2385C7F
S11354005FFA88F818F80610884211D1DFF8100501
S1135410FFB2381840785FFA88F818EB060149782B
S1135420884205D1FFB20E2017FB00F0814601E04F
S1135430BF1CDBE7E4B2772C02DB002004006D1C08
S11354402900C9B22000C0B2FFF705FE1FFA89F98E
S1135450B9F1010F2DD02900C9B22000C0B2FFF765
S1135460FAFD00200700FFB20E2F0BDADFF8B404B8
S11354701FFA89F919F80000FFF786FD19F10109EF
S11354807F1CF0E7691CC9B22000C0B2FFF7E3FD3E
S113549000200700FFB20E2F2DDADFF888041FFA70
S11354A089F919F80000FFF76FFD19F101097F1C54
S11354B0F0E718F101082900C9B22000C0B2FFF7D3
S11354C0CAFD00200700FFB2102F04DA0020FFF706
S11354D05BFD7F1CF7E7691CC9B22000C0B2FFF76F
S11354E0BAFD00200700FFB2102F04DA0020FFF7F6
S11354F04BFD7F1CF7E70E3418F102086BE7BDE89B
S1135500F1832DE9F04F89B006000F0014001D004F
S1135510A046A946404649460022DFF80C34FCF771
S113552013F980F00681404649465FF0FF32DFF808
S1135530FC3300F0E1FB00F2FC80404649460022C7
S1135540DFF8EC33FCF718F9FCF73AFA80B20A21D9
S113555090FBF1F201FB1200FBF7FEFFCDE9040121
S113556040464946FCF72CFA80B20A2190FBF1F23E
S113557001FB1200FBF7F0FFCDE906010022DFF882
S1135580B03340464946FBF7FDFFFCF719FA80B2F9
S11355900A2190FBF1F201FB1200FBF7DDFFCDE9DC
S11355A002010022DFF88C3340464946FBF7EAFF4C
S11355B0FCF706FA80B20A2190FBF1F201FB12001B
S11355C0FBF7CAFFCDE900010022DFF86C33404647
S11355D04946FBF7D7FFFCF7F3F980B20A2190FBA9
S11355E0F1F201FB1200FBF7B7FF82468B46DDE9BF
S11355F00401FCF7E5F9C0B200280DD0DDE904018F
S1135600FCF7DEF910F13002D2B23900C9B2300031
S1135610C0B2FFF7FDFD06E04BA23900C9B230006D
S1135620C0B2FFF779FEDDE90601FCF7C9F910F114
S11356303002D2B23900C9B216F10800C0B2FFF785
S1135640E7FD2E223900C9B216F11000C0B2FFF7EF
S1135650DFFD50465946FCF7B3F9C0B200280DD11E
S1135660DDE90001FCF7ACF9C0B2002806D1DDE9A0
S11356700201FCF7A5F9C0B200280ED0DDE9020151
S1135680FCF79EF910F13002D2B23900C9B216F11A
S11356901800C0B2FFF7BCFD07E02BA23900C9B265
S11356A016F11800C0B2FFF737FE50465946FCF712
S11356B087F9C0B2002806D1DDE90001FCF780F9C2
S11356C0C0B200280ED0DDE90001FCF779F910F131
S11356D03002D2B23900C9B216F12000C0B2FFF7CD
S11356E097FD07E018A23900C9B216F12000C0B234
S11356F0FFF712FE50465946FCF762F9C0B2002883
S11357000ED050465946FCF75BF910F13002D2B284
S11357103900C9B216F12800C0B2FFF779FD0FE0D5
S113572009A23900C9B216F12800C0B2FFF7F4FD8E
S113573006E0824A3900C9B23000C0B2FFF7ECFD7E
S113574009B0BDE8F08F0000200000002DE9F84FFB
S113575004000D00160036B2002E0AD56AA22900F4
S1135760C9B22000C0B2FFF7D7FD36B270428346FB
S113577007E067A22900C9B22000C0B2FFF7CCFD40
S1135780B3461FFA8BFB42F210709BFBF0F080B221
S11357900A2190FBF1F201FB120081461FFA8BFBF8
S11357A04FF47A709BFBF0F080B20A2190FBF1F287
S11357B001FB120082461FFA8BFB64209BFBF0F076
S11357C080B20A2190FBF1F201FB120007001FFADC
S11357D08BFB0A209BFBF0F080B20A2190FBF1F2D4
S11357E001FB120080461FFA8BFB0A209BFBF0F1A1
S11357F000FB11B08DF800005FFA89F9B9F1000FD0
S11358000AD019F13002D2B22900C9B214F1080049
S1135810C0B2FFF7FDFC07E03EA22900C9B214F1B3
S11358200800C0B2FFF778FD5FFA8AFABAF1000FF8
S113583004D15FFA89F9B9F1000F0AD01AF13002E4
S1135840D2B22900C9B214F11000C0B2FFF7E0FCD3
S113585007E030A22900C9B214F11000C0B2FFF76A
S11358601DFD5FFA8AFABAF1000F07D15FFA89F9D0
S1135870B9F1000F02D1FFB2002F0AD017F13002A4
S1135880D2B22900C9B214F11800C0B2FFF7C0FCAB
S113589007E020A22900C9B214F11800C0B2FFF732
S11358A03BFD5FFA8AFABAF1000F0CD15FFA89F96D
S11358B0B9F1000F07D1FFB2002F04D15FFA88F8C5
S11358C0B8F1000F0AD018F13002D2B22900C9B2DF
S11358D014F12000C0B2FFF79BFC07E00DA22900E1
S11358E0C9B214F12000C0B2FFF716FD9DF8000004
S11358F010F13002D2B22900C9B214F12800C0B2AA
S1135900FFF786FCBDE8F18F2D00000000F10F4089
S11359102B0000002000000084720000285D0000BD
S1135920408A0000247D0000006AF840FF69F8C046
S1135930000024400000594000408F40888B000044
S11359406C480078800606D56A48007850F020003C
S11359506849087014E067480078C00606D56548B1
S1135960007850F010006349087009E0614800783D
S1135970400605D55F48007850F040005D49087046
S11359805D48006830F010005B4908605B480068BF
S113599030F0100059490860704701000020554A52
S11359A012781206FBD50922554B1A700A0C554B76
S11359B01A700A0A544B1A70544A11704D4A1278DC
S11359C052F080024B4B1A704A4A12781206FBD5E9
S11359D0484A1278920608D5464A127852F02002B4
S11359E0444B1A7050F001001FE0424A1278D2066C
S11359F008D5404A127852F010023E4B1A7050F00B
S1135A00020012E03B4A1278520608D5394A12784D
S1135A1052F04002374B1A7050F0080005E0354A46
S1135A201278D20701D550F00400C0B270473CB4DC
S1135A30030000209BB2DC0214FA81F40194ADF857
S1135A40002006242E4D2C709DF806402D4D2C7000
S1135A509DF805402C4D2C709DF804402B4D2C7066
S1135A609DF803402A4D2C709DF80240294D2C705E
S1135A709DF80140284D2C709DF80040274D2C7056
S1135A801C4C247854F080041A4D2C70194C247842
S1135A902406FBD5174C2478A40608D5154C247885
S1135AA054F02004134D2C7050F001001FE0114CF1
S1135AB02478E40608D50F4C247854F010040D4DD6
S1135AC02C7050F0020012E00A4C2478640608D5C9
S1135AD0084C247854F04004064D2C7050F0080013
S1135AE005E0044C2478E40701D550F00400C0B26A
S1135AF036BC70470000024004F0014008F0014049
S1135B000700024006000240050002400400024073
S1135B100B0002400A000240090002400800024053
S1135B2010F007026D4B1B6819004FF6FF03194074
S1135B306B4B53EA02231943684B196070470121E8
S1135B4010F01F029140674A40B2430942F8231003
S1135B507047012110F01F029140634A40B243098B
S1135B6042F82310704710B440B2002808D50A0147
S1135B705E4B40B210F00F04E31803F8042C03E06A
S1135B800A015B4B40B2C25410BC704770B40300AE
S1135B9013F00704D4F10706052E01D3042001E015
S1135BA0D4F10700261D072E01D2002500E0E51ED2
S1135BB0012616FA00F0401E0840A8400121A94021
S1135BC0491E1140084370BC70470FB42DE9F047DB
S1135BD001249DF92050099E0A9FDDF82C809DF830
S1135BE03090072E0BD0062E09D0052E07D0042E98
S1135BF005D0032E03D03A213E48FCF777FB102F43
S1135C0003D33B213B48FCF771FBB8F1100F03D3DE
S1135C103C213848FCF76AFB032E33D03DD3052ED4
S1135C201AD024D3072E01D00BD336E00720FFF778
S1135C3077FF002F02D1B8F1100F01D30020040028
S1135C402DE00620FFF76CFF022F02D2B8F1080FF7
S1135C5001D30020040022E00520FFF761FF042F98
S1135C6002D2B8F1040F01D30020040017E004208D
S1135C70FFF756FF082F02D2B8F1020F01D300201C
S1135C8004000CE00320FFF74BFF102F02D2B8F101
S1135C90000F01D00020040001E000201AE0424679
S1135CA039003000FFF772FF82465146280040B2A7
S1135CB0FFF759FF5FFA89F9B9F1010F04D1280000
S1135CC040B2FFF73CFF03E0280040B2FFF741FF7A
S1135CD02000C0B2BDE8F0075DF814FB0CED00E055
S1135CE00000FA0500E100E080E100E018ED00E0CA
S1135CF000E400E0988800004FF4001C1CEB410F06
S1135D0094BF1CEB430F09E041EA030C50EA4C0C2E
S1135D1052EA0C0C03D28B4208BF8242704714BF74
S1135D20994290427047000000000000000000000B
S1135D300000000000000000000000F80000000067
S1135D40000000333000000000100C06100C0600A8
S1135D50000000000000000040C07840C07840000F
S1135D60043F04043F040400007088FC0830000071
S1135D70001820FF211E0000F008F000E0180000C9
S1135D8000211C031E211E0000F008887000000082
S1135D901E2123241927211010160E0000000000D4
S1135DA00000000000000000000000E018040200F1
S1135DB0000000071820400000020418E000000062
S1135DC00040201807000000404080F08040400060
S1135DD00202010F01020200000000F000000000B6
S1135DE00101011F0101010000000000000000008A
S1135DF080B07000000000000000000000000000FF
S1135E000001010101010101000000000000000087
S1135E100030300000000000000000008060180422
S1135E20006018060100000000E010080810E000FF
S1135E30000F102020100F00001010F800000000C8
S1135E400020203F2020000000700808088870000F
S1135E50003028242221300000300888884830008F
S1135E600018202020110E000000C02010F80000AF
S1135E7000070424243F240000F808888808080048
S1135E800019212020110E0000E01088881800005D
S1135E90000F112020110E0000380808C83808002F
S1135EA00000003F000000000070880808887000AF
S1135EB0001C222121221C0000E010080810E00030
S1135EC00000312222110F00000000C0C0000000B9
S1135ED000000030300000000000008000000000DE
S1135EE000008060000000000000804020100800D6
S1135EF0000102040810200040404040404040009F
