:10000000C0F7FF1FE94A0000014B0000014B000050
:10001000014B0000014B0000014B0000014B0000B0
:10002000014B0000014B0000014B0000014B0000A0
:10003000014B0000014B0000014B0000014B000090
:10004000014B0000014B0000014B0000014B000080
:10005000014B0000014B0000014B0000014B000070
:10006000014B0000014B0000014B0000014B000060
:10007000014B0000014B0000CD310000014B00009E
:10008000014B0000014B0000014B0000014B000040
:10009000014B0000014B0000114A0000014B000021
:1000A000014B0000014B0000014B0000014B000020
:1000B000014B0000014B0000014B0000014B000010
:1004100080B5012000F087FE06490860012000F049
:100420007AFE022000F07FFE02498866022000F07A
:1004300072FE01BDF8F0FF1F80B500F0F7FE00F07E
:1004400001F801BDF8B58B4800688B4908608A48FF
:1004500000688949C968401A874908608648006869
:10046000322100F059FF844908608248406882497F
:1004700048608148406880490969401A7E4948605F
:100480007D484068322100F047FF7B494860794849
:100490008068794988607848806877494969401A56
:1004A0007549886074488068322100F035FF7249D0
:1004B00088607148406870498968401A6E49C8630D
:1004C0006D4840686C490968401A6B4908646A487D
:1004D000006869498968401A674948646648C06B82
:1004E00001281ADB6448C06B00F070FF0022B84B93
:1004F00000F084FF04000D005F484821405E00F0DA
:1005000065FF02000B002000290001F039F801F01E
:10051000ADF800B25849C86319E05748C06B00F005
:1005200055FF0022AB4B00F069FF04000D0052485C
:100530004E21405E00F04AFF02000B00200029001F
:1005400001F01EF801F092F800B24B49C8634A4826
:10055000006C01281ADB4848006C00F037FF0022CD
:100560009B4B00F04BFF04000D0043484A21405EC6
:1005700000F02CFF02000B002000290001F000F821
:1005800001F074F800B23C49086419E03A48006C84
:1005900000F01CFF0022904B00F030FF04000D0023
:1005A00035485021405E00F011FF02000B00200092
:1005B000290000F0E5FF01F059F800B22E49086467
:1005C0002D48406C01281ADB2B48406C00F0FEFEE1
:1005D0000022824B00F012FF04000D0026484C213F
:1005E000405E00F0F3FE02000B002000290000F046
:1005F000C7FF01F03BF800B21F49486419E01E48EC
:10060000406C00F0E3FE0022CA4B00F0F7FE04004D
:100610000D0019485221405E00F0D8FE02000B0088
:100620002000290000F0ACFF01F020F800B21249D0
:1006300048641148C06B052820DA0F48C06B0321BD
:10064000C94388421ADB0C48006C052816DA0A48B0
:10065000006C0321C943884210DBB74800780228A8
:1006600003D0B5480078032808D10020CD49087090
:100670006CE100BF70F3FF1F80F2FF1FCA48006CDF
:1006800007282DDAC848406C0421C943884227DA7C
:10069000A9480078002803D0A748007802281FD175
:1006A0000220A54908700A20BE490870BE48C06BE8
:1006B00000F08CFED3A20CCA00F0A0FED3A20CCA9C
:1006C00000F0FDFF00F0D2FF00B2B7490866B6485F
:1006D000006E6E2800DB39E16E20B349086635E113
:1006E000B148006C07287BDBAF48406C002877D509
:1006F00091480078002807D08F480078012803D05F
:100700008D48007802286BD100208B490870142096
:10071000A4490870A448C06B00F058FEA3A20CCAFC
:1007200000F06CFE04000D009F48C06B00F04EFE10
:1007300022002B0000F062FE04000D009A48C06BFE
:1007400000F044FE22002B0000F058FE06000F00CF
:100750009548C06B00F03AFE96A20CCA00F04EFE1F
:1007600004000D009048C06B00F030FE22002B000A
:1007700000F044FE32003B0000F0A1FF04000D0039
:100780008948C06B00F022FE8CA20CCA00F036FE35
:1007900002000B002000290000F0F4FF89A20CCA1F
:1007A00000F08DFF00F062FF00B27F4908667E48CE
:1007B000006E6F2803DB6E207B490866C6E07A482E
:1007C000006E002800D4C1E0002077490866BDE033
:1007D0000040754000A074C0009075C00090754046
:1007E0007148C06B042873DB6F48406C00286FD4DD
:1007F00051480078002807D04F480078012803D0DE
:100800004D480078032863D101204B4908701E2011
:10081000644908706448006C00F0D8FD6BA20CCAF3
:1008200000F0ECFD04000D005F48006C00F0CEFD10
:1008300022002B0000F0E2FD04000D005A48006C7D
:1008400000F0C4FD22002B0000F0D8FD06000F00D0
:100850005548006C00F0BAFD5EA20CCA00F0CEFD57
:1008600004000D005048006C00F0B0FD22002B0089
:1008700000F0C4FD32003B0000F021FF04000D0039
:100880004948006C00F0A2FD54A20CCA00F0B6FD6D
:1008900022002B0000F013FF52A20CCA00F00FFF41
:1008A00000F0E4FE00B2404908663F48006E0128AF
:1008B00003DB00203C49086648E03B48006E6D21A0
:1008C000C943884242DA6D20C043374908663DE09B
:1008D0003548C06B042831DA3348406C02282DDBE0
:1008E00015480078012803D013480078032825D143
:1008F00003201149087028202A4908702A48006CF2
:1009000000F064FD39A20CCA00F078FD39A20CCACF
:1009100000F0D5FE00F0AAFE00B223490866224886
:10092000006E6C21C943884210DB6D20C0431E4914
:1009300008660BE000F074C0D9F2FF1F322019499D
:10094000087019486421405E174908662B480078F2
:1009500001281DD13C2013490870CF480078284950
:10096000087011486421405E0F49096E401A15282D
:1009700009DA0D486421405E0B49096E401A1321C3
:10098000C943884204DA08486421405E0649086683
:100990000548006EC149088019480078BE490870B2
:1009A000F1BD00BFDAF2FF1F80F2FF1F8DEDB5A091
:1009B000F7C6A0BEF168E388B5F8E43E03098A1FD4
:1009C00063EEBA3F23DBF97E6ADC4A4048AFBC9A4B
:1009D000F2D79A3E691D554D10750F3FD122DBF9B4
:1009E0007E6ABC3F6666666666764EC060764F1E5F
:1009F000166AD1BF14AE47E17A146AC0BBF3FF1F79
:100A0000D9F2FF1F43AD69DE718AD23FAE47E17A6A
:100A100014166A4010B500240020A1490880002067
:100A2000A04908800020D049088000209E49088005
:100A30000020CE4908800020CD4908800020040015
:100A4000A4B2962C00DBBBE0CA4801680A204143EF
:100A5000012000F049FF00F0E9FBC7480068C749E2
:100A60000860C6480068C549C968401AC34908609B
:100A7000C2480068322100F04FFCC0490860BE48FF
:100A80004068BE494860BD484068BC490969401A91
:100A9000BA494860B9484068322100F03DFCB74986
:100AA0004860B5488068B5498860B4488068B349F3
:100AB0004969401AB1498860B0488068322100F025
:100AC0002BFCAE498860AD484068AC498968401A43
:100AD000AA490863A9484068A8490968401AA74973
:100AE0004863A6480068A5498968401AA3498863F5
:100AF000A2484821405EA149096B88420ADA9F4812
:100B0000006B96218900884204DA9C48006B644996
:100B100008800FE09948006B98494E22895E884210
:100B200008DA9648006B9649884203DB9348006BCD
:100B30005D49088091484A21405E9049496B88424E
:100B40000ADA8E48406B96218900884204DA8B4885
:100B5000406B544908800FE08848406B8749502219
:100B6000895E884208DA8548406B8549884203DB04
:100B70008248406B7D49088080484C21405E7F4917
:100B8000896B88420ADA7D48806B96218900884209
:100B900004DA7A48806B744908800FE07748806BEC
:100BA00076495222895E884208DA7448806B74491B
:100BB000884203DB7148806B6D490880641C3FE705
:100BC00070480068012101436E4801606E4800686A
:100BD000082188436C490860664801683220414317
:100BE000012000F081FE67480068012188436549C3
:100BF00008606548006808210143634801605D485A
:100C0000016864204143012000F06EFE5D480068E9
:100C1000012101435B4801605B480068082188436B
:100C2000594908605348016832204143012000F0CF
:100C30005BFE5448006801218843524908605248CD
:100C4000006808210143504801604A480168642057
:100C50004143012000F048FE4A4800680121014359
:100C600048480160484800680821884346490860B0
:100C70004048016832204143012000F035FE4148E0
:100C80000068012188433F4908603F480068082107
:100C900001433D48016010BDDBF2FF1FE4F2FF1F7E
:100CA000C8F2FF1FCAF2FF1FCEF2FF1F10B500F0FF
:100CB000BDFA304801680A204143012000F014FECB
:100CC0002D4800682D4948622B4840682B498862AE
:100CD000294880682949C86200200400E4B2642CD5
:100CE00034DA00F0A3FA234801680A2041430120C6
:100CF00000F0FAFD2148406A1F49096840181F4961
:100D000048621E48806A1C49496840181B4988622D
:100D10001A48C06A1849896840181849C8621748B3
:100D2000406A022100F0F8FA144948621348806AC8
:100D3000022100F0F1FA114988621048C06A0221CC
:100D400000F0EAFA0D49C862641CC7E70B48406A24
:100D50000A49C8600948806A084908610748C06AAA
:100D60000649486110BD0000CCF2FF1FD0F2FF1F02
:100D7000D2F2FF1FB4F3FF1F70F3FF1F80F2FF1FBB
:100D8000A9FDFFFF00F10F40C0F00F4038B504008F
:100D90000D00E4B2002C03D0022C55D039D36EE004
:100DA000AB480068802149040143A9480160EDB2C5
:100DB000002D08D0022D12D00BD3042D1BD014D33C
:100DC000052D1ED023E08021C900412000F0EEFD5A
:100DD0001EE08021C900422000F0E8FD18E08021DB
:100DE000C900432000F0E2FD12E08021C900442048
:100DF00000F0DCFD0CE0C0218900482000F0D6FDA9
:100E000006E0C0218900492000F0D0FD00E036E076
:100E100035E08F4800688021890401438C480160D7
:100E2000EDB2002D02D0012D06D00BE0C0218900CB
:100E30000C2000F0BBFD06E0C02189000D2000F071
:100E4000B5FD00E01BE01AE0814800688021C9047C
:100E500001437F480160EDB2002D02D0012D06D084
:100E60000BE0C0218900322000F0A0FD06E0C02187
:100E70008900332000F09AFD00E000E0FFE731BD7B
:100E8000FCB583B006000F003900C9B23000C0B213
:100E9000FFF77CFF6F4800686F49484340080190A6
:100EA0000198000C039900F03AFA040000200500B4
:100EB000A4B220002841012801DB6D1CF8E701984D
:100EC000E840039900F02BFA0400F6B2002E03D09C
:100ED000022E18D00CD321E00498A4B22100491CA2
:100EE0004843FA21890000F01AFA6946088015E0A3
:100EF0000498A4B22100491C4843642100F00FFA71
:100F0000694608800AE00498A4B22100491C4843BD
:100F1000642100F004FA69460880FFE78648F6B2CB
:100F2000042171434058FFB2082179434018824997
:100F3000F6B2042272438958FFB208227A43891814
:100F4000C96804229143C1607B48F6B20421714311
:100F50004058FFB20821794340182821C1607748E2
:100F60000068774901407548016074480068C021F5
:100F70008904014371480160EDB26907490F0820F7
:100F800008436D49F6B20422724389580860A4B23E
:100F90006948F6B204217143405884606648F6B24D
:100FA000042171434058FFB2082179434018694633
:100FB0000988016100206049F6B204227243895811
:100FC000486005B0F0BDF8B504000D00160000271C
:100FD000E4B2002C03D0022C03D001D302E001E0E4
:100FE00000E0FFE75448E4B20421614340588068C0
:100FF0000700002FF6D0E4B2002C03D0022C12D050
:1010000009D318E03800401C7043FA21890000F031
:1010100086F900900FE03800401C7043642100F016
:101020007EF9009007E03800401C7043642100F016
:1010300076F90090FFE74048E4B20421614340584C
:10104000EDB208216943401800990161F1BD00002B
:101050003C800440B0F3FF1F40420F0070B5040015
:101060000D001600E4B2002C03D0022C11D008D3DE
:1010700016E034480068802149040143314801608A
:101080000EE0304800688021890401432D4801604A
:1010900006E02C4800688021C9040143294801600A
:1010A000EDB2002D0DD12848006880214904A140EF
:1010B0008843254908608021C9004C2000F076FC57
:1010C0000FE0EDB2012D0CD11F48006880214904CA
:1010D000A14001431C4801608021C9004D2000F05F
:1010E00065FCF6B27007400F102101431248E4B2CC
:1010F000042262438058016014480F49E4B204227C
:1011000062438958886000200B49E4B2042262439C
:101110008958486070BD0021074AC0B20423434388
:10112000D258516070470449C0B204225043085855
:10113000406880B270470000ECF0FF1F048004405C
:10114000FFFFFFFC3C8004400C800440FFFF0000D8
:1011500080B55F49082000F0A5FD5D49092000F039
:10116000A1FD5B490A2000F09DFD10210B2000F03D
:1011700099FDC02149000C2000F094FDC0214900D8
:101180000D2000F08FFDC02149000E2000F08AFDE7
:1011900000210F2000F086FD80210901102000F0C1
:1011A00081FD80210901112000F07CFD80210901D1
:1011B000122000F077FD1021132000F073FD454947
:1011C000142000F06FFD4349152000F06BFD4149EC
:1011D000162000F067FD3F49172000F063FD3E49EF
:1011E000192000F05FFD3D491A2000F05BFD3C49ED
:1011F0001B2000F057FDE72189011E2000F052FD61
:10120000E72189011F2000F04DFDC6218901202022
:1012100000F048FD80210901212000F043FD01BDBF
:1012200080B52E491A2000F03DFD01BD10B5002407
:10123000002000F050FD0400A4B22005000D0004C1
:1012400028490860A4B220000012F021014026487D
:101250000170012000F03FFD2249096880B201437E
:1012600020480160022000F036FD0400A4B22005F1
:10127000000D00041B494860A4B220000012F021B8
:10128000014019484170032000F025FD15494968C7
:1012900080B2014313484160042000F01CFD0400AB
:1012A000A4B22005000D00040E498860A4B22000FD
:1012B0000012F02101400C488170052000F00BFD68
:1012C0000849896880B201430648816010BD00006A
:1012D000B03600000110000001F80000011E0000FF
:1012E00009A2000070F3FF1F80F3FF1FF4460028DF
:1012F00004D4494200F013F84042604740420029BC
:1013000005D45FD000F00BF84042494260474942A3
:1013100000F005F84942604703460B43E6D400223B
:10132000030A8B420BD203098B4219D243088B422A
:101330002ED2411A00D20146524110467047FF2278
:1013400009023FD012068B4205D3121209028B42CA
:1013500001D31212090203098B4219D300E0090AD2
:10136000C3098B4201D3CB01C01A524183098B427E
:1013700001D38B01C01A524143098B4201D34B0167
:10138000C01A524103098B4201D30B01C01A5241CA
:10139000C3088B4201D3CB00C01A524183088B4251
:1013A00001D38B00C01A524143088B4201D34B003A
:1013B000C01A5241884200D3401A5241CFD201464E
:1013C0001046704708B5C046C04608BD010007D5A5
:1013D000F446404200F004F80122D207114360476E
:1013E00042221201D21E004207D002D4521E00181F
:1013F000FCD5C10A4005120589187047F0B50E00EA
:101400005E400125ED072E40B446AE0ADF184C18A9
:10141000F44208D2F7420ED2640D01D07F0D12D1F2
:1014200000206146F0BD05D1F74201D87F0D05D1FE
:101430000020C143F0BDFBD1640DF9D00020C143B1
:10144000490549088FE0E419C902DB0229432B430F
:10145000DB0A460DC00231438E4630B487B295B2E6
:101460007D432E0CADB2140C7C43A419260C24042D
:1014700025439CB27C43A419190C7943270CC91944
:10148000A4B20F043C43090C000C97B247432E0C46
:10149000BE193543ADB2170C4743360CBF19A6B27F
:1014A000BF193E043543240C3E0C36199FB2474306
:1014B000BF19BCB23E0C89191F0C47437F183E046C
:1014C0003443390C704680B297B247432E0CBE1994
:1014D0003543ADB2170C4743360CBF19A6B2BF193E
:1014E0003E043543240C3E0C36199FB24743BF19C6
:1014F000BCB23E0C89191F0C47437F183E0434438D
:10150000390C77463F0C90B278432E0C80190604B4
:10151000ADB22E43050CA0B22D18120C7A4350190F
:10152000020C80B2240CA4189AB27A431219140443
:101530002043120C89181B0C7B43C91830BCEF0ADE
:10154000394203D1B61940414941641E6F12BF0DA3
:10155000E41B0BDBFF19BC4211DA2405002742080B
:10156000AE417841614166463143F0BD641C05D10E
:10157000401C6141CF0201D34908F4E750E75DE721
:10158000F0B40E005E400125ED072E40B446AE0AD1
:10159000DF184C18F4423BD2F74241D2640D43D0DD
:1015A0007F0D38D0E41BC902DB0229432B43CF0A4D
:1015B000DB0A0600B61A9F4104D2641EB6197F41A9
:1015C000B6185F416812800D24180018844222DA90
:1015D000E80C0021B6197F41B61A9F4102D2B61815
:1015E0005F413F1C40414941F4D3241C21DD2405C7
:1015F000B6197F41B61A9F4105D33743C607374313
:101600000026012F7041614166463143F0BC7047AE
:10161000FCD1F74205D20020C14349054908F3E750
:1016200004D00020C143F1E77F0DFAD000206146CD
:10163000ECE72442FAD1401C61410F03F6D30020AD
:10164000E2E730B4012100220368001D002B0BD01B
:101650000468001D0C4202D04D466D1E64192260C4
:10166000241D1B1FF0D0FAE730BC7047F4464A181F
:1016700005D200F00FF801D580174008604700F050
:1016800009F80121C907884200D908004042604793
:101690004A1812D2400DC90208430121C907084364
:1016A000520D40210901521A521C06D452421F32D7
:1016B00001D4D0407047C017704700207047F0B485
:1016C0000125ED070F005F404FD48B4200D18242CD
:1016D00005D98446100062468C4619006346DF181F
:1016E0004C18640D7F0D3AD0661C760537D0E61B8A
:1016F000352E34DCDB022B43DB0A0C0DC9022943F7
:10170000C912202E0DDB1700203E06D01F00F74126
:10171000F3405F400026012A7741C01871410DD285
:1017200017E01700F741F2405740F3415A40B340E9
:10173000F3405A400026801859410AD3A21C520592
:101740000FD0C207012F724117004008CB07184382
:101750004908641C24054208AF4170416141F0BC56
:101760007047641C21050020F9E76B4010E06B40D6
:10177000ABE7F742F3D1E943F1E72442EFD1002090
:101780000021ECE7F0B40125ED070F005F40EED437
:101790000C00871A9C4105D2C01BA141D21963419C
:1017A00069406B40AE0ADF184C18F442E1D2640D78
:1017B0007F0DE2D0E61B362ED1DCDB022B43DB0AA9
:1017C000A4460C0DC9022943C90A012E28DC04D104
:1017D000D6075208DF073A435B08EF0A764290418A
:1017E000994114D039423BD1B61940414941761C48
:1017F000394204D1761C001849413942FAD0B94324
:101800006746B74208D9A41B24052143A7E7004235
:10181000EAD13642E8D1A2E7E40AE10700209EE7D8
:10182000202E0BDD203E1F00F340F7415F40012AD0
:10183000002257417E42984191410BE01700F74149
:10184000F2405740F3415A40B340F3405A407E4281
:10185000904199410A0303D2641EB619404149419F
:101860000027641E24054208AE4178416141F0BC66
:101870007047000038B505000C0049480068802119
:101880000904014346480160002046490860601E83
:101890004549EDB210226A4388504348EDB2102109
:1018A00069434018C068012101433F48EDB210224E
:1018B0006A438018C1603C48EDB21021694340186A
:1018C0008068012188433849EDB210226A438918A3
:1018D000886003203449EDB210226A438918886079
:1018E000162000F01EFA31BD10B52D4A1268802373
:1018F0001B0413432A4A13602A4A126802239A439C
:10190000284B1A60284AC0B210234343D218926869
:1019100001239A43244BC0B2102444431B199A60FC
:101920004A1E214BC0B2102444431A511E4AC0B271
:1019300010234343D218D268012313431A4AC0B27A
:10194000102444431219D360174AC0B210234343F2
:10195000D218926801239A43134BC0B21024444317
:101960001B199A600122104BC0B2102444431B196A
:101970009A600D4AC0B210234343D218D268D207EE
:10198000F7D5094AC0B210234343D218D2680123C5
:101990001343054AC0B2102444431219D36010BD4A
:1019A0003C800440007003400071034010B40D4AB5
:1019B000126880239B000400E4B26409A34013432F
:1019C000084A1360084AC0B203005B110424634351
:1019D000D258C0B2C306DB0E04246343D15010BCFE
:1019E0007047000038800440C4F0FF1F80B5A8484D
:1019F0000068802189040143A5480160A54800686A
:101A0000802189040143A34801600220C046C046EA
:101A1000A04800688021490401439E4801600220DB
:101A2000C046C0469B4800689B49014099480160F8
:101A30000220C046C0469748006898490140954832
:101A400001600220C046C04601BD80B590480068D4
:101A50008021890401438E4801608E4800688E49C8
:101A600001408C4801600220C046C0468948006899
:101A7000802149040143874801600220C046C046D6
:101A80008448006880218904014382480160022063
:101A9000C046C04601BD10B57E480068802149049B
:101AA00001437C4801600220C046C046002004007B
:101AB00077480068784901407548016078480068B7
:101AC00001008901C90F002901D001200400022072
:101AD000C046C0466F480068704901406D480160CB
:101AE0006B48006880218904014369480160200037
:101AF000C0B210BD80B566480068802189040143EA
:101B0000634801606348006880218904014361489B
:101B100001600220C046C0465E480068802149043A
:101B200001435C4801600220C046C0465948006835
:101B30005A490140574801600220C046C04601BDD5
:101B400080B55348006880218904014350480160F2
:101B500050480068504901404E4801600220C0468C
:101B6000C0464C480068802149040143494801604F
:101B70000220C046C04647480068484901404548E1
:101B8000016001BD38B5040000200500EDB2082D4C
:101B900028DA3F4800688021890401433C480160FD
:101BA0003C4800683C4901402000C0B2C009C0B2B6
:101BB00040060843374908603648006880214904D8
:101BC0000143344801600220C046C04631480068E5
:101BD000324901402F4801600220C046C0466400DF
:101BE0006D1CD3E7FFF757FF31BD38B5082500243A
:101BF0002800451EC0B2002846D025480068802134
:101C00008904014322480160224800688021890438
:101C10000143204801600220C046C0461D480068BC
:101C20001E4901401B4801600220C046C0461948B9
:101C30000068802149040143164801600220C04623
:101C4000C04613480068144901401148016064000F
:101C50001348006801008901C90F002903D0200042
:101C60000124044302E02000FE24044009480068E7
:101C70000A4901400748016005480068802189043D
:101C8000014303480160B3E72000C0B232BD000049
:101C900014F10F4000F10F40FFFFFFFDFFFFFFFEBB
:101CA00010F10F4038B505000C00FFF79FFE5420DF
:101CB000FFF768FF2800C0B2FFF764FF200080B282
:101CC000000AC0B2FFF75EFF2000C0B2FFF75AFF64
:101CD000FFF7BBFE31BD38B504000025FFF786FED7
:101CE0005420FFF74FFF2000C0B2FFF74BFFFFF774
:101CF0007DFE5520FFF746FFFFF777FF05002D0219
:101D0000FFF71EFFFFF771FF28430500FFF7F2FE04
:101D1000FFF79BFE280080B232BD00002449086016
:101D2000704770B50400212C03DB224800F0D1FA83
:101D300015E021480568012620002021FFF7ECFA74
:101D40008E402E431C4806601C4805680126200072
:101D50002021FFF7E1FA8E402E431848066070BD3F
:101D6000F8B507000E0000240025212F04DB1448DD
:101D700000F0AFFA01200400042E04DB114800F04B
:101D8000A8FA01200400E4B2012C0ED0380004218E
:101D9000FFF7C2FA05000C48EDB204216943401870
:101DA00000903000800100990870F1BD0000000033
:101DB00008ED00E03449000080E200E000E100E0CE
:101DC000F8480000B848000000E400E070B50400E6
:101DD0000D0016003068012802D0022805D00BE063
:101DE0002000C0B27168884706E02000B168087022
:101DF000B068401CB060FFE72868401C286070BDD8
:101E0000FFB584B00020060004980500002028706B
:101E10006D1C0698002825D005980068019001984F
:101E2000002803D130202870761C3FE0019800285C
:101E30003CD001980799FFF76FFA03900198039936
:101E4000079A5143401A0700002F03D5F8430700B3
:101E5000313700E0303703980190380028706D1C4E
:101E6000761CE3E70598006800900098002803D1ED
:101E700030202870761C19E00098002816D00098B1
:101E80000799FFF74CFA029000980299079A51437C
:101E9000401A04000A2C01D2303400E03734029892
:101EA0000090200028706D1C761CE5E7300008B01B
:101EB000F0BDF8B507000E0015003C00B44206DA8C
:101EC000009A29003020FFF781FF641CF6E7F1BD7E
:101ED000F8B507000E0015003C00B44206DA009A7F
:101EE00029002020FFF772FF641CF6E7F1BDF3B56F
:101EF00095B01400002000901698050028780290F4
:101F00000298002800D1E1E10298252813D0029818
:101F10000A2805D0159A69460298FFF757FF09E08D
:101F2000159A69460D20FFF751FF159A69460A2058
:101F3000FFF74CFFC8E1002007000020059005983E
:101F4000002824D16D1C2878202810D0232816D0F2
:101F50002B2808D02D2802D030280CD013E03800D0
:101F600001270743EBE7380002270743E7E738007C
:101F700004270743E3E7380008270743DFE7380073
:101F800010270743DBE76D1E01200590D7E70020EF
:101F90000190002005900598002812D16D1C28782A
:101FA000029002983038092807D801980A2148433E
:101FB0000299401830380190EDE76D1E0120059020
:101FC000E9E76D1C28782E280ED100200590059891
:101FD00000280AD16D1C28783038092800D8F6E787
:101FE0006D1E01200590F2E76D1E6D1C28784C28AF
:101FF00006D0682802D06C2801D002E002E001E09F
:1020000000E06D1E6D1C287802900298582872D04E
:10201000622800D1CCE0632800D116E1642813D0F7
:10202000692811D06E2800D142E16F2800D1B4E0B8
:10203000702800D1C7E0732800D110E1752800D1C5
:10204000CCE0782857D03AE12068241D09900A2373
:10205000012209A90CA8FFF7D3FE06000CA88019DD
:1020600008900998002803D52D200490761C0DE0D7
:10207000B80703D52B200490761C07E0780703D51A
:1020800020200490761C01E000200490002006909F
:10209000380712D50498002804D0159A6946049888
:1020A000FFF794FE01200690159B6A4601993000C7
:1020B000FFF7FFFE0198060011E0F8070FD4159B0B
:1020C0006A4601993000FFF703FF0498002804D006
:1020D000159A69460498FFF779FE01200690069844
:1020E000002807D10498002804D0159A694604985E
:1020F000FFF76CFE92E02068241D0390102300225D
:1021000003A90CA8FFF77CFE06000CA88019089014
:1021100000200690380716D5F8060BD5159A6946A3
:102120003020FFF753FE159A69467820FFF74EFEE0
:1021300001200690159B6A4601993000FFF7B9FE11
:102140000198060018E0F80716D4F80600D5B61C6A
:10215000159B6A4601993000FFF7BAFEF8060BD5C9
:10216000159A69463020FFF731FE159A69467820A6
:10217000FFF72CFE01200690F8060DD506980028E2
:102180000AD1159A69463020FFF720FE159A694654
:102190007820FFF71BFEB61C40E02068241D03904A
:1021A0000823002203A90CA8FFF72AFE06001FE05F
:1021B0002068241D03900223002203A90CA8FFF726
:1021C0001FFE060014E02068241D03901023002247
:1021D00003A90CA8FFF714FE060009E02068241DDF
:1021E00003900A23002203A90CA8FFF709FE0600AA
:1021F0000CA880190890380708D5159B6A460199E4
:102200003000FFF756FE0198060007E0F80705D4F6
:10221000159B6A4601993000FFF75AFE089800782E
:10222000002809D0159A694608980078FFF7CEFD76
:102230000898401E0890F1E7F80705D5159B6A46F7
:1022400001993000FFF744FE3EE02068241DC0B233
:102250000A90159A69460A98FFF7B8FD34E020689D
:10226000241D07900798002821D0079800F048F80F
:102270000600F80705D4159B6A4601993000FFF760
:1022800027FE07980078002809D0159A6946079814
:102290000078FFF79BFD0798401C0790F1E7F807CF
:1022A00005D5159B6A4601993000FFF711FE0BE03A
:1022B0002068241D0B9000980B99086004E0159A83
:1022C00069460298FFF782FD6D1C17E6009817B06B
:1022D000F0BD0EB47EB505000120009007480190C6
:1022E00007A80600320029006846FFF700FE040038
:1022F000200003B0039970BC04B00847494B0000AC
:1023000000B501000A000023002A01D1002008E0E6
:1023100010000200521C0078002801D05B1CF7E777
:10232000180000BDF6B50500009C002821D0009FD4
:10233000002F1ED0019F002F1BD0019FBF07BF0F92
:102340003E00019FBF1BBF083B001F007B1E002FEC
:1023500004D027682F60241D2D1DF6E729002200D8
:1023600037007E1E002F04D017780F70521C491CB6
:10237000F6E7F6BD80B501220121812000F084FB43
:1023800001220121822000F07FFB01220121832014
:1023900000F07AFB01220121842000F075FB01226C
:1023A0000121852000F070FB01BD00B50821964A8F
:1023B000126808231343944A1360934A1268042353
:1023C0009A43914B1A600A00511ED2B2002A1CD0C7
:1023D000020606D58C4A1268022313438A4A136008
:1023E00005E0894A126802239A43874B1A60864A9D
:1023F000126804231343844A1360834A1268042337
:102400009A43814B1A604000DDE700BD00B508210A
:102410007D4A126808239A437B4B1A607A4A1268F5
:1024200004239A43784B1A600A00511ED2B2002A44
:102430001CD0020606D5744A126802231343724A5E
:10244000136005E0704A126802239A436E4B1A60CB
:102450006D4A1268042313436B4A13606A4A126878
:1024600004239A43684B1A604000DDE700BD38B58D
:1024700005000C0020005038C0B2FFF7C7FF29004C
:10248000C9B2090910200843C0B2FFF7BFFF2907EE
:10249000090F01200843C0B2FFF7B8FF31BD70B586
:1024A000040000200500EDB2082D17DA280050388E
:1024B000C0B2FFF7ABFF0120FFF7A8FF1020FFF726
:1024C000A5FF00200600F6B2802E05DA2000C0B27B
:1024D000FFF76BFF761CF6E76D1CE4E770BD38B5BF
:1024E00000200400E4B2082C16DA20005038C0B2F4
:1024F000FFF78CFF0120FFF789FF1020FFF786FF11
:1025000000200500EDB2802D04DA0020FFF74DFF1A
:102510006D1CF7E7641CE5E731BD80B5FFF72AFFC6
:102520003948006804210143374801603648006893
:1025300010218843344908603348006820218843CB
:102540003149086030480068202101432E4801606D
:10255000AE20FFF75BFF0020FFF758FF1020FFF7CA
:1025600055FF4020FFF752FF8120FFF74FFFCF209C
:10257000FFF74CFFA120FFF749FFC820FFF746FFF8
:10258000A620FFF743FFA820FFF740FF3F20FFF7FB
:102590003DFFD320FFF73AFF0020FFF737FFD5209C
:1025A000FFF734FF8020FFF731FFD920FFF72EFF20
:1025B000F120FFF72BFFDA20FFF728FF1220FFF7AB
:1025C00025FFDB20FFF722FF4020FFF71FFF202021
:1025D000FFF71CFF0220FFF719FF8D20FFF716FF02
:1025E0001420FFF713FFA420FFF710FFA620FFF72A
:1025F0000DFFAF20FFF70AFF0020FFF750FF00217B
:102600000020FFF734FF01BD00F10F40F4B582B0A8
:1026100004000E0000206946087000250027684667
:102620006946097A20390170E4B2792C02DB002076
:102630000400761C3100C9B22000C0B2FFF717FFBA
:1026400000200500EDB2082D0BDA9E486946097896
:1026500010225143EDB24919405CFFF7A6FE6D1CF4
:10266000F0E73100491CC9B22000C0B2FFF7FFFEFD
:1026700000200500EDB2082D0CDA92486946097871
:1026800010225143EDB249194018007AFFF78DFE30
:102690006D1CEFE708347F1CF7BDF4B582B0040071
:1026A0000F00002069460870002500260298F6B247
:1026B000805D002825D068460299F6B2895D2039F0
:1026C0000170E4B27F2C02DB002004007F1C390083
:1026D000C9B22000C0B2FFF7CAFE00200500EDB26B
:1026E000062D0BDA764869460978062251434018D0
:1026F000EDB2405DFFF759FE6D1CF0E7A41D761C9E
:10270000D4E7F7BDF4B582B004000E00002069469E
:102710000870002500270298FFB2C05D00283ED057
:1027200068460299FFB2C95D20390170E4B2792C84
:1027300002DB00200400761C3100C9B22000C0B2C8
:10274000FFF795FE00200500EDB2082D0BDA5D487D
:102750006946097810225143EDB24919405CFFF7F0
:1027600024FE6D1CF0E73100491CC9B22000C0B244
:10277000FFF77DFE00200500EDB2082D0CDA514870
:102780006946097810225143EDB249194018007A80
:10279000FFF70BFE6D1CEFE708347F1CBBE7F7BDAE
:1027A000F5B581B00F000024002601250298F6B28D
:1027B000805D002800D182E0002004000120050097
:1027C0004148E4B2005D802818DB3F48E4B2005D78
:1027D0000299F6B2895D88420ED13B48E4B20019F5
:1027E00040780299F6B289194978884204D1E4B256
:1027F0000E206043050001E0A41CE1E76846007973
:10280000772803DB0020694608717F1C3900C9B2B4
:1028100068460079FFF72BFEADB2012D26D03900B6
:10282000C9B268460079FFF722FE00200400E4B236
:102830000E2C07DA2548ADB2405DFFF7B6FD6D1CE2
:10284000641CF4E73900491CC9B268460079FFF7F7
:102850000EFE00200400E4B20E2C29DA1B48ADB2B3
:10286000405DFFF7A2FD6D1C641CF4E7761C390087
:10287000C9B268460079FFF7FAFD00200400E4B20F
:10288000102C04DA0020FFF790FD641CF7E73900F4
:10289000491CC9B268460079FFF7E9FD0020040031
:1028A000E4B2102C04DA0020FFF77FFD641CF7E788
:1028B0006846694609790E310171B61C76E7F7BDA5
:1028C000A8420000502B0000744A0000D0440000D1
:1028D000FEB504000D00160036B2002E0AD566A221
:1028E0002900C9B22000C0B2FFF70CFF36B2704217
:1028F000070007E061A22900C9B22000C0B2FFF7BB
:1029000001FF3700BFB238005D49FEF705FD80B218
:102910000A21FEF701FD68460171BFB23800FA21B5
:102920008900FEF7F9FC80B20A21FEF7F5FC684643
:102930004171BFB238006421FEF7EEFC80B20A217B
:10294000FEF7EAFC68468171BFB238000A21FEF743
:10295000E3FC80B20A21FEF7DFFC6846C1716846DD
:102960000090BFB238000A21FEF7D6FC0098017231
:102970006846007900280BD0684602793032D2B21E
:102980002900C9B220000830C0B2FFF73FFE07E0BF
:102990003CA22900C9B220000830C0B2FFF7B2FE45
:1029A00068464079002803D16846007900280BD09A
:1029B000684642793032D2B22900C9B220001030C4
:1029C000C0B2FFF723FE07E02EA22900C9B2200003
:1029D0001030C0B2FFF761FE68464079002807D189
:1029E00068460079002803D16846807900280BD01A
:1029F000684682793032D2B22900C9B2200018303C
:102A0000C0B2FFF703FE07E01EA22900C9B22000F2
:102A10001830C0B2FFF776FE6846407900280BD127
:102A200068460079002807D168468079002803D1DC
:102A30006846C07900280BD06846C2793032D2B2DD
:102A40002900C9B220002030C0B2FFF7DFFD07E047
:102A50000CA22900C9B220002030C0B2FFF752FEFC
:102A60006846027A3032D2B22900C9B2200028303A
:102A7000C0B2FFF7CBFDF7BD2D0000002B0000001A
:102A8000102700002000000070B504000D001600A3
:102A90002D48E4B221004911042251434058E4B2C8
:102AA000E106C90E04225143802252004250EDB289
:102AB000012D1BD12548E4B22100491104225143C4
:102AC00040582249E4B22200521104235A43895843
:102AD00049690122E306DB0E9A400A434261310054
:102AE000C9B22000C0B200F017F814E01748E4B2F1
:102AF000210049110422514340581449E4B22200F4
:102B0000521104235A43895849690122E306DB0E16
:102B10009A409143416170BD30B40C4AC0B2030089
:102B20005B1104246343D25813680122C406E40EE7
:102B3000A2401A43054BC0B20400641104256C4343
:102B40001B591A6030BC7047C4F0FF1FD8F0FF1F3C
:102B50000000000000000000000000000000000075
:102B6000000000F80000000000000033300000000A
:102B700000100C06100C0600000000000000000011
:102B800040C07840C0784000043F04043F04040083
:102B9000007088FC08300000001820FF211E000093
:102BA000F008F000E018000000211C031E211E00A8
:102BB00000F00888700000001E212324192721102E
:102BC00010160E00000000000000000000000000D1
:102BD000000000E018040200000000071820400078
:102BE00000020418E0000000004020180700000068
:102BF000404080F0804040000202010F01020200CC
:102C0000000000F0000000000101011F01010100AF
:102C1000000000000000000080B070000000000014
:102C2000000000000000000000010101010101019D
:102C30000000000000000000003030000000000034
:102C40000000000080601804006018060100000009
:102C500000E010080810E000000F102020100F0006
:102C6000001010F8000000000020203F202000008D
:102C700000700808088870000030282422213000E5
:102C800000300888884830000018202020110E00ED
:102C90000000C02010F8000000070424243F240096
:102CA00000F80888880808000019212020110E006B
:102CB00000E0108888180000000F112020110E007D
:102CC00000380808C83808000000003F0000000075
:102CD0000070880808887000001C222121221C0036
:102CE00000E010080810E0000000312222110F005F
:102CF000000000C0C00000000000003030000000F4
:102D00000000008000000000000080600000000063
:102D1000000080402010080000010204081020007C
:102D200040404040404040000404040404040400C7
:102D3000000810204080000000201008040201005C
:102D4000007048080808F00000000030360100005C
:102D5000C030C828E810E0000718272423140B000F
:102D60000000C038E0000000203C23020227382089
:102D700008F8888888700000203F202020110E006D
:102D8000C030080808083800071820202010080064
:102D900008F808080810E000203F202020100F004D
:102DA00008F88888E8081000203F20202320180019
:102DB00008F88888E8081000203F20000300000081
:102DC000C03008080838000007182020221E020022
:102DD00008F808000008F808203F210101213F20E1
:102DE000000808F8080800000020203F202000000C
:102DF00000000808F8080800C08080807F000000FC
:102E000008F888C028180800203F20012638200034
:102E100008F8080000000000203F2020202030009B
:102E200008F8F800F8F80800203F003F003F2000B5
:102E300008F830C00008F808203F200007183F00BD
:102E4000E01008080810E0000F10202020100F00EC
:102E500008F808080808F000203F210101010000DF
:102E6000E01008080810E0000F18242438504F0024
:102E700008F8888888887000203F2000030C3020E4
:102E800000708808080838000038202121221C0022
:102E9000180808F8080818000000203F200000006B
:102EA00008F808000008F808001F202020201F0054
:102EB0000878880000C83808000007380E010000B4
:102EC000F80800F80008F800033C0700073C03007E
:102ED000081868808068180820302C03032C3020E4
:102EE0000838C800C83808000000203F2000000053
:102EF00010080808C83808002038262120201800AB
:102F0000000000FE020202000000007F404040007E
:102F1000000C30C000000000000000010638C000B6
:102F200000020202FE000000004040407F0000005E
:102F30000000040202020400000000000000000083
:102F40000000000000000000808080808080808081
:102F50000002020400000000000000000000000069
:102F600000008080808000000019242222223F205F
:102F700008F8008080000000003F112020110E00A2
:102F80000000008080800000000E11202020110031
:102F9000000000808088F800000E112020103F20E3
:102FA0000000808080800000001F22222222130067
:102FB000008080F0888888180020203F20200000B2
:102FC0000000808080808000006B94949493600067
:102FD00008F8008080800000203F210000203F2072
:102FE00000809898000000000020203F2020000072
:102FF000000000809898000000C08080807F000062
:1030000008F8000080808000203F24022D3020003E
:10301000000808F8000000000020203F20200000E9
:103020008080808080808000203F20003F20003F03
:103030008080008080800000203F210000203F2011
:103040000000808080800000001F202020201F00C2
:10305000808000808000000080FFA12020110E00F1
:103060000000008080808000000E112020A0FF80E2
:10307000808080008080800020203F21200001008F
:1030800000008080808080000033242424241900E4
:10309000008080E0808000000000001F20200000F1
:1030A0008080000000808000001F202020103F2032
:1030B000808080000080808000010E3008060100C2
:1030C00080800080008080800F300C030C300F0067
:1030D00000808000808080000020312E0E31200092
:1030E000808080000080808080818E7018060100C2
:1030F00000808080808080000021302C22213000E0
:1031000000000000807C020200000000003F404000
:1031100000000000FF00000000000000FF000000B1
:103120000002027C800000000040403F00000000E0
:10313000000601010202040400000000000000007B
:1031400030B504000D00ADB2280080214900FEF723
:10315000E3F8BD49E4B2022262438854ADB22800CC
:1031600080214900FEF7D8F8B748E4B20222624352
:103170008018417030BD38B50025FB21002000F0DB
:1031800052FA6D21002000F04EFA2521002000F0B7
:103190004AFA6D1F6D35253500200400AB480078D4
:1031A000E4B284420BD2A848E4B2015D002000F0F2
:1031B0003AFAA548E4B2005D2D18641CEEE7290038
:1031C000C9B2002000F02FFA31BD0000F8B572B688
:1031D000002000F011FA9E4908719D48006864289B
:1031E00000DBF4E09A4800799949994A12688918F5
:1031F000887197480068401C9549086094480068A9
:10320000292800DA93E09248914909684018233848
:103210000078FF2800D08AE08D488D490968401861
:1032200022380078552800D081E08948884909680B
:10323000401821380078AA2879D18548844909683E
:10324000401820380078102871D10020814908707A
:103250007F480068293805002C007D480068401E22
:10326000844209DA7B48007879490919897940183C
:1032700078490870641CF0E7764800787449744A0D
:1032800012688918497988424DD100200400092C20
:1032900047DA6F480421614369184018807A802119
:1032A000490448436A4904226243AA188918C97A22
:1032B0008022520251434018654904226243AA18F1
:1032C0008918097B8022520051434018604904222A
:1032D0006243AA188918497B40180600802000061E
:1032E000864203D35C48801B070000E037003800AB
:1032F000FEF76CF8594A08236343D21803C2083A10
:10330000564808216143401803C80022544BFEF779
:1033100037F9524A08236343D21803C2083A641C9F
:10332000B5E700F059F800204949086052E04848E4
:10333000006807284EDB4648454909684018401E8A
:103340000078FF2846D1424841490968405C552829
:1033500040D13F483E49096840184078AA2839D1F1
:103360003B483B49096840188078772832D10020D3
:103370003849087036480068C01F05002C003448E2
:103380000068401E844209DA324800783049091941
:10339000897940182F490870641CF0E72D4800789F
:1033A0002B492B4A12688918497988420BD1284841
:1033B00027490968401801792548254A126880186C
:1033C000C07800F00EF800202149086002E00020DB
:1033D0001F49086062B6F1BD80B5022000F05EF9B9
:1033E00001BD38B505000C00E4B22000062816D057
:1033F000072815D0082814D0092813D00A2812D07D
:103400000B2811D00C2810D064280FD065280ED0BE
:10341000662810D067280FD068280ED010E00FE083
:103420000EE00DE00CE00BE00AE009E008E000200F
:103430000C49087004E003E002E00120094908702B
:10344000022000F02BF931BDE8F2FF1FC1F0FF1F91
:1034500000F3FF1F6BF3FF1FFFFFFF7F38F2FF1F1B
:103460000000F040BAF3FF1FF0B583B006000F0074
:10347000784C7948F6B2042171434018001F006867
:103480000500F6B2002E5CD1754800688021C900A5
:10349000014373480160C02189006620FEF786FA67
:1034A000C02189006720FEF781FA6C480068C021BE
:1034B0000905014369480160E078F3210140E170AA
:1034C000FA2000016946888068468188FA208000D9
:1034D000484310217943FDF722FF6946088068467A
:1034E0002178E0220A40827068468078694609881F
:1034F00089B2090AC906C90E0143217068460088CD
:1035000060700F205749087000205749087000204C
:103510005649087000205649087000205549087027
:10352000554800781F2101435348017053480078E3
:10353000C021014351480170E0780C210143E17042
:1035400059E0F6B23000012802D0022812D023E060
:103550004348006880210901014341480160C021BE
:1035600089004320FEF722FAC02189004420FEF79B
:103570001DFA11E03A4800688021490101433848AA
:103580000160C02189006420FEF710FAC021890083
:103590006520FEF70BFAFFE7E878F3210140E970B8
:1035A0000020A87036480068FA218900484310219D
:1035B0007943FDF7B4FE6946088068462978E02221
:1035C0000A408270684680786946098889B2090A8B
:1035D000C906C90E0143297068460088687000203A
:1035E000A8700020A8711F20287100206871E87859
:1035F0000C210143E970F7BD00B50100154A1648DA
:10360000C9B204234B43C018001F0368C9B2002984
:1036100004D110798006FCD5D07903E018798006B2
:10362000FCD5D87900BD10B50A4A0B4BC0B20424B2
:1036300044431B191B1F1B68C0B2002804D1147916
:103640002406FCD5D17103E01C792406FCD5D97180
:1036500010BD000000A00640904B00000480044014
:10366000348004400AA0064002A0064006A006409E
:1036700008A0064009A0064004A0064005A0064098
:10368000B4F3FF1F80B5002201216320FFF7FCF98E
:10369000002201218020FFF7F7F901BD0021034A34
:1036A0001180014908707047C0F0FF1FB8F3FF1F79
:1036B00010B500240120AE4908700120AC494870C3
:1036C0000320AB49887000F0AAF8E4B2002C03D1C3
:1036D00000F0A0F90400F8E7E4B2042C12D1A448E9
:1036E000007804280ED0A2480078401EA049087037
:1036F0009F480078002802D101209D4908700120D0
:103700009B494870E4B2052C1CD1994800780528E3
:1037100000D183E096480078042813D094480078BC
:10372000401C9349087092480078032800D162B683
:103730008F480078062802DB05208D49087001209B
:103740008B494870E4B2012C13D1894800780228D3
:1037500003D08748007804280BD185484078401E64
:103760008349487082484078002802D1012080496E
:103770004870E4B2032C1BD17D480078022807D0A2
:103780007B480078042803D07948007805280FD1B9
:1037900077480078052841D075484078401C744926
:1037A000487073484078052802DB0420704948704F
:1037B000E4B2022C2FD16E480078022815D16C4853
:1037C0004078012806D010D3032809D005D3042857
:1037D00009D00AE0FDF76AFA07E0FDF71BF904E0FB
:1037E00000F0B0F901E000F0EEF96148007805283A
:1037F00005D101205F490870FEF771FE0EE05C48BC
:103800000078042807D15A480078401C58490870AD
:103810000120574948700020040054E710BD80B5CE
:10382000FEF75DFE52480078012807D015D3032823
:103830000AD006D305280DD009D30EE000F00EF80B
:103840000BE000F017F808E000F052F805E000F097
:1038500081F802E000F085F8FFE701BD80B5464A37
:1038600000211420FEF79CFF444A04212820FEF783
:1038700097FF01BD80B53E484078012805D0404AF9
:1038800000210020FEF73EFF04E03D4A00210F200A
:10389000FEF738FF36484078022805D0394A022121
:1038A0000020FEF72FFF04E0364A02210F20FEF72A
:1038B00029FF2F484078032805D0334A04210020EF
:1038C000FEF720FF04E0304A04210F20FEF71AFF24
:1038D00027484078042805D02C4A06210020FEF70E
:1038E00011FF04E0294A06210A20FEF70BFF01BD63
:1038F00080B527A200210020FEF704FF2548026EB4
:1039000012B200212820FEF7E3FF23A202210020AB
:10391000FEF7F8FE1F48C26B12B202213220FEF7FA
:10392000D7FF1EA204210020FEF7ECFE1948026C0E
:1039300012B204213220FEF7CBFF19A2062100208B
:10394000FEF7E0FE1348426C12B206213220FEF769
:10395000BFFF01BD80B513A200210020FEF7D2FEFB
:1039600001BD80B5104A04210620FEF7CBFE01BD43
:103970006CF3FF1F30F2FF1F184B0000884B000054
:10398000284B0000384B0000584B0000644B0000EF
:10399000504F530080F2FF1F4D2D4C004D2D520013
:1039A000522D4C0041490000704B000080B50122AF
:1039B00000214720FFF768F8012200214820FFF787
:1039C00063F8012200214920FFF75EF8012200215F
:1039D0004A20FFF759F8012200214B20FFF754F845
:1039E000FF20001D53498968C861FF20001D51490F
:1039F00089680862FF20001D4E4989684862FF20DF
:103A0000001D4C4989688862FF20001D494989686A
:103A1000C86201BD80B54848006801000906C90FA9
:103A2000002914D1454800680821884343490860AB
:103A300043480168322041430120FDF755FF3F48CC
:103A40000068082101433D480160012070E03A48C8
:103A500000680100C905C90F002914D13748006862
:103A600008218843354908603548016832204143C0
:103A70000120FDF739FF31480068082101432F4834
:103A80000160042054E02C48006801008905C90F3A
:103A9000002914D129480068082188432749086073
:103AA00027480168322041430120FDF71DFF2348CC
:103AB00000680821014321480160032038E01E48C6
:103AC000006801004905C90F002914D11B4800688E
:103AD0000821884319490860194801683220414388
:103AE0000120FDF701FF1548006808210143134834
:103AF000016002201CE01048006801000905C90FA0
:103B0000002914D10D480068082188430B4908603A
:103B10000B480168322041430120FDF7E5FE0748CC
:103B200000680821014305480160052000E00020ED
:103B300002BD0000C4F0FF1F90F00F40C0F00F4026
:103B4000B4F3FF1F80B5C820400200F0DEF834480F
:103B50000168FA20800041430120FDF7C5FE31488D
:103B60004821405E304908602E484A21405E2E4977
:103B700048602C484C21405E2B49886029484E21E2
:103B8000405E2949C86027485021405E26490861A7
:103B900024485221405E244948612248C068224995
:103BA0008861204800692049C8611E4840691E4953
:103BB000086228221C49C820400200F0BDF80020FD
:103BC000FFF76CFD01BD80B514221749C8204002E3
:103BD00000F000F914480068144908801248406851
:103BE0001349088010488068124908800E48C06850
:103BF000114908800C480069104908800A4840694A
:103C00000F490880084880690649C8600648C069AD
:103C1000044908610448006A0249486101BD000086
:103C2000B4F3FF1F80F2FF1F84F3FF1FC8F2FF1FD2
:103C3000CAF2FF1FCCF2FF1FCEF2FF1FD0F2FF1F10
:103C4000D2F2FF1F00B55A480078800606D55848C2
:103C50000078202101435648017014E05448007850
:103C6000C00606D552480078102101435048017023
:103C700009E04F480078400605D54D4800784021BE
:103C800001434B48017000BD00B5002072B64849A1
:103C9000097880220A4346490A704549097809068D
:103CA000FBD543490978890609D54149097820227D
:103CB0000A433F490A7001000120084322E03C49C1
:103CC0000978C90609D53A49097810220A433849C2
:103CD0000A7001000220084314E0354909784906BA
:103CE00009D53349097840220A4331490A70010055
:103CF0000820084306E02E490978C90702D50100CB
:103D00000420084362B6C0B200BD10B504002848C4
:103D100000780006FBD50920264908702000000C19
:103D2000254908702000000A244908702000244911
:103D30000870FFF7A9FF10BDF4B505000C000027BF
:103D40000098002801D1112030E00098401E800822
:103D5000401C0600164800780006FBD5002E23D034
:103D6000FFB2002F20D10620124908702800000C55
:103D7000114908702800000A1049087028001049ED
:103D80000870E0780F490870A0780F4908706078D3
:103D90000E49087020780E490870FFF775FF07007C
:103DA000761E241D2D1DD9E73800C0B2F2BD0000DB
:103DB00000000240070002400600024005000240E9
:103DC000040002400B0002400A00024009000240C9
:103DD0000800024070B506000C0015002800451EC2
:103DE00080B2002806D0ADB22A0031002000FEF7D4
:103DF00099FAF3E7012070BDAA20400052490880DB
:103E0000AA2040007C490880FF205A307B49088066
:103E10007B487C4908807C487C4908807C487D49F7
:103E200008807D487F49C8607C487E4908617C489D
:103E30007C49486100207D497B4A03C2083A002042
:103E40007A497B4A03C2083A00207B49794A03C277
:103E5000083A00207849794A03C2083A78A003C892
:103E6000794A03C2083A00200021784A03C2083A7E
:103E700077A003C8784A03C2083A9B207749088094
:103E8000002080490870704780B56648006EFDF7D5
:103E90009DFA734A03C2083A6B480CC80838704848
:103EA00003C8FDF7ABFA704A03C2083A6C4803C86E
:103EB0006C4A0CCAFDF766FC674A0CCAFDF79EFA0D
:103EC000694A0CCAFDF7FBFB674A03C2083A64481B
:103ED00003C8644A03C2083A634803C8684A03C275
:103EE000083A674803C80022604B00F0D9F804D8AC
:103EF00000205E49624A03C2083A614803C85CA2D6
:103F00000CCA00F0E6F804D200205B495C4A03C208
:103F1000083A5A48D421405EFDF758FA584A0CCA6C
:103F2000FDF730FCFDF7A2FB544988805348D421AB
:103F3000405EFDF74BFA524A0CCAFDF7C0FBFDF795
:103F400095FB5549088001BDC8F2FF1F80B54D485B
:103F50000078002843D0FFF797FF00F01AF9474A8E
:103F6000106C516C0122484B00F09AF804D80020E4
:103F70004549484A03C2083A404A106C516C002235
:103F8000002300F0A6F804D200200021414A03C219
:103F9000083A424803C801223B4B00F081F804D89C
:103FA000002039493D4A03C2083A3C4803C8002270
:103FB000002300F08EF804D200200021374A03C20B
:103FC000083A1848006E3149884204DA1548006EF4
:103FD0002F4988420DDA0320FFF760FB09E000203B
:103FE00000212C4A03C2083A002000212B4A03C2B8
:103FF000083A00F087F801BDCAF2FF1FCCF2FF1F9C
:10400000B6FEFFFFCEF2FF1FA7FEFFFFD0F2FF1F9D
:10401000B1FEFFFFD2F2FF1F2BD400008E9B0000E9
:1040200023F2000080F2FF1F00F1FF1F0000E83FB5
:1040300068F1FF1F08F1FF1F0000FC3F70F1FF1F38
:10404000333333333333E33FD0F1FF1FD8F1FF1F56
:10405000FCA9F1D24D62403FE0F1FF1FCCF1FF1F00
:1040600010F2FF1F18F2FF1F00F2FF1F00805140E7
:10407000FFFFFFFFFF7F51C0008051C0F8F0FF1F1E
:1040800008F2FF1F30F2FF1F00408F40DC050000E8
:1040900025FAFFFF38F1FF1F64F1FF1FA0F1FF1F9A
:1040A00030B4012464054D00EC420BD85D00EC42B5
:1040B00008D80C001C4364000443144304D28B4210
:1040C00000D1824230BC7047FCD09942FAD1904274
:1040D000F8E730B4012464054D00EC420BD85D00D4
:1040E000EC4208D80C001C4364000443144304D27F
:1040F000994200D1904230BC7047FCD08B42FAD13B
:104100008242F8E780B55C4A106C516C01225B4B2F
:10411000FFF7C6FF04D800205849594A03C2083A9D
:10412000584803C80122554BFFF7BAFF04D80020B6
:104130005249544A03C2083A4F4A106C516C00224B
:104140000023FFF7C6FF04D2002000214C4A03C21F
:10415000083A4C4803C800220023FFF7BAFF04D2F4
:1041600000200021474A03C2083A434A106C516CB0
:10417000FDF78EFA020000210020FCF724FF4148E1
:1041800003C8FDF785FA020003210020FCF71BFF9E
:1041900001BD10B5FCF73CF937480421405E3649B3
:1041A0000968401AFDF712F9374A03C2083A324843
:1041B0006C21405E3049896E401AFDF707F9334A99
:1041C00003C2083A2C4A906CD16C2B4C226D636D63
:1041D000FDF7D8FA2E4A0CCAFDF710F92D4A03C292
:1041E000083A2D480CC80838234CA06CE16CFDF748
:1041F00005F9284A0CCAFDF762FA264A03C2083AB2
:10420000224803C8254A0CCAFDF7BCFA1A4C226F93
:10421000636FFDF7F3F8224A03C2083A1648826F2B
:10422000C36F1A4803C8FDF7E9F81D4A0CCAFDF729
:1042300046FA1B4A03C2083A0F4A906CD16C194ADD
:1042400003C2083A114803C8144A03C2083A0A488C
:10425000026C436C0F4803C8FDF731FA084A03C2E9
:10426000083A08480CC808380D4803C8FDF727FA73
:10427000044A03C2083A10BDF8F0FF1F00408F4007
:1042800038F1FF1FA0F1FF1F40F1FF1FA8F1FF1F32
:1042900000F1FF1F30F1FF1F08F1FF1FB0F1FF1FFA
:1042A00098F1FF1F48F1FF1F000000000000000010
:1042B000002F000000000700070000147F147F1487
:1042C00000242A7F2A12006264081323003649550D
:1042D000225000000503000000001C2241000000E5
:1042E00041221C000014083E08140008083E08087B
:1042F000000000A0600000080808080800006060D6
:104300000000002010080402003E5149453E000014
:10431000427F4000004261514946002141454B31F6
:10432000001814127F10002745454539003C4A49C2
:104330004930000171090503003649494936000634
:104340004949291E0000363600000000563600009C
:104350000008142241000014141414140000412217
:10436000140800020151090600324959513E007CEF
:104370001211127C007F49494936003E41414122D9
:10438000007F4141221C007F49494941007F0909C2
:104390000901003E4149497A007F0808087F000072
:1043A000417F4100002040413F01007F081422412D
:1043B000007F40404040007F020C027F007F0408E5
:1043C000107F003E4141413E007F09090906003E41
:1043D0004151215E007F091929460046494949316A
:1043E0000001017F0101003F4040403F001F20408D
:1043F000201F003F4038403F00631408146300074B
:104400000870080700615149454300007F414100A1
:1044100000552A552A55000041417F000004020141
:10442000020400404040404000000102040000201F
:1044300054545478007F484444380038444444205D
:1044400000384444487F00385454541800087E090A
:1044500001020018A4A4A47C007F080404780000D2
:10446000447D4000004080847D00007F102844008F
:104470000000417F4000007C04180478007C0804A0
:10448000047800384444443800FC242424180018DC
:10449000242418FC007C08040408004854545420C8
:1044A00000043F444020003C4040207C001C204051
:1044B000201C003C4030403C004428102844001C94
:1044C000A0A0A07C004464544C441414141414148C
:1044D000404141FF4141414141FF414140002010E5
:1044E0000C0300000000003F000000004444FC44B6
:1044F00044028242F20E4282020008080F040401C4
:1045000000003F000000030000F902202222A26206
:10451000FA222202FE00003F0004020108080F00F8
:1045200020203F004444FC4444028242F20E428276
:10453000020008080F04040100003F00000003000F
:1045400000C05F555555555555555F400000201F1B
:10455000043D2525050D15152D24240000FF010916
:104560001121C1310D01FF000000201F00080403CC
:1045700000030C000F103C0000FE0232CE00008051
:104580007F8000000000003F040423100C030003A0
:104590000C10200010921212F2929210FF101116BD
:1045A0001000101F10100F080808010608103C002A
:1045B0002042048800027E820202C23E00000018EF
:1045C0000601201008050205081020004444FC44A0
:1045D00000FE9292FE9292FE00000808070420243A
:1045E00024243F2424242000000202020202FE02AE
:1045F0000202020200001010101010101F10101004
:10460000101010001010101010D03FD0101010100B
:1046100010002020100806010001060810202000CC
:104620003808494A48494A48CC4A09083800020231
:10463000020222223F0302020202020000B52F48BA
:104640000068F821890101432C4801602C4800785A
:10465000402101432A4801702A4800784007FBD5D1
:1046600028480078C006FBD527480078FD21014086
:104670002548017025480078BF210140234801707A
:1046800021480078022101431F4801701E4800782C
:10469000012101431C48017019480078022101439F
:1046A0001748017000201A490870C020800219497B
:1046B0000860194800681949014017480160184806
:1046C0000068C02109030143154801600420154911
:1046D000086014480068FA218900484312490860BC
:1046E000114800680B490968090C4907490F491C22
:1046F000FCF715FE0D49086000BD00BF388004407E
:104700000040064006400640014006400540064085
:10471000084006404480044004800440FFFFFEFF40
:1047200000700440B0F3FF1FACF3FF1FB4F3FF1F92
:1047300080B5FEF7A7FF2E480068012101432C48F1
:1047400001602C480068082188432A49086001223A
:1047500001219820FEF798F9012201219920FEF706
:1047600093F9FCF7F5FCFCF75BFD9621890100202D
:10477000FEF77AFE0023204A00210020FCF780FB90
:1047800000231D4A01210020FCF77AFB00231A4A6E
:1047900002210020FCF774FB0023174A03210020AC
:1047A000FCF76EFB002200210120FCF757FC0022E1
:1047B00001210220FCF752FCFFF744FAFFF7F6F85C
:1047C00000211620FDF7CCFA0C4801681420414363
:1047D0000020FDF74FF8064800680121884304498E
:1047E000086004480068082101430248016001BDD7
:1047F00000F10F40C0F00F4088130000B4F3FF1F1A
:10480000F0B583B02248234988420DD0002004002F
:10481000C02C09D21F480421614340581C4904227E
:1048200062438850641CF3E71948FDF777FA1A4889
:1048300007001A4805001A4801900198401B04001F
:104840002000441E002804D0287838706D1C7F1C7E
:10485000F6E714480600144800900098801B0400F6
:104860002000441E002803D000203070761CF7E79B
:104870000E480F490F4A531A1C0023005C1E002BE0
:1048800004D00B780370491C401CF6E7F7BD00BF4D
:1048900000F0FF1F00000000C0F0FF1FA44900004F
:1048A000E0490000F8F0FF1FBCF3FF1FBCF3FF1F3F
:1048B000984B0000984B00000A4552522120496E47
:1048C00076616C6964207072696F726974792076A0
:1048D000616C75652070617373656420746F2070FE
:1048E00072696F72697479206972712066756E637E
:1048F00074696F6E210A00000A4552522120496EE8
:1049000076616C6964204952512076616C7565202E
:1049100070617373656420746F207072696F72695F
:104920007479206972712066756E6374696F6E2187
:104930000A0000000A4552522120496E76616C69D6
:1049400064204952512076616C75652070617373E3
:10495000656420746F20656E61626C652069727198
:104960002066756E6374696F6E210A0080B572B639
:10497000FFF7DEFEFFF740FAFDF7CFFDFEF798FEEA
:10498000FFF748F8022802D001200549087062B6F6
:1049900064210120FEF7D4FBFEF7EDFBF8E700BF32
:1049A00030F2FF1F041600000090044000A00440F5
:1049B00000B0044000C0044000D0044000F00F40AC
:1049C00040F00F4080F00F40C0F00F4000F10F406A
:1049D000008003400090034000A00340000000005E
:1049E0000A2A2A2A2A64656661756C745F69737283
:1049F00020656E7465726564206F6E2076656374E1
:104A00006F722025642A2A2A2A2A0D0A0A00000029
:104A100080B5084800680121014306480160064846
:104A20000088401C04490880FBF706FDFFF78EFA5A
:104A300001BD00BF0C710340B8F3FF1F10B507495B
:104A400079441831064C7C44163404E0081D0A6889
:104A5000891888470100A142F8D110BD0800000064
:104A600014000000DFCBFFFFC4020000F8F0FF1FBE
:104A700000000000BFAABBB7B1D5BBB7B3BFB7E753
:104A8000B6D3CEE4BABAC0EDB9A4B4F3D1A700004E
:104A900080B5002004490860FFF7B2FEFFF7CEFDA5
:104AA000FFF764FFFEE700BF008104400120C0461D
:104AB000002801D0FFF7C2FF0020C046C046FFF724
:104AC00055FF00F000F880B500F002F801BD0000CD
:104AD0000746384600F002F8FBE7000020210903F2
:104AE00026311820ABBEF9E7002000210022002368
:104AF000002400250026002762B6FFF7C9FFFEE765
:104B000080B5034801680348FDF7E3FB01BD0000E1
:104B100004ED00E0E0490000CEE4BABAC0EDB9A46B
:104B2000B4F3D1A70000000053454E534F525F4FDE
:104B3000464653455400000053454E534F525F4381
:104B40004845434B0000000010B504002100C9B2E5
:104B50000020FEF768FD10BD57524954455F464C92
:104B600041534800524541445F464C415348000080
:104B7000535441525421212121210000C046C046F6
:104B8000C046C046FFF792FFB3BFB7E7B6D30000F9
:084B900000B0064000C0064021
:0400000500004B7D2F
:00000001FF
